{
	"contracts/06_inheritance.sol": {
		"ExtraStorage": {
			"abi": [
				{
					"inputs": [
						{
							"internalType": "string",
							"name": "_name",
							"type": "string"
						},
						{
							"internalType": "uint256",
							"name": "_favouriteNumber",
							"type": "uint256"
						}
					],
					"name": "addToPeople",
					"outputs": [],
					"stateMutability": "nonpayable",
					"type": "function"
				},
				{
					"inputs": [
						{
							"internalType": "string",
							"name": "",
							"type": "string"
						}
					],
					"name": "nameTofavouriteNumber",
					"outputs": [
						{
							"internalType": "uint256",
							"name": "",
							"type": "uint256"
						}
					],
					"stateMutability": "view",
					"type": "function"
				},
				{
					"inputs": [
						{
							"internalType": "uint256",
							"name": "",
							"type": "uint256"
						}
					],
					"name": "people",
					"outputs": [
						{
							"internalType": "uint256",
							"name": "favouriteNumber",
							"type": "uint256"
						},
						{
							"internalType": "string",
							"name": "name",
							"type": "string"
						}
					],
					"stateMutability": "view",
					"type": "function"
				},
				{
					"inputs": [],
					"name": "retrieve",
					"outputs": [
						{
							"internalType": "uint256",
							"name": "",
							"type": "uint256"
						}
					],
					"stateMutability": "view",
					"type": "function"
				},
				{
					"inputs": [
						{
							"internalType": "uint256",
							"name": "_favouriteNumber",
							"type": "uint256"
						}
					],
					"name": "store",
					"outputs": [],
					"stateMutability": "nonpayable",
					"type": "function"
				}
			],
			"devdoc": {
				"kind": "dev",
				"methods": {},
				"version": 1
			},
			"evm": {
				"assembly": "    /* \"contracts/06_inheritance.sol\":382:546  contract ExtraStorage is SimpleStorage {... */\n  mstore(0x40, 0x80)\n  callvalue\n  dup1\n  iszero\n  tag_1\n  jumpi\n  0x00\n  dup1\n  revert\ntag_1:\n  pop\n  dataSize(sub_0)\n  dup1\n  dataOffset(sub_0)\n  0x00\n  codecopy\n  0x00\n  return\nstop\n\nsub_0: assembly {\n        /* \"contracts/06_inheritance.sol\":382:546  contract ExtraStorage is SimpleStorage {... */\n      mstore(0x40, 0x80)\n      callvalue\n      dup1\n      iszero\n      tag_1\n      jumpi\n      0x00\n      dup1\n      revert\n    tag_1:\n      pop\n      jumpi(tag_2, lt(calldatasize, 0x04))\n      shr(0xe0, calldataload(0x00))\n      dup1\n      0x2e64cec1\n      eq\n      tag_3\n      jumpi\n      dup1\n      0x3d358625\n      eq\n      tag_4\n      jumpi\n      dup1\n      0x6057361d\n      eq\n      tag_5\n      jumpi\n      dup1\n      0x6483c0ee\n      eq\n      tag_6\n      jumpi\n      dup1\n      0x9e7a13ad\n      eq\n      tag_7\n      jumpi\n    tag_2:\n      0x00\n      dup1\n      revert\n        /* \"contracts/SimpleStorage.sol\":423:513  function retrieve() public view returns(uint256) {... */\n    tag_3:\n      tag_8\n      tag_9\n      jump\t// in\n    tag_8:\n      mload(0x40)\n      tag_10\n      swap2\n      swap1\n      tag_11\n      jump\t// in\n    tag_10:\n      mload(0x40)\n      dup1\n      swap2\n      sub\n      swap1\n      return\n        /* \"contracts/SimpleStorage.sol\":122:177  mapping(string => uint256) public nameTofavouriteNumber */\n    tag_4:\n      tag_12\n      0x04\n      dup1\n      calldatasize\n      sub\n      dup2\n      add\n      swap1\n      tag_13\n      swap2\n      swap1\n      tag_14\n      jump\t// in\n    tag_13:\n      tag_15\n      jump\t// in\n    tag_12:\n      mload(0x40)\n      tag_16\n      swap2\n      swap1\n      tag_11\n      jump\t// in\n    tag_16:\n      mload(0x40)\n      dup1\n      swap2\n      sub\n      swap1\n      return\n        /* \"contracts/06_inheritance.sol\":428:543  function store(uint256 _favouriteNumber) public override  {... */\n    tag_5:\n      tag_17\n      0x04\n      dup1\n      calldatasize\n      sub\n      dup2\n      add\n      swap1\n      tag_18\n      swap2\n      swap1\n      tag_19\n      jump\t// in\n    tag_18:\n      tag_20\n      jump\t// in\n    tag_17:\n      stop\n        /* \"contracts/SimpleStorage.sol\":521:716  function addToPeople(string memory _name, uint256 _favouriteNumber) public {... */\n    tag_6:\n      tag_21\n      0x04\n      dup1\n      calldatasize\n      sub\n      dup2\n      add\n      swap1\n      tag_22\n      swap2\n      swap1\n      tag_23\n      jump\t// in\n    tag_22:\n      tag_24\n      jump\t// in\n    tag_21:\n      stop\n        /* \"contracts/SimpleStorage.sol\":274:296  People[] public people */\n    tag_7:\n      tag_25\n      0x04\n      dup1\n      calldatasize\n      sub\n      dup2\n      add\n      swap1\n      tag_26\n      swap2\n      swap1\n      tag_19\n      jump\t// in\n    tag_26:\n      tag_27\n      jump\t// in\n    tag_25:\n      mload(0x40)\n      tag_28\n      swap3\n      swap2\n      swap1\n      tag_29\n      jump\t// in\n    tag_28:\n      mload(0x40)\n      dup1\n      swap2\n      sub\n      swap1\n      return\n        /* \"contracts/SimpleStorage.sol\":423:513  function retrieve() public view returns(uint256) {... */\n    tag_9:\n        /* \"contracts/SimpleStorage.sol\":463:470  uint256 */\n      0x00\n        /* \"contracts/SimpleStorage.sol\":490:505  favouriteNumber */\n      dup1\n      sload\n        /* \"contracts/SimpleStorage.sol\":483:505  return favouriteNumber */\n      swap1\n      pop\n        /* \"contracts/SimpleStorage.sol\":423:513  function retrieve() public view returns(uint256) {... */\n      swap1\n      jump\t// out\n        /* \"contracts/SimpleStorage.sol\":122:177  mapping(string => uint256) public nameTofavouriteNumber */\n    tag_15:\n      0x01\n      dup2\n      dup1\n      mload\n      0x20\n      dup2\n      add\n      dup3\n      add\n      dup1\n      mload\n      dup5\n      dup3\n      mstore\n      0x20\n      dup4\n      add\n      0x20\n      dup6\n      add\n      keccak256\n      dup2\n      dup4\n      mstore\n      dup1\n      swap6\n      pop\n      pop\n      pop\n      pop\n      pop\n      pop\n      0x00\n      swap2\n      pop\n      swap1\n      pop\n      sload\n      dup2\n      jump\t// out\n        /* \"contracts/06_inheritance.sol\":428:543  function store(uint256 _favouriteNumber) public override  {... */\n    tag_20:\n        /* \"contracts/06_inheritance.sol\":534:535  5 */\n      0x05\n        /* \"contracts/06_inheritance.sol\":515:531  _favouriteNumber */\n      dup2\n        /* \"contracts/06_inheritance.sol\":515:535  _favouriteNumber + 5 */\n      tag_32\n      swap2\n      swap1\n      tag_33\n      jump\t// in\n    tag_32:\n        /* \"contracts/06_inheritance.sol\":497:512  favouriteNumber */\n      0x00\n        /* \"contracts/06_inheritance.sol\":497:535  favouriteNumber = _favouriteNumber + 5 */\n      dup2\n      swap1\n      sstore\n      pop\n        /* \"contracts/06_inheritance.sol\":428:543  function store(uint256 _favouriteNumber) public override  {... */\n      pop\n      jump\t// out\n        /* \"contracts/SimpleStorage.sol\":521:716  function addToPeople(string memory _name, uint256 _favouriteNumber) public {... */\n    tag_24:\n        /* \"contracts/SimpleStorage.sol\":607:613  people */\n      0x02\n        /* \"contracts/SimpleStorage.sol\":619:649  People(favouriteNumber, _name) */\n      mload(0x40)\n      dup1\n      0x40\n      add\n      0x40\n      mstore\n      dup1\n        /* \"contracts/SimpleStorage.sol\":626:641  favouriteNumber */\n      sload(0x00)\n        /* \"contracts/SimpleStorage.sol\":619:649  People(favouriteNumber, _name) */\n      dup2\n      mstore\n      0x20\n      add\n        /* \"contracts/SimpleStorage.sol\":643:648  _name */\n      dup5\n        /* \"contracts/SimpleStorage.sol\":619:649  People(favouriteNumber, _name) */\n      dup2\n      mstore\n      pop\n        /* \"contracts/SimpleStorage.sol\":607:650  people.push(People(favouriteNumber, _name)) */\n      swap1\n      dup1\n      0x01\n      dup2\n      sload\n      add\n      dup1\n      dup3\n      sstore\n      dup1\n      swap2\n      pop\n      pop\n      0x01\n      swap1\n      sub\n      swap1\n      0x00\n      mstore\n      keccak256(0x00, 0x20)\n      swap1\n      0x02\n      mul\n      add\n      0x00\n      swap1\n      swap2\n      swap1\n      swap2\n      swap1\n      swap2\n      pop\n      0x00\n      dup3\n      add\n      mload\n      dup2\n      0x00\n      add\n      sstore\n      0x20\n      dup3\n      add\n      mload\n      dup2\n      0x01\n      add\n      swap1\n      dup2\n      tag_36\n      swap2\n      swap1\n      tag_37\n      jump\t// in\n    tag_36:\n      pop\n      pop\n      pop\n        /* \"contracts/SimpleStorage.sol\":692:708  _favouriteNumber */\n      dup1\n        /* \"contracts/SimpleStorage.sol\":661:682  nameTofavouriteNumber */\n      0x01\n        /* \"contracts/SimpleStorage.sol\":683:688  _name */\n      dup4\n        /* \"contracts/SimpleStorage.sol\":661:689  nameTofavouriteNumber[_name] */\n      mload(0x40)\n      tag_38\n      swap2\n      swap1\n      tag_39\n      jump\t// in\n    tag_38:\n      swap1\n      dup2\n      mstore\n      0x20\n      add\n      mload(0x40)\n      dup1\n      swap2\n      sub\n      swap1\n      keccak256\n        /* \"contracts/SimpleStorage.sol\":661:708  nameTofavouriteNumber[_name] = _favouriteNumber */\n      dup2\n      swap1\n      sstore\n      pop\n        /* \"contracts/SimpleStorage.sol\":521:716  function addToPeople(string memory _name, uint256 _favouriteNumber) public {... */\n      pop\n      pop\n      jump\t// out\n        /* \"contracts/SimpleStorage.sol\":274:296  People[] public people */\n    tag_27:\n      0x02\n      dup2\n      dup2\n      sload\n      dup2\n      lt\n      tag_40\n      jumpi\n      0x00\n      dup1\n      revert\n    tag_40:\n      swap1\n      0x00\n      mstore\n      keccak256(0x00, 0x20)\n      swap1\n      0x02\n      mul\n      add\n      0x00\n      swap2\n      pop\n      swap1\n      pop\n      dup1\n      0x00\n      add\n      sload\n      swap1\n      dup1\n      0x01\n      add\n      dup1\n      sload\n      tag_42\n      swap1\n      tag_43\n      jump\t// in\n    tag_42:\n      dup1\n      0x1f\n      add\n      0x20\n      dup1\n      swap2\n      div\n      mul\n      0x20\n      add\n      mload(0x40)\n      swap1\n      dup2\n      add\n      0x40\n      mstore\n      dup1\n      swap3\n      swap2\n      swap1\n      dup2\n      dup2\n      mstore\n      0x20\n      add\n      dup3\n      dup1\n      sload\n      tag_44\n      swap1\n      tag_43\n      jump\t// in\n    tag_44:\n      dup1\n      iszero\n      tag_45\n      jumpi\n      dup1\n      0x1f\n      lt\n      tag_46\n      jumpi\n      0x0100\n      dup1\n      dup4\n      sload\n      div\n      mul\n      dup4\n      mstore\n      swap2\n      0x20\n      add\n      swap2\n      jump(tag_45)\n    tag_46:\n      dup3\n      add\n      swap2\n      swap1\n      0x00\n      mstore\n      keccak256(0x00, 0x20)\n      swap1\n    tag_47:\n      dup2\n      sload\n      dup2\n      mstore\n      swap1\n      0x01\n      add\n      swap1\n      0x20\n      add\n      dup1\n      dup4\n      gt\n      tag_47\n      jumpi\n      dup3\n      swap1\n      sub\n      0x1f\n      and\n      dup3\n      add\n      swap2\n    tag_45:\n      pop\n      pop\n      pop\n      pop\n      pop\n      swap1\n      pop\n      dup3\n      jump\t// out\n        /* \"#utility.yul\":7:84   */\n    tag_48:\n        /* \"#utility.yul\":44:51   */\n      0x00\n        /* \"#utility.yul\":73:78   */\n      dup2\n        /* \"#utility.yul\":62:78   */\n      swap1\n      pop\n        /* \"#utility.yul\":7:84   */\n      swap2\n      swap1\n      pop\n      jump\t// out\n        /* \"#utility.yul\":90:208   */\n    tag_49:\n        /* \"#utility.yul\":177:201   */\n      tag_91\n        /* \"#utility.yul\":195:200   */\n      dup2\n        /* \"#utility.yul\":177:201   */\n      tag_48\n      jump\t// in\n    tag_91:\n        /* \"#utility.yul\":172:175   */\n      dup3\n        /* \"#utility.yul\":165:202   */\n      mstore\n        /* \"#utility.yul\":90:208   */\n      pop\n      pop\n      jump\t// out\n        /* \"#utility.yul\":214:436   */\n    tag_11:\n        /* \"#utility.yul\":307:311   */\n      0x00\n        /* \"#utility.yul\":345:347   */\n      0x20\n        /* \"#utility.yul\":334:343   */\n      dup3\n        /* \"#utility.yul\":330:348   */\n      add\n        /* \"#utility.yul\":322:348   */\n      swap1\n      pop\n        /* \"#utility.yul\":358:429   */\n      tag_93\n        /* \"#utility.yul\":426:427   */\n      0x00\n        /* \"#utility.yul\":415:424   */\n      dup4\n        /* \"#utility.yul\":411:428   */\n      add\n        /* \"#utility.yul\":402:408   */\n      dup5\n        /* \"#utility.yul\":358:429   */\n      tag_49\n      jump\t// in\n    tag_93:\n        /* \"#utility.yul\":214:436   */\n      swap3\n      swap2\n      pop\n      pop\n      jump\t// out\n        /* \"#utility.yul\":442:517   */\n    tag_50:\n        /* \"#utility.yul\":475:481   */\n      0x00\n        /* \"#utility.yul\":508:510   */\n      0x40\n        /* \"#utility.yul\":502:511   */\n      mload\n        /* \"#utility.yul\":492:511   */\n      swap1\n      pop\n        /* \"#utility.yul\":442:517   */\n      swap1\n      jump\t// out\n        /* \"#utility.yul\":523:640   */\n    tag_51:\n        /* \"#utility.yul\":632:633   */\n      0x00\n        /* \"#utility.yul\":629:630   */\n      dup1\n        /* \"#utility.yul\":622:634   */\n      revert\n        /* \"#utility.yul\":646:763   */\n    tag_52:\n        /* \"#utility.yul\":755:756   */\n      0x00\n        /* \"#utility.yul\":752:753   */\n      dup1\n        /* \"#utility.yul\":745:757   */\n      revert\n        /* \"#utility.yul\":769:886   */\n    tag_53:\n        /* \"#utility.yul\":878:879   */\n      0x00\n        /* \"#utility.yul\":875:876   */\n      dup1\n        /* \"#utility.yul\":868:880   */\n      revert\n        /* \"#utility.yul\":892:1009   */\n    tag_54:\n        /* \"#utility.yul\":1001:1002   */\n      0x00\n        /* \"#utility.yul\":998:999   */\n      dup1\n        /* \"#utility.yul\":991:1003   */\n      revert\n        /* \"#utility.yul\":1015:1117   */\n    tag_55:\n        /* \"#utility.yul\":1056:1062   */\n      0x00\n        /* \"#utility.yul\":1107:1109   */\n      0x1f\n        /* \"#utility.yul\":1103:1110   */\n      not\n        /* \"#utility.yul\":1098:1100   */\n      0x1f\n        /* \"#utility.yul\":1091:1096   */\n      dup4\n        /* \"#utility.yul\":1087:1101   */\n      add\n        /* \"#utility.yul\":1083:1111   */\n      and\n        /* \"#utility.yul\":1073:1111   */\n      swap1\n      pop\n        /* \"#utility.yul\":1015:1117   */\n      swap2\n      swap1\n      pop\n      jump\t// out\n        /* \"#utility.yul\":1123:1303   */\n    tag_56:\n        /* \"#utility.yul\":1171:1248   */\n      0x4e487b7100000000000000000000000000000000000000000000000000000000\n        /* \"#utility.yul\":1168:1169   */\n      0x00\n        /* \"#utility.yul\":1161:1249   */\n      mstore\n        /* \"#utility.yul\":1268:1272   */\n      0x41\n        /* \"#utility.yul\":1265:1266   */\n      0x04\n        /* \"#utility.yul\":1258:1273   */\n      mstore\n        /* \"#utility.yul\":1292:1296   */\n      0x24\n        /* \"#utility.yul\":1289:1290   */\n      0x00\n        /* \"#utility.yul\":1282:1297   */\n      revert\n        /* \"#utility.yul\":1309:1590   */\n    tag_57:\n        /* \"#utility.yul\":1392:1419   */\n      tag_102\n        /* \"#utility.yul\":1414:1418   */\n      dup3\n        /* \"#utility.yul\":1392:1419   */\n      tag_55\n      jump\t// in\n    tag_102:\n        /* \"#utility.yul\":1384:1390   */\n      dup2\n        /* \"#utility.yul\":1380:1420   */\n      add\n        /* \"#utility.yul\":1522:1528   */\n      dup2\n        /* \"#utility.yul\":1510:1520   */\n      dup2\n        /* \"#utility.yul\":1507:1529   */\n      lt\n        /* \"#utility.yul\":1486:1504   */\n      0xffffffffffffffff\n        /* \"#utility.yul\":1474:1484   */\n      dup3\n        /* \"#utility.yul\":1471:1505   */\n      gt\n        /* \"#utility.yul\":1468:1530   */\n      or\n        /* \"#utility.yul\":1465:1553   */\n      iszero\n      tag_103\n      jumpi\n        /* \"#utility.yul\":1533:1551   */\n      tag_104\n      tag_56\n      jump\t// in\n    tag_104:\n        /* \"#utility.yul\":1465:1553   */\n    tag_103:\n        /* \"#utility.yul\":1573:1583   */\n      dup1\n        /* \"#utility.yul\":1569:1571   */\n      0x40\n        /* \"#utility.yul\":1562:1584   */\n      mstore\n        /* \"#utility.yul\":1352:1590   */\n      pop\n        /* \"#utility.yul\":1309:1590   */\n      pop\n      pop\n      jump\t// out\n        /* \"#utility.yul\":1596:1725   */\n    tag_58:\n        /* \"#utility.yul\":1630:1636   */\n      0x00\n        /* \"#utility.yul\":1657:1677   */\n      tag_106\n      tag_50\n      jump\t// in\n    tag_106:\n        /* \"#utility.yul\":1647:1677   */\n      swap1\n      pop\n        /* \"#utility.yul\":1686:1719   */\n      tag_107\n        /* \"#utility.yul\":1714:1718   */\n      dup3\n        /* \"#utility.yul\":1706:1712   */\n      dup3\n        /* \"#utility.yul\":1686:1719   */\n      tag_57\n      jump\t// in\n    tag_107:\n        /* \"#utility.yul\":1596:1725   */\n      swap2\n      swap1\n      pop\n      jump\t// out\n        /* \"#utility.yul\":1731:2039   */\n    tag_59:\n        /* \"#utility.yul\":1793:1797   */\n      0x00\n        /* \"#utility.yul\":1883:1901   */\n      0xffffffffffffffff\n        /* \"#utility.yul\":1875:1881   */\n      dup3\n        /* \"#utility.yul\":1872:1902   */\n      gt\n        /* \"#utility.yul\":1869:1925   */\n      iszero\n      tag_109\n      jumpi\n        /* \"#utility.yul\":1905:1923   */\n      tag_110\n      tag_56\n      jump\t// in\n    tag_110:\n        /* \"#utility.yul\":1869:1925   */\n    tag_109:\n        /* \"#utility.yul\":1943:1972   */\n      tag_111\n        /* \"#utility.yul\":1965:1971   */\n      dup3\n        /* \"#utility.yul\":1943:1972   */\n      tag_55\n      jump\t// in\n    tag_111:\n        /* \"#utility.yul\":1935:1972   */\n      swap1\n      pop\n        /* \"#utility.yul\":2027:2031   */\n      0x20\n        /* \"#utility.yul\":2021:2025   */\n      dup2\n        /* \"#utility.yul\":2017:2032   */\n      add\n        /* \"#utility.yul\":2009:2032   */\n      swap1\n      pop\n        /* \"#utility.yul\":1731:2039   */\n      swap2\n      swap1\n      pop\n      jump\t// out\n        /* \"#utility.yul\":2045:2191   */\n    tag_60:\n        /* \"#utility.yul\":2142:2148   */\n      dup3\n        /* \"#utility.yul\":2137:2140   */\n      dup2\n        /* \"#utility.yul\":2132:2135   */\n      dup4\n        /* \"#utility.yul\":2119:2149   */\n      calldatacopy\n        /* \"#utility.yul\":2183:2184   */\n      0x00\n        /* \"#utility.yul\":2174:2180   */\n      dup4\n        /* \"#utility.yul\":2169:2172   */\n      dup4\n        /* \"#utility.yul\":2165:2181   */\n      add\n        /* \"#utility.yul\":2158:2185   */\n      mstore\n        /* \"#utility.yul\":2045:2191   */\n      pop\n      pop\n      pop\n      jump\t// out\n        /* \"#utility.yul\":2197:2622   */\n    tag_61:\n        /* \"#utility.yul\":2275:2280   */\n      0x00\n        /* \"#utility.yul\":2300:2366   */\n      tag_114\n        /* \"#utility.yul\":2316:2365   */\n      tag_115\n        /* \"#utility.yul\":2358:2364   */\n      dup5\n        /* \"#utility.yul\":2316:2365   */\n      tag_59\n      jump\t// in\n    tag_115:\n        /* \"#utility.yul\":2300:2366   */\n      tag_58\n      jump\t// in\n    tag_114:\n        /* \"#utility.yul\":2291:2366   */\n      swap1\n      pop\n        /* \"#utility.yul\":2389:2395   */\n      dup3\n        /* \"#utility.yul\":2382:2387   */\n      dup2\n        /* \"#utility.yul\":2375:2396   */\n      mstore\n        /* \"#utility.yul\":2427:2431   */\n      0x20\n        /* \"#utility.yul\":2420:2425   */\n      dup2\n        /* \"#utility.yul\":2416:2432   */\n      add\n        /* \"#utility.yul\":2465:2468   */\n      dup5\n        /* \"#utility.yul\":2456:2462   */\n      dup5\n        /* \"#utility.yul\":2451:2454   */\n      dup5\n        /* \"#utility.yul\":2447:2463   */\n      add\n        /* \"#utility.yul\":2444:2469   */\n      gt\n        /* \"#utility.yul\":2441:2553   */\n      iszero\n      tag_116\n      jumpi\n        /* \"#utility.yul\":2472:2551   */\n      tag_117\n      tag_54\n      jump\t// in\n    tag_117:\n        /* \"#utility.yul\":2441:2553   */\n    tag_116:\n        /* \"#utility.yul\":2562:2616   */\n      tag_118\n        /* \"#utility.yul\":2609:2615   */\n      dup5\n        /* \"#utility.yul\":2604:2607   */\n      dup3\n        /* \"#utility.yul\":2599:2602   */\n      dup6\n        /* \"#utility.yul\":2562:2616   */\n      tag_60\n      jump\t// in\n    tag_118:\n        /* \"#utility.yul\":2281:2622   */\n      pop\n        /* \"#utility.yul\":2197:2622   */\n      swap4\n      swap3\n      pop\n      pop\n      pop\n      jump\t// out\n        /* \"#utility.yul\":2642:2982   */\n    tag_62:\n        /* \"#utility.yul\":2698:2703   */\n      0x00\n        /* \"#utility.yul\":2747:2750   */\n      dup3\n        /* \"#utility.yul\":2740:2744   */\n      0x1f\n        /* \"#utility.yul\":2732:2738   */\n      dup4\n        /* \"#utility.yul\":2728:2745   */\n      add\n        /* \"#utility.yul\":2724:2751   */\n      slt\n        /* \"#utility.yul\":2714:2836   */\n      tag_120\n      jumpi\n        /* \"#utility.yul\":2755:2834   */\n      tag_121\n      tag_53\n      jump\t// in\n    tag_121:\n        /* \"#utility.yul\":2714:2836   */\n    tag_120:\n        /* \"#utility.yul\":2872:2878   */\n      dup2\n        /* \"#utility.yul\":2859:2879   */\n      calldataload\n        /* \"#utility.yul\":2897:2976   */\n      tag_122\n        /* \"#utility.yul\":2972:2975   */\n      dup5\n        /* \"#utility.yul\":2964:2970   */\n      dup3\n        /* \"#utility.yul\":2957:2961   */\n      0x20\n        /* \"#utility.yul\":2949:2955   */\n      dup7\n        /* \"#utility.yul\":2945:2962   */\n      add\n        /* \"#utility.yul\":2897:2976   */\n      tag_61\n      jump\t// in\n    tag_122:\n        /* \"#utility.yul\":2888:2976   */\n      swap2\n      pop\n        /* \"#utility.yul\":2704:2982   */\n      pop\n        /* \"#utility.yul\":2642:2982   */\n      swap3\n      swap2\n      pop\n      pop\n      jump\t// out\n        /* \"#utility.yul\":2988:3497   */\n    tag_14:\n        /* \"#utility.yul\":3057:3063   */\n      0x00\n        /* \"#utility.yul\":3106:3108   */\n      0x20\n        /* \"#utility.yul\":3094:3103   */\n      dup3\n        /* \"#utility.yul\":3085:3092   */\n      dup5\n        /* \"#utility.yul\":3081:3104   */\n      sub\n        /* \"#utility.yul\":3077:3109   */\n      slt\n        /* \"#utility.yul\":3074:3193   */\n      iszero\n      tag_124\n      jumpi\n        /* \"#utility.yul\":3112:3191   */\n      tag_125\n      tag_51\n      jump\t// in\n    tag_125:\n        /* \"#utility.yul\":3074:3193   */\n    tag_124:\n        /* \"#utility.yul\":3260:3261   */\n      0x00\n        /* \"#utility.yul\":3249:3258   */\n      dup3\n        /* \"#utility.yul\":3245:3262   */\n      add\n        /* \"#utility.yul\":3232:3263   */\n      calldataload\n        /* \"#utility.yul\":3290:3308   */\n      0xffffffffffffffff\n        /* \"#utility.yul\":3282:3288   */\n      dup2\n        /* \"#utility.yul\":3279:3309   */\n      gt\n        /* \"#utility.yul\":3276:3393   */\n      iszero\n      tag_126\n      jumpi\n        /* \"#utility.yul\":3312:3391   */\n      tag_127\n      tag_52\n      jump\t// in\n    tag_127:\n        /* \"#utility.yul\":3276:3393   */\n    tag_126:\n        /* \"#utility.yul\":3417:3480   */\n      tag_128\n        /* \"#utility.yul\":3472:3479   */\n      dup5\n        /* \"#utility.yul\":3463:3469   */\n      dup3\n        /* \"#utility.yul\":3452:3461   */\n      dup6\n        /* \"#utility.yul\":3448:3470   */\n      add\n        /* \"#utility.yul\":3417:3480   */\n      tag_62\n      jump\t// in\n    tag_128:\n        /* \"#utility.yul\":3407:3480   */\n      swap2\n      pop\n        /* \"#utility.yul\":3203:3490   */\n      pop\n        /* \"#utility.yul\":2988:3497   */\n      swap3\n      swap2\n      pop\n      pop\n      jump\t// out\n        /* \"#utility.yul\":3503:3625   */\n    tag_63:\n        /* \"#utility.yul\":3576:3600   */\n      tag_130\n        /* \"#utility.yul\":3594:3599   */\n      dup2\n        /* \"#utility.yul\":3576:3600   */\n      tag_48\n      jump\t// in\n    tag_130:\n        /* \"#utility.yul\":3569:3574   */\n      dup2\n        /* \"#utility.yul\":3566:3601   */\n      eq\n        /* \"#utility.yul\":3556:3619   */\n      tag_131\n      jumpi\n        /* \"#utility.yul\":3615:3616   */\n      0x00\n        /* \"#utility.yul\":3612:3613   */\n      dup1\n        /* \"#utility.yul\":3605:3617   */\n      revert\n        /* \"#utility.yul\":3556:3619   */\n    tag_131:\n        /* \"#utility.yul\":3503:3625   */\n      pop\n      jump\t// out\n        /* \"#utility.yul\":3631:3770   */\n    tag_64:\n        /* \"#utility.yul\":3677:3682   */\n      0x00\n        /* \"#utility.yul\":3715:3721   */\n      dup2\n        /* \"#utility.yul\":3702:3722   */\n      calldataload\n        /* \"#utility.yul\":3693:3722   */\n      swap1\n      pop\n        /* \"#utility.yul\":3731:3764   */\n      tag_133\n        /* \"#utility.yul\":3758:3763   */\n      dup2\n        /* \"#utility.yul\":3731:3764   */\n      tag_63\n      jump\t// in\n    tag_133:\n        /* \"#utility.yul\":3631:3770   */\n      swap3\n      swap2\n      pop\n      pop\n      jump\t// out\n        /* \"#utility.yul\":3776:4105   */\n    tag_19:\n        /* \"#utility.yul\":3835:3841   */\n      0x00\n        /* \"#utility.yul\":3884:3886   */\n      0x20\n        /* \"#utility.yul\":3872:3881   */\n      dup3\n        /* \"#utility.yul\":3863:3870   */\n      dup5\n        /* \"#utility.yul\":3859:3882   */\n      sub\n        /* \"#utility.yul\":3855:3887   */\n      slt\n        /* \"#utility.yul\":3852:3971   */\n      iszero\n      tag_135\n      jumpi\n        /* \"#utility.yul\":3890:3969   */\n      tag_136\n      tag_51\n      jump\t// in\n    tag_136:\n        /* \"#utility.yul\":3852:3971   */\n    tag_135:\n        /* \"#utility.yul\":4010:4011   */\n      0x00\n        /* \"#utility.yul\":4035:4088   */\n      tag_137\n        /* \"#utility.yul\":4080:4087   */\n      dup5\n        /* \"#utility.yul\":4071:4077   */\n      dup3\n        /* \"#utility.yul\":4060:4069   */\n      dup6\n        /* \"#utility.yul\":4056:4078   */\n      add\n        /* \"#utility.yul\":4035:4088   */\n      tag_64\n      jump\t// in\n    tag_137:\n        /* \"#utility.yul\":4025:4088   */\n      swap2\n      pop\n        /* \"#utility.yul\":3981:4098   */\n      pop\n        /* \"#utility.yul\":3776:4105   */\n      swap3\n      swap2\n      pop\n      pop\n      jump\t// out\n        /* \"#utility.yul\":4111:4765   */\n    tag_23:\n        /* \"#utility.yul\":4189:4195   */\n      0x00\n        /* \"#utility.yul\":4197:4203   */\n      dup1\n        /* \"#utility.yul\":4246:4248   */\n      0x40\n        /* \"#utility.yul\":4234:4243   */\n      dup4\n        /* \"#utility.yul\":4225:4232   */\n      dup6\n        /* \"#utility.yul\":4221:4244   */\n      sub\n        /* \"#utility.yul\":4217:4249   */\n      slt\n        /* \"#utility.yul\":4214:4333   */\n      iszero\n      tag_139\n      jumpi\n        /* \"#utility.yul\":4252:4331   */\n      tag_140\n      tag_51\n      jump\t// in\n    tag_140:\n        /* \"#utility.yul\":4214:4333   */\n    tag_139:\n        /* \"#utility.yul\":4400:4401   */\n      0x00\n        /* \"#utility.yul\":4389:4398   */\n      dup4\n        /* \"#utility.yul\":4385:4402   */\n      add\n        /* \"#utility.yul\":4372:4403   */\n      calldataload\n        /* \"#utility.yul\":4430:4448   */\n      0xffffffffffffffff\n        /* \"#utility.yul\":4422:4428   */\n      dup2\n        /* \"#utility.yul\":4419:4449   */\n      gt\n        /* \"#utility.yul\":4416:4533   */\n      iszero\n      tag_141\n      jumpi\n        /* \"#utility.yul\":4452:4531   */\n      tag_142\n      tag_52\n      jump\t// in\n    tag_142:\n        /* \"#utility.yul\":4416:4533   */\n    tag_141:\n        /* \"#utility.yul\":4557:4620   */\n      tag_143\n        /* \"#utility.yul\":4612:4619   */\n      dup6\n        /* \"#utility.yul\":4603:4609   */\n      dup3\n        /* \"#utility.yul\":4592:4601   */\n      dup7\n        /* \"#utility.yul\":4588:4610   */\n      add\n        /* \"#utility.yul\":4557:4620   */\n      tag_62\n      jump\t// in\n    tag_143:\n        /* \"#utility.yul\":4547:4620   */\n      swap3\n      pop\n        /* \"#utility.yul\":4343:4630   */\n      pop\n        /* \"#utility.yul\":4669:4671   */\n      0x20\n        /* \"#utility.yul\":4695:4748   */\n      tag_144\n        /* \"#utility.yul\":4740:4747   */\n      dup6\n        /* \"#utility.yul\":4731:4737   */\n      dup3\n        /* \"#utility.yul\":4720:4729   */\n      dup7\n        /* \"#utility.yul\":4716:4738   */\n      add\n        /* \"#utility.yul\":4695:4748   */\n      tag_64\n      jump\t// in\n    tag_144:\n        /* \"#utility.yul\":4685:4748   */\n      swap2\n      pop\n        /* \"#utility.yul\":4640:4758   */\n      pop\n        /* \"#utility.yul\":4111:4765   */\n      swap3\n      pop\n      swap3\n      swap1\n      pop\n      jump\t// out\n        /* \"#utility.yul\":4771:4870   */\n    tag_65:\n        /* \"#utility.yul\":4823:4829   */\n      0x00\n        /* \"#utility.yul\":4857:4862   */\n      dup2\n        /* \"#utility.yul\":4851:4863   */\n      mload\n        /* \"#utility.yul\":4841:4863   */\n      swap1\n      pop\n        /* \"#utility.yul\":4771:4870   */\n      swap2\n      swap1\n      pop\n      jump\t// out\n        /* \"#utility.yul\":4876:5045   */\n    tag_66:\n        /* \"#utility.yul\":4960:4971   */\n      0x00\n        /* \"#utility.yul\":4994:5000   */\n      dup3\n        /* \"#utility.yul\":4989:4992   */\n      dup3\n        /* \"#utility.yul\":4982:5001   */\n      mstore\n        /* \"#utility.yul\":5034:5038   */\n      0x20\n        /* \"#utility.yul\":5029:5032   */\n      dup3\n        /* \"#utility.yul\":5025:5039   */\n      add\n        /* \"#utility.yul\":5010:5039   */\n      swap1\n      pop\n        /* \"#utility.yul\":4876:5045   */\n      swap3\n      swap2\n      pop\n      pop\n      jump\t// out\n        /* \"#utility.yul\":5051:5297   */\n    tag_67:\n        /* \"#utility.yul\":5132:5133   */\n      0x00\n        /* \"#utility.yul\":5142:5255   */\n    tag_148:\n        /* \"#utility.yul\":5156:5162   */\n      dup4\n        /* \"#utility.yul\":5153:5154   */\n      dup2\n        /* \"#utility.yul\":5150:5163   */\n      lt\n        /* \"#utility.yul\":5142:5255   */\n      iszero\n      tag_150\n      jumpi\n        /* \"#utility.yul\":5241:5242   */\n      dup1\n        /* \"#utility.yul\":5236:5239   */\n      dup3\n        /* \"#utility.yul\":5232:5243   */\n      add\n        /* \"#utility.yul\":5226:5244   */\n      mload\n        /* \"#utility.yul\":5222:5223   */\n      dup2\n        /* \"#utility.yul\":5217:5220   */\n      dup5\n        /* \"#utility.yul\":5213:5224   */\n      add\n        /* \"#utility.yul\":5206:5245   */\n      mstore\n        /* \"#utility.yul\":5178:5180   */\n      0x20\n        /* \"#utility.yul\":5175:5176   */\n      dup2\n        /* \"#utility.yul\":5171:5181   */\n      add\n        /* \"#utility.yul\":5166:5181   */\n      swap1\n      pop\n        /* \"#utility.yul\":5142:5255   */\n      jump(tag_148)\n    tag_150:\n        /* \"#utility.yul\":5289:5290   */\n      0x00\n        /* \"#utility.yul\":5280:5286   */\n      dup5\n        /* \"#utility.yul\":5275:5278   */\n      dup5\n        /* \"#utility.yul\":5271:5287   */\n      add\n        /* \"#utility.yul\":5264:5291   */\n      mstore\n        /* \"#utility.yul\":5113:5297   */\n      pop\n        /* \"#utility.yul\":5051:5297   */\n      pop\n      pop\n      pop\n      jump\t// out\n        /* \"#utility.yul\":5303:5680   */\n    tag_68:\n        /* \"#utility.yul\":5391:5394   */\n      0x00\n        /* \"#utility.yul\":5419:5458   */\n      tag_152\n        /* \"#utility.yul\":5452:5457   */\n      dup3\n        /* \"#utility.yul\":5419:5458   */\n      tag_65\n      jump\t// in\n    tag_152:\n        /* \"#utility.yul\":5474:5545   */\n      tag_153\n        /* \"#utility.yul\":5538:5544   */\n      dup2\n        /* \"#utility.yul\":5533:5536   */\n      dup6\n        /* \"#utility.yul\":5474:5545   */\n      tag_66\n      jump\t// in\n    tag_153:\n        /* \"#utility.yul\":5467:5545   */\n      swap4\n      pop\n        /* \"#utility.yul\":5554:5619   */\n      tag_154\n        /* \"#utility.yul\":5612:5618   */\n      dup2\n        /* \"#utility.yul\":5607:5610   */\n      dup6\n        /* \"#utility.yul\":5600:5604   */\n      0x20\n        /* \"#utility.yul\":5593:5598   */\n      dup7\n        /* \"#utility.yul\":5589:5605   */\n      add\n        /* \"#utility.yul\":5554:5619   */\n      tag_67\n      jump\t// in\n    tag_154:\n        /* \"#utility.yul\":5644:5673   */\n      tag_155\n        /* \"#utility.yul\":5666:5672   */\n      dup2\n        /* \"#utility.yul\":5644:5673   */\n      tag_55\n      jump\t// in\n    tag_155:\n        /* \"#utility.yul\":5639:5642   */\n      dup5\n        /* \"#utility.yul\":5635:5674   */\n      add\n        /* \"#utility.yul\":5628:5674   */\n      swap2\n      pop\n        /* \"#utility.yul\":5395:5680   */\n      pop\n        /* \"#utility.yul\":5303:5680   */\n      swap3\n      swap2\n      pop\n      pop\n      jump\t// out\n        /* \"#utility.yul\":5686:6109   */\n    tag_29:\n        /* \"#utility.yul\":5827:5831   */\n      0x00\n        /* \"#utility.yul\":5865:5867   */\n      0x40\n        /* \"#utility.yul\":5854:5863   */\n      dup3\n        /* \"#utility.yul\":5850:5868   */\n      add\n        /* \"#utility.yul\":5842:5868   */\n      swap1\n      pop\n        /* \"#utility.yul\":5878:5949   */\n      tag_157\n        /* \"#utility.yul\":5946:5947   */\n      0x00\n        /* \"#utility.yul\":5935:5944   */\n      dup4\n        /* \"#utility.yul\":5931:5948   */\n      add\n        /* \"#utility.yul\":5922:5928   */\n      dup6\n        /* \"#utility.yul\":5878:5949   */\n      tag_49\n      jump\t// in\n    tag_157:\n        /* \"#utility.yul\":5996:6005   */\n      dup2\n        /* \"#utility.yul\":5990:5994   */\n      dup2\n        /* \"#utility.yul\":5986:6006   */\n      sub\n        /* \"#utility.yul\":5981:5983   */\n      0x20\n        /* \"#utility.yul\":5970:5979   */\n      dup4\n        /* \"#utility.yul\":5966:5984   */\n      add\n        /* \"#utility.yul\":5959:6007   */\n      mstore\n        /* \"#utility.yul\":6024:6102   */\n      tag_158\n        /* \"#utility.yul\":6097:6101   */\n      dup2\n        /* \"#utility.yul\":6088:6094   */\n      dup5\n        /* \"#utility.yul\":6024:6102   */\n      tag_68\n      jump\t// in\n    tag_158:\n        /* \"#utility.yul\":6016:6102   */\n      swap1\n      pop\n        /* \"#utility.yul\":5686:6109   */\n      swap4\n      swap3\n      pop\n      pop\n      pop\n      jump\t// out\n        /* \"#utility.yul\":6115:6295   */\n    tag_69:\n        /* \"#utility.yul\":6163:6240   */\n      0x4e487b7100000000000000000000000000000000000000000000000000000000\n        /* \"#utility.yul\":6160:6161   */\n      0x00\n        /* \"#utility.yul\":6153:6241   */\n      mstore\n        /* \"#utility.yul\":6260:6264   */\n      0x11\n        /* \"#utility.yul\":6257:6258   */\n      0x04\n        /* \"#utility.yul\":6250:6265   */\n      mstore\n        /* \"#utility.yul\":6284:6288   */\n      0x24\n        /* \"#utility.yul\":6281:6282   */\n      0x00\n        /* \"#utility.yul\":6274:6289   */\n      revert\n        /* \"#utility.yul\":6301:6492   */\n    tag_33:\n        /* \"#utility.yul\":6341:6344   */\n      0x00\n        /* \"#utility.yul\":6360:6380   */\n      tag_161\n        /* \"#utility.yul\":6378:6379   */\n      dup3\n        /* \"#utility.yul\":6360:6380   */\n      tag_48\n      jump\t// in\n    tag_161:\n        /* \"#utility.yul\":6355:6380   */\n      swap2\n      pop\n        /* \"#utility.yul\":6394:6414   */\n      tag_162\n        /* \"#utility.yul\":6412:6413   */\n      dup4\n        /* \"#utility.yul\":6394:6414   */\n      tag_48\n      jump\t// in\n    tag_162:\n        /* \"#utility.yul\":6389:6414   */\n      swap3\n      pop\n        /* \"#utility.yul\":6437:6438   */\n      dup3\n        /* \"#utility.yul\":6434:6435   */\n      dup3\n        /* \"#utility.yul\":6430:6439   */\n      add\n        /* \"#utility.yul\":6423:6439   */\n      swap1\n      pop\n        /* \"#utility.yul\":6458:6461   */\n      dup1\n        /* \"#utility.yul\":6455:6456   */\n      dup3\n        /* \"#utility.yul\":6452:6462   */\n      gt\n        /* \"#utility.yul\":6449:6485   */\n      iszero\n      tag_163\n      jumpi\n        /* \"#utility.yul\":6465:6483   */\n      tag_164\n      tag_69\n      jump\t// in\n    tag_164:\n        /* \"#utility.yul\":6449:6485   */\n    tag_163:\n        /* \"#utility.yul\":6301:6492   */\n      swap3\n      swap2\n      pop\n      pop\n      jump\t// out\n        /* \"#utility.yul\":6498:6678   */\n    tag_70:\n        /* \"#utility.yul\":6546:6623   */\n      0x4e487b7100000000000000000000000000000000000000000000000000000000\n        /* \"#utility.yul\":6543:6544   */\n      0x00\n        /* \"#utility.yul\":6536:6624   */\n      mstore\n        /* \"#utility.yul\":6643:6647   */\n      0x22\n        /* \"#utility.yul\":6640:6641   */\n      0x04\n        /* \"#utility.yul\":6633:6648   */\n      mstore\n        /* \"#utility.yul\":6667:6671   */\n      0x24\n        /* \"#utility.yul\":6664:6665   */\n      0x00\n        /* \"#utility.yul\":6657:6672   */\n      revert\n        /* \"#utility.yul\":6684:7004   */\n    tag_43:\n        /* \"#utility.yul\":6728:6734   */\n      0x00\n        /* \"#utility.yul\":6765:6766   */\n      0x02\n        /* \"#utility.yul\":6759:6763   */\n      dup3\n        /* \"#utility.yul\":6755:6767   */\n      div\n        /* \"#utility.yul\":6745:6767   */\n      swap1\n      pop\n        /* \"#utility.yul\":6812:6813   */\n      0x01\n        /* \"#utility.yul\":6806:6810   */\n      dup3\n        /* \"#utility.yul\":6802:6814   */\n      and\n        /* \"#utility.yul\":6833:6851   */\n      dup1\n        /* \"#utility.yul\":6823:6904   */\n      tag_167\n      jumpi\n        /* \"#utility.yul\":6889:6893   */\n      0x7f\n        /* \"#utility.yul\":6881:6887   */\n      dup3\n        /* \"#utility.yul\":6877:6894   */\n      and\n        /* \"#utility.yul\":6867:6894   */\n      swap2\n      pop\n        /* \"#utility.yul\":6823:6904   */\n    tag_167:\n        /* \"#utility.yul\":6951:6953   */\n      0x20\n        /* \"#utility.yul\":6943:6949   */\n      dup3\n        /* \"#utility.yul\":6940:6954   */\n      lt\n        /* \"#utility.yul\":6920:6938   */\n      dup2\n        /* \"#utility.yul\":6917:6955   */\n      sub\n        /* \"#utility.yul\":6914:6998   */\n      tag_168\n      jumpi\n        /* \"#utility.yul\":6970:6988   */\n      tag_169\n      tag_70\n      jump\t// in\n    tag_169:\n        /* \"#utility.yul\":6914:6998   */\n    tag_168:\n        /* \"#utility.yul\":6735:7004   */\n      pop\n        /* \"#utility.yul\":6684:7004   */\n      swap2\n      swap1\n      pop\n      jump\t// out\n        /* \"#utility.yul\":7010:7151   */\n    tag_71:\n        /* \"#utility.yul\":7059:7063   */\n      0x00\n        /* \"#utility.yul\":7082:7085   */\n      dup2\n        /* \"#utility.yul\":7074:7085   */\n      swap1\n      pop\n        /* \"#utility.yul\":7105:7108   */\n      dup2\n        /* \"#utility.yul\":7102:7103   */\n      0x00\n        /* \"#utility.yul\":7095:7109   */\n      mstore\n        /* \"#utility.yul\":7139:7143   */\n      0x20\n        /* \"#utility.yul\":7136:7137   */\n      0x00\n        /* \"#utility.yul\":7126:7144   */\n      keccak256\n        /* \"#utility.yul\":7118:7144   */\n      swap1\n      pop\n        /* \"#utility.yul\":7010:7151   */\n      swap2\n      swap1\n      pop\n      jump\t// out\n        /* \"#utility.yul\":7157:7250   */\n    tag_72:\n        /* \"#utility.yul\":7194:7200   */\n      0x00\n        /* \"#utility.yul\":7241:7243   */\n      0x20\n        /* \"#utility.yul\":7236:7238   */\n      0x1f\n        /* \"#utility.yul\":7229:7234   */\n      dup4\n        /* \"#utility.yul\":7225:7239   */\n      add\n        /* \"#utility.yul\":7221:7244   */\n      div\n        /* \"#utility.yul\":7211:7244   */\n      swap1\n      pop\n        /* \"#utility.yul\":7157:7250   */\n      swap2\n      swap1\n      pop\n      jump\t// out\n        /* \"#utility.yul\":7256:7363   */\n    tag_73:\n        /* \"#utility.yul\":7300:7308   */\n      0x00\n        /* \"#utility.yul\":7350:7355   */\n      dup3\n        /* \"#utility.yul\":7344:7348   */\n      dup3\n        /* \"#utility.yul\":7340:7356   */\n      shl\n        /* \"#utility.yul\":7319:7356   */\n      swap1\n      pop\n        /* \"#utility.yul\":7256:7363   */\n      swap3\n      swap2\n      pop\n      pop\n      jump\t// out\n        /* \"#utility.yul\":7369:7762   */\n    tag_74:\n        /* \"#utility.yul\":7438:7444   */\n      0x00\n        /* \"#utility.yul\":7488:7489   */\n      0x08\n        /* \"#utility.yul\":7476:7486   */\n      dup4\n        /* \"#utility.yul\":7472:7490   */\n      mul\n        /* \"#utility.yul\":7511:7608   */\n      tag_174\n        /* \"#utility.yul\":7541:7607   */\n      0xffffffffffffffffffffffffffffffffffffffffffffffffffffffffffffffff\n        /* \"#utility.yul\":7530:7539   */\n      dup3\n        /* \"#utility.yul\":7511:7608   */\n      tag_73\n      jump\t// in\n    tag_174:\n        /* \"#utility.yul\":7629:7668   */\n      tag_175\n        /* \"#utility.yul\":7659:7667   */\n      dup7\n        /* \"#utility.yul\":7648:7657   */\n      dup4\n        /* \"#utility.yul\":7629:7668   */\n      tag_73\n      jump\t// in\n    tag_175:\n        /* \"#utility.yul\":7617:7668   */\n      swap6\n      pop\n        /* \"#utility.yul\":7701:7705   */\n      dup1\n        /* \"#utility.yul\":7697:7706   */\n      not\n        /* \"#utility.yul\":7690:7695   */\n      dup5\n        /* \"#utility.yul\":7686:7707   */\n      and\n        /* \"#utility.yul\":7677:7707   */\n      swap4\n      pop\n        /* \"#utility.yul\":7750:7754   */\n      dup1\n        /* \"#utility.yul\":7740:7748   */\n      dup7\n        /* \"#utility.yul\":7736:7755   */\n      and\n        /* \"#utility.yul\":7729:7734   */\n      dup5\n        /* \"#utility.yul\":7726:7756   */\n      or\n        /* \"#utility.yul\":7716:7756   */\n      swap3\n      pop\n        /* \"#utility.yul\":7445:7762   */\n      pop\n      pop\n        /* \"#utility.yul\":7369:7762   */\n      swap4\n      swap3\n      pop\n      pop\n      pop\n      jump\t// out\n        /* \"#utility.yul\":7768:7828   */\n    tag_75:\n        /* \"#utility.yul\":7796:7799   */\n      0x00\n        /* \"#utility.yul\":7817:7822   */\n      dup2\n        /* \"#utility.yul\":7810:7822   */\n      swap1\n      pop\n        /* \"#utility.yul\":7768:7828   */\n      swap2\n      swap1\n      pop\n      jump\t// out\n        /* \"#utility.yul\":7834:7976   */\n    tag_76:\n        /* \"#utility.yul\":7884:7893   */\n      0x00\n        /* \"#utility.yul\":7917:7970   */\n      tag_178\n        /* \"#utility.yul\":7935:7969   */\n      tag_179\n        /* \"#utility.yul\":7944:7968   */\n      tag_180\n        /* \"#utility.yul\":7962:7967   */\n      dup5\n        /* \"#utility.yul\":7944:7968   */\n      tag_48\n      jump\t// in\n    tag_180:\n        /* \"#utility.yul\":7935:7969   */\n      tag_75\n      jump\t// in\n    tag_179:\n        /* \"#utility.yul\":7917:7970   */\n      tag_48\n      jump\t// in\n    tag_178:\n        /* \"#utility.yul\":7904:7970   */\n      swap1\n      pop\n        /* \"#utility.yul\":7834:7976   */\n      swap2\n      swap1\n      pop\n      jump\t// out\n        /* \"#utility.yul\":7982:8057   */\n    tag_77:\n        /* \"#utility.yul\":8025:8028   */\n      0x00\n        /* \"#utility.yul\":8046:8051   */\n      dup2\n        /* \"#utility.yul\":8039:8051   */\n      swap1\n      pop\n        /* \"#utility.yul\":7982:8057   */\n      swap2\n      swap1\n      pop\n      jump\t// out\n        /* \"#utility.yul\":8063:8332   */\n    tag_78:\n        /* \"#utility.yul\":8173:8212   */\n      tag_183\n        /* \"#utility.yul\":8204:8211   */\n      dup4\n        /* \"#utility.yul\":8173:8212   */\n      tag_76\n      jump\t// in\n    tag_183:\n        /* \"#utility.yul\":8234:8325   */\n      tag_184\n        /* \"#utility.yul\":8283:8324   */\n      tag_185\n        /* \"#utility.yul\":8307:8323   */\n      dup3\n        /* \"#utility.yul\":8283:8324   */\n      tag_77\n      jump\t// in\n    tag_185:\n        /* \"#utility.yul\":8275:8281   */\n      dup5\n        /* \"#utility.yul\":8268:8272   */\n      dup5\n        /* \"#utility.yul\":8262:8273   */\n      sload\n        /* \"#utility.yul\":8234:8325   */\n      tag_74\n      jump\t// in\n    tag_184:\n        /* \"#utility.yul\":8228:8232   */\n      dup3\n        /* \"#utility.yul\":8221:8326   */\n      sstore\n        /* \"#utility.yul\":8139:8332   */\n      pop\n        /* \"#utility.yul\":8063:8332   */\n      pop\n      pop\n      pop\n      jump\t// out\n        /* \"#utility.yul\":8338:8411   */\n    tag_79:\n        /* \"#utility.yul\":8383:8386   */\n      0x00\n        /* \"#utility.yul\":8338:8411   */\n      swap1\n      jump\t// out\n        /* \"#utility.yul\":8417:8606   */\n    tag_80:\n        /* \"#utility.yul\":8494:8526   */\n      tag_188\n      tag_79\n      jump\t// in\n    tag_188:\n        /* \"#utility.yul\":8535:8600   */\n      tag_189\n        /* \"#utility.yul\":8593:8599   */\n      dup2\n        /* \"#utility.yul\":8585:8591   */\n      dup5\n        /* \"#utility.yul\":8579:8583   */\n      dup5\n        /* \"#utility.yul\":8535:8600   */\n      tag_78\n      jump\t// in\n    tag_189:\n        /* \"#utility.yul\":8470:8606   */\n      pop\n        /* \"#utility.yul\":8417:8606   */\n      pop\n      pop\n      jump\t// out\n        /* \"#utility.yul\":8612:8798   */\n    tag_81:\n        /* \"#utility.yul\":8672:8792   */\n    tag_191:\n        /* \"#utility.yul\":8689:8692   */\n      dup2\n        /* \"#utility.yul\":8682:8687   */\n      dup2\n        /* \"#utility.yul\":8679:8693   */\n      lt\n        /* \"#utility.yul\":8672:8792   */\n      iszero\n      tag_193\n      jumpi\n        /* \"#utility.yul\":8743:8782   */\n      tag_194\n        /* \"#utility.yul\":8780:8781   */\n      0x00\n        /* \"#utility.yul\":8773:8778   */\n      dup3\n        /* \"#utility.yul\":8743:8782   */\n      tag_80\n      jump\t// in\n    tag_194:\n        /* \"#utility.yul\":8716:8717   */\n      0x01\n        /* \"#utility.yul\":8709:8714   */\n      dup2\n        /* \"#utility.yul\":8705:8718   */\n      add\n        /* \"#utility.yul\":8696:8718   */\n      swap1\n      pop\n        /* \"#utility.yul\":8672:8792   */\n      jump(tag_191)\n    tag_193:\n        /* \"#utility.yul\":8612:8798   */\n      pop\n      pop\n      jump\t// out\n        /* \"#utility.yul\":8804:9347   */\n    tag_82:\n        /* \"#utility.yul\":8905:8907   */\n      0x1f\n        /* \"#utility.yul\":8900:8903   */\n      dup3\n        /* \"#utility.yul\":8897:8908   */\n      gt\n        /* \"#utility.yul\":8894:9340   */\n      iszero\n      tag_196\n      jumpi\n        /* \"#utility.yul\":8939:8977   */\n      tag_197\n        /* \"#utility.yul\":8971:8976   */\n      dup2\n        /* \"#utility.yul\":8939:8977   */\n      tag_71\n      jump\t// in\n    tag_197:\n        /* \"#utility.yul\":9023:9052   */\n      tag_198\n        /* \"#utility.yul\":9041:9051   */\n      dup5\n        /* \"#utility.yul\":9023:9052   */\n      tag_72\n      jump\t// in\n    tag_198:\n        /* \"#utility.yul\":9013:9021   */\n      dup2\n        /* \"#utility.yul\":9009:9053   */\n      add\n        /* \"#utility.yul\":9206:9208   */\n      0x20\n        /* \"#utility.yul\":9194:9204   */\n      dup6\n        /* \"#utility.yul\":9191:9209   */\n      lt\n        /* \"#utility.yul\":9188:9237   */\n      iszero\n      tag_199\n      jumpi\n        /* \"#utility.yul\":9227:9235   */\n      dup2\n        /* \"#utility.yul\":9212:9235   */\n      swap1\n      pop\n        /* \"#utility.yul\":9188:9237   */\n    tag_199:\n        /* \"#utility.yul\":9250:9330   */\n      tag_200\n        /* \"#utility.yul\":9306:9328   */\n      tag_201\n        /* \"#utility.yul\":9324:9327   */\n      dup6\n        /* \"#utility.yul\":9306:9328   */\n      tag_72\n      jump\t// in\n    tag_201:\n        /* \"#utility.yul\":9296:9304   */\n      dup4\n        /* \"#utility.yul\":9292:9329   */\n      add\n        /* \"#utility.yul\":9279:9290   */\n      dup3\n        /* \"#utility.yul\":9250:9330   */\n      tag_81\n      jump\t// in\n    tag_200:\n        /* \"#utility.yul\":8909:9340   */\n      pop\n      pop\n        /* \"#utility.yul\":8894:9340   */\n    tag_196:\n        /* \"#utility.yul\":8804:9347   */\n      pop\n      pop\n      pop\n      jump\t// out\n        /* \"#utility.yul\":9353:9470   */\n    tag_83:\n        /* \"#utility.yul\":9407:9415   */\n      0x00\n        /* \"#utility.yul\":9457:9462   */\n      dup3\n        /* \"#utility.yul\":9451:9455   */\n      dup3\n        /* \"#utility.yul\":9447:9463   */\n      shr\n        /* \"#utility.yul\":9426:9463   */\n      swap1\n      pop\n        /* \"#utility.yul\":9353:9470   */\n      swap3\n      swap2\n      pop\n      pop\n      jump\t// out\n        /* \"#utility.yul\":9476:9645   */\n    tag_84:\n        /* \"#utility.yul\":9520:9526   */\n      0x00\n        /* \"#utility.yul\":9553:9604   */\n      tag_204\n        /* \"#utility.yul\":9601:9602   */\n      0x00\n        /* \"#utility.yul\":9597:9603   */\n      not\n        /* \"#utility.yul\":9589:9594   */\n      dup5\n        /* \"#utility.yul\":9586:9587   */\n      0x08\n        /* \"#utility.yul\":9582:9595   */\n      mul\n        /* \"#utility.yul\":9553:9604   */\n      tag_83\n      jump\t// in\n    tag_204:\n        /* \"#utility.yul\":9549:9605   */\n      not\n        /* \"#utility.yul\":9634:9638   */\n      dup1\n        /* \"#utility.yul\":9628:9632   */\n      dup4\n        /* \"#utility.yul\":9624:9639   */\n      and\n        /* \"#utility.yul\":9614:9639   */\n      swap2\n      pop\n        /* \"#utility.yul\":9527:9645   */\n      pop\n        /* \"#utility.yul\":9476:9645   */\n      swap3\n      swap2\n      pop\n      pop\n      jump\t// out\n        /* \"#utility.yul\":9650:9945   */\n    tag_85:\n        /* \"#utility.yul\":9726:9730   */\n      0x00\n        /* \"#utility.yul\":9872:9901   */\n      tag_206\n        /* \"#utility.yul\":9897:9900   */\n      dup4\n        /* \"#utility.yul\":9891:9895   */\n      dup4\n        /* \"#utility.yul\":9872:9901   */\n      tag_84\n      jump\t// in\n    tag_206:\n        /* \"#utility.yul\":9864:9901   */\n      swap2\n      pop\n        /* \"#utility.yul\":9934:9937   */\n      dup3\n        /* \"#utility.yul\":9931:9932   */\n      0x02\n        /* \"#utility.yul\":9927:9938   */\n      mul\n        /* \"#utility.yul\":9921:9925   */\n      dup3\n        /* \"#utility.yul\":9918:9939   */\n      or\n        /* \"#utility.yul\":9910:9939   */\n      swap1\n      pop\n        /* \"#utility.yul\":9650:9945   */\n      swap3\n      swap2\n      pop\n      pop\n      jump\t// out\n        /* \"#utility.yul\":9950:11345   */\n    tag_37:\n        /* \"#utility.yul\":10067:10104   */\n      tag_208\n        /* \"#utility.yul\":10100:10103   */\n      dup3\n        /* \"#utility.yul\":10067:10104   */\n      tag_65\n      jump\t// in\n    tag_208:\n        /* \"#utility.yul\":10169:10187   */\n      0xffffffffffffffff\n        /* \"#utility.yul\":10161:10167   */\n      dup2\n        /* \"#utility.yul\":10158:10188   */\n      gt\n        /* \"#utility.yul\":10155:10211   */\n      iszero\n      tag_209\n      jumpi\n        /* \"#utility.yul\":10191:10209   */\n      tag_210\n      tag_56\n      jump\t// in\n    tag_210:\n        /* \"#utility.yul\":10155:10211   */\n    tag_209:\n        /* \"#utility.yul\":10235:10273   */\n      tag_211\n        /* \"#utility.yul\":10267:10271   */\n      dup3\n        /* \"#utility.yul\":10261:10272   */\n      sload\n        /* \"#utility.yul\":10235:10273   */\n      tag_43\n      jump\t// in\n    tag_211:\n        /* \"#utility.yul\":10320:10387   */\n      tag_212\n        /* \"#utility.yul\":10380:10386   */\n      dup3\n        /* \"#utility.yul\":10372:10378   */\n      dup3\n        /* \"#utility.yul\":10366:10370   */\n      dup6\n        /* \"#utility.yul\":10320:10387   */\n      tag_82\n      jump\t// in\n    tag_212:\n        /* \"#utility.yul\":10414:10415   */\n      0x00\n        /* \"#utility.yul\":10438:10442   */\n      0x20\n        /* \"#utility.yul\":10425:10442   */\n      swap1\n      pop\n        /* \"#utility.yul\":10470:10472   */\n      0x1f\n        /* \"#utility.yul\":10462:10468   */\n      dup4\n        /* \"#utility.yul\":10459:10473   */\n      gt\n        /* \"#utility.yul\":10487:10488   */\n      0x01\n        /* \"#utility.yul\":10482:11100   */\n      dup2\n      eq\n      tag_214\n      jumpi\n        /* \"#utility.yul\":11144:11145   */\n      0x00\n        /* \"#utility.yul\":11161:11167   */\n      dup5\n        /* \"#utility.yul\":11158:11235   */\n      iszero\n      tag_215\n      jumpi\n        /* \"#utility.yul\":11210:11219   */\n      dup3\n        /* \"#utility.yul\":11205:11208   */\n      dup8\n        /* \"#utility.yul\":11201:11220   */\n      add\n        /* \"#utility.yul\":11195:11221   */\n      mload\n        /* \"#utility.yul\":11186:11221   */\n      swap1\n      pop\n        /* \"#utility.yul\":11158:11235   */\n    tag_215:\n        /* \"#utility.yul\":11261:11328   */\n      tag_216\n        /* \"#utility.yul\":11321:11327   */\n      dup6\n        /* \"#utility.yul\":11314:11319   */\n      dup3\n        /* \"#utility.yul\":11261:11328   */\n      tag_85\n      jump\t// in\n    tag_216:\n        /* \"#utility.yul\":11255:11259   */\n      dup7\n        /* \"#utility.yul\":11248:11329   */\n      sstore\n        /* \"#utility.yul\":11117:11339   */\n      pop\n        /* \"#utility.yul\":10452:11339   */\n      jump(tag_213)\n        /* \"#utility.yul\":10482:11100   */\n    tag_214:\n        /* \"#utility.yul\":10534:10538   */\n      0x1f\n        /* \"#utility.yul\":10530:10539   */\n      not\n        /* \"#utility.yul\":10522:10528   */\n      dup5\n        /* \"#utility.yul\":10518:10540   */\n      and\n        /* \"#utility.yul\":10568:10605   */\n      tag_217\n        /* \"#utility.yul\":10600:10604   */\n      dup7\n        /* \"#utility.yul\":10568:10605   */\n      tag_71\n      jump\t// in\n    tag_217:\n        /* \"#utility.yul\":10627:10628   */\n      0x00\n        /* \"#utility.yul\":10641:10849   */\n    tag_218:\n        /* \"#utility.yul\":10655:10662   */\n      dup3\n        /* \"#utility.yul\":10652:10653   */\n      dup2\n        /* \"#utility.yul\":10649:10663   */\n      lt\n        /* \"#utility.yul\":10641:10849   */\n      iszero\n      tag_220\n      jumpi\n        /* \"#utility.yul\":10734:10743   */\n      dup5\n        /* \"#utility.yul\":10729:10732   */\n      dup10\n        /* \"#utility.yul\":10725:10744   */\n      add\n        /* \"#utility.yul\":10719:10745   */\n      mload\n        /* \"#utility.yul\":10711:10717   */\n      dup3\n        /* \"#utility.yul\":10704:10746   */\n      sstore\n        /* \"#utility.yul\":10785:10786   */\n      0x01\n        /* \"#utility.yul\":10777:10783   */\n      dup3\n        /* \"#utility.yul\":10773:10787   */\n      add\n        /* \"#utility.yul\":10763:10787   */\n      swap2\n      pop\n        /* \"#utility.yul\":10832:10834   */\n      0x20\n        /* \"#utility.yul\":10821:10830   */\n      dup6\n        /* \"#utility.yul\":10817:10835   */\n      add\n        /* \"#utility.yul\":10804:10835   */\n      swap5\n      pop\n        /* \"#utility.yul\":10678:10682   */\n      0x20\n        /* \"#utility.yul\":10675:10676   */\n      dup2\n        /* \"#utility.yul\":10671:10683   */\n      add\n        /* \"#utility.yul\":10666:10683   */\n      swap1\n      pop\n        /* \"#utility.yul\":10641:10849   */\n      jump(tag_218)\n    tag_220:\n        /* \"#utility.yul\":10877:10883   */\n      dup7\n        /* \"#utility.yul\":10868:10875   */\n      dup4\n        /* \"#utility.yul\":10865:10884   */\n      lt\n        /* \"#utility.yul\":10862:11041   */\n      iszero\n      tag_221\n      jumpi\n        /* \"#utility.yul\":10935:10944   */\n      dup5\n        /* \"#utility.yul\":10930:10933   */\n      dup10\n        /* \"#utility.yul\":10926:10945   */\n      add\n        /* \"#utility.yul\":10920:10946   */\n      mload\n        /* \"#utility.yul\":10978:11026   */\n      tag_222\n        /* \"#utility.yul\":11020:11024   */\n      0x1f\n        /* \"#utility.yul\":11012:11018   */\n      dup10\n        /* \"#utility.yul\":11008:11025   */\n      and\n        /* \"#utility.yul\":10997:11006   */\n      dup3\n        /* \"#utility.yul\":10978:11026   */\n      tag_84\n      jump\t// in\n    tag_222:\n        /* \"#utility.yul\":10970:10976   */\n      dup4\n        /* \"#utility.yul\":10963:11027   */\n      sstore\n        /* \"#utility.yul\":10885:11041   */\n      pop\n        /* \"#utility.yul\":10862:11041   */\n    tag_221:\n        /* \"#utility.yul\":11087:11088   */\n      0x01\n        /* \"#utility.yul\":11083:11084   */\n      0x02\n        /* \"#utility.yul\":11075:11081   */\n      dup9\n        /* \"#utility.yul\":11071:11085   */\n      mul\n        /* \"#utility.yul\":11067:11089   */\n      add\n        /* \"#utility.yul\":11061:11065   */\n      dup9\n        /* \"#utility.yul\":11054:11090   */\n      sstore\n        /* \"#utility.yul\":10489:11100   */\n      pop\n      pop\n      pop\n        /* \"#utility.yul\":10452:11339   */\n    tag_213:\n      pop\n        /* \"#utility.yul\":10042:11345   */\n      pop\n      pop\n      pop\n        /* \"#utility.yul\":9950:11345   */\n      pop\n      pop\n      jump\t// out\n        /* \"#utility.yul\":11351:11499   */\n    tag_86:\n        /* \"#utility.yul\":11453:11464   */\n      0x00\n        /* \"#utility.yul\":11490:11493   */\n      dup2\n        /* \"#utility.yul\":11475:11493   */\n      swap1\n      pop\n        /* \"#utility.yul\":11351:11499   */\n      swap3\n      swap2\n      pop\n      pop\n      jump\t// out\n        /* \"#utility.yul\":11505:11895   */\n    tag_87:\n        /* \"#utility.yul\":11611:11614   */\n      0x00\n        /* \"#utility.yul\":11639:11678   */\n      tag_225\n        /* \"#utility.yul\":11672:11677   */\n      dup3\n        /* \"#utility.yul\":11639:11678   */\n      tag_65\n      jump\t// in\n    tag_225:\n        /* \"#utility.yul\":11694:11783   */\n      tag_226\n        /* \"#utility.yul\":11776:11782   */\n      dup2\n        /* \"#utility.yul\":11771:11774   */\n      dup6\n        /* \"#utility.yul\":11694:11783   */\n      tag_86\n      jump\t// in\n    tag_226:\n        /* \"#utility.yul\":11687:11783   */\n      swap4\n      pop\n        /* \"#utility.yul\":11792:11857   */\n      tag_227\n        /* \"#utility.yul\":11850:11856   */\n      dup2\n        /* \"#utility.yul\":11845:11848   */\n      dup6\n        /* \"#utility.yul\":11838:11842   */\n      0x20\n        /* \"#utility.yul\":11831:11836   */\n      dup7\n        /* \"#utility.yul\":11827:11843   */\n      add\n        /* \"#utility.yul\":11792:11857   */\n      tag_67\n      jump\t// in\n    tag_227:\n        /* \"#utility.yul\":11882:11888   */\n      dup1\n        /* \"#utility.yul\":11877:11880   */\n      dup5\n        /* \"#utility.yul\":11873:11889   */\n      add\n        /* \"#utility.yul\":11866:11889   */\n      swap2\n      pop\n        /* \"#utility.yul\":11615:11895   */\n      pop\n        /* \"#utility.yul\":11505:11895   */\n      swap3\n      swap2\n      pop\n      pop\n      jump\t// out\n        /* \"#utility.yul\":11901:12176   */\n    tag_39:\n        /* \"#utility.yul\":12033:12036   */\n      0x00\n        /* \"#utility.yul\":12055:12150   */\n      tag_229\n        /* \"#utility.yul\":12146:12149   */\n      dup3\n        /* \"#utility.yul\":12137:12143   */\n      dup5\n        /* \"#utility.yul\":12055:12150   */\n      tag_87\n      jump\t// in\n    tag_229:\n        /* \"#utility.yul\":12048:12150   */\n      swap2\n      pop\n        /* \"#utility.yul\":12167:12170   */\n      dup2\n        /* \"#utility.yul\":12160:12170   */\n      swap1\n      pop\n        /* \"#utility.yul\":11901:12176   */\n      swap3\n      swap2\n      pop\n      pop\n      jump\t// out\n\n    auxdata: 0xa26469706673582212204cd2111b3c28cf394a3a760e7f1f292016be8a9aacb6998c0bf875bf872b96ad64736f6c63430008160033\n}\n",
				"bytecode": {
					"linkReferences": {},
					"object": "608060405234801561000f575f80fd5b5061095f8061001d5f395ff3fe608060405234801561000f575f80fd5b5060043610610055575f3560e01c80632e64cec1146100595780633d358625146100775780636057361d146100a75780636483c0ee146100c35780639e7a13ad146100df575b5f80fd5b610061610110565b60405161006e91906102ac565b60405180910390f35b610091600480360381019061008c9190610412565b610118565b60405161009e91906102ac565b60405180910390f35b6100c160048036038101906100bc9190610483565b610145565b005b6100dd60048036038101906100d891906104ae565b61015a565b005b6100f960048036038101906100f49190610483565b6101df565b604051610107929190610582565b60405180910390f35b5f8054905090565b6001818051602081018201805184825260208301602085012081835280955050505050505f915090505481565b60058161015291906105dd565b5f8190555050565b600260405180604001604052805f54815260200184815250908060018154018082558091505060019003905f5260205f2090600202015f909190919091505f820151815f015560208201518160010190816101b5919061080a565b505050806001836040516101c99190610913565b9081526020016040518091039020819055505050565b600281815481106101ee575f80fd5b905f5260205f2090600202015f91509050805f0154908060010180546102139061063d565b80601f016020809104026020016040519081016040528092919081815260200182805461023f9061063d565b801561028a5780601f106102615761010080835404028352916020019161028a565b820191905f5260205f20905b81548152906001019060200180831161026d57829003601f168201915b5050505050905082565b5f819050919050565b6102a681610294565b82525050565b5f6020820190506102bf5f83018461029d565b92915050565b5f604051905090565b5f80fd5b5f80fd5b5f80fd5b5f80fd5b5f601f19601f8301169050919050565b7f4e487b71000000000000000000000000000000000000000000000000000000005f52604160045260245ffd5b610324826102de565b810181811067ffffffffffffffff82111715610343576103426102ee565b5b80604052505050565b5f6103556102c5565b9050610361828261031b565b919050565b5f67ffffffffffffffff8211156103805761037f6102ee565b5b610389826102de565b9050602081019050919050565b828183375f83830152505050565b5f6103b66103b184610366565b61034c565b9050828152602081018484840111156103d2576103d16102da565b5b6103dd848285610396565b509392505050565b5f82601f8301126103f9576103f86102d6565b5b81356104098482602086016103a4565b91505092915050565b5f60208284031215610427576104266102ce565b5b5f82013567ffffffffffffffff811115610444576104436102d2565b5b610450848285016103e5565b91505092915050565b61046281610294565b811461046c575f80fd5b50565b5f8135905061047d81610459565b92915050565b5f60208284031215610498576104976102ce565b5b5f6104a58482850161046f565b91505092915050565b5f80604083850312156104c4576104c36102ce565b5b5f83013567ffffffffffffffff8111156104e1576104e06102d2565b5b6104ed858286016103e5565b92505060206104fe8582860161046f565b9150509250929050565b5f81519050919050565b5f82825260208201905092915050565b5f5b8381101561053f578082015181840152602081019050610524565b5f8484015250505050565b5f61055482610508565b61055e8185610512565b935061056e818560208601610522565b610577816102de565b840191505092915050565b5f6040820190506105955f83018561029d565b81810360208301526105a7818461054a565b90509392505050565b7f4e487b71000000000000000000000000000000000000000000000000000000005f52601160045260245ffd5b5f6105e782610294565b91506105f283610294565b925082820190508082111561060a576106096105b0565b5b92915050565b7f4e487b71000000000000000000000000000000000000000000000000000000005f52602260045260245ffd5b5f600282049050600182168061065457607f821691505b60208210810361066757610666610610565b5b50919050565b5f819050815f5260205f209050919050565b5f6020601f8301049050919050565b5f82821b905092915050565b5f600883026106c97fffffffffffffffffffffffffffffffffffffffffffffffffffffffffffffffff8261068e565b6106d3868361068e565b95508019841693508086168417925050509392505050565b5f819050919050565b5f61070e61070961070484610294565b6106eb565b610294565b9050919050565b5f819050919050565b610727836106f4565b61073b61073382610715565b84845461069a565b825550505050565b5f90565b61074f610743565b61075a81848461071e565b505050565b5b8181101561077d576107725f82610747565b600181019050610760565b5050565b601f8211156107c2576107938161066d565b61079c8461067f565b810160208510156107ab578190505b6107bf6107b78561067f565b83018261075f565b50505b505050565b5f82821c905092915050565b5f6107e25f19846008026107c7565b1980831691505092915050565b5f6107fa83836107d3565b9150826002028217905092915050565b61081382610508565b67ffffffffffffffff81111561082c5761082b6102ee565b5b610836825461063d565b610841828285610781565b5f60209050601f831160018114610872575f8415610860578287015190505b61086a85826107ef565b8655506108d1565b601f1984166108808661066d565b5f5b828110156108a757848901518255600182019150602085019450602081019050610882565b868310156108c457848901516108c0601f8916826107d3565b8355505b6001600288020188555050505b505050505050565b5f81905092915050565b5f6108ed82610508565b6108f781856108d9565b9350610907818560208601610522565b80840191505092915050565b5f61091e82846108e3565b91508190509291505056fea26469706673582212204cd2111b3c28cf394a3a760e7f1f292016be8a9aacb6998c0bf875bf872b96ad64736f6c63430008160033",
					"opcodes": "PUSH1 0x80 PUSH1 0x40 MSTORE CALLVALUE DUP1 ISZERO PUSH2 0xF JUMPI PUSH0 DUP1 REVERT JUMPDEST POP PUSH2 0x95F DUP1 PUSH2 0x1D PUSH0 CODECOPY PUSH0 RETURN INVALID PUSH1 0x80 PUSH1 0x40 MSTORE CALLVALUE DUP1 ISZERO PUSH2 0xF JUMPI PUSH0 DUP1 REVERT JUMPDEST POP PUSH1 0x4 CALLDATASIZE LT PUSH2 0x55 JUMPI PUSH0 CALLDATALOAD PUSH1 0xE0 SHR DUP1 PUSH4 0x2E64CEC1 EQ PUSH2 0x59 JUMPI DUP1 PUSH4 0x3D358625 EQ PUSH2 0x77 JUMPI DUP1 PUSH4 0x6057361D EQ PUSH2 0xA7 JUMPI DUP1 PUSH4 0x6483C0EE EQ PUSH2 0xC3 JUMPI DUP1 PUSH4 0x9E7A13AD EQ PUSH2 0xDF JUMPI JUMPDEST PUSH0 DUP1 REVERT JUMPDEST PUSH2 0x61 PUSH2 0x110 JUMP JUMPDEST PUSH1 0x40 MLOAD PUSH2 0x6E SWAP2 SWAP1 PUSH2 0x2AC JUMP JUMPDEST PUSH1 0x40 MLOAD DUP1 SWAP2 SUB SWAP1 RETURN JUMPDEST PUSH2 0x91 PUSH1 0x4 DUP1 CALLDATASIZE SUB DUP2 ADD SWAP1 PUSH2 0x8C SWAP2 SWAP1 PUSH2 0x412 JUMP JUMPDEST PUSH2 0x118 JUMP JUMPDEST PUSH1 0x40 MLOAD PUSH2 0x9E SWAP2 SWAP1 PUSH2 0x2AC JUMP JUMPDEST PUSH1 0x40 MLOAD DUP1 SWAP2 SUB SWAP1 RETURN JUMPDEST PUSH2 0xC1 PUSH1 0x4 DUP1 CALLDATASIZE SUB DUP2 ADD SWAP1 PUSH2 0xBC SWAP2 SWAP1 PUSH2 0x483 JUMP JUMPDEST PUSH2 0x145 JUMP JUMPDEST STOP JUMPDEST PUSH2 0xDD PUSH1 0x4 DUP1 CALLDATASIZE SUB DUP2 ADD SWAP1 PUSH2 0xD8 SWAP2 SWAP1 PUSH2 0x4AE JUMP JUMPDEST PUSH2 0x15A JUMP JUMPDEST STOP JUMPDEST PUSH2 0xF9 PUSH1 0x4 DUP1 CALLDATASIZE SUB DUP2 ADD SWAP1 PUSH2 0xF4 SWAP2 SWAP1 PUSH2 0x483 JUMP JUMPDEST PUSH2 0x1DF JUMP JUMPDEST PUSH1 0x40 MLOAD PUSH2 0x107 SWAP3 SWAP2 SWAP1 PUSH2 0x582 JUMP JUMPDEST PUSH1 0x40 MLOAD DUP1 SWAP2 SUB SWAP1 RETURN JUMPDEST PUSH0 DUP1 SLOAD SWAP1 POP SWAP1 JUMP JUMPDEST PUSH1 0x1 DUP2 DUP1 MLOAD PUSH1 0x20 DUP2 ADD DUP3 ADD DUP1 MLOAD DUP5 DUP3 MSTORE PUSH1 0x20 DUP4 ADD PUSH1 0x20 DUP6 ADD KECCAK256 DUP2 DUP4 MSTORE DUP1 SWAP6 POP POP POP POP POP POP PUSH0 SWAP2 POP SWAP1 POP SLOAD DUP2 JUMP JUMPDEST PUSH1 0x5 DUP2 PUSH2 0x152 SWAP2 SWAP1 PUSH2 0x5DD JUMP JUMPDEST PUSH0 DUP2 SWAP1 SSTORE POP POP JUMP JUMPDEST PUSH1 0x2 PUSH1 0x40 MLOAD DUP1 PUSH1 0x40 ADD PUSH1 0x40 MSTORE DUP1 PUSH0 SLOAD DUP2 MSTORE PUSH1 0x20 ADD DUP5 DUP2 MSTORE POP SWAP1 DUP1 PUSH1 0x1 DUP2 SLOAD ADD DUP1 DUP3 SSTORE DUP1 SWAP2 POP POP PUSH1 0x1 SWAP1 SUB SWAP1 PUSH0 MSTORE PUSH1 0x20 PUSH0 KECCAK256 SWAP1 PUSH1 0x2 MUL ADD PUSH0 SWAP1 SWAP2 SWAP1 SWAP2 SWAP1 SWAP2 POP PUSH0 DUP3 ADD MLOAD DUP2 PUSH0 ADD SSTORE PUSH1 0x20 DUP3 ADD MLOAD DUP2 PUSH1 0x1 ADD SWAP1 DUP2 PUSH2 0x1B5 SWAP2 SWAP1 PUSH2 0x80A JUMP JUMPDEST POP POP POP DUP1 PUSH1 0x1 DUP4 PUSH1 0x40 MLOAD PUSH2 0x1C9 SWAP2 SWAP1 PUSH2 0x913 JUMP JUMPDEST SWAP1 DUP2 MSTORE PUSH1 0x20 ADD PUSH1 0x40 MLOAD DUP1 SWAP2 SUB SWAP1 KECCAK256 DUP2 SWAP1 SSTORE POP POP POP JUMP JUMPDEST PUSH1 0x2 DUP2 DUP2 SLOAD DUP2 LT PUSH2 0x1EE JUMPI PUSH0 DUP1 REVERT JUMPDEST SWAP1 PUSH0 MSTORE PUSH1 0x20 PUSH0 KECCAK256 SWAP1 PUSH1 0x2 MUL ADD PUSH0 SWAP2 POP SWAP1 POP DUP1 PUSH0 ADD SLOAD SWAP1 DUP1 PUSH1 0x1 ADD DUP1 SLOAD PUSH2 0x213 SWAP1 PUSH2 0x63D JUMP JUMPDEST DUP1 PUSH1 0x1F ADD PUSH1 0x20 DUP1 SWAP2 DIV MUL PUSH1 0x20 ADD PUSH1 0x40 MLOAD SWAP1 DUP2 ADD PUSH1 0x40 MSTORE DUP1 SWAP3 SWAP2 SWAP1 DUP2 DUP2 MSTORE PUSH1 0x20 ADD DUP3 DUP1 SLOAD PUSH2 0x23F SWAP1 PUSH2 0x63D JUMP JUMPDEST DUP1 ISZERO PUSH2 0x28A JUMPI DUP1 PUSH1 0x1F LT PUSH2 0x261 JUMPI PUSH2 0x100 DUP1 DUP4 SLOAD DIV MUL DUP4 MSTORE SWAP2 PUSH1 0x20 ADD SWAP2 PUSH2 0x28A JUMP JUMPDEST DUP3 ADD SWAP2 SWAP1 PUSH0 MSTORE PUSH1 0x20 PUSH0 KECCAK256 SWAP1 JUMPDEST DUP2 SLOAD DUP2 MSTORE SWAP1 PUSH1 0x1 ADD SWAP1 PUSH1 0x20 ADD DUP1 DUP4 GT PUSH2 0x26D JUMPI DUP3 SWAP1 SUB PUSH1 0x1F AND DUP3 ADD SWAP2 JUMPDEST POP POP POP POP POP SWAP1 POP DUP3 JUMP JUMPDEST PUSH0 DUP2 SWAP1 POP SWAP2 SWAP1 POP JUMP JUMPDEST PUSH2 0x2A6 DUP2 PUSH2 0x294 JUMP JUMPDEST DUP3 MSTORE POP POP JUMP JUMPDEST PUSH0 PUSH1 0x20 DUP3 ADD SWAP1 POP PUSH2 0x2BF PUSH0 DUP4 ADD DUP5 PUSH2 0x29D JUMP JUMPDEST SWAP3 SWAP2 POP POP JUMP JUMPDEST PUSH0 PUSH1 0x40 MLOAD SWAP1 POP SWAP1 JUMP JUMPDEST PUSH0 DUP1 REVERT JUMPDEST PUSH0 DUP1 REVERT JUMPDEST PUSH0 DUP1 REVERT JUMPDEST PUSH0 DUP1 REVERT JUMPDEST PUSH0 PUSH1 0x1F NOT PUSH1 0x1F DUP4 ADD AND SWAP1 POP SWAP2 SWAP1 POP JUMP JUMPDEST PUSH32 0x4E487B7100000000000000000000000000000000000000000000000000000000 PUSH0 MSTORE PUSH1 0x41 PUSH1 0x4 MSTORE PUSH1 0x24 PUSH0 REVERT JUMPDEST PUSH2 0x324 DUP3 PUSH2 0x2DE JUMP JUMPDEST DUP2 ADD DUP2 DUP2 LT PUSH8 0xFFFFFFFFFFFFFFFF DUP3 GT OR ISZERO PUSH2 0x343 JUMPI PUSH2 0x342 PUSH2 0x2EE JUMP JUMPDEST JUMPDEST DUP1 PUSH1 0x40 MSTORE POP POP POP JUMP JUMPDEST PUSH0 PUSH2 0x355 PUSH2 0x2C5 JUMP JUMPDEST SWAP1 POP PUSH2 0x361 DUP3 DUP3 PUSH2 0x31B JUMP JUMPDEST SWAP2 SWAP1 POP JUMP JUMPDEST PUSH0 PUSH8 0xFFFFFFFFFFFFFFFF DUP3 GT ISZERO PUSH2 0x380 JUMPI PUSH2 0x37F PUSH2 0x2EE JUMP JUMPDEST JUMPDEST PUSH2 0x389 DUP3 PUSH2 0x2DE JUMP JUMPDEST SWAP1 POP PUSH1 0x20 DUP2 ADD SWAP1 POP SWAP2 SWAP1 POP JUMP JUMPDEST DUP3 DUP2 DUP4 CALLDATACOPY PUSH0 DUP4 DUP4 ADD MSTORE POP POP POP JUMP JUMPDEST PUSH0 PUSH2 0x3B6 PUSH2 0x3B1 DUP5 PUSH2 0x366 JUMP JUMPDEST PUSH2 0x34C JUMP JUMPDEST SWAP1 POP DUP3 DUP2 MSTORE PUSH1 0x20 DUP2 ADD DUP5 DUP5 DUP5 ADD GT ISZERO PUSH2 0x3D2 JUMPI PUSH2 0x3D1 PUSH2 0x2DA JUMP JUMPDEST JUMPDEST PUSH2 0x3DD DUP5 DUP3 DUP6 PUSH2 0x396 JUMP JUMPDEST POP SWAP4 SWAP3 POP POP POP JUMP JUMPDEST PUSH0 DUP3 PUSH1 0x1F DUP4 ADD SLT PUSH2 0x3F9 JUMPI PUSH2 0x3F8 PUSH2 0x2D6 JUMP JUMPDEST JUMPDEST DUP2 CALLDATALOAD PUSH2 0x409 DUP5 DUP3 PUSH1 0x20 DUP7 ADD PUSH2 0x3A4 JUMP JUMPDEST SWAP2 POP POP SWAP3 SWAP2 POP POP JUMP JUMPDEST PUSH0 PUSH1 0x20 DUP3 DUP5 SUB SLT ISZERO PUSH2 0x427 JUMPI PUSH2 0x426 PUSH2 0x2CE JUMP JUMPDEST JUMPDEST PUSH0 DUP3 ADD CALLDATALOAD PUSH8 0xFFFFFFFFFFFFFFFF DUP2 GT ISZERO PUSH2 0x444 JUMPI PUSH2 0x443 PUSH2 0x2D2 JUMP JUMPDEST JUMPDEST PUSH2 0x450 DUP5 DUP3 DUP6 ADD PUSH2 0x3E5 JUMP JUMPDEST SWAP2 POP POP SWAP3 SWAP2 POP POP JUMP JUMPDEST PUSH2 0x462 DUP2 PUSH2 0x294 JUMP JUMPDEST DUP2 EQ PUSH2 0x46C JUMPI PUSH0 DUP1 REVERT JUMPDEST POP JUMP JUMPDEST PUSH0 DUP2 CALLDATALOAD SWAP1 POP PUSH2 0x47D DUP2 PUSH2 0x459 JUMP JUMPDEST SWAP3 SWAP2 POP POP JUMP JUMPDEST PUSH0 PUSH1 0x20 DUP3 DUP5 SUB SLT ISZERO PUSH2 0x498 JUMPI PUSH2 0x497 PUSH2 0x2CE JUMP JUMPDEST JUMPDEST PUSH0 PUSH2 0x4A5 DUP5 DUP3 DUP6 ADD PUSH2 0x46F JUMP JUMPDEST SWAP2 POP POP SWAP3 SWAP2 POP POP JUMP JUMPDEST PUSH0 DUP1 PUSH1 0x40 DUP4 DUP6 SUB SLT ISZERO PUSH2 0x4C4 JUMPI PUSH2 0x4C3 PUSH2 0x2CE JUMP JUMPDEST JUMPDEST PUSH0 DUP4 ADD CALLDATALOAD PUSH8 0xFFFFFFFFFFFFFFFF DUP2 GT ISZERO PUSH2 0x4E1 JUMPI PUSH2 0x4E0 PUSH2 0x2D2 JUMP JUMPDEST JUMPDEST PUSH2 0x4ED DUP6 DUP3 DUP7 ADD PUSH2 0x3E5 JUMP JUMPDEST SWAP3 POP POP PUSH1 0x20 PUSH2 0x4FE DUP6 DUP3 DUP7 ADD PUSH2 0x46F JUMP JUMPDEST SWAP2 POP POP SWAP3 POP SWAP3 SWAP1 POP JUMP JUMPDEST PUSH0 DUP2 MLOAD SWAP1 POP SWAP2 SWAP1 POP JUMP JUMPDEST PUSH0 DUP3 DUP3 MSTORE PUSH1 0x20 DUP3 ADD SWAP1 POP SWAP3 SWAP2 POP POP JUMP JUMPDEST PUSH0 JUMPDEST DUP4 DUP2 LT ISZERO PUSH2 0x53F JUMPI DUP1 DUP3 ADD MLOAD DUP2 DUP5 ADD MSTORE PUSH1 0x20 DUP2 ADD SWAP1 POP PUSH2 0x524 JUMP JUMPDEST PUSH0 DUP5 DUP5 ADD MSTORE POP POP POP POP JUMP JUMPDEST PUSH0 PUSH2 0x554 DUP3 PUSH2 0x508 JUMP JUMPDEST PUSH2 0x55E DUP2 DUP6 PUSH2 0x512 JUMP JUMPDEST SWAP4 POP PUSH2 0x56E DUP2 DUP6 PUSH1 0x20 DUP7 ADD PUSH2 0x522 JUMP JUMPDEST PUSH2 0x577 DUP2 PUSH2 0x2DE JUMP JUMPDEST DUP5 ADD SWAP2 POP POP SWAP3 SWAP2 POP POP JUMP JUMPDEST PUSH0 PUSH1 0x40 DUP3 ADD SWAP1 POP PUSH2 0x595 PUSH0 DUP4 ADD DUP6 PUSH2 0x29D JUMP JUMPDEST DUP2 DUP2 SUB PUSH1 0x20 DUP4 ADD MSTORE PUSH2 0x5A7 DUP2 DUP5 PUSH2 0x54A JUMP JUMPDEST SWAP1 POP SWAP4 SWAP3 POP POP POP JUMP JUMPDEST PUSH32 0x4E487B7100000000000000000000000000000000000000000000000000000000 PUSH0 MSTORE PUSH1 0x11 PUSH1 0x4 MSTORE PUSH1 0x24 PUSH0 REVERT JUMPDEST PUSH0 PUSH2 0x5E7 DUP3 PUSH2 0x294 JUMP JUMPDEST SWAP2 POP PUSH2 0x5F2 DUP4 PUSH2 0x294 JUMP JUMPDEST SWAP3 POP DUP3 DUP3 ADD SWAP1 POP DUP1 DUP3 GT ISZERO PUSH2 0x60A JUMPI PUSH2 0x609 PUSH2 0x5B0 JUMP JUMPDEST JUMPDEST SWAP3 SWAP2 POP POP JUMP JUMPDEST PUSH32 0x4E487B7100000000000000000000000000000000000000000000000000000000 PUSH0 MSTORE PUSH1 0x22 PUSH1 0x4 MSTORE PUSH1 0x24 PUSH0 REVERT JUMPDEST PUSH0 PUSH1 0x2 DUP3 DIV SWAP1 POP PUSH1 0x1 DUP3 AND DUP1 PUSH2 0x654 JUMPI PUSH1 0x7F DUP3 AND SWAP2 POP JUMPDEST PUSH1 0x20 DUP3 LT DUP2 SUB PUSH2 0x667 JUMPI PUSH2 0x666 PUSH2 0x610 JUMP JUMPDEST JUMPDEST POP SWAP2 SWAP1 POP JUMP JUMPDEST PUSH0 DUP2 SWAP1 POP DUP2 PUSH0 MSTORE PUSH1 0x20 PUSH0 KECCAK256 SWAP1 POP SWAP2 SWAP1 POP JUMP JUMPDEST PUSH0 PUSH1 0x20 PUSH1 0x1F DUP4 ADD DIV SWAP1 POP SWAP2 SWAP1 POP JUMP JUMPDEST PUSH0 DUP3 DUP3 SHL SWAP1 POP SWAP3 SWAP2 POP POP JUMP JUMPDEST PUSH0 PUSH1 0x8 DUP4 MUL PUSH2 0x6C9 PUSH32 0xFFFFFFFFFFFFFFFFFFFFFFFFFFFFFFFFFFFFFFFFFFFFFFFFFFFFFFFFFFFFFFFF DUP3 PUSH2 0x68E JUMP JUMPDEST PUSH2 0x6D3 DUP7 DUP4 PUSH2 0x68E JUMP JUMPDEST SWAP6 POP DUP1 NOT DUP5 AND SWAP4 POP DUP1 DUP7 AND DUP5 OR SWAP3 POP POP POP SWAP4 SWAP3 POP POP POP JUMP JUMPDEST PUSH0 DUP2 SWAP1 POP SWAP2 SWAP1 POP JUMP JUMPDEST PUSH0 PUSH2 0x70E PUSH2 0x709 PUSH2 0x704 DUP5 PUSH2 0x294 JUMP JUMPDEST PUSH2 0x6EB JUMP JUMPDEST PUSH2 0x294 JUMP JUMPDEST SWAP1 POP SWAP2 SWAP1 POP JUMP JUMPDEST PUSH0 DUP2 SWAP1 POP SWAP2 SWAP1 POP JUMP JUMPDEST PUSH2 0x727 DUP4 PUSH2 0x6F4 JUMP JUMPDEST PUSH2 0x73B PUSH2 0x733 DUP3 PUSH2 0x715 JUMP JUMPDEST DUP5 DUP5 SLOAD PUSH2 0x69A JUMP JUMPDEST DUP3 SSTORE POP POP POP POP JUMP JUMPDEST PUSH0 SWAP1 JUMP JUMPDEST PUSH2 0x74F PUSH2 0x743 JUMP JUMPDEST PUSH2 0x75A DUP2 DUP5 DUP5 PUSH2 0x71E JUMP JUMPDEST POP POP POP JUMP JUMPDEST JUMPDEST DUP2 DUP2 LT ISZERO PUSH2 0x77D JUMPI PUSH2 0x772 PUSH0 DUP3 PUSH2 0x747 JUMP JUMPDEST PUSH1 0x1 DUP2 ADD SWAP1 POP PUSH2 0x760 JUMP JUMPDEST POP POP JUMP JUMPDEST PUSH1 0x1F DUP3 GT ISZERO PUSH2 0x7C2 JUMPI PUSH2 0x793 DUP2 PUSH2 0x66D JUMP JUMPDEST PUSH2 0x79C DUP5 PUSH2 0x67F JUMP JUMPDEST DUP2 ADD PUSH1 0x20 DUP6 LT ISZERO PUSH2 0x7AB JUMPI DUP2 SWAP1 POP JUMPDEST PUSH2 0x7BF PUSH2 0x7B7 DUP6 PUSH2 0x67F JUMP JUMPDEST DUP4 ADD DUP3 PUSH2 0x75F JUMP JUMPDEST POP POP JUMPDEST POP POP POP JUMP JUMPDEST PUSH0 DUP3 DUP3 SHR SWAP1 POP SWAP3 SWAP2 POP POP JUMP JUMPDEST PUSH0 PUSH2 0x7E2 PUSH0 NOT DUP5 PUSH1 0x8 MUL PUSH2 0x7C7 JUMP JUMPDEST NOT DUP1 DUP4 AND SWAP2 POP POP SWAP3 SWAP2 POP POP JUMP JUMPDEST PUSH0 PUSH2 0x7FA DUP4 DUP4 PUSH2 0x7D3 JUMP JUMPDEST SWAP2 POP DUP3 PUSH1 0x2 MUL DUP3 OR SWAP1 POP SWAP3 SWAP2 POP POP JUMP JUMPDEST PUSH2 0x813 DUP3 PUSH2 0x508 JUMP JUMPDEST PUSH8 0xFFFFFFFFFFFFFFFF DUP2 GT ISZERO PUSH2 0x82C JUMPI PUSH2 0x82B PUSH2 0x2EE JUMP JUMPDEST JUMPDEST PUSH2 0x836 DUP3 SLOAD PUSH2 0x63D JUMP JUMPDEST PUSH2 0x841 DUP3 DUP3 DUP6 PUSH2 0x781 JUMP JUMPDEST PUSH0 PUSH1 0x20 SWAP1 POP PUSH1 0x1F DUP4 GT PUSH1 0x1 DUP2 EQ PUSH2 0x872 JUMPI PUSH0 DUP5 ISZERO PUSH2 0x860 JUMPI DUP3 DUP8 ADD MLOAD SWAP1 POP JUMPDEST PUSH2 0x86A DUP6 DUP3 PUSH2 0x7EF JUMP JUMPDEST DUP7 SSTORE POP PUSH2 0x8D1 JUMP JUMPDEST PUSH1 0x1F NOT DUP5 AND PUSH2 0x880 DUP7 PUSH2 0x66D JUMP JUMPDEST PUSH0 JUMPDEST DUP3 DUP2 LT ISZERO PUSH2 0x8A7 JUMPI DUP5 DUP10 ADD MLOAD DUP3 SSTORE PUSH1 0x1 DUP3 ADD SWAP2 POP PUSH1 0x20 DUP6 ADD SWAP5 POP PUSH1 0x20 DUP2 ADD SWAP1 POP PUSH2 0x882 JUMP JUMPDEST DUP7 DUP4 LT ISZERO PUSH2 0x8C4 JUMPI DUP5 DUP10 ADD MLOAD PUSH2 0x8C0 PUSH1 0x1F DUP10 AND DUP3 PUSH2 0x7D3 JUMP JUMPDEST DUP4 SSTORE POP JUMPDEST PUSH1 0x1 PUSH1 0x2 DUP9 MUL ADD DUP9 SSTORE POP POP POP JUMPDEST POP POP POP POP POP POP JUMP JUMPDEST PUSH0 DUP2 SWAP1 POP SWAP3 SWAP2 POP POP JUMP JUMPDEST PUSH0 PUSH2 0x8ED DUP3 PUSH2 0x508 JUMP JUMPDEST PUSH2 0x8F7 DUP2 DUP6 PUSH2 0x8D9 JUMP JUMPDEST SWAP4 POP PUSH2 0x907 DUP2 DUP6 PUSH1 0x20 DUP7 ADD PUSH2 0x522 JUMP JUMPDEST DUP1 DUP5 ADD SWAP2 POP POP SWAP3 SWAP2 POP POP JUMP JUMPDEST PUSH0 PUSH2 0x91E DUP3 DUP5 PUSH2 0x8E3 JUMP JUMPDEST SWAP2 POP DUP2 SWAP1 POP SWAP3 SWAP2 POP POP JUMP INVALID LOG2 PUSH5 0x6970667358 0x22 SLT KECCAK256 0x4C 0xD2 GT SHL EXTCODECOPY 0x28 0xCF CODECOPY 0x4A GASPRICE PUSH23 0xE7F1F292016BE8A9AACB6998C0BF875BF872B96AD6473 PUSH16 0x6C634300081600330000000000000000 "
				},
				"gasEstimates": {
					"creation": {
						"codeDepositCost": "479800",
						"executionCost": "509",
						"totalCost": "480309"
					},
					"external": {
						"addToPeople(string,uint256)": "infinite",
						"nameTofavouriteNumber(string)": "infinite",
						"people(uint256)": "infinite",
						"retrieve()": "2410",
						"store(uint256)": "infinite"
					}
				},
				"methodIdentifiers": {
					"addToPeople(string,uint256)": "6483c0ee",
					"nameTofavouriteNumber(string)": "3d358625",
					"people(uint256)": "9e7a13ad",
					"retrieve()": "2e64cec1",
					"store(uint256)": "6057361d"
				}
			},
			"storageLayout": {
				"storage": [
					{
						"astId": 22,
						"contract": "contracts/06_inheritance.sol:ExtraStorage",
						"label": "favouriteNumber",
						"offset": 0,
						"slot": "0",
						"type": "t_uint256"
					},
					{
						"astId": 26,
						"contract": "contracts/06_inheritance.sol:ExtraStorage",
						"label": "nameTofavouriteNumber",
						"offset": 0,
						"slot": "1",
						"type": "t_mapping(t_string_memory_ptr,t_uint256)"
					},
					{
						"astId": 35,
						"contract": "contracts/06_inheritance.sol:ExtraStorage",
						"label": "people",
						"offset": 0,
						"slot": "2",
						"type": "t_array(t_struct(People)31_storage)dyn_storage"
					}
				],
				"types": {
					"t_array(t_struct(People)31_storage)dyn_storage": {
						"base": "t_struct(People)31_storage",
						"encoding": "dynamic_array",
						"label": "struct SimpleStorage.People[]",
						"numberOfBytes": "32"
					},
					"t_mapping(t_string_memory_ptr,t_uint256)": {
						"encoding": "mapping",
						"key": "t_string_memory_ptr",
						"label": "mapping(string => uint256)",
						"numberOfBytes": "32",
						"value": "t_uint256"
					},
					"t_string_memory_ptr": {
						"encoding": "bytes",
						"label": "string",
						"numberOfBytes": "32"
					},
					"t_string_storage": {
						"encoding": "bytes",
						"label": "string",
						"numberOfBytes": "32"
					},
					"t_struct(People)31_storage": {
						"encoding": "inplace",
						"label": "struct SimpleStorage.People",
						"members": [
							{
								"astId": 28,
								"contract": "contracts/06_inheritance.sol:ExtraStorage",
								"label": "favouriteNumber",
								"offset": 0,
								"slot": "0",
								"type": "t_uint256"
							},
							{
								"astId": 30,
								"contract": "contracts/06_inheritance.sol:ExtraStorage",
								"label": "name",
								"offset": 0,
								"slot": "1",
								"type": "t_string_storage"
							}
						],
						"numberOfBytes": "64"
					},
					"t_uint256": {
						"encoding": "inplace",
						"label": "uint256",
						"numberOfBytes": "32"
					}
				}
			},
			"userdoc": {
				"kind": "user",
				"methods": {},
				"version": 1
			}
		}
	}
}