{
	"contracts/PracticeTillThreesol.sol": {
		"PracticeSessionThree": {
			"abi": [
				{
					"inputs": [
						{
							"internalType": "uint256",
							"name": "_num",
							"type": "uint256"
						}
					],
					"name": "TestArray",
					"outputs": [],
					"stateMutability": "nonpayable",
					"type": "function"
				},
				{
					"inputs": [
						{
							"internalType": "uint256",
							"name": "_num",
							"type": "uint256"
						},
						{
							"internalType": "string",
							"name": "_name",
							"type": "string"
						},
						{
							"internalType": "bool",
							"name": "_hasFav",
							"type": "bool"
						}
					],
					"name": "addInFavStruct",
					"outputs": [],
					"stateMutability": "nonpayable",
					"type": "function"
				},
				{
					"inputs": [
						{
							"internalType": "uint256",
							"name": "",
							"type": "uint256"
						}
					],
					"name": "favs",
					"outputs": [
						{
							"internalType": "uint256",
							"name": "",
							"type": "uint256"
						}
					],
					"stateMutability": "view",
					"type": "function"
				},
				{
					"inputs": [
						{
							"internalType": "uint256",
							"name": "",
							"type": "uint256"
						}
					],
					"name": "favsStruct",
					"outputs": [
						{
							"internalType": "uint256",
							"name": "num",
							"type": "uint256"
						},
						{
							"internalType": "string",
							"name": "name",
							"type": "string"
						},
						{
							"internalType": "bool",
							"name": "hasFav",
							"type": "bool"
						}
					],
					"stateMutability": "view",
					"type": "function"
				},
				{
					"inputs": [
						{
							"internalType": "bytes32",
							"name": "",
							"type": "bytes32"
						}
					],
					"name": "isMapped",
					"outputs": [
						{
							"internalType": "bool",
							"name": "",
							"type": "bool"
						}
					],
					"stateMutability": "view",
					"type": "function"
				},
				{
					"inputs": [
						{
							"internalType": "uint256",
							"name": "index",
							"type": "uint256"
						}
					],
					"name": "retrieve",
					"outputs": [
						{
							"internalType": "uint256",
							"name": "",
							"type": "uint256"
						}
					],
					"stateMutability": "view",
					"type": "function"
				},
				{
					"inputs": [
						{
							"internalType": "uint256",
							"name": "_num",
							"type": "uint256"
						},
						{
							"internalType": "string",
							"name": "_name",
							"type": "string"
						}
					],
					"name": "retrieveBytes",
					"outputs": [
						{
							"internalType": "bytes32",
							"name": "",
							"type": "bytes32"
						}
					],
					"stateMutability": "pure",
					"type": "function"
				}
			],
			"devdoc": {
				"kind": "dev",
				"methods": {},
				"version": 1
			},
			"evm": {
				"assembly": "    /* \"contracts/PracticeTillThreesol.sol\":60:1068  contract PracticeSessionThree {... */\n  mstore(0x40, 0x80)\n  callvalue\n  dup1\n  iszero\n  tag_1\n  jumpi\n  0x00\n  dup1\n  revert\ntag_1:\n  pop\n  dataSize(sub_0)\n  dup1\n  dataOffset(sub_0)\n  0x00\n  codecopy\n  0x00\n  return\nstop\n\nsub_0: assembly {\n        /* \"contracts/PracticeTillThreesol.sol\":60:1068  contract PracticeSessionThree {... */\n      mstore(0x40, 0x80)\n      callvalue\n      dup1\n      iszero\n      tag_1\n      jumpi\n      0x00\n      dup1\n      revert\n    tag_1:\n      pop\n      jumpi(tag_2, lt(calldatasize, 0x04))\n      shr(0xe0, calldataload(0x00))\n      dup1\n      0x3d92707f\n      gt\n      tag_10\n      jumpi\n      dup1\n      0x3d92707f\n      eq\n      tag_6\n      jumpi\n      dup1\n      0x8f88708b\n      eq\n      tag_7\n      jumpi\n      dup1\n      0x9386b106\n      eq\n      tag_8\n      jumpi\n      dup1\n      0xd87476e5\n      eq\n      tag_9\n      jumpi\n      jump(tag_2)\n    tag_10:\n      dup1\n      0x287ab8d3\n      eq\n      tag_3\n      jumpi\n      dup1\n      0x321b41b3\n      eq\n      tag_4\n      jumpi\n      dup1\n      0x3c6276e8\n      eq\n      tag_5\n      jumpi\n    tag_2:\n      0x00\n      dup1\n      revert\n        /* \"contracts/PracticeTillThreesol.sol\":373:403  FavsStruct[] public favsStruct */\n    tag_3:\n      tag_11\n      0x04\n      dup1\n      calldatasize\n      sub\n      dup2\n      add\n      swap1\n      tag_12\n      swap2\n      swap1\n      tag_13\n      jump\t// in\n    tag_12:\n      tag_14\n      jump\t// in\n    tag_11:\n      mload(0x40)\n      tag_15\n      swap4\n      swap3\n      swap2\n      swap1\n      tag_16\n      jump\t// in\n    tag_15:\n      mload(0x40)\n      dup1\n      swap2\n      sub\n      swap1\n      return\n        /* \"contracts/PracticeTillThreesol.sol\":222:262  mapping(bytes32 => bool) public isMapped */\n    tag_4:\n      tag_17\n      0x04\n      dup1\n      calldatasize\n      sub\n      dup2\n      add\n      swap1\n      tag_18\n      swap2\n      swap1\n      tag_19\n      jump\t// in\n    tag_18:\n      tag_20\n      jump\t// in\n    tag_17:\n      mload(0x40)\n      tag_21\n      swap2\n      swap1\n      tag_22\n      jump\t// in\n    tag_21:\n      mload(0x40)\n      dup1\n      swap2\n      sub\n      swap1\n      return\n        /* \"contracts/PracticeTillThreesol.sol\":681:755  function TestArray(uint256 _num) public {... */\n    tag_5:\n      tag_23\n      0x04\n      dup1\n      calldatasize\n      sub\n      dup2\n      add\n      swap1\n      tag_24\n      swap2\n      swap1\n      tag_13\n      jump\t// in\n    tag_24:\n      tag_25\n      jump\t// in\n    tag_23:\n      stop\n        /* \"contracts/PracticeTillThreesol.sol\":97:118  uint256[] public favs */\n    tag_6:\n      tag_26\n      0x04\n      dup1\n      calldatasize\n      sub\n      dup2\n      add\n      swap1\n      tag_27\n      swap2\n      swap1\n      tag_13\n      jump\t// in\n    tag_27:\n      tag_28\n      jump\t// in\n    tag_26:\n      mload(0x40)\n      tag_29\n      swap2\n      swap1\n      tag_30\n      jump\t// in\n    tag_29:\n      mload(0x40)\n      dup1\n      swap2\n      sub\n      swap1\n      return\n        /* \"contracts/PracticeTillThreesol.sol\":763:862  function retrieve(uint256 index) public view returns(uint256) {... */\n    tag_7:\n      tag_31\n      0x04\n      dup1\n      calldatasize\n      sub\n      dup2\n      add\n      swap1\n      tag_32\n      swap2\n      swap1\n      tag_13\n      jump\t// in\n    tag_32:\n      tag_33\n      jump\t// in\n    tag_31:\n      mload(0x40)\n      tag_34\n      swap2\n      swap1\n      tag_30\n      jump\t// in\n    tag_34:\n      mload(0x40)\n      dup1\n      swap2\n      sub\n      swap1\n      return\n        /* \"contracts/PracticeTillThreesol.sol\":870:1065  function retrieveBytes(uint256 _num,string memory _name) public pure returns(bytes32){... */\n    tag_8:\n      tag_35\n      0x04\n      dup1\n      calldatasize\n      sub\n      dup2\n      add\n      swap1\n      tag_36\n      swap2\n      swap1\n      tag_37\n      jump\t// in\n    tag_36:\n      tag_38\n      jump\t// in\n    tag_35:\n      mload(0x40)\n      tag_39\n      swap2\n      swap1\n      tag_40\n      jump\t// in\n    tag_39:\n      mload(0x40)\n      dup1\n      swap2\n      sub\n      swap1\n      return\n        /* \"contracts/PracticeTillThreesol.sol\":412:673  function addInFavStruct(uint256 _num,string memory _name, bool _hasFav) public  {... */\n    tag_9:\n      tag_41\n      0x04\n      dup1\n      calldatasize\n      sub\n      dup2\n      add\n      swap1\n      tag_42\n      swap2\n      swap1\n      tag_43\n      jump\t// in\n    tag_42:\n      tag_44\n      jump\t// in\n    tag_41:\n      stop\n        /* \"contracts/PracticeTillThreesol.sol\":373:403  FavsStruct[] public favsStruct */\n    tag_14:\n      0x02\n      dup2\n      dup2\n      sload\n      dup2\n      lt\n      tag_45\n      jumpi\n      0x00\n      dup1\n      revert\n    tag_45:\n      swap1\n      0x00\n      mstore\n      keccak256(0x00, 0x20)\n      swap1\n      0x03\n      mul\n      add\n      0x00\n      swap2\n      pop\n      swap1\n      pop\n      dup1\n      0x00\n      add\n      sload\n      swap1\n      dup1\n      0x01\n      add\n      dup1\n      sload\n      tag_47\n      swap1\n      tag_48\n      jump\t// in\n    tag_47:\n      dup1\n      0x1f\n      add\n      0x20\n      dup1\n      swap2\n      div\n      mul\n      0x20\n      add\n      mload(0x40)\n      swap1\n      dup2\n      add\n      0x40\n      mstore\n      dup1\n      swap3\n      swap2\n      swap1\n      dup2\n      dup2\n      mstore\n      0x20\n      add\n      dup3\n      dup1\n      sload\n      tag_49\n      swap1\n      tag_48\n      jump\t// in\n    tag_49:\n      dup1\n      iszero\n      tag_50\n      jumpi\n      dup1\n      0x1f\n      lt\n      tag_51\n      jumpi\n      0x0100\n      dup1\n      dup4\n      sload\n      div\n      mul\n      dup4\n      mstore\n      swap2\n      0x20\n      add\n      swap2\n      jump(tag_50)\n    tag_51:\n      dup3\n      add\n      swap2\n      swap1\n      0x00\n      mstore\n      keccak256(0x00, 0x20)\n      swap1\n    tag_52:\n      dup2\n      sload\n      dup2\n      mstore\n      swap1\n      0x01\n      add\n      swap1\n      0x20\n      add\n      dup1\n      dup4\n      gt\n      tag_52\n      jumpi\n      dup3\n      swap1\n      sub\n      0x1f\n      and\n      dup3\n      add\n      swap2\n    tag_50:\n      pop\n      pop\n      pop\n      pop\n      pop\n      swap1\n      dup1\n      0x02\n      add\n      0x00\n      swap1\n      sload\n      swap1\n      0x0100\n      exp\n      swap1\n      div\n      0xff\n      and\n      swap1\n      pop\n      dup4\n      jump\t// out\n        /* \"contracts/PracticeTillThreesol.sol\":222:262  mapping(bytes32 => bool) public isMapped */\n    tag_20:\n      mstore(0x20, 0x01)\n      dup1\n      0x00\n      mstore\n      keccak256(0x00, 0x40)\n      0x00\n      swap2\n      pop\n      sload\n      swap1\n      0x0100\n      exp\n      swap1\n      div\n      0xff\n      and\n      dup2\n      jump\t// out\n        /* \"contracts/PracticeTillThreesol.sol\":681:755  function TestArray(uint256 _num) public {... */\n    tag_25:\n        /* \"contracts/PracticeTillThreesol.sol\":732:736  favs */\n      0x00\n        /* \"contracts/PracticeTillThreesol.sol\":742:746  _num */\n      dup2\n        /* \"contracts/PracticeTillThreesol.sol\":732:747  favs.push(_num) */\n      swap1\n      dup1\n      0x01\n      dup2\n      sload\n      add\n      dup1\n      dup3\n      sstore\n      dup1\n      swap2\n      pop\n      pop\n      0x01\n      swap1\n      sub\n      swap1\n      0x00\n      mstore\n      keccak256(0x00, 0x20)\n      add\n      0x00\n      swap1\n      swap2\n      swap1\n      swap2\n      swap1\n      swap2\n      pop\n      sstore\n        /* \"contracts/PracticeTillThreesol.sol\":681:755  function TestArray(uint256 _num) public {... */\n      pop\n      jump\t// out\n        /* \"contracts/PracticeTillThreesol.sol\":97:118  uint256[] public favs */\n    tag_28:\n      0x00\n      dup2\n      dup2\n      sload\n      dup2\n      lt\n      tag_55\n      jumpi\n      0x00\n      dup1\n      revert\n    tag_55:\n      swap1\n      0x00\n      mstore\n      keccak256(0x00, 0x20)\n      add\n      0x00\n      swap2\n      pop\n      swap1\n      pop\n      sload\n      dup2\n      jump\t// out\n        /* \"contracts/PracticeTillThreesol.sol\":763:862  function retrieve(uint256 index) public view returns(uint256) {... */\n    tag_33:\n        /* \"contracts/PracticeTillThreesol.sol\":816:823  uint256 */\n      0x00\n        /* \"contracts/PracticeTillThreesol.sol\":843:847  favs */\n      dup1\n        /* \"contracts/PracticeTillThreesol.sol\":848:853  index */\n      dup3\n        /* \"contracts/PracticeTillThreesol.sol\":843:854  favs[index] */\n      dup2\n      sload\n      dup2\n      lt\n      tag_58\n      jumpi\n      tag_59\n      tag_60\n      jump\t// in\n    tag_59:\n    tag_58:\n      swap1\n      0x00\n      mstore\n      keccak256(0x00, 0x20)\n      add\n      sload\n        /* \"contracts/PracticeTillThreesol.sol\":836:854  return favs[index] */\n      swap1\n      pop\n        /* \"contracts/PracticeTillThreesol.sol\":763:862  function retrieve(uint256 index) public view returns(uint256) {... */\n      swap2\n      swap1\n      pop\n      jump\t// out\n        /* \"contracts/PracticeTillThreesol.sol\":870:1065  function retrieveBytes(uint256 _num,string memory _name) public pure returns(bytes32){... */\n    tag_38:\n        /* \"contracts/PracticeTillThreesol.sol\":947:954  bytes32 */\n      0x00\n        /* \"contracts/PracticeTillThreesol.sol\":966:985  bytes32 combinedKey */\n      dup1\n        /* \"contracts/PracticeTillThreesol.sol\":1015:1019  _num */\n      dup4\n        /* \"contracts/PracticeTillThreesol.sol\":1021:1026  _name */\n      dup4\n        /* \"contracts/PracticeTillThreesol.sol\":998:1027  abi.encodePacked(_num, _name) */\n      add(0x20, mload(0x40))\n      tag_63\n      swap3\n      swap2\n      swap1\n      tag_64\n      jump\t// in\n    tag_63:\n      mload(0x40)\n      0x20\n      dup2\n      dup4\n      sub\n      sub\n      dup2\n      mstore\n      swap1\n      0x40\n      mstore\n        /* \"contracts/PracticeTillThreesol.sol\":988:1028  keccak256(abi.encodePacked(_num, _name)) */\n      dup1\n      mload\n      swap1\n      0x20\n      add\n      keccak256\n        /* \"contracts/PracticeTillThreesol.sol\":966:1028  bytes32 combinedKey = keccak256(abi.encodePacked(_num, _name)) */\n      swap1\n      pop\n        /* \"contracts/PracticeTillThreesol.sol\":1046:1057  combinedKey */\n      dup1\n        /* \"contracts/PracticeTillThreesol.sol\":1039:1057  return combinedKey */\n      swap2\n      pop\n      pop\n        /* \"contracts/PracticeTillThreesol.sol\":870:1065  function retrieveBytes(uint256 _num,string memory _name) public pure returns(bytes32){... */\n      swap3\n      swap2\n      pop\n      pop\n      jump\t// out\n        /* \"contracts/PracticeTillThreesol.sol\":412:673  function addInFavStruct(uint256 _num,string memory _name, bool _hasFav) public  {... */\n    tag_44:\n        /* \"contracts/PracticeTillThreesol.sol\":503:513  favsStruct */\n      0x02\n        /* \"contracts/PracticeTillThreesol.sol\":519:549  FavsStruct(_num,_name,_hasFav) */\n      mload(0x40)\n      dup1\n      0x60\n      add\n      0x40\n      mstore\n      dup1\n        /* \"contracts/PracticeTillThreesol.sol\":530:534  _num */\n      dup6\n        /* \"contracts/PracticeTillThreesol.sol\":519:549  FavsStruct(_num,_name,_hasFav) */\n      dup2\n      mstore\n      0x20\n      add\n        /* \"contracts/PracticeTillThreesol.sol\":535:540  _name */\n      dup5\n        /* \"contracts/PracticeTillThreesol.sol\":519:549  FavsStruct(_num,_name,_hasFav) */\n      dup2\n      mstore\n      0x20\n      add\n        /* \"contracts/PracticeTillThreesol.sol\":541:548  _hasFav */\n      dup4\n        /* \"contracts/PracticeTillThreesol.sol\":519:549  FavsStruct(_num,_name,_hasFav) */\n      iszero\n      iszero\n      dup2\n      mstore\n      pop\n        /* \"contracts/PracticeTillThreesol.sol\":503:550  favsStruct.push(FavsStruct(_num,_name,_hasFav)) */\n      swap1\n      dup1\n      0x01\n      dup2\n      sload\n      add\n      dup1\n      dup3\n      sstore\n      dup1\n      swap2\n      pop\n      pop\n      0x01\n      swap1\n      sub\n      swap1\n      0x00\n      mstore\n      keccak256(0x00, 0x20)\n      swap1\n      0x03\n      mul\n      add\n      0x00\n      swap1\n      swap2\n      swap1\n      swap2\n      swap1\n      swap2\n      pop\n      0x00\n      dup3\n      add\n      mload\n      dup2\n      0x00\n      add\n      sstore\n      0x20\n      dup3\n      add\n      mload\n      dup2\n      0x01\n      add\n      swap1\n      dup2\n      tag_67\n      swap2\n      swap1\n      tag_68\n      jump\t// in\n    tag_67:\n      pop\n      0x40\n      dup3\n      add\n      mload\n      dup2\n      0x02\n      add\n      exp(0x0100, 0x00)\n      dup2\n      sload\n      dup2\n      0xff\n      mul\n      not\n      and\n      swap1\n      dup4\n      iszero\n      iszero\n      mul\n      or\n      swap1\n      sstore\n      pop\n      pop\n      pop\n        /* \"contracts/PracticeTillThreesol.sol\":561:580  bytes32 combinedKey */\n      0x00\n        /* \"contracts/PracticeTillThreesol.sol\":610:614  _num */\n      dup4\n        /* \"contracts/PracticeTillThreesol.sol\":616:621  _name */\n      dup4\n        /* \"contracts/PracticeTillThreesol.sol\":593:622  abi.encodePacked(_num, _name) */\n      add(0x20, mload(0x40))\n      tag_69\n      swap3\n      swap2\n      swap1\n      tag_64\n      jump\t// in\n    tag_69:\n      mload(0x40)\n      0x20\n      dup2\n      dup4\n      sub\n      sub\n      dup2\n      mstore\n      swap1\n      0x40\n      mstore\n        /* \"contracts/PracticeTillThreesol.sol\":583:623  keccak256(abi.encodePacked(_num, _name)) */\n      dup1\n      mload\n      swap1\n      0x20\n      add\n      keccak256\n        /* \"contracts/PracticeTillThreesol.sol\":561:623  bytes32 combinedKey = keccak256(abi.encodePacked(_num, _name)) */\n      swap1\n      pop\n        /* \"contracts/PracticeTillThreesol.sol\":658:665  _hasFav */\n      dup2\n        /* \"contracts/PracticeTillThreesol.sol\":634:642  isMapped */\n      0x01\n        /* \"contracts/PracticeTillThreesol.sol\":634:655  isMapped[combinedKey] */\n      0x00\n        /* \"contracts/PracticeTillThreesol.sol\":643:654  combinedKey */\n      dup4\n        /* \"contracts/PracticeTillThreesol.sol\":634:655  isMapped[combinedKey] */\n      dup2\n      mstore\n      0x20\n      add\n      swap1\n      dup2\n      mstore\n      0x20\n      add\n      0x00\n      keccak256\n      0x00\n        /* \"contracts/PracticeTillThreesol.sol\":634:665  isMapped[combinedKey] = _hasFav */\n      0x0100\n      exp\n      dup2\n      sload\n      dup2\n      0xff\n      mul\n      not\n      and\n      swap1\n      dup4\n      iszero\n      iszero\n      mul\n      or\n      swap1\n      sstore\n      pop\n        /* \"contracts/PracticeTillThreesol.sol\":492:673  {... */\n      pop\n        /* \"contracts/PracticeTillThreesol.sol\":412:673  function addInFavStruct(uint256 _num,string memory _name, bool _hasFav) public  {... */\n      pop\n      pop\n      pop\n      jump\t// out\n        /* \"#utility.yul\":7:82   */\n    tag_70:\n        /* \"#utility.yul\":40:46   */\n      0x00\n        /* \"#utility.yul\":73:75   */\n      0x40\n        /* \"#utility.yul\":67:76   */\n      mload\n        /* \"#utility.yul\":57:76   */\n      swap1\n      pop\n        /* \"#utility.yul\":7:82   */\n      swap1\n      jump\t// out\n        /* \"#utility.yul\":88:205   */\n    tag_71:\n        /* \"#utility.yul\":197:198   */\n      0x00\n        /* \"#utility.yul\":194:195   */\n      dup1\n        /* \"#utility.yul\":187:199   */\n      revert\n        /* \"#utility.yul\":211:328   */\n    tag_72:\n        /* \"#utility.yul\":320:321   */\n      0x00\n        /* \"#utility.yul\":317:318   */\n      dup1\n        /* \"#utility.yul\":310:322   */\n      revert\n        /* \"#utility.yul\":334:411   */\n    tag_73:\n        /* \"#utility.yul\":371:378   */\n      0x00\n        /* \"#utility.yul\":400:405   */\n      dup2\n        /* \"#utility.yul\":389:405   */\n      swap1\n      pop\n        /* \"#utility.yul\":334:411   */\n      swap2\n      swap1\n      pop\n      jump\t// out\n        /* \"#utility.yul\":417:539   */\n    tag_74:\n        /* \"#utility.yul\":490:514   */\n      tag_125\n        /* \"#utility.yul\":508:513   */\n      dup2\n        /* \"#utility.yul\":490:514   */\n      tag_73\n      jump\t// in\n    tag_125:\n        /* \"#utility.yul\":483:488   */\n      dup2\n        /* \"#utility.yul\":480:515   */\n      eq\n        /* \"#utility.yul\":470:533   */\n      tag_126\n      jumpi\n        /* \"#utility.yul\":529:530   */\n      0x00\n        /* \"#utility.yul\":526:527   */\n      dup1\n        /* \"#utility.yul\":519:531   */\n      revert\n        /* \"#utility.yul\":470:533   */\n    tag_126:\n        /* \"#utility.yul\":417:539   */\n      pop\n      jump\t// out\n        /* \"#utility.yul\":545:684   */\n    tag_75:\n        /* \"#utility.yul\":591:596   */\n      0x00\n        /* \"#utility.yul\":629:635   */\n      dup2\n        /* \"#utility.yul\":616:636   */\n      calldataload\n        /* \"#utility.yul\":607:636   */\n      swap1\n      pop\n        /* \"#utility.yul\":645:678   */\n      tag_128\n        /* \"#utility.yul\":672:677   */\n      dup2\n        /* \"#utility.yul\":645:678   */\n      tag_74\n      jump\t// in\n    tag_128:\n        /* \"#utility.yul\":545:684   */\n      swap3\n      swap2\n      pop\n      pop\n      jump\t// out\n        /* \"#utility.yul\":690:1019   */\n    tag_13:\n        /* \"#utility.yul\":749:755   */\n      0x00\n        /* \"#utility.yul\":798:800   */\n      0x20\n        /* \"#utility.yul\":786:795   */\n      dup3\n        /* \"#utility.yul\":777:784   */\n      dup5\n        /* \"#utility.yul\":773:796   */\n      sub\n        /* \"#utility.yul\":769:801   */\n      slt\n        /* \"#utility.yul\":766:885   */\n      iszero\n      tag_130\n      jumpi\n        /* \"#utility.yul\":804:883   */\n      tag_131\n      tag_71\n      jump\t// in\n    tag_131:\n        /* \"#utility.yul\":766:885   */\n    tag_130:\n        /* \"#utility.yul\":924:925   */\n      0x00\n        /* \"#utility.yul\":949:1002   */\n      tag_132\n        /* \"#utility.yul\":994:1001   */\n      dup5\n        /* \"#utility.yul\":985:991   */\n      dup3\n        /* \"#utility.yul\":974:983   */\n      dup6\n        /* \"#utility.yul\":970:992   */\n      add\n        /* \"#utility.yul\":949:1002   */\n      tag_75\n      jump\t// in\n    tag_132:\n        /* \"#utility.yul\":939:1002   */\n      swap2\n      pop\n        /* \"#utility.yul\":895:1012   */\n      pop\n        /* \"#utility.yul\":690:1019   */\n      swap3\n      swap2\n      pop\n      pop\n      jump\t// out\n        /* \"#utility.yul\":1025:1143   */\n    tag_76:\n        /* \"#utility.yul\":1112:1136   */\n      tag_134\n        /* \"#utility.yul\":1130:1135   */\n      dup2\n        /* \"#utility.yul\":1112:1136   */\n      tag_73\n      jump\t// in\n    tag_134:\n        /* \"#utility.yul\":1107:1110   */\n      dup3\n        /* \"#utility.yul\":1100:1137   */\n      mstore\n        /* \"#utility.yul\":1025:1143   */\n      pop\n      pop\n      jump\t// out\n        /* \"#utility.yul\":1149:1248   */\n    tag_77:\n        /* \"#utility.yul\":1201:1207   */\n      0x00\n        /* \"#utility.yul\":1235:1240   */\n      dup2\n        /* \"#utility.yul\":1229:1241   */\n      mload\n        /* \"#utility.yul\":1219:1241   */\n      swap1\n      pop\n        /* \"#utility.yul\":1149:1248   */\n      swap2\n      swap1\n      pop\n      jump\t// out\n        /* \"#utility.yul\":1254:1423   */\n    tag_78:\n        /* \"#utility.yul\":1338:1349   */\n      0x00\n        /* \"#utility.yul\":1372:1378   */\n      dup3\n        /* \"#utility.yul\":1367:1370   */\n      dup3\n        /* \"#utility.yul\":1360:1379   */\n      mstore\n        /* \"#utility.yul\":1412:1416   */\n      0x20\n        /* \"#utility.yul\":1407:1410   */\n      dup3\n        /* \"#utility.yul\":1403:1417   */\n      add\n        /* \"#utility.yul\":1388:1417   */\n      swap1\n      pop\n        /* \"#utility.yul\":1254:1423   */\n      swap3\n      swap2\n      pop\n      pop\n      jump\t// out\n        /* \"#utility.yul\":1429:1675   */\n    tag_79:\n        /* \"#utility.yul\":1510:1511   */\n      0x00\n        /* \"#utility.yul\":1520:1633   */\n    tag_138:\n        /* \"#utility.yul\":1534:1540   */\n      dup4\n        /* \"#utility.yul\":1531:1532   */\n      dup2\n        /* \"#utility.yul\":1528:1541   */\n      lt\n        /* \"#utility.yul\":1520:1633   */\n      iszero\n      tag_140\n      jumpi\n        /* \"#utility.yul\":1619:1620   */\n      dup1\n        /* \"#utility.yul\":1614:1617   */\n      dup3\n        /* \"#utility.yul\":1610:1621   */\n      add\n        /* \"#utility.yul\":1604:1622   */\n      mload\n        /* \"#utility.yul\":1600:1601   */\n      dup2\n        /* \"#utility.yul\":1595:1598   */\n      dup5\n        /* \"#utility.yul\":1591:1602   */\n      add\n        /* \"#utility.yul\":1584:1623   */\n      mstore\n        /* \"#utility.yul\":1556:1558   */\n      0x20\n        /* \"#utility.yul\":1553:1554   */\n      dup2\n        /* \"#utility.yul\":1549:1559   */\n      add\n        /* \"#utility.yul\":1544:1559   */\n      swap1\n      pop\n        /* \"#utility.yul\":1520:1633   */\n      jump(tag_138)\n    tag_140:\n        /* \"#utility.yul\":1667:1668   */\n      0x00\n        /* \"#utility.yul\":1658:1664   */\n      dup5\n        /* \"#utility.yul\":1653:1656   */\n      dup5\n        /* \"#utility.yul\":1649:1665   */\n      add\n        /* \"#utility.yul\":1642:1669   */\n      mstore\n        /* \"#utility.yul\":1491:1675   */\n      pop\n        /* \"#utility.yul\":1429:1675   */\n      pop\n      pop\n      pop\n      jump\t// out\n        /* \"#utility.yul\":1681:1783   */\n    tag_80:\n        /* \"#utility.yul\":1722:1728   */\n      0x00\n        /* \"#utility.yul\":1773:1775   */\n      0x1f\n        /* \"#utility.yul\":1769:1776   */\n      not\n        /* \"#utility.yul\":1764:1766   */\n      0x1f\n        /* \"#utility.yul\":1757:1762   */\n      dup4\n        /* \"#utility.yul\":1753:1767   */\n      add\n        /* \"#utility.yul\":1749:1777   */\n      and\n        /* \"#utility.yul\":1739:1777   */\n      swap1\n      pop\n        /* \"#utility.yul\":1681:1783   */\n      swap2\n      swap1\n      pop\n      jump\t// out\n        /* \"#utility.yul\":1789:2166   */\n    tag_81:\n        /* \"#utility.yul\":1877:1880   */\n      0x00\n        /* \"#utility.yul\":1905:1944   */\n      tag_143\n        /* \"#utility.yul\":1938:1943   */\n      dup3\n        /* \"#utility.yul\":1905:1944   */\n      tag_77\n      jump\t// in\n    tag_143:\n        /* \"#utility.yul\":1960:2031   */\n      tag_144\n        /* \"#utility.yul\":2024:2030   */\n      dup2\n        /* \"#utility.yul\":2019:2022   */\n      dup6\n        /* \"#utility.yul\":1960:2031   */\n      tag_78\n      jump\t// in\n    tag_144:\n        /* \"#utility.yul\":1953:2031   */\n      swap4\n      pop\n        /* \"#utility.yul\":2040:2105   */\n      tag_145\n        /* \"#utility.yul\":2098:2104   */\n      dup2\n        /* \"#utility.yul\":2093:2096   */\n      dup6\n        /* \"#utility.yul\":2086:2090   */\n      0x20\n        /* \"#utility.yul\":2079:2084   */\n      dup7\n        /* \"#utility.yul\":2075:2091   */\n      add\n        /* \"#utility.yul\":2040:2105   */\n      tag_79\n      jump\t// in\n    tag_145:\n        /* \"#utility.yul\":2130:2159   */\n      tag_146\n        /* \"#utility.yul\":2152:2158   */\n      dup2\n        /* \"#utility.yul\":2130:2159   */\n      tag_80\n      jump\t// in\n    tag_146:\n        /* \"#utility.yul\":2125:2128   */\n      dup5\n        /* \"#utility.yul\":2121:2160   */\n      add\n        /* \"#utility.yul\":2114:2160   */\n      swap2\n      pop\n        /* \"#utility.yul\":1881:2166   */\n      pop\n        /* \"#utility.yul\":1789:2166   */\n      swap3\n      swap2\n      pop\n      pop\n      jump\t// out\n        /* \"#utility.yul\":2172:2262   */\n    tag_82:\n        /* \"#utility.yul\":2206:2213   */\n      0x00\n        /* \"#utility.yul\":2249:2254   */\n      dup2\n        /* \"#utility.yul\":2242:2255   */\n      iszero\n        /* \"#utility.yul\":2235:2256   */\n      iszero\n        /* \"#utility.yul\":2224:2256   */\n      swap1\n      pop\n        /* \"#utility.yul\":2172:2262   */\n      swap2\n      swap1\n      pop\n      jump\t// out\n        /* \"#utility.yul\":2268:2377   */\n    tag_83:\n        /* \"#utility.yul\":2349:2370   */\n      tag_149\n        /* \"#utility.yul\":2364:2369   */\n      dup2\n        /* \"#utility.yul\":2349:2370   */\n      tag_82\n      jump\t// in\n    tag_149:\n        /* \"#utility.yul\":2344:2347   */\n      dup3\n        /* \"#utility.yul\":2337:2371   */\n      mstore\n        /* \"#utility.yul\":2268:2377   */\n      pop\n      pop\n      jump\t// out\n        /* \"#utility.yul\":2383:2904   */\n    tag_16:\n        /* \"#utility.yul\":2546:2550   */\n      0x00\n        /* \"#utility.yul\":2584:2586   */\n      0x60\n        /* \"#utility.yul\":2573:2582   */\n      dup3\n        /* \"#utility.yul\":2569:2587   */\n      add\n        /* \"#utility.yul\":2561:2587   */\n      swap1\n      pop\n        /* \"#utility.yul\":2597:2668   */\n      tag_151\n        /* \"#utility.yul\":2665:2666   */\n      0x00\n        /* \"#utility.yul\":2654:2663   */\n      dup4\n        /* \"#utility.yul\":2650:2667   */\n      add\n        /* \"#utility.yul\":2641:2647   */\n      dup7\n        /* \"#utility.yul\":2597:2668   */\n      tag_76\n      jump\t// in\n    tag_151:\n        /* \"#utility.yul\":2715:2724   */\n      dup2\n        /* \"#utility.yul\":2709:2713   */\n      dup2\n        /* \"#utility.yul\":2705:2725   */\n      sub\n        /* \"#utility.yul\":2700:2702   */\n      0x20\n        /* \"#utility.yul\":2689:2698   */\n      dup4\n        /* \"#utility.yul\":2685:2703   */\n      add\n        /* \"#utility.yul\":2678:2726   */\n      mstore\n        /* \"#utility.yul\":2743:2821   */\n      tag_152\n        /* \"#utility.yul\":2816:2820   */\n      dup2\n        /* \"#utility.yul\":2807:2813   */\n      dup6\n        /* \"#utility.yul\":2743:2821   */\n      tag_81\n      jump\t// in\n    tag_152:\n        /* \"#utility.yul\":2735:2821   */\n      swap1\n      pop\n        /* \"#utility.yul\":2831:2897   */\n      tag_153\n        /* \"#utility.yul\":2893:2895   */\n      0x40\n        /* \"#utility.yul\":2882:2891   */\n      dup4\n        /* \"#utility.yul\":2878:2896   */\n      add\n        /* \"#utility.yul\":2869:2875   */\n      dup5\n        /* \"#utility.yul\":2831:2897   */\n      tag_83\n      jump\t// in\n    tag_153:\n        /* \"#utility.yul\":2383:2904   */\n      swap5\n      swap4\n      pop\n      pop\n      pop\n      pop\n      jump\t// out\n        /* \"#utility.yul\":2910:2987   */\n    tag_84:\n        /* \"#utility.yul\":2947:2954   */\n      0x00\n        /* \"#utility.yul\":2976:2981   */\n      dup2\n        /* \"#utility.yul\":2965:2981   */\n      swap1\n      pop\n        /* \"#utility.yul\":2910:2987   */\n      swap2\n      swap1\n      pop\n      jump\t// out\n        /* \"#utility.yul\":2993:3115   */\n    tag_85:\n        /* \"#utility.yul\":3066:3090   */\n      tag_156\n        /* \"#utility.yul\":3084:3089   */\n      dup2\n        /* \"#utility.yul\":3066:3090   */\n      tag_84\n      jump\t// in\n    tag_156:\n        /* \"#utility.yul\":3059:3064   */\n      dup2\n        /* \"#utility.yul\":3056:3091   */\n      eq\n        /* \"#utility.yul\":3046:3109   */\n      tag_157\n      jumpi\n        /* \"#utility.yul\":3105:3106   */\n      0x00\n        /* \"#utility.yul\":3102:3103   */\n      dup1\n        /* \"#utility.yul\":3095:3107   */\n      revert\n        /* \"#utility.yul\":3046:3109   */\n    tag_157:\n        /* \"#utility.yul\":2993:3115   */\n      pop\n      jump\t// out\n        /* \"#utility.yul\":3121:3260   */\n    tag_86:\n        /* \"#utility.yul\":3167:3172   */\n      0x00\n        /* \"#utility.yul\":3205:3211   */\n      dup2\n        /* \"#utility.yul\":3192:3212   */\n      calldataload\n        /* \"#utility.yul\":3183:3212   */\n      swap1\n      pop\n        /* \"#utility.yul\":3221:3254   */\n      tag_159\n        /* \"#utility.yul\":3248:3253   */\n      dup2\n        /* \"#utility.yul\":3221:3254   */\n      tag_85\n      jump\t// in\n    tag_159:\n        /* \"#utility.yul\":3121:3260   */\n      swap3\n      swap2\n      pop\n      pop\n      jump\t// out\n        /* \"#utility.yul\":3266:3595   */\n    tag_19:\n        /* \"#utility.yul\":3325:3331   */\n      0x00\n        /* \"#utility.yul\":3374:3376   */\n      0x20\n        /* \"#utility.yul\":3362:3371   */\n      dup3\n        /* \"#utility.yul\":3353:3360   */\n      dup5\n        /* \"#utility.yul\":3349:3372   */\n      sub\n        /* \"#utility.yul\":3345:3377   */\n      slt\n        /* \"#utility.yul\":3342:3461   */\n      iszero\n      tag_161\n      jumpi\n        /* \"#utility.yul\":3380:3459   */\n      tag_162\n      tag_71\n      jump\t// in\n    tag_162:\n        /* \"#utility.yul\":3342:3461   */\n    tag_161:\n        /* \"#utility.yul\":3500:3501   */\n      0x00\n        /* \"#utility.yul\":3525:3578   */\n      tag_163\n        /* \"#utility.yul\":3570:3577   */\n      dup5\n        /* \"#utility.yul\":3561:3567   */\n      dup3\n        /* \"#utility.yul\":3550:3559   */\n      dup6\n        /* \"#utility.yul\":3546:3568   */\n      add\n        /* \"#utility.yul\":3525:3578   */\n      tag_86\n      jump\t// in\n    tag_163:\n        /* \"#utility.yul\":3515:3578   */\n      swap2\n      pop\n        /* \"#utility.yul\":3471:3588   */\n      pop\n        /* \"#utility.yul\":3266:3595   */\n      swap3\n      swap2\n      pop\n      pop\n      jump\t// out\n        /* \"#utility.yul\":3601:3811   */\n    tag_22:\n        /* \"#utility.yul\":3688:3692   */\n      0x00\n        /* \"#utility.yul\":3726:3728   */\n      0x20\n        /* \"#utility.yul\":3715:3724   */\n      dup3\n        /* \"#utility.yul\":3711:3729   */\n      add\n        /* \"#utility.yul\":3703:3729   */\n      swap1\n      pop\n        /* \"#utility.yul\":3739:3804   */\n      tag_165\n        /* \"#utility.yul\":3801:3802   */\n      0x00\n        /* \"#utility.yul\":3790:3799   */\n      dup4\n        /* \"#utility.yul\":3786:3803   */\n      add\n        /* \"#utility.yul\":3777:3783   */\n      dup5\n        /* \"#utility.yul\":3739:3804   */\n      tag_83\n      jump\t// in\n    tag_165:\n        /* \"#utility.yul\":3601:3811   */\n      swap3\n      swap2\n      pop\n      pop\n      jump\t// out\n        /* \"#utility.yul\":3817:4039   */\n    tag_30:\n        /* \"#utility.yul\":3910:3914   */\n      0x00\n        /* \"#utility.yul\":3948:3950   */\n      0x20\n        /* \"#utility.yul\":3937:3946   */\n      dup3\n        /* \"#utility.yul\":3933:3951   */\n      add\n        /* \"#utility.yul\":3925:3951   */\n      swap1\n      pop\n        /* \"#utility.yul\":3961:4032   */\n      tag_167\n        /* \"#utility.yul\":4029:4030   */\n      0x00\n        /* \"#utility.yul\":4018:4027   */\n      dup4\n        /* \"#utility.yul\":4014:4031   */\n      add\n        /* \"#utility.yul\":4005:4011   */\n      dup5\n        /* \"#utility.yul\":3961:4032   */\n      tag_76\n      jump\t// in\n    tag_167:\n        /* \"#utility.yul\":3817:4039   */\n      swap3\n      swap2\n      pop\n      pop\n      jump\t// out\n        /* \"#utility.yul\":4045:4162   */\n    tag_87:\n        /* \"#utility.yul\":4154:4155   */\n      0x00\n        /* \"#utility.yul\":4151:4152   */\n      dup1\n        /* \"#utility.yul\":4144:4156   */\n      revert\n        /* \"#utility.yul\":4168:4285   */\n    tag_88:\n        /* \"#utility.yul\":4277:4278   */\n      0x00\n        /* \"#utility.yul\":4274:4275   */\n      dup1\n        /* \"#utility.yul\":4267:4279   */\n      revert\n        /* \"#utility.yul\":4291:4471   */\n    tag_89:\n        /* \"#utility.yul\":4339:4416   */\n      0x4e487b7100000000000000000000000000000000000000000000000000000000\n        /* \"#utility.yul\":4336:4337   */\n      0x00\n        /* \"#utility.yul\":4329:4417   */\n      mstore\n        /* \"#utility.yul\":4436:4440   */\n      0x41\n        /* \"#utility.yul\":4433:4434   */\n      0x04\n        /* \"#utility.yul\":4426:4441   */\n      mstore\n        /* \"#utility.yul\":4460:4464   */\n      0x24\n        /* \"#utility.yul\":4457:4458   */\n      0x00\n        /* \"#utility.yul\":4450:4465   */\n      revert\n        /* \"#utility.yul\":4477:4758   */\n    tag_90:\n        /* \"#utility.yul\":4560:4587   */\n      tag_172\n        /* \"#utility.yul\":4582:4586   */\n      dup3\n        /* \"#utility.yul\":4560:4587   */\n      tag_80\n      jump\t// in\n    tag_172:\n        /* \"#utility.yul\":4552:4558   */\n      dup2\n        /* \"#utility.yul\":4548:4588   */\n      add\n        /* \"#utility.yul\":4690:4696   */\n      dup2\n        /* \"#utility.yul\":4678:4688   */\n      dup2\n        /* \"#utility.yul\":4675:4697   */\n      lt\n        /* \"#utility.yul\":4654:4672   */\n      0xffffffffffffffff\n        /* \"#utility.yul\":4642:4652   */\n      dup3\n        /* \"#utility.yul\":4639:4673   */\n      gt\n        /* \"#utility.yul\":4636:4698   */\n      or\n        /* \"#utility.yul\":4633:4721   */\n      iszero\n      tag_173\n      jumpi\n        /* \"#utility.yul\":4701:4719   */\n      tag_174\n      tag_89\n      jump\t// in\n    tag_174:\n        /* \"#utility.yul\":4633:4721   */\n    tag_173:\n        /* \"#utility.yul\":4741:4751   */\n      dup1\n        /* \"#utility.yul\":4737:4739   */\n      0x40\n        /* \"#utility.yul\":4730:4752   */\n      mstore\n        /* \"#utility.yul\":4520:4758   */\n      pop\n        /* \"#utility.yul\":4477:4758   */\n      pop\n      pop\n      jump\t// out\n        /* \"#utility.yul\":4764:4893   */\n    tag_91:\n        /* \"#utility.yul\":4798:4804   */\n      0x00\n        /* \"#utility.yul\":4825:4845   */\n      tag_176\n      tag_70\n      jump\t// in\n    tag_176:\n        /* \"#utility.yul\":4815:4845   */\n      swap1\n      pop\n        /* \"#utility.yul\":4854:4887   */\n      tag_177\n        /* \"#utility.yul\":4882:4886   */\n      dup3\n        /* \"#utility.yul\":4874:4880   */\n      dup3\n        /* \"#utility.yul\":4854:4887   */\n      tag_90\n      jump\t// in\n    tag_177:\n        /* \"#utility.yul\":4764:4893   */\n      swap2\n      swap1\n      pop\n      jump\t// out\n        /* \"#utility.yul\":4899:5207   */\n    tag_92:\n        /* \"#utility.yul\":4961:4965   */\n      0x00\n        /* \"#utility.yul\":5051:5069   */\n      0xffffffffffffffff\n        /* \"#utility.yul\":5043:5049   */\n      dup3\n        /* \"#utility.yul\":5040:5070   */\n      gt\n        /* \"#utility.yul\":5037:5093   */\n      iszero\n      tag_179\n      jumpi\n        /* \"#utility.yul\":5073:5091   */\n      tag_180\n      tag_89\n      jump\t// in\n    tag_180:\n        /* \"#utility.yul\":5037:5093   */\n    tag_179:\n        /* \"#utility.yul\":5111:5140   */\n      tag_181\n        /* \"#utility.yul\":5133:5139   */\n      dup3\n        /* \"#utility.yul\":5111:5140   */\n      tag_80\n      jump\t// in\n    tag_181:\n        /* \"#utility.yul\":5103:5140   */\n      swap1\n      pop\n        /* \"#utility.yul\":5195:5199   */\n      0x20\n        /* \"#utility.yul\":5189:5193   */\n      dup2\n        /* \"#utility.yul\":5185:5200   */\n      add\n        /* \"#utility.yul\":5177:5200   */\n      swap1\n      pop\n        /* \"#utility.yul\":4899:5207   */\n      swap2\n      swap1\n      pop\n      jump\t// out\n        /* \"#utility.yul\":5213:5359   */\n    tag_93:\n        /* \"#utility.yul\":5310:5316   */\n      dup3\n        /* \"#utility.yul\":5305:5308   */\n      dup2\n        /* \"#utility.yul\":5300:5303   */\n      dup4\n        /* \"#utility.yul\":5287:5317   */\n      calldatacopy\n        /* \"#utility.yul\":5351:5352   */\n      0x00\n        /* \"#utility.yul\":5342:5348   */\n      dup4\n        /* \"#utility.yul\":5337:5340   */\n      dup4\n        /* \"#utility.yul\":5333:5349   */\n      add\n        /* \"#utility.yul\":5326:5353   */\n      mstore\n        /* \"#utility.yul\":5213:5359   */\n      pop\n      pop\n      pop\n      jump\t// out\n        /* \"#utility.yul\":5365:5790   */\n    tag_94:\n        /* \"#utility.yul\":5443:5448   */\n      0x00\n        /* \"#utility.yul\":5468:5534   */\n      tag_184\n        /* \"#utility.yul\":5484:5533   */\n      tag_185\n        /* \"#utility.yul\":5526:5532   */\n      dup5\n        /* \"#utility.yul\":5484:5533   */\n      tag_92\n      jump\t// in\n    tag_185:\n        /* \"#utility.yul\":5468:5534   */\n      tag_91\n      jump\t// in\n    tag_184:\n        /* \"#utility.yul\":5459:5534   */\n      swap1\n      pop\n        /* \"#utility.yul\":5557:5563   */\n      dup3\n        /* \"#utility.yul\":5550:5555   */\n      dup2\n        /* \"#utility.yul\":5543:5564   */\n      mstore\n        /* \"#utility.yul\":5595:5599   */\n      0x20\n        /* \"#utility.yul\":5588:5593   */\n      dup2\n        /* \"#utility.yul\":5584:5600   */\n      add\n        /* \"#utility.yul\":5633:5636   */\n      dup5\n        /* \"#utility.yul\":5624:5630   */\n      dup5\n        /* \"#utility.yul\":5619:5622   */\n      dup5\n        /* \"#utility.yul\":5615:5631   */\n      add\n        /* \"#utility.yul\":5612:5637   */\n      gt\n        /* \"#utility.yul\":5609:5721   */\n      iszero\n      tag_186\n      jumpi\n        /* \"#utility.yul\":5640:5719   */\n      tag_187\n      tag_88\n      jump\t// in\n    tag_187:\n        /* \"#utility.yul\":5609:5721   */\n    tag_186:\n        /* \"#utility.yul\":5730:5784   */\n      tag_188\n        /* \"#utility.yul\":5777:5783   */\n      dup5\n        /* \"#utility.yul\":5772:5775   */\n      dup3\n        /* \"#utility.yul\":5767:5770   */\n      dup6\n        /* \"#utility.yul\":5730:5784   */\n      tag_93\n      jump\t// in\n    tag_188:\n        /* \"#utility.yul\":5449:5790   */\n      pop\n        /* \"#utility.yul\":5365:5790   */\n      swap4\n      swap3\n      pop\n      pop\n      pop\n      jump\t// out\n        /* \"#utility.yul\":5810:6150   */\n    tag_95:\n        /* \"#utility.yul\":5866:5871   */\n      0x00\n        /* \"#utility.yul\":5915:5918   */\n      dup3\n        /* \"#utility.yul\":5908:5912   */\n      0x1f\n        /* \"#utility.yul\":5900:5906   */\n      dup4\n        /* \"#utility.yul\":5896:5913   */\n      add\n        /* \"#utility.yul\":5892:5919   */\n      slt\n        /* \"#utility.yul\":5882:6004   */\n      tag_190\n      jumpi\n        /* \"#utility.yul\":5923:6002   */\n      tag_191\n      tag_87\n      jump\t// in\n    tag_191:\n        /* \"#utility.yul\":5882:6004   */\n    tag_190:\n        /* \"#utility.yul\":6040:6046   */\n      dup2\n        /* \"#utility.yul\":6027:6047   */\n      calldataload\n        /* \"#utility.yul\":6065:6144   */\n      tag_192\n        /* \"#utility.yul\":6140:6143   */\n      dup5\n        /* \"#utility.yul\":6132:6138   */\n      dup3\n        /* \"#utility.yul\":6125:6129   */\n      0x20\n        /* \"#utility.yul\":6117:6123   */\n      dup7\n        /* \"#utility.yul\":6113:6130   */\n      add\n        /* \"#utility.yul\":6065:6144   */\n      tag_94\n      jump\t// in\n    tag_192:\n        /* \"#utility.yul\":6056:6144   */\n      swap2\n      pop\n        /* \"#utility.yul\":5872:6150   */\n      pop\n        /* \"#utility.yul\":5810:6150   */\n      swap3\n      swap2\n      pop\n      pop\n      jump\t// out\n        /* \"#utility.yul\":6156:6810   */\n    tag_37:\n        /* \"#utility.yul\":6234:6240   */\n      0x00\n        /* \"#utility.yul\":6242:6248   */\n      dup1\n        /* \"#utility.yul\":6291:6293   */\n      0x40\n        /* \"#utility.yul\":6279:6288   */\n      dup4\n        /* \"#utility.yul\":6270:6277   */\n      dup6\n        /* \"#utility.yul\":6266:6289   */\n      sub\n        /* \"#utility.yul\":6262:6294   */\n      slt\n        /* \"#utility.yul\":6259:6378   */\n      iszero\n      tag_194\n      jumpi\n        /* \"#utility.yul\":6297:6376   */\n      tag_195\n      tag_71\n      jump\t// in\n    tag_195:\n        /* \"#utility.yul\":6259:6378   */\n    tag_194:\n        /* \"#utility.yul\":6417:6418   */\n      0x00\n        /* \"#utility.yul\":6442:6495   */\n      tag_196\n        /* \"#utility.yul\":6487:6494   */\n      dup6\n        /* \"#utility.yul\":6478:6484   */\n      dup3\n        /* \"#utility.yul\":6467:6476   */\n      dup7\n        /* \"#utility.yul\":6463:6485   */\n      add\n        /* \"#utility.yul\":6442:6495   */\n      tag_75\n      jump\t// in\n    tag_196:\n        /* \"#utility.yul\":6432:6495   */\n      swap3\n      pop\n        /* \"#utility.yul\":6388:6505   */\n      pop\n        /* \"#utility.yul\":6572:6574   */\n      0x20\n        /* \"#utility.yul\":6561:6570   */\n      dup4\n        /* \"#utility.yul\":6557:6575   */\n      add\n        /* \"#utility.yul\":6544:6576   */\n      calldataload\n        /* \"#utility.yul\":6603:6621   */\n      0xffffffffffffffff\n        /* \"#utility.yul\":6595:6601   */\n      dup2\n        /* \"#utility.yul\":6592:6622   */\n      gt\n        /* \"#utility.yul\":6589:6706   */\n      iszero\n      tag_197\n      jumpi\n        /* \"#utility.yul\":6625:6704   */\n      tag_198\n      tag_72\n      jump\t// in\n    tag_198:\n        /* \"#utility.yul\":6589:6706   */\n    tag_197:\n        /* \"#utility.yul\":6730:6793   */\n      tag_199\n        /* \"#utility.yul\":6785:6792   */\n      dup6\n        /* \"#utility.yul\":6776:6782   */\n      dup3\n        /* \"#utility.yul\":6765:6774   */\n      dup7\n        /* \"#utility.yul\":6761:6783   */\n      add\n        /* \"#utility.yul\":6730:6793   */\n      tag_95\n      jump\t// in\n    tag_199:\n        /* \"#utility.yul\":6720:6793   */\n      swap2\n      pop\n        /* \"#utility.yul\":6515:6803   */\n      pop\n        /* \"#utility.yul\":6156:6810   */\n      swap3\n      pop\n      swap3\n      swap1\n      pop\n      jump\t// out\n        /* \"#utility.yul\":6816:6934   */\n    tag_96:\n        /* \"#utility.yul\":6903:6927   */\n      tag_201\n        /* \"#utility.yul\":6921:6926   */\n      dup2\n        /* \"#utility.yul\":6903:6927   */\n      tag_84\n      jump\t// in\n    tag_201:\n        /* \"#utility.yul\":6898:6901   */\n      dup3\n        /* \"#utility.yul\":6891:6928   */\n      mstore\n        /* \"#utility.yul\":6816:6934   */\n      pop\n      pop\n      jump\t// out\n        /* \"#utility.yul\":6940:7162   */\n    tag_40:\n        /* \"#utility.yul\":7033:7037   */\n      0x00\n        /* \"#utility.yul\":7071:7073   */\n      0x20\n        /* \"#utility.yul\":7060:7069   */\n      dup3\n        /* \"#utility.yul\":7056:7074   */\n      add\n        /* \"#utility.yul\":7048:7074   */\n      swap1\n      pop\n        /* \"#utility.yul\":7084:7155   */\n      tag_203\n        /* \"#utility.yul\":7152:7153   */\n      0x00\n        /* \"#utility.yul\":7141:7150   */\n      dup4\n        /* \"#utility.yul\":7137:7154   */\n      add\n        /* \"#utility.yul\":7128:7134   */\n      dup5\n        /* \"#utility.yul\":7084:7155   */\n      tag_96\n      jump\t// in\n    tag_203:\n        /* \"#utility.yul\":6940:7162   */\n      swap3\n      swap2\n      pop\n      pop\n      jump\t// out\n        /* \"#utility.yul\":7168:7284   */\n    tag_97:\n        /* \"#utility.yul\":7238:7259   */\n      tag_205\n        /* \"#utility.yul\":7253:7258   */\n      dup2\n        /* \"#utility.yul\":7238:7259   */\n      tag_82\n      jump\t// in\n    tag_205:\n        /* \"#utility.yul\":7231:7236   */\n      dup2\n        /* \"#utility.yul\":7228:7260   */\n      eq\n        /* \"#utility.yul\":7218:7278   */\n      tag_206\n      jumpi\n        /* \"#utility.yul\":7274:7275   */\n      0x00\n        /* \"#utility.yul\":7271:7272   */\n      dup1\n        /* \"#utility.yul\":7264:7276   */\n      revert\n        /* \"#utility.yul\":7218:7278   */\n    tag_206:\n        /* \"#utility.yul\":7168:7284   */\n      pop\n      jump\t// out\n        /* \"#utility.yul\":7290:7423   */\n    tag_98:\n        /* \"#utility.yul\":7333:7338   */\n      0x00\n        /* \"#utility.yul\":7371:7377   */\n      dup2\n        /* \"#utility.yul\":7358:7378   */\n      calldataload\n        /* \"#utility.yul\":7349:7378   */\n      swap1\n      pop\n        /* \"#utility.yul\":7387:7417   */\n      tag_208\n        /* \"#utility.yul\":7411:7416   */\n      dup2\n        /* \"#utility.yul\":7387:7417   */\n      tag_97\n      jump\t// in\n    tag_208:\n        /* \"#utility.yul\":7290:7423   */\n      swap3\n      swap2\n      pop\n      pop\n      jump\t// out\n        /* \"#utility.yul\":7429:8222   */\n    tag_43:\n        /* \"#utility.yul\":7513:7519   */\n      0x00\n        /* \"#utility.yul\":7521:7527   */\n      dup1\n        /* \"#utility.yul\":7529:7535   */\n      0x00\n        /* \"#utility.yul\":7578:7580   */\n      0x60\n        /* \"#utility.yul\":7566:7575   */\n      dup5\n        /* \"#utility.yul\":7557:7564   */\n      dup7\n        /* \"#utility.yul\":7553:7576   */\n      sub\n        /* \"#utility.yul\":7549:7581   */\n      slt\n        /* \"#utility.yul\":7546:7665   */\n      iszero\n      tag_210\n      jumpi\n        /* \"#utility.yul\":7584:7663   */\n      tag_211\n      tag_71\n      jump\t// in\n    tag_211:\n        /* \"#utility.yul\":7546:7665   */\n    tag_210:\n        /* \"#utility.yul\":7704:7705   */\n      0x00\n        /* \"#utility.yul\":7729:7782   */\n      tag_212\n        /* \"#utility.yul\":7774:7781   */\n      dup7\n        /* \"#utility.yul\":7765:7771   */\n      dup3\n        /* \"#utility.yul\":7754:7763   */\n      dup8\n        /* \"#utility.yul\":7750:7772   */\n      add\n        /* \"#utility.yul\":7729:7782   */\n      tag_75\n      jump\t// in\n    tag_212:\n        /* \"#utility.yul\":7719:7782   */\n      swap4\n      pop\n        /* \"#utility.yul\":7675:7792   */\n      pop\n        /* \"#utility.yul\":7859:7861   */\n      0x20\n        /* \"#utility.yul\":7848:7857   */\n      dup5\n        /* \"#utility.yul\":7844:7862   */\n      add\n        /* \"#utility.yul\":7831:7863   */\n      calldataload\n        /* \"#utility.yul\":7890:7908   */\n      0xffffffffffffffff\n        /* \"#utility.yul\":7882:7888   */\n      dup2\n        /* \"#utility.yul\":7879:7909   */\n      gt\n        /* \"#utility.yul\":7876:7993   */\n      iszero\n      tag_213\n      jumpi\n        /* \"#utility.yul\":7912:7991   */\n      tag_214\n      tag_72\n      jump\t// in\n    tag_214:\n        /* \"#utility.yul\":7876:7993   */\n    tag_213:\n        /* \"#utility.yul\":8017:8080   */\n      tag_215\n        /* \"#utility.yul\":8072:8079   */\n      dup7\n        /* \"#utility.yul\":8063:8069   */\n      dup3\n        /* \"#utility.yul\":8052:8061   */\n      dup8\n        /* \"#utility.yul\":8048:8070   */\n      add\n        /* \"#utility.yul\":8017:8080   */\n      tag_95\n      jump\t// in\n    tag_215:\n        /* \"#utility.yul\":8007:8080   */\n      swap3\n      pop\n        /* \"#utility.yul\":7802:8090   */\n      pop\n        /* \"#utility.yul\":8129:8131   */\n      0x40\n        /* \"#utility.yul\":8155:8205   */\n      tag_216\n        /* \"#utility.yul\":8197:8204   */\n      dup7\n        /* \"#utility.yul\":8188:8194   */\n      dup3\n        /* \"#utility.yul\":8177:8186   */\n      dup8\n        /* \"#utility.yul\":8173:8195   */\n      add\n        /* \"#utility.yul\":8155:8205   */\n      tag_98\n      jump\t// in\n    tag_216:\n        /* \"#utility.yul\":8145:8205   */\n      swap2\n      pop\n        /* \"#utility.yul\":8100:8215   */\n      pop\n        /* \"#utility.yul\":7429:8222   */\n      swap3\n      pop\n      swap3\n      pop\n      swap3\n      jump\t// out\n        /* \"#utility.yul\":8228:8408   */\n    tag_99:\n        /* \"#utility.yul\":8276:8353   */\n      0x4e487b7100000000000000000000000000000000000000000000000000000000\n        /* \"#utility.yul\":8273:8274   */\n      0x00\n        /* \"#utility.yul\":8266:8354   */\n      mstore\n        /* \"#utility.yul\":8373:8377   */\n      0x22\n        /* \"#utility.yul\":8370:8371   */\n      0x04\n        /* \"#utility.yul\":8363:8378   */\n      mstore\n        /* \"#utility.yul\":8397:8401   */\n      0x24\n        /* \"#utility.yul\":8394:8395   */\n      0x00\n        /* \"#utility.yul\":8387:8402   */\n      revert\n        /* \"#utility.yul\":8414:8734   */\n    tag_48:\n        /* \"#utility.yul\":8458:8464   */\n      0x00\n        /* \"#utility.yul\":8495:8496   */\n      0x02\n        /* \"#utility.yul\":8489:8493   */\n      dup3\n        /* \"#utility.yul\":8485:8497   */\n      div\n        /* \"#utility.yul\":8475:8497   */\n      swap1\n      pop\n        /* \"#utility.yul\":8542:8543   */\n      0x01\n        /* \"#utility.yul\":8536:8540   */\n      dup3\n        /* \"#utility.yul\":8532:8544   */\n      and\n        /* \"#utility.yul\":8563:8581   */\n      dup1\n        /* \"#utility.yul\":8553:8634   */\n      tag_219\n      jumpi\n        /* \"#utility.yul\":8619:8623   */\n      0x7f\n        /* \"#utility.yul\":8611:8617   */\n      dup3\n        /* \"#utility.yul\":8607:8624   */\n      and\n        /* \"#utility.yul\":8597:8624   */\n      swap2\n      pop\n        /* \"#utility.yul\":8553:8634   */\n    tag_219:\n        /* \"#utility.yul\":8681:8683   */\n      0x20\n        /* \"#utility.yul\":8673:8679   */\n      dup3\n        /* \"#utility.yul\":8670:8684   */\n      lt\n        /* \"#utility.yul\":8650:8668   */\n      dup2\n        /* \"#utility.yul\":8647:8685   */\n      sub\n        /* \"#utility.yul\":8644:8728   */\n      tag_220\n      jumpi\n        /* \"#utility.yul\":8700:8718   */\n      tag_221\n      tag_99\n      jump\t// in\n    tag_221:\n        /* \"#utility.yul\":8644:8728   */\n    tag_220:\n        /* \"#utility.yul\":8465:8734   */\n      pop\n        /* \"#utility.yul\":8414:8734   */\n      swap2\n      swap1\n      pop\n      jump\t// out\n        /* \"#utility.yul\":8740:8920   */\n    tag_60:\n        /* \"#utility.yul\":8788:8865   */\n      0x4e487b7100000000000000000000000000000000000000000000000000000000\n        /* \"#utility.yul\":8785:8786   */\n      0x00\n        /* \"#utility.yul\":8778:8866   */\n      mstore\n        /* \"#utility.yul\":8885:8889   */\n      0x32\n        /* \"#utility.yul\":8882:8883   */\n      0x04\n        /* \"#utility.yul\":8875:8890   */\n      mstore\n        /* \"#utility.yul\":8909:8913   */\n      0x24\n        /* \"#utility.yul\":8906:8907   */\n      0x00\n        /* \"#utility.yul\":8899:8914   */\n      revert\n        /* \"#utility.yul\":8926:9005   */\n    tag_100:\n        /* \"#utility.yul\":8965:8972   */\n      0x00\n        /* \"#utility.yul\":8994:8999   */\n      dup2\n        /* \"#utility.yul\":8983:8999   */\n      swap1\n      pop\n        /* \"#utility.yul\":8926:9005   */\n      swap2\n      swap1\n      pop\n      jump\t// out\n        /* \"#utility.yul\":9011:9168   */\n    tag_101:\n        /* \"#utility.yul\":9116:9161   */\n      tag_225\n        /* \"#utility.yul\":9136:9160   */\n      tag_226\n        /* \"#utility.yul\":9154:9159   */\n      dup3\n        /* \"#utility.yul\":9136:9160   */\n      tag_73\n      jump\t// in\n    tag_226:\n        /* \"#utility.yul\":9116:9161   */\n      tag_100\n      jump\t// in\n    tag_225:\n        /* \"#utility.yul\":9111:9114   */\n      dup3\n        /* \"#utility.yul\":9104:9162   */\n      mstore\n        /* \"#utility.yul\":9011:9168   */\n      pop\n      pop\n      jump\t// out\n        /* \"#utility.yul\":9174:9322   */\n    tag_102:\n        /* \"#utility.yul\":9276:9287   */\n      0x00\n        /* \"#utility.yul\":9313:9316   */\n      dup2\n        /* \"#utility.yul\":9298:9316   */\n      swap1\n      pop\n        /* \"#utility.yul\":9174:9322   */\n      swap3\n      swap2\n      pop\n      pop\n      jump\t// out\n        /* \"#utility.yul\":9328:9718   */\n    tag_103:\n        /* \"#utility.yul\":9434:9437   */\n      0x00\n        /* \"#utility.yul\":9462:9501   */\n      tag_229\n        /* \"#utility.yul\":9495:9500   */\n      dup3\n        /* \"#utility.yul\":9462:9501   */\n      tag_77\n      jump\t// in\n    tag_229:\n        /* \"#utility.yul\":9517:9606   */\n      tag_230\n        /* \"#utility.yul\":9599:9605   */\n      dup2\n        /* \"#utility.yul\":9594:9597   */\n      dup6\n        /* \"#utility.yul\":9517:9606   */\n      tag_102\n      jump\t// in\n    tag_230:\n        /* \"#utility.yul\":9510:9606   */\n      swap4\n      pop\n        /* \"#utility.yul\":9615:9680   */\n      tag_231\n        /* \"#utility.yul\":9673:9679   */\n      dup2\n        /* \"#utility.yul\":9668:9671   */\n      dup6\n        /* \"#utility.yul\":9661:9665   */\n      0x20\n        /* \"#utility.yul\":9654:9659   */\n      dup7\n        /* \"#utility.yul\":9650:9666   */\n      add\n        /* \"#utility.yul\":9615:9680   */\n      tag_79\n      jump\t// in\n    tag_231:\n        /* \"#utility.yul\":9705:9711   */\n      dup1\n        /* \"#utility.yul\":9700:9703   */\n      dup5\n        /* \"#utility.yul\":9696:9712   */\n      add\n        /* \"#utility.yul\":9689:9712   */\n      swap2\n      pop\n        /* \"#utility.yul\":9438:9718   */\n      pop\n        /* \"#utility.yul\":9328:9718   */\n      swap3\n      swap2\n      pop\n      pop\n      jump\t// out\n        /* \"#utility.yul\":9724:10140   */\n    tag_64:\n        /* \"#utility.yul\":9884:9887   */\n      0x00\n        /* \"#utility.yul\":9899:9974   */\n      tag_233\n        /* \"#utility.yul\":9970:9973   */\n      dup3\n        /* \"#utility.yul\":9961:9967   */\n      dup6\n        /* \"#utility.yul\":9899:9974   */\n      tag_101\n      jump\t// in\n    tag_233:\n        /* \"#utility.yul\":9999:10001   */\n      0x20\n        /* \"#utility.yul\":9994:9997   */\n      dup3\n        /* \"#utility.yul\":9990:10002   */\n      add\n        /* \"#utility.yul\":9983:10002   */\n      swap2\n      pop\n        /* \"#utility.yul\":10019:10114   */\n      tag_234\n        /* \"#utility.yul\":10110:10113   */\n      dup3\n        /* \"#utility.yul\":10101:10107   */\n      dup5\n        /* \"#utility.yul\":10019:10114   */\n      tag_103\n      jump\t// in\n    tag_234:\n        /* \"#utility.yul\":10012:10114   */\n      swap2\n      pop\n        /* \"#utility.yul\":10131:10134   */\n      dup2\n        /* \"#utility.yul\":10124:10134   */\n      swap1\n      pop\n        /* \"#utility.yul\":9724:10140   */\n      swap4\n      swap3\n      pop\n      pop\n      pop\n      jump\t// out\n        /* \"#utility.yul\":10146:10287   */\n    tag_104:\n        /* \"#utility.yul\":10195:10199   */\n      0x00\n        /* \"#utility.yul\":10218:10221   */\n      dup2\n        /* \"#utility.yul\":10210:10221   */\n      swap1\n      pop\n        /* \"#utility.yul\":10241:10244   */\n      dup2\n        /* \"#utility.yul\":10238:10239   */\n      0x00\n        /* \"#utility.yul\":10231:10245   */\n      mstore\n        /* \"#utility.yul\":10275:10279   */\n      0x20\n        /* \"#utility.yul\":10272:10273   */\n      0x00\n        /* \"#utility.yul\":10262:10280   */\n      keccak256\n        /* \"#utility.yul\":10254:10280   */\n      swap1\n      pop\n        /* \"#utility.yul\":10146:10287   */\n      swap2\n      swap1\n      pop\n      jump\t// out\n        /* \"#utility.yul\":10293:10386   */\n    tag_105:\n        /* \"#utility.yul\":10330:10336   */\n      0x00\n        /* \"#utility.yul\":10377:10379   */\n      0x20\n        /* \"#utility.yul\":10372:10374   */\n      0x1f\n        /* \"#utility.yul\":10365:10370   */\n      dup4\n        /* \"#utility.yul\":10361:10375   */\n      add\n        /* \"#utility.yul\":10357:10380   */\n      div\n        /* \"#utility.yul\":10347:10380   */\n      swap1\n      pop\n        /* \"#utility.yul\":10293:10386   */\n      swap2\n      swap1\n      pop\n      jump\t// out\n        /* \"#utility.yul\":10392:10499   */\n    tag_106:\n        /* \"#utility.yul\":10436:10444   */\n      0x00\n        /* \"#utility.yul\":10486:10491   */\n      dup3\n        /* \"#utility.yul\":10480:10484   */\n      dup3\n        /* \"#utility.yul\":10476:10492   */\n      shl\n        /* \"#utility.yul\":10455:10492   */\n      swap1\n      pop\n        /* \"#utility.yul\":10392:10499   */\n      swap3\n      swap2\n      pop\n      pop\n      jump\t// out\n        /* \"#utility.yul\":10505:10898   */\n    tag_107:\n        /* \"#utility.yul\":10574:10580   */\n      0x00\n        /* \"#utility.yul\":10624:10625   */\n      0x08\n        /* \"#utility.yul\":10612:10622   */\n      dup4\n        /* \"#utility.yul\":10608:10626   */\n      mul\n        /* \"#utility.yul\":10647:10744   */\n      tag_239\n        /* \"#utility.yul\":10677:10743   */\n      0xffffffffffffffffffffffffffffffffffffffffffffffffffffffffffffffff\n        /* \"#utility.yul\":10666:10675   */\n      dup3\n        /* \"#utility.yul\":10647:10744   */\n      tag_106\n      jump\t// in\n    tag_239:\n        /* \"#utility.yul\":10765:10804   */\n      tag_240\n        /* \"#utility.yul\":10795:10803   */\n      dup7\n        /* \"#utility.yul\":10784:10793   */\n      dup4\n        /* \"#utility.yul\":10765:10804   */\n      tag_106\n      jump\t// in\n    tag_240:\n        /* \"#utility.yul\":10753:10804   */\n      swap6\n      pop\n        /* \"#utility.yul\":10837:10841   */\n      dup1\n        /* \"#utility.yul\":10833:10842   */\n      not\n        /* \"#utility.yul\":10826:10831   */\n      dup5\n        /* \"#utility.yul\":10822:10843   */\n      and\n        /* \"#utility.yul\":10813:10843   */\n      swap4\n      pop\n        /* \"#utility.yul\":10886:10890   */\n      dup1\n        /* \"#utility.yul\":10876:10884   */\n      dup7\n        /* \"#utility.yul\":10872:10891   */\n      and\n        /* \"#utility.yul\":10865:10870   */\n      dup5\n        /* \"#utility.yul\":10862:10892   */\n      or\n        /* \"#utility.yul\":10852:10892   */\n      swap3\n      pop\n        /* \"#utility.yul\":10581:10898   */\n      pop\n      pop\n        /* \"#utility.yul\":10505:10898   */\n      swap4\n      swap3\n      pop\n      pop\n      pop\n      jump\t// out\n        /* \"#utility.yul\":10904:10964   */\n    tag_108:\n        /* \"#utility.yul\":10932:10935   */\n      0x00\n        /* \"#utility.yul\":10953:10958   */\n      dup2\n        /* \"#utility.yul\":10946:10958   */\n      swap1\n      pop\n        /* \"#utility.yul\":10904:10964   */\n      swap2\n      swap1\n      pop\n      jump\t// out\n        /* \"#utility.yul\":10970:11112   */\n    tag_109:\n        /* \"#utility.yul\":11020:11029   */\n      0x00\n        /* \"#utility.yul\":11053:11106   */\n      tag_243\n        /* \"#utility.yul\":11071:11105   */\n      tag_244\n        /* \"#utility.yul\":11080:11104   */\n      tag_245\n        /* \"#utility.yul\":11098:11103   */\n      dup5\n        /* \"#utility.yul\":11080:11104   */\n      tag_73\n      jump\t// in\n    tag_245:\n        /* \"#utility.yul\":11071:11105   */\n      tag_108\n      jump\t// in\n    tag_244:\n        /* \"#utility.yul\":11053:11106   */\n      tag_73\n      jump\t// in\n    tag_243:\n        /* \"#utility.yul\":11040:11106   */\n      swap1\n      pop\n        /* \"#utility.yul\":10970:11112   */\n      swap2\n      swap1\n      pop\n      jump\t// out\n        /* \"#utility.yul\":11118:11193   */\n    tag_110:\n        /* \"#utility.yul\":11161:11164   */\n      0x00\n        /* \"#utility.yul\":11182:11187   */\n      dup2\n        /* \"#utility.yul\":11175:11187   */\n      swap1\n      pop\n        /* \"#utility.yul\":11118:11193   */\n      swap2\n      swap1\n      pop\n      jump\t// out\n        /* \"#utility.yul\":11199:11468   */\n    tag_111:\n        /* \"#utility.yul\":11309:11348   */\n      tag_248\n        /* \"#utility.yul\":11340:11347   */\n      dup4\n        /* \"#utility.yul\":11309:11348   */\n      tag_109\n      jump\t// in\n    tag_248:\n        /* \"#utility.yul\":11370:11461   */\n      tag_249\n        /* \"#utility.yul\":11419:11460   */\n      tag_250\n        /* \"#utility.yul\":11443:11459   */\n      dup3\n        /* \"#utility.yul\":11419:11460   */\n      tag_110\n      jump\t// in\n    tag_250:\n        /* \"#utility.yul\":11411:11417   */\n      dup5\n        /* \"#utility.yul\":11404:11408   */\n      dup5\n        /* \"#utility.yul\":11398:11409   */\n      sload\n        /* \"#utility.yul\":11370:11461   */\n      tag_107\n      jump\t// in\n    tag_249:\n        /* \"#utility.yul\":11364:11368   */\n      dup3\n        /* \"#utility.yul\":11357:11462   */\n      sstore\n        /* \"#utility.yul\":11275:11468   */\n      pop\n        /* \"#utility.yul\":11199:11468   */\n      pop\n      pop\n      pop\n      jump\t// out\n        /* \"#utility.yul\":11474:11547   */\n    tag_112:\n        /* \"#utility.yul\":11519:11522   */\n      0x00\n        /* \"#utility.yul\":11474:11547   */\n      swap1\n      jump\t// out\n        /* \"#utility.yul\":11553:11742   */\n    tag_113:\n        /* \"#utility.yul\":11630:11662   */\n      tag_253\n      tag_112\n      jump\t// in\n    tag_253:\n        /* \"#utility.yul\":11671:11736   */\n      tag_254\n        /* \"#utility.yul\":11729:11735   */\n      dup2\n        /* \"#utility.yul\":11721:11727   */\n      dup5\n        /* \"#utility.yul\":11715:11719   */\n      dup5\n        /* \"#utility.yul\":11671:11736   */\n      tag_111\n      jump\t// in\n    tag_254:\n        /* \"#utility.yul\":11606:11742   */\n      pop\n        /* \"#utility.yul\":11553:11742   */\n      pop\n      pop\n      jump\t// out\n        /* \"#utility.yul\":11748:11934   */\n    tag_114:\n        /* \"#utility.yul\":11808:11928   */\n    tag_256:\n        /* \"#utility.yul\":11825:11828   */\n      dup2\n        /* \"#utility.yul\":11818:11823   */\n      dup2\n        /* \"#utility.yul\":11815:11829   */\n      lt\n        /* \"#utility.yul\":11808:11928   */\n      iszero\n      tag_258\n      jumpi\n        /* \"#utility.yul\":11879:11918   */\n      tag_259\n        /* \"#utility.yul\":11916:11917   */\n      0x00\n        /* \"#utility.yul\":11909:11914   */\n      dup3\n        /* \"#utility.yul\":11879:11918   */\n      tag_113\n      jump\t// in\n    tag_259:\n        /* \"#utility.yul\":11852:11853   */\n      0x01\n        /* \"#utility.yul\":11845:11850   */\n      dup2\n        /* \"#utility.yul\":11841:11854   */\n      add\n        /* \"#utility.yul\":11832:11854   */\n      swap1\n      pop\n        /* \"#utility.yul\":11808:11928   */\n      jump(tag_256)\n    tag_258:\n        /* \"#utility.yul\":11748:11934   */\n      pop\n      pop\n      jump\t// out\n        /* \"#utility.yul\":11940:12483   */\n    tag_115:\n        /* \"#utility.yul\":12041:12043   */\n      0x1f\n        /* \"#utility.yul\":12036:12039   */\n      dup3\n        /* \"#utility.yul\":12033:12044   */\n      gt\n        /* \"#utility.yul\":12030:12476   */\n      iszero\n      tag_261\n      jumpi\n        /* \"#utility.yul\":12075:12113   */\n      tag_262\n        /* \"#utility.yul\":12107:12112   */\n      dup2\n        /* \"#utility.yul\":12075:12113   */\n      tag_104\n      jump\t// in\n    tag_262:\n        /* \"#utility.yul\":12159:12188   */\n      tag_263\n        /* \"#utility.yul\":12177:12187   */\n      dup5\n        /* \"#utility.yul\":12159:12188   */\n      tag_105\n      jump\t// in\n    tag_263:\n        /* \"#utility.yul\":12149:12157   */\n      dup2\n        /* \"#utility.yul\":12145:12189   */\n      add\n        /* \"#utility.yul\":12342:12344   */\n      0x20\n        /* \"#utility.yul\":12330:12340   */\n      dup6\n        /* \"#utility.yul\":12327:12345   */\n      lt\n        /* \"#utility.yul\":12324:12373   */\n      iszero\n      tag_264\n      jumpi\n        /* \"#utility.yul\":12363:12371   */\n      dup2\n        /* \"#utility.yul\":12348:12371   */\n      swap1\n      pop\n        /* \"#utility.yul\":12324:12373   */\n    tag_264:\n        /* \"#utility.yul\":12386:12466   */\n      tag_265\n        /* \"#utility.yul\":12442:12464   */\n      tag_266\n        /* \"#utility.yul\":12460:12463   */\n      dup6\n        /* \"#utility.yul\":12442:12464   */\n      tag_105\n      jump\t// in\n    tag_266:\n        /* \"#utility.yul\":12432:12440   */\n      dup4\n        /* \"#utility.yul\":12428:12465   */\n      add\n        /* \"#utility.yul\":12415:12426   */\n      dup3\n        /* \"#utility.yul\":12386:12466   */\n      tag_114\n      jump\t// in\n    tag_265:\n        /* \"#utility.yul\":12045:12476   */\n      pop\n      pop\n        /* \"#utility.yul\":12030:12476   */\n    tag_261:\n        /* \"#utility.yul\":11940:12483   */\n      pop\n      pop\n      pop\n      jump\t// out\n        /* \"#utility.yul\":12489:12606   */\n    tag_116:\n        /* \"#utility.yul\":12543:12551   */\n      0x00\n        /* \"#utility.yul\":12593:12598   */\n      dup3\n        /* \"#utility.yul\":12587:12591   */\n      dup3\n        /* \"#utility.yul\":12583:12599   */\n      shr\n        /* \"#utility.yul\":12562:12599   */\n      swap1\n      pop\n        /* \"#utility.yul\":12489:12606   */\n      swap3\n      swap2\n      pop\n      pop\n      jump\t// out\n        /* \"#utility.yul\":12612:12781   */\n    tag_117:\n        /* \"#utility.yul\":12656:12662   */\n      0x00\n        /* \"#utility.yul\":12689:12740   */\n      tag_269\n        /* \"#utility.yul\":12737:12738   */\n      0x00\n        /* \"#utility.yul\":12733:12739   */\n      not\n        /* \"#utility.yul\":12725:12730   */\n      dup5\n        /* \"#utility.yul\":12722:12723   */\n      0x08\n        /* \"#utility.yul\":12718:12731   */\n      mul\n        /* \"#utility.yul\":12689:12740   */\n      tag_116\n      jump\t// in\n    tag_269:\n        /* \"#utility.yul\":12685:12741   */\n      not\n        /* \"#utility.yul\":12770:12774   */\n      dup1\n        /* \"#utility.yul\":12764:12768   */\n      dup4\n        /* \"#utility.yul\":12760:12775   */\n      and\n        /* \"#utility.yul\":12750:12775   */\n      swap2\n      pop\n        /* \"#utility.yul\":12663:12781   */\n      pop\n        /* \"#utility.yul\":12612:12781   */\n      swap3\n      swap2\n      pop\n      pop\n      jump\t// out\n        /* \"#utility.yul\":12786:13081   */\n    tag_118:\n        /* \"#utility.yul\":12862:12866   */\n      0x00\n        /* \"#utility.yul\":13008:13037   */\n      tag_271\n        /* \"#utility.yul\":13033:13036   */\n      dup4\n        /* \"#utility.yul\":13027:13031   */\n      dup4\n        /* \"#utility.yul\":13008:13037   */\n      tag_117\n      jump\t// in\n    tag_271:\n        /* \"#utility.yul\":13000:13037   */\n      swap2\n      pop\n        /* \"#utility.yul\":13070:13073   */\n      dup3\n        /* \"#utility.yul\":13067:13068   */\n      0x02\n        /* \"#utility.yul\":13063:13074   */\n      mul\n        /* \"#utility.yul\":13057:13061   */\n      dup3\n        /* \"#utility.yul\":13054:13075   */\n      or\n        /* \"#utility.yul\":13046:13075   */\n      swap1\n      pop\n        /* \"#utility.yul\":12786:13081   */\n      swap3\n      swap2\n      pop\n      pop\n      jump\t// out\n        /* \"#utility.yul\":13086:14481   */\n    tag_68:\n        /* \"#utility.yul\":13203:13240   */\n      tag_273\n        /* \"#utility.yul\":13236:13239   */\n      dup3\n        /* \"#utility.yul\":13203:13240   */\n      tag_77\n      jump\t// in\n    tag_273:\n        /* \"#utility.yul\":13305:13323   */\n      0xffffffffffffffff\n        /* \"#utility.yul\":13297:13303   */\n      dup2\n        /* \"#utility.yul\":13294:13324   */\n      gt\n        /* \"#utility.yul\":13291:13347   */\n      iszero\n      tag_274\n      jumpi\n        /* \"#utility.yul\":13327:13345   */\n      tag_275\n      tag_89\n      jump\t// in\n    tag_275:\n        /* \"#utility.yul\":13291:13347   */\n    tag_274:\n        /* \"#utility.yul\":13371:13409   */\n      tag_276\n        /* \"#utility.yul\":13403:13407   */\n      dup3\n        /* \"#utility.yul\":13397:13408   */\n      sload\n        /* \"#utility.yul\":13371:13409   */\n      tag_48\n      jump\t// in\n    tag_276:\n        /* \"#utility.yul\":13456:13523   */\n      tag_277\n        /* \"#utility.yul\":13516:13522   */\n      dup3\n        /* \"#utility.yul\":13508:13514   */\n      dup3\n        /* \"#utility.yul\":13502:13506   */\n      dup6\n        /* \"#utility.yul\":13456:13523   */\n      tag_115\n      jump\t// in\n    tag_277:\n        /* \"#utility.yul\":13550:13551   */\n      0x00\n        /* \"#utility.yul\":13574:13578   */\n      0x20\n        /* \"#utility.yul\":13561:13578   */\n      swap1\n      pop\n        /* \"#utility.yul\":13606:13608   */\n      0x1f\n        /* \"#utility.yul\":13598:13604   */\n      dup4\n        /* \"#utility.yul\":13595:13609   */\n      gt\n        /* \"#utility.yul\":13623:13624   */\n      0x01\n        /* \"#utility.yul\":13618:14236   */\n      dup2\n      eq\n      tag_279\n      jumpi\n        /* \"#utility.yul\":14280:14281   */\n      0x00\n        /* \"#utility.yul\":14297:14303   */\n      dup5\n        /* \"#utility.yul\":14294:14371   */\n      iszero\n      tag_280\n      jumpi\n        /* \"#utility.yul\":14346:14355   */\n      dup3\n        /* \"#utility.yul\":14341:14344   */\n      dup8\n        /* \"#utility.yul\":14337:14356   */\n      add\n        /* \"#utility.yul\":14331:14357   */\n      mload\n        /* \"#utility.yul\":14322:14357   */\n      swap1\n      pop\n        /* \"#utility.yul\":14294:14371   */\n    tag_280:\n        /* \"#utility.yul\":14397:14464   */\n      tag_281\n        /* \"#utility.yul\":14457:14463   */\n      dup6\n        /* \"#utility.yul\":14450:14455   */\n      dup3\n        /* \"#utility.yul\":14397:14464   */\n      tag_118\n      jump\t// in\n    tag_281:\n        /* \"#utility.yul\":14391:14395   */\n      dup7\n        /* \"#utility.yul\":14384:14465   */\n      sstore\n        /* \"#utility.yul\":14253:14475   */\n      pop\n        /* \"#utility.yul\":13588:14475   */\n      jump(tag_278)\n        /* \"#utility.yul\":13618:14236   */\n    tag_279:\n        /* \"#utility.yul\":13670:13674   */\n      0x1f\n        /* \"#utility.yul\":13666:13675   */\n      not\n        /* \"#utility.yul\":13658:13664   */\n      dup5\n        /* \"#utility.yul\":13654:13676   */\n      and\n        /* \"#utility.yul\":13704:13741   */\n      tag_282\n        /* \"#utility.yul\":13736:13740   */\n      dup7\n        /* \"#utility.yul\":13704:13741   */\n      tag_104\n      jump\t// in\n    tag_282:\n        /* \"#utility.yul\":13763:13764   */\n      0x00\n        /* \"#utility.yul\":13777:13985   */\n    tag_283:\n        /* \"#utility.yul\":13791:13798   */\n      dup3\n        /* \"#utility.yul\":13788:13789   */\n      dup2\n        /* \"#utility.yul\":13785:13799   */\n      lt\n        /* \"#utility.yul\":13777:13985   */\n      iszero\n      tag_285\n      jumpi\n        /* \"#utility.yul\":13870:13879   */\n      dup5\n        /* \"#utility.yul\":13865:13868   */\n      dup10\n        /* \"#utility.yul\":13861:13880   */\n      add\n        /* \"#utility.yul\":13855:13881   */\n      mload\n        /* \"#utility.yul\":13847:13853   */\n      dup3\n        /* \"#utility.yul\":13840:13882   */\n      sstore\n        /* \"#utility.yul\":13921:13922   */\n      0x01\n        /* \"#utility.yul\":13913:13919   */\n      dup3\n        /* \"#utility.yul\":13909:13923   */\n      add\n        /* \"#utility.yul\":13899:13923   */\n      swap2\n      pop\n        /* \"#utility.yul\":13968:13970   */\n      0x20\n        /* \"#utility.yul\":13957:13966   */\n      dup6\n        /* \"#utility.yul\":13953:13971   */\n      add\n        /* \"#utility.yul\":13940:13971   */\n      swap5\n      pop\n        /* \"#utility.yul\":13814:13818   */\n      0x20\n        /* \"#utility.yul\":13811:13812   */\n      dup2\n        /* \"#utility.yul\":13807:13819   */\n      add\n        /* \"#utility.yul\":13802:13819   */\n      swap1\n      pop\n        /* \"#utility.yul\":13777:13985   */\n      jump(tag_283)\n    tag_285:\n        /* \"#utility.yul\":14013:14019   */\n      dup7\n        /* \"#utility.yul\":14004:14011   */\n      dup4\n        /* \"#utility.yul\":14001:14020   */\n      lt\n        /* \"#utility.yul\":13998:14177   */\n      iszero\n      tag_286\n      jumpi\n        /* \"#utility.yul\":14071:14080   */\n      dup5\n        /* \"#utility.yul\":14066:14069   */\n      dup10\n        /* \"#utility.yul\":14062:14081   */\n      add\n        /* \"#utility.yul\":14056:14082   */\n      mload\n        /* \"#utility.yul\":14114:14162   */\n      tag_287\n        /* \"#utility.yul\":14156:14160   */\n      0x1f\n        /* \"#utility.yul\":14148:14154   */\n      dup10\n        /* \"#utility.yul\":14144:14161   */\n      and\n        /* \"#utility.yul\":14133:14142   */\n      dup3\n        /* \"#utility.yul\":14114:14162   */\n      tag_117\n      jump\t// in\n    tag_287:\n        /* \"#utility.yul\":14106:14112   */\n      dup4\n        /* \"#utility.yul\":14099:14163   */\n      sstore\n        /* \"#utility.yul\":14021:14177   */\n      pop\n        /* \"#utility.yul\":13998:14177   */\n    tag_286:\n        /* \"#utility.yul\":14223:14224   */\n      0x01\n        /* \"#utility.yul\":14219:14220   */\n      0x02\n        /* \"#utility.yul\":14211:14217   */\n      dup9\n        /* \"#utility.yul\":14207:14221   */\n      mul\n        /* \"#utility.yul\":14203:14225   */\n      add\n        /* \"#utility.yul\":14197:14201   */\n      dup9\n        /* \"#utility.yul\":14190:14226   */\n      sstore\n        /* \"#utility.yul\":13625:14236   */\n      pop\n      pop\n      pop\n        /* \"#utility.yul\":13588:14475   */\n    tag_278:\n      pop\n        /* \"#utility.yul\":13178:14481   */\n      pop\n      pop\n      pop\n        /* \"#utility.yul\":13086:14481   */\n      pop\n      pop\n      jump\t// out\n\n    auxdata: 0xa2646970667358221220dc18b99307db8239f875a61c5e9d7fe133a07388e3f6c5a6e124e24594265c9c64736f6c63430008160033\n}\n",
				"bytecode": {
					"linkReferences": {},
					"object": "608060405234801561000f575f80fd5b50610bec8061001d5f395ff3fe608060405234801561000f575f80fd5b506004361061007b575f3560e01c80633d92707f116100595780633d92707f146100fd5780638f88708b1461012d5780639386b1061461015d578063d87476e51461018d5761007b565b8063287ab8d31461007f578063321b41b3146100b15780633c6276e8146100e1575b5f80fd5b61009960048036038101906100949190610451565b6101a9565b6040516100a89392919061052f565b60405180910390f35b6100cb60048036038101906100c6919061059e565b610270565b6040516100d891906105c9565b60405180910390f35b6100fb60048036038101906100f69190610451565b61028d565b005b61011760048036038101906101129190610451565b6102b5565b60405161012491906105e2565b60405180910390f35b61014760048036038101906101429190610451565b6102d4565b60405161015491906105e2565b60405180910390f35b61017760048036038101906101729190610727565b6102f8565b6040516101849190610790565b60405180910390f35b6101a760048036038101906101a291906107d3565b61032f565b005b600281815481106101b8575f80fd5b905f5260205f2090600302015f91509050805f0154908060010180546101dd9061086c565b80601f01602080910402602001604051908101604052809291908181526020018280546102099061086c565b80156102545780601f1061022b57610100808354040283529160200191610254565b820191905f5260205f20905b81548152906001019060200180831161023757829003601f168201915b505050505090806002015f9054906101000a900460ff16905083565b6001602052805f5260405f205f915054906101000a900460ff1681565b5f81908060018154018082558091505060019003905f5260205f20015f909190919091505550565b5f81815481106102c3575f80fd5b905f5260205f20015f915090505481565b5f8082815481106102e8576102e761089c565b5b905f5260205f2001549050919050565b5f80838360405160200161030d929190610923565b6040516020818303038152906040528051906020012090508091505092915050565b60026040518060600160405280858152602001848152602001831515815250908060018154018082558091505060019003905f5260205f2090600302015f909190919091505f820151815f015560208201518160010190816103919190610ae7565b506040820151816002015f6101000a81548160ff02191690831515021790555050505f83836040516020016103c7929190610923565b6040516020818303038152906040528051906020012090508160015f8381526020019081526020015f205f6101000a81548160ff02191690831515021790555050505050565b5f604051905090565b5f80fd5b5f80fd5b5f819050919050565b6104308161041e565b811461043a575f80fd5b50565b5f8135905061044b81610427565b92915050565b5f6020828403121561046657610465610416565b5b5f6104738482850161043d565b91505092915050565b6104858161041e565b82525050565b5f81519050919050565b5f82825260208201905092915050565b5f5b838110156104c25780820151818401526020810190506104a7565b5f8484015250505050565b5f601f19601f8301169050919050565b5f6104e78261048b565b6104f18185610495565b93506105018185602086016104a5565b61050a816104cd565b840191505092915050565b5f8115159050919050565b61052981610515565b82525050565b5f6060820190506105425f83018661047c565b818103602083015261055481856104dd565b90506105636040830184610520565b949350505050565b5f819050919050565b61057d8161056b565b8114610587575f80fd5b50565b5f8135905061059881610574565b92915050565b5f602082840312156105b3576105b2610416565b5b5f6105c08482850161058a565b91505092915050565b5f6020820190506105dc5f830184610520565b92915050565b5f6020820190506105f55f83018461047c565b92915050565b5f80fd5b5f80fd5b7f4e487b71000000000000000000000000000000000000000000000000000000005f52604160045260245ffd5b610639826104cd565b810181811067ffffffffffffffff8211171561065857610657610603565b5b80604052505050565b5f61066a61040d565b90506106768282610630565b919050565b5f67ffffffffffffffff82111561069557610694610603565b5b61069e826104cd565b9050602081019050919050565b828183375f83830152505050565b5f6106cb6106c68461067b565b610661565b9050828152602081018484840111156106e7576106e66105ff565b5b6106f28482856106ab565b509392505050565b5f82601f83011261070e5761070d6105fb565b5b813561071e8482602086016106b9565b91505092915050565b5f806040838503121561073d5761073c610416565b5b5f61074a8582860161043d565b925050602083013567ffffffffffffffff81111561076b5761076a61041a565b5b610777858286016106fa565b9150509250929050565b61078a8161056b565b82525050565b5f6020820190506107a35f830184610781565b92915050565b6107b281610515565b81146107bc575f80fd5b50565b5f813590506107cd816107a9565b92915050565b5f805f606084860312156107ea576107e9610416565b5b5f6107f78682870161043d565b935050602084013567ffffffffffffffff8111156108185761081761041a565b5b610824868287016106fa565b9250506040610835868287016107bf565b9150509250925092565b7f4e487b71000000000000000000000000000000000000000000000000000000005f52602260045260245ffd5b5f600282049050600182168061088357607f821691505b6020821081036108965761089561083f565b5b50919050565b7f4e487b71000000000000000000000000000000000000000000000000000000005f52603260045260245ffd5b5f819050919050565b6108e36108de8261041e565b6108c9565b82525050565b5f81905092915050565b5f6108fd8261048b565b61090781856108e9565b93506109178185602086016104a5565b80840191505092915050565b5f61092e82856108d2565b60208201915061093e82846108f3565b91508190509392505050565b5f819050815f5260205f209050919050565b5f6020601f8301049050919050565b5f82821b905092915050565b5f600883026109a67fffffffffffffffffffffffffffffffffffffffffffffffffffffffffffffffff8261096b565b6109b0868361096b565b95508019841693508086168417925050509392505050565b5f819050919050565b5f6109eb6109e66109e18461041e565b6109c8565b61041e565b9050919050565b5f819050919050565b610a04836109d1565b610a18610a10826109f2565b848454610977565b825550505050565b5f90565b610a2c610a20565b610a378184846109fb565b505050565b5b81811015610a5a57610a4f5f82610a24565b600181019050610a3d565b5050565b601f821115610a9f57610a708161094a565b610a798461095c565b81016020851015610a88578190505b610a9c610a948561095c565b830182610a3c565b50505b505050565b5f82821c905092915050565b5f610abf5f1984600802610aa4565b1980831691505092915050565b5f610ad78383610ab0565b9150826002028217905092915050565b610af08261048b565b67ffffffffffffffff811115610b0957610b08610603565b5b610b13825461086c565b610b1e828285610a5e565b5f60209050601f831160018114610b4f575f8415610b3d578287015190505b610b478582610acc565b865550610bae565b601f198416610b5d8661094a565b5f5b82811015610b8457848901518255600182019150602085019450602081019050610b5f565b86831015610ba15784890151610b9d601f891682610ab0565b8355505b6001600288020188555050505b50505050505056fea2646970667358221220dc18b99307db8239f875a61c5e9d7fe133a07388e3f6c5a6e124e24594265c9c64736f6c63430008160033",
					"opcodes": "PUSH1 0x80 PUSH1 0x40 MSTORE CALLVALUE DUP1 ISZERO PUSH2 0xF JUMPI PUSH0 DUP1 REVERT JUMPDEST POP PUSH2 0xBEC DUP1 PUSH2 0x1D PUSH0 CODECOPY PUSH0 RETURN INVALID PUSH1 0x80 PUSH1 0x40 MSTORE CALLVALUE DUP1 ISZERO PUSH2 0xF JUMPI PUSH0 DUP1 REVERT JUMPDEST POP PUSH1 0x4 CALLDATASIZE LT PUSH2 0x7B JUMPI PUSH0 CALLDATALOAD PUSH1 0xE0 SHR DUP1 PUSH4 0x3D92707F GT PUSH2 0x59 JUMPI DUP1 PUSH4 0x3D92707F EQ PUSH2 0xFD JUMPI DUP1 PUSH4 0x8F88708B EQ PUSH2 0x12D JUMPI DUP1 PUSH4 0x9386B106 EQ PUSH2 0x15D JUMPI DUP1 PUSH4 0xD87476E5 EQ PUSH2 0x18D JUMPI PUSH2 0x7B JUMP JUMPDEST DUP1 PUSH4 0x287AB8D3 EQ PUSH2 0x7F JUMPI DUP1 PUSH4 0x321B41B3 EQ PUSH2 0xB1 JUMPI DUP1 PUSH4 0x3C6276E8 EQ PUSH2 0xE1 JUMPI JUMPDEST PUSH0 DUP1 REVERT JUMPDEST PUSH2 0x99 PUSH1 0x4 DUP1 CALLDATASIZE SUB DUP2 ADD SWAP1 PUSH2 0x94 SWAP2 SWAP1 PUSH2 0x451 JUMP JUMPDEST PUSH2 0x1A9 JUMP JUMPDEST PUSH1 0x40 MLOAD PUSH2 0xA8 SWAP4 SWAP3 SWAP2 SWAP1 PUSH2 0x52F JUMP JUMPDEST PUSH1 0x40 MLOAD DUP1 SWAP2 SUB SWAP1 RETURN JUMPDEST PUSH2 0xCB PUSH1 0x4 DUP1 CALLDATASIZE SUB DUP2 ADD SWAP1 PUSH2 0xC6 SWAP2 SWAP1 PUSH2 0x59E JUMP JUMPDEST PUSH2 0x270 JUMP JUMPDEST PUSH1 0x40 MLOAD PUSH2 0xD8 SWAP2 SWAP1 PUSH2 0x5C9 JUMP JUMPDEST PUSH1 0x40 MLOAD DUP1 SWAP2 SUB SWAP1 RETURN JUMPDEST PUSH2 0xFB PUSH1 0x4 DUP1 CALLDATASIZE SUB DUP2 ADD SWAP1 PUSH2 0xF6 SWAP2 SWAP1 PUSH2 0x451 JUMP JUMPDEST PUSH2 0x28D JUMP JUMPDEST STOP JUMPDEST PUSH2 0x117 PUSH1 0x4 DUP1 CALLDATASIZE SUB DUP2 ADD SWAP1 PUSH2 0x112 SWAP2 SWAP1 PUSH2 0x451 JUMP JUMPDEST PUSH2 0x2B5 JUMP JUMPDEST PUSH1 0x40 MLOAD PUSH2 0x124 SWAP2 SWAP1 PUSH2 0x5E2 JUMP JUMPDEST PUSH1 0x40 MLOAD DUP1 SWAP2 SUB SWAP1 RETURN JUMPDEST PUSH2 0x147 PUSH1 0x4 DUP1 CALLDATASIZE SUB DUP2 ADD SWAP1 PUSH2 0x142 SWAP2 SWAP1 PUSH2 0x451 JUMP JUMPDEST PUSH2 0x2D4 JUMP JUMPDEST PUSH1 0x40 MLOAD PUSH2 0x154 SWAP2 SWAP1 PUSH2 0x5E2 JUMP JUMPDEST PUSH1 0x40 MLOAD DUP1 SWAP2 SUB SWAP1 RETURN JUMPDEST PUSH2 0x177 PUSH1 0x4 DUP1 CALLDATASIZE SUB DUP2 ADD SWAP1 PUSH2 0x172 SWAP2 SWAP1 PUSH2 0x727 JUMP JUMPDEST PUSH2 0x2F8 JUMP JUMPDEST PUSH1 0x40 MLOAD PUSH2 0x184 SWAP2 SWAP1 PUSH2 0x790 JUMP JUMPDEST PUSH1 0x40 MLOAD DUP1 SWAP2 SUB SWAP1 RETURN JUMPDEST PUSH2 0x1A7 PUSH1 0x4 DUP1 CALLDATASIZE SUB DUP2 ADD SWAP1 PUSH2 0x1A2 SWAP2 SWAP1 PUSH2 0x7D3 JUMP JUMPDEST PUSH2 0x32F JUMP JUMPDEST STOP JUMPDEST PUSH1 0x2 DUP2 DUP2 SLOAD DUP2 LT PUSH2 0x1B8 JUMPI PUSH0 DUP1 REVERT JUMPDEST SWAP1 PUSH0 MSTORE PUSH1 0x20 PUSH0 KECCAK256 SWAP1 PUSH1 0x3 MUL ADD PUSH0 SWAP2 POP SWAP1 POP DUP1 PUSH0 ADD SLOAD SWAP1 DUP1 PUSH1 0x1 ADD DUP1 SLOAD PUSH2 0x1DD SWAP1 PUSH2 0x86C JUMP JUMPDEST DUP1 PUSH1 0x1F ADD PUSH1 0x20 DUP1 SWAP2 DIV MUL PUSH1 0x20 ADD PUSH1 0x40 MLOAD SWAP1 DUP2 ADD PUSH1 0x40 MSTORE DUP1 SWAP3 SWAP2 SWAP1 DUP2 DUP2 MSTORE PUSH1 0x20 ADD DUP3 DUP1 SLOAD PUSH2 0x209 SWAP1 PUSH2 0x86C JUMP JUMPDEST DUP1 ISZERO PUSH2 0x254 JUMPI DUP1 PUSH1 0x1F LT PUSH2 0x22B JUMPI PUSH2 0x100 DUP1 DUP4 SLOAD DIV MUL DUP4 MSTORE SWAP2 PUSH1 0x20 ADD SWAP2 PUSH2 0x254 JUMP JUMPDEST DUP3 ADD SWAP2 SWAP1 PUSH0 MSTORE PUSH1 0x20 PUSH0 KECCAK256 SWAP1 JUMPDEST DUP2 SLOAD DUP2 MSTORE SWAP1 PUSH1 0x1 ADD SWAP1 PUSH1 0x20 ADD DUP1 DUP4 GT PUSH2 0x237 JUMPI DUP3 SWAP1 SUB PUSH1 0x1F AND DUP3 ADD SWAP2 JUMPDEST POP POP POP POP POP SWAP1 DUP1 PUSH1 0x2 ADD PUSH0 SWAP1 SLOAD SWAP1 PUSH2 0x100 EXP SWAP1 DIV PUSH1 0xFF AND SWAP1 POP DUP4 JUMP JUMPDEST PUSH1 0x1 PUSH1 0x20 MSTORE DUP1 PUSH0 MSTORE PUSH1 0x40 PUSH0 KECCAK256 PUSH0 SWAP2 POP SLOAD SWAP1 PUSH2 0x100 EXP SWAP1 DIV PUSH1 0xFF AND DUP2 JUMP JUMPDEST PUSH0 DUP2 SWAP1 DUP1 PUSH1 0x1 DUP2 SLOAD ADD DUP1 DUP3 SSTORE DUP1 SWAP2 POP POP PUSH1 0x1 SWAP1 SUB SWAP1 PUSH0 MSTORE PUSH1 0x20 PUSH0 KECCAK256 ADD PUSH0 SWAP1 SWAP2 SWAP1 SWAP2 SWAP1 SWAP2 POP SSTORE POP JUMP JUMPDEST PUSH0 DUP2 DUP2 SLOAD DUP2 LT PUSH2 0x2C3 JUMPI PUSH0 DUP1 REVERT JUMPDEST SWAP1 PUSH0 MSTORE PUSH1 0x20 PUSH0 KECCAK256 ADD PUSH0 SWAP2 POP SWAP1 POP SLOAD DUP2 JUMP JUMPDEST PUSH0 DUP1 DUP3 DUP2 SLOAD DUP2 LT PUSH2 0x2E8 JUMPI PUSH2 0x2E7 PUSH2 0x89C JUMP JUMPDEST JUMPDEST SWAP1 PUSH0 MSTORE PUSH1 0x20 PUSH0 KECCAK256 ADD SLOAD SWAP1 POP SWAP2 SWAP1 POP JUMP JUMPDEST PUSH0 DUP1 DUP4 DUP4 PUSH1 0x40 MLOAD PUSH1 0x20 ADD PUSH2 0x30D SWAP3 SWAP2 SWAP1 PUSH2 0x923 JUMP JUMPDEST PUSH1 0x40 MLOAD PUSH1 0x20 DUP2 DUP4 SUB SUB DUP2 MSTORE SWAP1 PUSH1 0x40 MSTORE DUP1 MLOAD SWAP1 PUSH1 0x20 ADD KECCAK256 SWAP1 POP DUP1 SWAP2 POP POP SWAP3 SWAP2 POP POP JUMP JUMPDEST PUSH1 0x2 PUSH1 0x40 MLOAD DUP1 PUSH1 0x60 ADD PUSH1 0x40 MSTORE DUP1 DUP6 DUP2 MSTORE PUSH1 0x20 ADD DUP5 DUP2 MSTORE PUSH1 0x20 ADD DUP4 ISZERO ISZERO DUP2 MSTORE POP SWAP1 DUP1 PUSH1 0x1 DUP2 SLOAD ADD DUP1 DUP3 SSTORE DUP1 SWAP2 POP POP PUSH1 0x1 SWAP1 SUB SWAP1 PUSH0 MSTORE PUSH1 0x20 PUSH0 KECCAK256 SWAP1 PUSH1 0x3 MUL ADD PUSH0 SWAP1 SWAP2 SWAP1 SWAP2 SWAP1 SWAP2 POP PUSH0 DUP3 ADD MLOAD DUP2 PUSH0 ADD SSTORE PUSH1 0x20 DUP3 ADD MLOAD DUP2 PUSH1 0x1 ADD SWAP1 DUP2 PUSH2 0x391 SWAP2 SWAP1 PUSH2 0xAE7 JUMP JUMPDEST POP PUSH1 0x40 DUP3 ADD MLOAD DUP2 PUSH1 0x2 ADD PUSH0 PUSH2 0x100 EXP DUP2 SLOAD DUP2 PUSH1 0xFF MUL NOT AND SWAP1 DUP4 ISZERO ISZERO MUL OR SWAP1 SSTORE POP POP POP PUSH0 DUP4 DUP4 PUSH1 0x40 MLOAD PUSH1 0x20 ADD PUSH2 0x3C7 SWAP3 SWAP2 SWAP1 PUSH2 0x923 JUMP JUMPDEST PUSH1 0x40 MLOAD PUSH1 0x20 DUP2 DUP4 SUB SUB DUP2 MSTORE SWAP1 PUSH1 0x40 MSTORE DUP1 MLOAD SWAP1 PUSH1 0x20 ADD KECCAK256 SWAP1 POP DUP2 PUSH1 0x1 PUSH0 DUP4 DUP2 MSTORE PUSH1 0x20 ADD SWAP1 DUP2 MSTORE PUSH1 0x20 ADD PUSH0 KECCAK256 PUSH0 PUSH2 0x100 EXP DUP2 SLOAD DUP2 PUSH1 0xFF MUL NOT AND SWAP1 DUP4 ISZERO ISZERO MUL OR SWAP1 SSTORE POP POP POP POP POP JUMP JUMPDEST PUSH0 PUSH1 0x40 MLOAD SWAP1 POP SWAP1 JUMP JUMPDEST PUSH0 DUP1 REVERT JUMPDEST PUSH0 DUP1 REVERT JUMPDEST PUSH0 DUP2 SWAP1 POP SWAP2 SWAP1 POP JUMP JUMPDEST PUSH2 0x430 DUP2 PUSH2 0x41E JUMP JUMPDEST DUP2 EQ PUSH2 0x43A JUMPI PUSH0 DUP1 REVERT JUMPDEST POP JUMP JUMPDEST PUSH0 DUP2 CALLDATALOAD SWAP1 POP PUSH2 0x44B DUP2 PUSH2 0x427 JUMP JUMPDEST SWAP3 SWAP2 POP POP JUMP JUMPDEST PUSH0 PUSH1 0x20 DUP3 DUP5 SUB SLT ISZERO PUSH2 0x466 JUMPI PUSH2 0x465 PUSH2 0x416 JUMP JUMPDEST JUMPDEST PUSH0 PUSH2 0x473 DUP5 DUP3 DUP6 ADD PUSH2 0x43D JUMP JUMPDEST SWAP2 POP POP SWAP3 SWAP2 POP POP JUMP JUMPDEST PUSH2 0x485 DUP2 PUSH2 0x41E JUMP JUMPDEST DUP3 MSTORE POP POP JUMP JUMPDEST PUSH0 DUP2 MLOAD SWAP1 POP SWAP2 SWAP1 POP JUMP JUMPDEST PUSH0 DUP3 DUP3 MSTORE PUSH1 0x20 DUP3 ADD SWAP1 POP SWAP3 SWAP2 POP POP JUMP JUMPDEST PUSH0 JUMPDEST DUP4 DUP2 LT ISZERO PUSH2 0x4C2 JUMPI DUP1 DUP3 ADD MLOAD DUP2 DUP5 ADD MSTORE PUSH1 0x20 DUP2 ADD SWAP1 POP PUSH2 0x4A7 JUMP JUMPDEST PUSH0 DUP5 DUP5 ADD MSTORE POP POP POP POP JUMP JUMPDEST PUSH0 PUSH1 0x1F NOT PUSH1 0x1F DUP4 ADD AND SWAP1 POP SWAP2 SWAP1 POP JUMP JUMPDEST PUSH0 PUSH2 0x4E7 DUP3 PUSH2 0x48B JUMP JUMPDEST PUSH2 0x4F1 DUP2 DUP6 PUSH2 0x495 JUMP JUMPDEST SWAP4 POP PUSH2 0x501 DUP2 DUP6 PUSH1 0x20 DUP7 ADD PUSH2 0x4A5 JUMP JUMPDEST PUSH2 0x50A DUP2 PUSH2 0x4CD JUMP JUMPDEST DUP5 ADD SWAP2 POP POP SWAP3 SWAP2 POP POP JUMP JUMPDEST PUSH0 DUP2 ISZERO ISZERO SWAP1 POP SWAP2 SWAP1 POP JUMP JUMPDEST PUSH2 0x529 DUP2 PUSH2 0x515 JUMP JUMPDEST DUP3 MSTORE POP POP JUMP JUMPDEST PUSH0 PUSH1 0x60 DUP3 ADD SWAP1 POP PUSH2 0x542 PUSH0 DUP4 ADD DUP7 PUSH2 0x47C JUMP JUMPDEST DUP2 DUP2 SUB PUSH1 0x20 DUP4 ADD MSTORE PUSH2 0x554 DUP2 DUP6 PUSH2 0x4DD JUMP JUMPDEST SWAP1 POP PUSH2 0x563 PUSH1 0x40 DUP4 ADD DUP5 PUSH2 0x520 JUMP JUMPDEST SWAP5 SWAP4 POP POP POP POP JUMP JUMPDEST PUSH0 DUP2 SWAP1 POP SWAP2 SWAP1 POP JUMP JUMPDEST PUSH2 0x57D DUP2 PUSH2 0x56B JUMP JUMPDEST DUP2 EQ PUSH2 0x587 JUMPI PUSH0 DUP1 REVERT JUMPDEST POP JUMP JUMPDEST PUSH0 DUP2 CALLDATALOAD SWAP1 POP PUSH2 0x598 DUP2 PUSH2 0x574 JUMP JUMPDEST SWAP3 SWAP2 POP POP JUMP JUMPDEST PUSH0 PUSH1 0x20 DUP3 DUP5 SUB SLT ISZERO PUSH2 0x5B3 JUMPI PUSH2 0x5B2 PUSH2 0x416 JUMP JUMPDEST JUMPDEST PUSH0 PUSH2 0x5C0 DUP5 DUP3 DUP6 ADD PUSH2 0x58A JUMP JUMPDEST SWAP2 POP POP SWAP3 SWAP2 POP POP JUMP JUMPDEST PUSH0 PUSH1 0x20 DUP3 ADD SWAP1 POP PUSH2 0x5DC PUSH0 DUP4 ADD DUP5 PUSH2 0x520 JUMP JUMPDEST SWAP3 SWAP2 POP POP JUMP JUMPDEST PUSH0 PUSH1 0x20 DUP3 ADD SWAP1 POP PUSH2 0x5F5 PUSH0 DUP4 ADD DUP5 PUSH2 0x47C JUMP JUMPDEST SWAP3 SWAP2 POP POP JUMP JUMPDEST PUSH0 DUP1 REVERT JUMPDEST PUSH0 DUP1 REVERT JUMPDEST PUSH32 0x4E487B7100000000000000000000000000000000000000000000000000000000 PUSH0 MSTORE PUSH1 0x41 PUSH1 0x4 MSTORE PUSH1 0x24 PUSH0 REVERT JUMPDEST PUSH2 0x639 DUP3 PUSH2 0x4CD JUMP JUMPDEST DUP2 ADD DUP2 DUP2 LT PUSH8 0xFFFFFFFFFFFFFFFF DUP3 GT OR ISZERO PUSH2 0x658 JUMPI PUSH2 0x657 PUSH2 0x603 JUMP JUMPDEST JUMPDEST DUP1 PUSH1 0x40 MSTORE POP POP POP JUMP JUMPDEST PUSH0 PUSH2 0x66A PUSH2 0x40D JUMP JUMPDEST SWAP1 POP PUSH2 0x676 DUP3 DUP3 PUSH2 0x630 JUMP JUMPDEST SWAP2 SWAP1 POP JUMP JUMPDEST PUSH0 PUSH8 0xFFFFFFFFFFFFFFFF DUP3 GT ISZERO PUSH2 0x695 JUMPI PUSH2 0x694 PUSH2 0x603 JUMP JUMPDEST JUMPDEST PUSH2 0x69E DUP3 PUSH2 0x4CD JUMP JUMPDEST SWAP1 POP PUSH1 0x20 DUP2 ADD SWAP1 POP SWAP2 SWAP1 POP JUMP JUMPDEST DUP3 DUP2 DUP4 CALLDATACOPY PUSH0 DUP4 DUP4 ADD MSTORE POP POP POP JUMP JUMPDEST PUSH0 PUSH2 0x6CB PUSH2 0x6C6 DUP5 PUSH2 0x67B JUMP JUMPDEST PUSH2 0x661 JUMP JUMPDEST SWAP1 POP DUP3 DUP2 MSTORE PUSH1 0x20 DUP2 ADD DUP5 DUP5 DUP5 ADD GT ISZERO PUSH2 0x6E7 JUMPI PUSH2 0x6E6 PUSH2 0x5FF JUMP JUMPDEST JUMPDEST PUSH2 0x6F2 DUP5 DUP3 DUP6 PUSH2 0x6AB JUMP JUMPDEST POP SWAP4 SWAP3 POP POP POP JUMP JUMPDEST PUSH0 DUP3 PUSH1 0x1F DUP4 ADD SLT PUSH2 0x70E JUMPI PUSH2 0x70D PUSH2 0x5FB JUMP JUMPDEST JUMPDEST DUP2 CALLDATALOAD PUSH2 0x71E DUP5 DUP3 PUSH1 0x20 DUP7 ADD PUSH2 0x6B9 JUMP JUMPDEST SWAP2 POP POP SWAP3 SWAP2 POP POP JUMP JUMPDEST PUSH0 DUP1 PUSH1 0x40 DUP4 DUP6 SUB SLT ISZERO PUSH2 0x73D JUMPI PUSH2 0x73C PUSH2 0x416 JUMP JUMPDEST JUMPDEST PUSH0 PUSH2 0x74A DUP6 DUP3 DUP7 ADD PUSH2 0x43D JUMP JUMPDEST SWAP3 POP POP PUSH1 0x20 DUP4 ADD CALLDATALOAD PUSH8 0xFFFFFFFFFFFFFFFF DUP2 GT ISZERO PUSH2 0x76B JUMPI PUSH2 0x76A PUSH2 0x41A JUMP JUMPDEST JUMPDEST PUSH2 0x777 DUP6 DUP3 DUP7 ADD PUSH2 0x6FA JUMP JUMPDEST SWAP2 POP POP SWAP3 POP SWAP3 SWAP1 POP JUMP JUMPDEST PUSH2 0x78A DUP2 PUSH2 0x56B JUMP JUMPDEST DUP3 MSTORE POP POP JUMP JUMPDEST PUSH0 PUSH1 0x20 DUP3 ADD SWAP1 POP PUSH2 0x7A3 PUSH0 DUP4 ADD DUP5 PUSH2 0x781 JUMP JUMPDEST SWAP3 SWAP2 POP POP JUMP JUMPDEST PUSH2 0x7B2 DUP2 PUSH2 0x515 JUMP JUMPDEST DUP2 EQ PUSH2 0x7BC JUMPI PUSH0 DUP1 REVERT JUMPDEST POP JUMP JUMPDEST PUSH0 DUP2 CALLDATALOAD SWAP1 POP PUSH2 0x7CD DUP2 PUSH2 0x7A9 JUMP JUMPDEST SWAP3 SWAP2 POP POP JUMP JUMPDEST PUSH0 DUP1 PUSH0 PUSH1 0x60 DUP5 DUP7 SUB SLT ISZERO PUSH2 0x7EA JUMPI PUSH2 0x7E9 PUSH2 0x416 JUMP JUMPDEST JUMPDEST PUSH0 PUSH2 0x7F7 DUP7 DUP3 DUP8 ADD PUSH2 0x43D JUMP JUMPDEST SWAP4 POP POP PUSH1 0x20 DUP5 ADD CALLDATALOAD PUSH8 0xFFFFFFFFFFFFFFFF DUP2 GT ISZERO PUSH2 0x818 JUMPI PUSH2 0x817 PUSH2 0x41A JUMP JUMPDEST JUMPDEST PUSH2 0x824 DUP7 DUP3 DUP8 ADD PUSH2 0x6FA JUMP JUMPDEST SWAP3 POP POP PUSH1 0x40 PUSH2 0x835 DUP7 DUP3 DUP8 ADD PUSH2 0x7BF JUMP JUMPDEST SWAP2 POP POP SWAP3 POP SWAP3 POP SWAP3 JUMP JUMPDEST PUSH32 0x4E487B7100000000000000000000000000000000000000000000000000000000 PUSH0 MSTORE PUSH1 0x22 PUSH1 0x4 MSTORE PUSH1 0x24 PUSH0 REVERT JUMPDEST PUSH0 PUSH1 0x2 DUP3 DIV SWAP1 POP PUSH1 0x1 DUP3 AND DUP1 PUSH2 0x883 JUMPI PUSH1 0x7F DUP3 AND SWAP2 POP JUMPDEST PUSH1 0x20 DUP3 LT DUP2 SUB PUSH2 0x896 JUMPI PUSH2 0x895 PUSH2 0x83F JUMP JUMPDEST JUMPDEST POP SWAP2 SWAP1 POP JUMP JUMPDEST PUSH32 0x4E487B7100000000000000000000000000000000000000000000000000000000 PUSH0 MSTORE PUSH1 0x32 PUSH1 0x4 MSTORE PUSH1 0x24 PUSH0 REVERT JUMPDEST PUSH0 DUP2 SWAP1 POP SWAP2 SWAP1 POP JUMP JUMPDEST PUSH2 0x8E3 PUSH2 0x8DE DUP3 PUSH2 0x41E JUMP JUMPDEST PUSH2 0x8C9 JUMP JUMPDEST DUP3 MSTORE POP POP JUMP JUMPDEST PUSH0 DUP2 SWAP1 POP SWAP3 SWAP2 POP POP JUMP JUMPDEST PUSH0 PUSH2 0x8FD DUP3 PUSH2 0x48B JUMP JUMPDEST PUSH2 0x907 DUP2 DUP6 PUSH2 0x8E9 JUMP JUMPDEST SWAP4 POP PUSH2 0x917 DUP2 DUP6 PUSH1 0x20 DUP7 ADD PUSH2 0x4A5 JUMP JUMPDEST DUP1 DUP5 ADD SWAP2 POP POP SWAP3 SWAP2 POP POP JUMP JUMPDEST PUSH0 PUSH2 0x92E DUP3 DUP6 PUSH2 0x8D2 JUMP JUMPDEST PUSH1 0x20 DUP3 ADD SWAP2 POP PUSH2 0x93E DUP3 DUP5 PUSH2 0x8F3 JUMP JUMPDEST SWAP2 POP DUP2 SWAP1 POP SWAP4 SWAP3 POP POP POP JUMP JUMPDEST PUSH0 DUP2 SWAP1 POP DUP2 PUSH0 MSTORE PUSH1 0x20 PUSH0 KECCAK256 SWAP1 POP SWAP2 SWAP1 POP JUMP JUMPDEST PUSH0 PUSH1 0x20 PUSH1 0x1F DUP4 ADD DIV SWAP1 POP SWAP2 SWAP1 POP JUMP JUMPDEST PUSH0 DUP3 DUP3 SHL SWAP1 POP SWAP3 SWAP2 POP POP JUMP JUMPDEST PUSH0 PUSH1 0x8 DUP4 MUL PUSH2 0x9A6 PUSH32 0xFFFFFFFFFFFFFFFFFFFFFFFFFFFFFFFFFFFFFFFFFFFFFFFFFFFFFFFFFFFFFFFF DUP3 PUSH2 0x96B JUMP JUMPDEST PUSH2 0x9B0 DUP7 DUP4 PUSH2 0x96B JUMP JUMPDEST SWAP6 POP DUP1 NOT DUP5 AND SWAP4 POP DUP1 DUP7 AND DUP5 OR SWAP3 POP POP POP SWAP4 SWAP3 POP POP POP JUMP JUMPDEST PUSH0 DUP2 SWAP1 POP SWAP2 SWAP1 POP JUMP JUMPDEST PUSH0 PUSH2 0x9EB PUSH2 0x9E6 PUSH2 0x9E1 DUP5 PUSH2 0x41E JUMP JUMPDEST PUSH2 0x9C8 JUMP JUMPDEST PUSH2 0x41E JUMP JUMPDEST SWAP1 POP SWAP2 SWAP1 POP JUMP JUMPDEST PUSH0 DUP2 SWAP1 POP SWAP2 SWAP1 POP JUMP JUMPDEST PUSH2 0xA04 DUP4 PUSH2 0x9D1 JUMP JUMPDEST PUSH2 0xA18 PUSH2 0xA10 DUP3 PUSH2 0x9F2 JUMP JUMPDEST DUP5 DUP5 SLOAD PUSH2 0x977 JUMP JUMPDEST DUP3 SSTORE POP POP POP POP JUMP JUMPDEST PUSH0 SWAP1 JUMP JUMPDEST PUSH2 0xA2C PUSH2 0xA20 JUMP JUMPDEST PUSH2 0xA37 DUP2 DUP5 DUP5 PUSH2 0x9FB JUMP JUMPDEST POP POP POP JUMP JUMPDEST JUMPDEST DUP2 DUP2 LT ISZERO PUSH2 0xA5A JUMPI PUSH2 0xA4F PUSH0 DUP3 PUSH2 0xA24 JUMP JUMPDEST PUSH1 0x1 DUP2 ADD SWAP1 POP PUSH2 0xA3D JUMP JUMPDEST POP POP JUMP JUMPDEST PUSH1 0x1F DUP3 GT ISZERO PUSH2 0xA9F JUMPI PUSH2 0xA70 DUP2 PUSH2 0x94A JUMP JUMPDEST PUSH2 0xA79 DUP5 PUSH2 0x95C JUMP JUMPDEST DUP2 ADD PUSH1 0x20 DUP6 LT ISZERO PUSH2 0xA88 JUMPI DUP2 SWAP1 POP JUMPDEST PUSH2 0xA9C PUSH2 0xA94 DUP6 PUSH2 0x95C JUMP JUMPDEST DUP4 ADD DUP3 PUSH2 0xA3C JUMP JUMPDEST POP POP JUMPDEST POP POP POP JUMP JUMPDEST PUSH0 DUP3 DUP3 SHR SWAP1 POP SWAP3 SWAP2 POP POP JUMP JUMPDEST PUSH0 PUSH2 0xABF PUSH0 NOT DUP5 PUSH1 0x8 MUL PUSH2 0xAA4 JUMP JUMPDEST NOT DUP1 DUP4 AND SWAP2 POP POP SWAP3 SWAP2 POP POP JUMP JUMPDEST PUSH0 PUSH2 0xAD7 DUP4 DUP4 PUSH2 0xAB0 JUMP JUMPDEST SWAP2 POP DUP3 PUSH1 0x2 MUL DUP3 OR SWAP1 POP SWAP3 SWAP2 POP POP JUMP JUMPDEST PUSH2 0xAF0 DUP3 PUSH2 0x48B JUMP JUMPDEST PUSH8 0xFFFFFFFFFFFFFFFF DUP2 GT ISZERO PUSH2 0xB09 JUMPI PUSH2 0xB08 PUSH2 0x603 JUMP JUMPDEST JUMPDEST PUSH2 0xB13 DUP3 SLOAD PUSH2 0x86C JUMP JUMPDEST PUSH2 0xB1E DUP3 DUP3 DUP6 PUSH2 0xA5E JUMP JUMPDEST PUSH0 PUSH1 0x20 SWAP1 POP PUSH1 0x1F DUP4 GT PUSH1 0x1 DUP2 EQ PUSH2 0xB4F JUMPI PUSH0 DUP5 ISZERO PUSH2 0xB3D JUMPI DUP3 DUP8 ADD MLOAD SWAP1 POP JUMPDEST PUSH2 0xB47 DUP6 DUP3 PUSH2 0xACC JUMP JUMPDEST DUP7 SSTORE POP PUSH2 0xBAE JUMP JUMPDEST PUSH1 0x1F NOT DUP5 AND PUSH2 0xB5D DUP7 PUSH2 0x94A JUMP JUMPDEST PUSH0 JUMPDEST DUP3 DUP2 LT ISZERO PUSH2 0xB84 JUMPI DUP5 DUP10 ADD MLOAD DUP3 SSTORE PUSH1 0x1 DUP3 ADD SWAP2 POP PUSH1 0x20 DUP6 ADD SWAP5 POP PUSH1 0x20 DUP2 ADD SWAP1 POP PUSH2 0xB5F JUMP JUMPDEST DUP7 DUP4 LT ISZERO PUSH2 0xBA1 JUMPI DUP5 DUP10 ADD MLOAD PUSH2 0xB9D PUSH1 0x1F DUP10 AND DUP3 PUSH2 0xAB0 JUMP JUMPDEST DUP4 SSTORE POP JUMPDEST PUSH1 0x1 PUSH1 0x2 DUP9 MUL ADD DUP9 SSTORE POP POP POP JUMPDEST POP POP POP POP POP POP JUMP INVALID LOG2 PUSH5 0x6970667358 0x22 SLT KECCAK256 0xDC XOR 0xB9 SWAP4 SMOD 0xDB DUP3 CODECOPY 0xF8 PUSH22 0xA61C5E9D7FE133A07388E3F6C5A6E124E24594265C9C PUSH5 0x736F6C6343 STOP ADDMOD AND STOP CALLER "
				},
				"gasEstimates": {
					"creation": {
						"codeDepositCost": "610400",
						"executionCost": "643",
						"totalCost": "611043"
					},
					"external": {
						"TestArray(uint256)": "46865",
						"addInFavStruct(uint256,string,bool)": "infinite",
						"favs(uint256)": "infinite",
						"favsStruct(uint256)": "infinite",
						"isMapped(bytes32)": "2808",
						"retrieve(uint256)": "infinite",
						"retrieveBytes(uint256,string)": "infinite"
					}
				},
				"methodIdentifiers": {
					"TestArray(uint256)": "3c6276e8",
					"addInFavStruct(uint256,string,bool)": "d87476e5",
					"favs(uint256)": "3d92707f",
					"favsStruct(uint256)": "287ab8d3",
					"isMapped(bytes32)": "321b41b3",
					"retrieve(uint256)": "8f88708b",
					"retrieveBytes(uint256,string)": "9386b106"
				}
			},
			"storageLayout": {
				"storage": [
					{
						"astId": 4,
						"contract": "contracts/PracticeTillThreesol.sol:PracticeSessionThree",
						"label": "favs",
						"offset": 0,
						"slot": "0",
						"type": "t_array(t_uint256)dyn_storage"
					},
					{
						"astId": 8,
						"contract": "contracts/PracticeTillThreesol.sol:PracticeSessionThree",
						"label": "isMapped",
						"offset": 0,
						"slot": "1",
						"type": "t_mapping(t_bytes32,t_bool)"
					},
					{
						"astId": 19,
						"contract": "contracts/PracticeTillThreesol.sol:PracticeSessionThree",
						"label": "favsStruct",
						"offset": 0,
						"slot": "2",
						"type": "t_array(t_struct(FavsStruct)15_storage)dyn_storage"
					}
				],
				"types": {
					"t_array(t_struct(FavsStruct)15_storage)dyn_storage": {
						"base": "t_struct(FavsStruct)15_storage",
						"encoding": "dynamic_array",
						"label": "struct PracticeSessionThree.FavsStruct[]",
						"numberOfBytes": "32"
					},
					"t_array(t_uint256)dyn_storage": {
						"base": "t_uint256",
						"encoding": "dynamic_array",
						"label": "uint256[]",
						"numberOfBytes": "32"
					},
					"t_bool": {
						"encoding": "inplace",
						"label": "bool",
						"numberOfBytes": "1"
					},
					"t_bytes32": {
						"encoding": "inplace",
						"label": "bytes32",
						"numberOfBytes": "32"
					},
					"t_mapping(t_bytes32,t_bool)": {
						"encoding": "mapping",
						"key": "t_bytes32",
						"label": "mapping(bytes32 => bool)",
						"numberOfBytes": "32",
						"value": "t_bool"
					},
					"t_string_storage": {
						"encoding": "bytes",
						"label": "string",
						"numberOfBytes": "32"
					},
					"t_struct(FavsStruct)15_storage": {
						"encoding": "inplace",
						"label": "struct PracticeSessionThree.FavsStruct",
						"members": [
							{
								"astId": 10,
								"contract": "contracts/PracticeTillThreesol.sol:PracticeSessionThree",
								"label": "num",
								"offset": 0,
								"slot": "0",
								"type": "t_uint256"
							},
							{
								"astId": 12,
								"contract": "contracts/PracticeTillThreesol.sol:PracticeSessionThree",
								"label": "name",
								"offset": 0,
								"slot": "1",
								"type": "t_string_storage"
							},
							{
								"astId": 14,
								"contract": "contracts/PracticeTillThreesol.sol:PracticeSessionThree",
								"label": "hasFav",
								"offset": 0,
								"slot": "2",
								"type": "t_bool"
							}
						],
						"numberOfBytes": "96"
					},
					"t_uint256": {
						"encoding": "inplace",
						"label": "uint256",
						"numberOfBytes": "32"
					}
				}
			},
			"userdoc": {
				"kind": "user",
				"methods": {},
				"version": 1
			}
		}
	}
}