{
	"contracts/PracticeTillSeven.sol": {
		"FundAbleContract": {
			"abi": [
				{
					"inputs": [
						{
							"internalType": "uint256",
							"name": "_ethAmount",
							"type": "uint256"
						}
					],
					"name": "ConvertUsdToEth",
					"outputs": [
						{
							"internalType": "uint256",
							"name": "",
							"type": "uint256"
						}
					],
					"stateMutability": "view",
					"type": "function"
				},
				{
					"inputs": [
						{
							"internalType": "uint256",
							"name": "",
							"type": "uint256"
						}
					],
					"name": "Senders",
					"outputs": [
						{
							"internalType": "address",
							"name": "",
							"type": "address"
						}
					],
					"stateMutability": "view",
					"type": "function"
				},
				{
					"inputs": [],
					"name": "getPrice",
					"outputs": [
						{
							"internalType": "uint256",
							"name": "",
							"type": "uint256"
						}
					],
					"stateMutability": "view",
					"type": "function"
				},
				{
					"inputs": [],
					"name": "minimumUSD",
					"outputs": [
						{
							"internalType": "uint256",
							"name": "",
							"type": "uint256"
						}
					],
					"stateMutability": "view",
					"type": "function"
				},
				{
					"inputs": [],
					"name": "pay",
					"outputs": [],
					"stateMutability": "payable",
					"type": "function"
				}
			],
			"devdoc": {
				"kind": "dev",
				"methods": {},
				"version": 1
			},
			"evm": {
				"assembly": "    /* \"contracts/PracticeTillSeven.sol\":430:1706  contract FundAbleContract {... */\n  mstore(0x40, 0x80)\n    /* \"contracts/PracticeTillSeven.sol\":493:502  50 * 1e18 */\n  0x02b5e3af16b1880000\n    /* \"contracts/PracticeTillSeven.sol\":465:502  uint256 public minimumUSD = 50 * 1e18 */\n  0x00\n  sstore\n    /* \"contracts/PracticeTillSeven.sol\":430:1706  contract FundAbleContract {... */\n  callvalue\n  dup1\n  iszero\n  tag_1\n  jumpi\n  0x00\n  dup1\n  revert\ntag_1:\n  pop\n  dataSize(sub_0)\n  dup1\n  dataOffset(sub_0)\n  0x00\n  codecopy\n  0x00\n  return\nstop\n\nsub_0: assembly {\n        /* \"contracts/PracticeTillSeven.sol\":430:1706  contract FundAbleContract {... */\n      mstore(0x40, 0x80)\n      jumpi(tag_1, lt(calldatasize, 0x04))\n      shr(0xe0, calldataload(0x00))\n      dup1\n      0x1b9265b8\n      eq\n      tag_2\n      jumpi\n      dup1\n      0x2fa665fa\n      eq\n      tag_3\n      jumpi\n      dup1\n      0x3430a88c\n      eq\n      tag_4\n      jumpi\n      dup1\n      0x98d5fdca\n      eq\n      tag_5\n      jumpi\n      dup1\n      0x9a491768\n      eq\n      tag_6\n      jumpi\n    tag_1:\n      0x00\n      dup1\n      revert\n        /* \"contracts/PracticeTillSeven.sol\":914:1121  function pay() public payable  {... */\n    tag_2:\n      tag_7\n      tag_8\n      jump\t// in\n    tag_7:\n      stop\n        /* \"contracts/PracticeTillSeven.sol\":510:534  address[] public Senders */\n    tag_3:\n      callvalue\n      dup1\n      iszero\n      tag_9\n      jumpi\n      0x00\n      dup1\n      revert\n    tag_9:\n      pop\n      tag_10\n      0x04\n      dup1\n      calldatasize\n      sub\n      dup2\n      add\n      swap1\n      tag_11\n      swap2\n      swap1\n      tag_12\n      jump\t// in\n    tag_11:\n      tag_13\n      jump\t// in\n    tag_10:\n      mload(0x40)\n      tag_14\n      swap2\n      swap1\n      tag_15\n      jump\t// in\n    tag_14:\n      mload(0x40)\n      dup1\n      swap2\n      sub\n      swap1\n      return\n        /* \"contracts/PracticeTillSeven.sol\":465:502  uint256 public minimumUSD = 50 * 1e18 */\n    tag_4:\n      callvalue\n      dup1\n      iszero\n      tag_16\n      jumpi\n      0x00\n      dup1\n      revert\n    tag_16:\n      pop\n      tag_17\n      tag_18\n      jump\t// in\n    tag_17:\n      mload(0x40)\n      tag_19\n      swap2\n      swap1\n      tag_20\n      jump\t// in\n    tag_19:\n      mload(0x40)\n      dup1\n      swap2\n      sub\n      swap1\n      return\n        /* \"contracts/PracticeTillSeven.sol\":1129:1479  function getPrice() public view returns (uint256) {... */\n    tag_5:\n      callvalue\n      dup1\n      iszero\n      tag_21\n      jumpi\n      0x00\n      dup1\n      revert\n    tag_21:\n      pop\n      tag_22\n      tag_23\n      jump\t// in\n    tag_22:\n      mload(0x40)\n      tag_24\n      swap2\n      swap1\n      tag_20\n      jump\t// in\n    tag_24:\n      mload(0x40)\n      dup1\n      swap2\n      sub\n      swap1\n      return\n        /* \"contracts/PracticeTillSeven.sol\":1487:1703  function ConvertUsdToEth(uint256 _ethAmount) public view returns (uint256) {... */\n    tag_6:\n      callvalue\n      dup1\n      iszero\n      tag_25\n      jumpi\n      0x00\n      dup1\n      revert\n    tag_25:\n      pop\n      tag_26\n      0x04\n      dup1\n      calldatasize\n      sub\n      dup2\n      add\n      swap1\n      tag_27\n      swap2\n      swap1\n      tag_12\n      jump\t// in\n    tag_27:\n      tag_28\n      jump\t// in\n    tag_26:\n      mload(0x40)\n      tag_29\n      swap2\n      swap1\n      tag_20\n      jump\t// in\n    tag_29:\n      mload(0x40)\n      dup1\n      swap2\n      sub\n      swap1\n      return\n        /* \"contracts/PracticeTillSeven.sol\":914:1121  function pay() public payable  {... */\n    tag_8:\n        /* \"contracts/PracticeTillSeven.sol\":993:1003  minimumUSD */\n      sload(0x00)\n        /* \"contracts/PracticeTillSeven.sol\":964:990  ConvertUsdToEth(msg.value) */\n      tag_31\n        /* \"contracts/PracticeTillSeven.sol\":980:989  msg.value */\n      callvalue\n        /* \"contracts/PracticeTillSeven.sol\":964:979  ConvertUsdToEth */\n      tag_28\n        /* \"contracts/PracticeTillSeven.sol\":964:990  ConvertUsdToEth(msg.value) */\n      jump\t// in\n    tag_31:\n        /* \"contracts/PracticeTillSeven.sol\":964:1003  ConvertUsdToEth(msg.value)>= minimumUSD */\n      lt\n      iszero\n        /* \"contracts/PracticeTillSeven.sol\":956:1027  require(ConvertUsdToEth(msg.value)>= minimumUSD,\"Didn't send enough!!\") */\n      tag_32\n      jumpi\n      mload(0x40)\n      0x08c379a000000000000000000000000000000000000000000000000000000000\n      dup2\n      mstore\n      0x04\n      add\n      tag_33\n      swap1\n      tag_34\n      jump\t// in\n    tag_33:\n      mload(0x40)\n      dup1\n      swap2\n      sub\n      swap1\n      revert\n    tag_32:\n        /* \"contracts/PracticeTillSeven.sol\":1038:1045  Senders */\n      0x01\n        /* \"contracts/PracticeTillSeven.sol\":1051:1061  msg.sender */\n      caller\n        /* \"contracts/PracticeTillSeven.sol\":1038:1062  Senders.push(msg.sender) */\n      swap1\n      dup1\n      0x01\n      dup2\n      sload\n      add\n      dup1\n      dup3\n      sstore\n      dup1\n      swap2\n      pop\n      pop\n      0x01\n      swap1\n      sub\n      swap1\n      0x00\n      mstore\n      keccak256(0x00, 0x20)\n      add\n      0x00\n      swap1\n      swap2\n      swap1\n      swap2\n      swap1\n      swap2\n      0x0100\n      exp\n      dup2\n      sload\n      dup2\n      0xffffffffffffffffffffffffffffffffffffffff\n      mul\n      not\n      and\n      swap1\n      dup4\n      0xffffffffffffffffffffffffffffffffffffffff\n      and\n      mul\n      or\n      swap1\n      sstore\n      pop\n        /* \"contracts/PracticeTillSeven.sol\":1104:1113  msg.value */\n      callvalue\n        /* \"contracts/PracticeTillSeven.sol\":1073:1089  mappedWithPeople */\n      0x02\n        /* \"contracts/PracticeTillSeven.sol\":1073:1101  mappedWithPeople[msg.sender] */\n      0x00\n        /* \"contracts/PracticeTillSeven.sol\":1090:1100  msg.sender */\n      caller\n        /* \"contracts/PracticeTillSeven.sol\":1073:1101  mappedWithPeople[msg.sender] */\n      0xffffffffffffffffffffffffffffffffffffffff\n      and\n      0xffffffffffffffffffffffffffffffffffffffff\n      and\n      dup2\n      mstore\n      0x20\n      add\n      swap1\n      dup2\n      mstore\n      0x20\n      add\n      0x00\n      keccak256\n        /* \"contracts/PracticeTillSeven.sol\":1073:1113  mappedWithPeople[msg.sender] = msg.value */\n      dup2\n      swap1\n      sstore\n      pop\n        /* \"contracts/PracticeTillSeven.sol\":914:1121  function pay() public payable  {... */\n      jump\t// out\n        /* \"contracts/PracticeTillSeven.sol\":510:534  address[] public Senders */\n    tag_13:\n      0x01\n      dup2\n      dup2\n      sload\n      dup2\n      lt\n      tag_36\n      jumpi\n      0x00\n      dup1\n      revert\n    tag_36:\n      swap1\n      0x00\n      mstore\n      keccak256(0x00, 0x20)\n      add\n      0x00\n      swap2\n      pop\n      sload\n      swap1\n      0x0100\n      exp\n      swap1\n      div\n      0xffffffffffffffffffffffffffffffffffffffff\n      and\n      dup2\n      jump\t// out\n        /* \"contracts/PracticeTillSeven.sol\":465:502  uint256 public minimumUSD = 50 * 1e18 */\n    tag_18:\n      sload(0x00)\n      dup2\n      jump\t// out\n        /* \"contracts/PracticeTillSeven.sol\":1129:1479  function getPrice() public view returns (uint256) {... */\n    tag_23:\n        /* \"contracts/PracticeTillSeven.sol\":1170:1177  uint256 */\n      0x00\n        /* \"contracts/PracticeTillSeven.sol\":1264:1300  AggregatorV3Interface conversionRate */\n      dup1\n        /* \"contracts/PracticeTillSeven.sol\":1325:1367  0x694AA1769357215DE4FAC081bf1f309aDC325306 */\n      0x694aa1769357215de4fac081bf1f309adc325306\n        /* \"contracts/PracticeTillSeven.sol\":1264:1368  AggregatorV3Interface conversionRate = AggregatorV3Interface(0x694AA1769357215DE4FAC081bf1f309aDC325306) */\n      swap1\n      pop\n        /* \"contracts/PracticeTillSeven.sol\":1381:1393  int256 price */\n      0x00\n        /* \"contracts/PracticeTillSeven.sol\":1400:1414  conversionRate */\n      dup2\n        /* \"contracts/PracticeTillSeven.sol\":1400:1430  conversionRate.latestRoundData */\n      0xffffffffffffffffffffffffffffffffffffffff\n      and\n      0xfeaf968c\n        /* \"contracts/PracticeTillSeven.sol\":1400:1432  conversionRate.latestRoundData() */\n      mload(0x40)\n      dup2\n      0xffffffff\n      and\n      0xe0\n      shl\n      dup2\n      mstore\n      0x04\n      add\n      0xa0\n      mload(0x40)\n      dup1\n      dup4\n      sub\n      dup2\n      dup7\n      gas\n      staticcall\n      iszero\n      dup1\n      iszero\n      tag_40\n      jumpi\n      returndatasize\n      0x00\n      dup1\n      returndatacopy\n      revert(0x00, returndatasize)\n    tag_40:\n      pop\n      pop\n      pop\n      pop\n      mload(0x40)\n      returndatasize\n      not(0x1f)\n      0x1f\n      dup3\n      add\n      and\n      dup3\n      add\n      dup1\n      0x40\n      mstore\n      pop\n      dup2\n      add\n      swap1\n      tag_41\n      swap2\n      swap1\n      tag_42\n      jump\t// in\n    tag_41:\n        /* \"contracts/PracticeTillSeven.sol\":1379:1432  (,int256 price,,,) = conversionRate.latestRoundData() */\n      pop\n      pop\n      pop\n      swap2\n      pop\n      pop\n        /* \"contracts/PracticeTillSeven.sol\":1466:1470  1e10 */\n      0x02540be400\n        /* \"contracts/PracticeTillSeven.sol\":1458:1463  price */\n      dup2\n        /* \"contracts/PracticeTillSeven.sol\":1458:1470  price * 1e10 */\n      tag_43\n      swap2\n      swap1\n      tag_44\n      jump\t// in\n    tag_43:\n        /* \"contracts/PracticeTillSeven.sol\":1443:1471  return uint256(price * 1e10) */\n      swap3\n      pop\n      pop\n      pop\n        /* \"contracts/PracticeTillSeven.sol\":1129:1479  function getPrice() public view returns (uint256) {... */\n      swap1\n      jump\t// out\n        /* \"contracts/PracticeTillSeven.sol\":1487:1703  function ConvertUsdToEth(uint256 _ethAmount) public view returns (uint256) {... */\n    tag_28:\n        /* \"contracts/PracticeTillSeven.sol\":1553:1560  uint256 */\n      0x00\n        /* \"contracts/PracticeTillSeven.sol\":1573:1592  uint256 oneEthPrice */\n      dup1\n        /* \"contracts/PracticeTillSeven.sol\":1595:1605  getPrice() */\n      tag_46\n        /* \"contracts/PracticeTillSeven.sol\":1595:1603  getPrice */\n      tag_23\n        /* \"contracts/PracticeTillSeven.sol\":1595:1605  getPrice() */\n      jump\t// in\n    tag_46:\n        /* \"contracts/PracticeTillSeven.sol\":1573:1605  uint256 oneEthPrice = getPrice() */\n      swap1\n      pop\n        /* \"contracts/PracticeTillSeven.sol\":1616:1632  uint256 UsdPrice */\n      0x00\n        /* \"contracts/PracticeTillSeven.sol\":1664:1668  1e18 */\n      0x0de0b6b3a7640000\n        /* \"contracts/PracticeTillSeven.sol\":1650:1660  _ethAmount */\n      dup5\n        /* \"contracts/PracticeTillSeven.sol\":1636:1647  oneEthPrice */\n      dup4\n        /* \"contracts/PracticeTillSeven.sol\":1636:1660  oneEthPrice * _ethAmount */\n      tag_47\n      swap2\n      swap1\n      tag_48\n      jump\t// in\n    tag_47:\n        /* \"contracts/PracticeTillSeven.sol\":1635:1668  (oneEthPrice * _ethAmount) / 1e18 */\n      tag_49\n      swap2\n      swap1\n      tag_50\n      jump\t// in\n    tag_49:\n        /* \"contracts/PracticeTillSeven.sol\":1616:1668  uint256 UsdPrice = (oneEthPrice * _ethAmount) / 1e18 */\n      swap1\n      pop\n        /* \"contracts/PracticeTillSeven.sol\":1686:1694  UsdPrice */\n      dup1\n        /* \"contracts/PracticeTillSeven.sol\":1679:1694  return UsdPrice */\n      swap3\n      pop\n      pop\n      pop\n        /* \"contracts/PracticeTillSeven.sol\":1487:1703  function ConvertUsdToEth(uint256 _ethAmount) public view returns (uint256) {... */\n      swap2\n      swap1\n      pop\n      jump\t// out\n        /* \"#utility.yul\":88:205   */\n    tag_52:\n        /* \"#utility.yul\":197:198   */\n      0x00\n        /* \"#utility.yul\":194:195   */\n      dup1\n        /* \"#utility.yul\":187:199   */\n      revert\n        /* \"#utility.yul\":334:411   */\n    tag_54:\n        /* \"#utility.yul\":371:378   */\n      0x00\n        /* \"#utility.yul\":400:405   */\n      dup2\n        /* \"#utility.yul\":389:405   */\n      swap1\n      pop\n        /* \"#utility.yul\":334:411   */\n      swap2\n      swap1\n      pop\n      jump\t// out\n        /* \"#utility.yul\":417:539   */\n    tag_55:\n        /* \"#utility.yul\":490:514   */\n      tag_79\n        /* \"#utility.yul\":508:513   */\n      dup2\n        /* \"#utility.yul\":490:514   */\n      tag_54\n      jump\t// in\n    tag_79:\n        /* \"#utility.yul\":483:488   */\n      dup2\n        /* \"#utility.yul\":480:515   */\n      eq\n        /* \"#utility.yul\":470:533   */\n      tag_80\n      jumpi\n        /* \"#utility.yul\":529:530   */\n      0x00\n        /* \"#utility.yul\":526:527   */\n      dup1\n        /* \"#utility.yul\":519:531   */\n      revert\n        /* \"#utility.yul\":470:533   */\n    tag_80:\n        /* \"#utility.yul\":417:539   */\n      pop\n      jump\t// out\n        /* \"#utility.yul\":545:684   */\n    tag_56:\n        /* \"#utility.yul\":591:596   */\n      0x00\n        /* \"#utility.yul\":629:635   */\n      dup2\n        /* \"#utility.yul\":616:636   */\n      calldataload\n        /* \"#utility.yul\":607:636   */\n      swap1\n      pop\n        /* \"#utility.yul\":645:678   */\n      tag_82\n        /* \"#utility.yul\":672:677   */\n      dup2\n        /* \"#utility.yul\":645:678   */\n      tag_55\n      jump\t// in\n    tag_82:\n        /* \"#utility.yul\":545:684   */\n      swap3\n      swap2\n      pop\n      pop\n      jump\t// out\n        /* \"#utility.yul\":690:1019   */\n    tag_12:\n        /* \"#utility.yul\":749:755   */\n      0x00\n        /* \"#utility.yul\":798:800   */\n      0x20\n        /* \"#utility.yul\":786:795   */\n      dup3\n        /* \"#utility.yul\":777:784   */\n      dup5\n        /* \"#utility.yul\":773:796   */\n      sub\n        /* \"#utility.yul\":769:801   */\n      slt\n        /* \"#utility.yul\":766:885   */\n      iszero\n      tag_84\n      jumpi\n        /* \"#utility.yul\":804:883   */\n      tag_85\n      tag_52\n      jump\t// in\n    tag_85:\n        /* \"#utility.yul\":766:885   */\n    tag_84:\n        /* \"#utility.yul\":924:925   */\n      0x00\n        /* \"#utility.yul\":949:1002   */\n      tag_86\n        /* \"#utility.yul\":994:1001   */\n      dup5\n        /* \"#utility.yul\":985:991   */\n      dup3\n        /* \"#utility.yul\":974:983   */\n      dup6\n        /* \"#utility.yul\":970:992   */\n      add\n        /* \"#utility.yul\":949:1002   */\n      tag_56\n      jump\t// in\n    tag_86:\n        /* \"#utility.yul\":939:1002   */\n      swap2\n      pop\n        /* \"#utility.yul\":895:1012   */\n      pop\n        /* \"#utility.yul\":690:1019   */\n      swap3\n      swap2\n      pop\n      pop\n      jump\t// out\n        /* \"#utility.yul\":1025:1151   */\n    tag_57:\n        /* \"#utility.yul\":1062:1069   */\n      0x00\n        /* \"#utility.yul\":1102:1144   */\n      0xffffffffffffffffffffffffffffffffffffffff\n        /* \"#utility.yul\":1095:1100   */\n      dup3\n        /* \"#utility.yul\":1091:1145   */\n      and\n        /* \"#utility.yul\":1080:1145   */\n      swap1\n      pop\n        /* \"#utility.yul\":1025:1151   */\n      swap2\n      swap1\n      pop\n      jump\t// out\n        /* \"#utility.yul\":1157:1253   */\n    tag_58:\n        /* \"#utility.yul\":1194:1201   */\n      0x00\n        /* \"#utility.yul\":1223:1247   */\n      tag_89\n        /* \"#utility.yul\":1241:1246   */\n      dup3\n        /* \"#utility.yul\":1223:1247   */\n      tag_57\n      jump\t// in\n    tag_89:\n        /* \"#utility.yul\":1212:1247   */\n      swap1\n      pop\n        /* \"#utility.yul\":1157:1253   */\n      swap2\n      swap1\n      pop\n      jump\t// out\n        /* \"#utility.yul\":1259:1377   */\n    tag_59:\n        /* \"#utility.yul\":1346:1370   */\n      tag_91\n        /* \"#utility.yul\":1364:1369   */\n      dup2\n        /* \"#utility.yul\":1346:1370   */\n      tag_58\n      jump\t// in\n    tag_91:\n        /* \"#utility.yul\":1341:1344   */\n      dup3\n        /* \"#utility.yul\":1334:1371   */\n      mstore\n        /* \"#utility.yul\":1259:1377   */\n      pop\n      pop\n      jump\t// out\n        /* \"#utility.yul\":1383:1605   */\n    tag_15:\n        /* \"#utility.yul\":1476:1480   */\n      0x00\n        /* \"#utility.yul\":1514:1516   */\n      0x20\n        /* \"#utility.yul\":1503:1512   */\n      dup3\n        /* \"#utility.yul\":1499:1517   */\n      add\n        /* \"#utility.yul\":1491:1517   */\n      swap1\n      pop\n        /* \"#utility.yul\":1527:1598   */\n      tag_93\n        /* \"#utility.yul\":1595:1596   */\n      0x00\n        /* \"#utility.yul\":1584:1593   */\n      dup4\n        /* \"#utility.yul\":1580:1597   */\n      add\n        /* \"#utility.yul\":1571:1577   */\n      dup5\n        /* \"#utility.yul\":1527:1598   */\n      tag_59\n      jump\t// in\n    tag_93:\n        /* \"#utility.yul\":1383:1605   */\n      swap3\n      swap2\n      pop\n      pop\n      jump\t// out\n        /* \"#utility.yul\":1611:1729   */\n    tag_60:\n        /* \"#utility.yul\":1698:1722   */\n      tag_95\n        /* \"#utility.yul\":1716:1721   */\n      dup2\n        /* \"#utility.yul\":1698:1722   */\n      tag_54\n      jump\t// in\n    tag_95:\n        /* \"#utility.yul\":1693:1696   */\n      dup3\n        /* \"#utility.yul\":1686:1723   */\n      mstore\n        /* \"#utility.yul\":1611:1729   */\n      pop\n      pop\n      jump\t// out\n        /* \"#utility.yul\":1735:1957   */\n    tag_20:\n        /* \"#utility.yul\":1828:1832   */\n      0x00\n        /* \"#utility.yul\":1866:1868   */\n      0x20\n        /* \"#utility.yul\":1855:1864   */\n      dup3\n        /* \"#utility.yul\":1851:1869   */\n      add\n        /* \"#utility.yul\":1843:1869   */\n      swap1\n      pop\n        /* \"#utility.yul\":1879:1950   */\n      tag_97\n        /* \"#utility.yul\":1947:1948   */\n      0x00\n        /* \"#utility.yul\":1936:1945   */\n      dup4\n        /* \"#utility.yul\":1932:1949   */\n      add\n        /* \"#utility.yul\":1923:1929   */\n      dup5\n        /* \"#utility.yul\":1879:1950   */\n      tag_60\n      jump\t// in\n    tag_97:\n        /* \"#utility.yul\":1735:1957   */\n      swap3\n      swap2\n      pop\n      pop\n      jump\t// out\n        /* \"#utility.yul\":1963:2132   */\n    tag_61:\n        /* \"#utility.yul\":2047:2058   */\n      0x00\n        /* \"#utility.yul\":2081:2087   */\n      dup3\n        /* \"#utility.yul\":2076:2079   */\n      dup3\n        /* \"#utility.yul\":2069:2088   */\n      mstore\n        /* \"#utility.yul\":2121:2125   */\n      0x20\n        /* \"#utility.yul\":2116:2119   */\n      dup3\n        /* \"#utility.yul\":2112:2126   */\n      add\n        /* \"#utility.yul\":2097:2126   */\n      swap1\n      pop\n        /* \"#utility.yul\":1963:2132   */\n      swap3\n      swap2\n      pop\n      pop\n      jump\t// out\n        /* \"#utility.yul\":2138:2308   */\n    tag_62:\n        /* \"#utility.yul\":2278:2300   */\n      0x4469646e27742073656e6420656e6f7567682121000000000000000000000000\n        /* \"#utility.yul\":2274:2275   */\n      0x00\n        /* \"#utility.yul\":2266:2272   */\n      dup3\n        /* \"#utility.yul\":2262:2276   */\n      add\n        /* \"#utility.yul\":2255:2301   */\n      mstore\n        /* \"#utility.yul\":2138:2308   */\n      pop\n      jump\t// out\n        /* \"#utility.yul\":2314:2680   */\n    tag_63:\n        /* \"#utility.yul\":2456:2459   */\n      0x00\n        /* \"#utility.yul\":2477:2544   */\n      tag_101\n        /* \"#utility.yul\":2541:2543   */\n      0x14\n        /* \"#utility.yul\":2536:2539   */\n      dup4\n        /* \"#utility.yul\":2477:2544   */\n      tag_61\n      jump\t// in\n    tag_101:\n        /* \"#utility.yul\":2470:2544   */\n      swap2\n      pop\n        /* \"#utility.yul\":2553:2646   */\n      tag_102\n        /* \"#utility.yul\":2642:2645   */\n      dup3\n        /* \"#utility.yul\":2553:2646   */\n      tag_62\n      jump\t// in\n    tag_102:\n        /* \"#utility.yul\":2671:2673   */\n      0x20\n        /* \"#utility.yul\":2666:2669   */\n      dup3\n        /* \"#utility.yul\":2662:2674   */\n      add\n        /* \"#utility.yul\":2655:2674   */\n      swap1\n      pop\n        /* \"#utility.yul\":2314:2680   */\n      swap2\n      swap1\n      pop\n      jump\t// out\n        /* \"#utility.yul\":2686:3105   */\n    tag_34:\n        /* \"#utility.yul\":2852:2856   */\n      0x00\n        /* \"#utility.yul\":2890:2892   */\n      0x20\n        /* \"#utility.yul\":2879:2888   */\n      dup3\n        /* \"#utility.yul\":2875:2893   */\n      add\n        /* \"#utility.yul\":2867:2893   */\n      swap1\n      pop\n        /* \"#utility.yul\":2939:2948   */\n      dup2\n        /* \"#utility.yul\":2933:2937   */\n      dup2\n        /* \"#utility.yul\":2929:2949   */\n      sub\n        /* \"#utility.yul\":2925:2926   */\n      0x00\n        /* \"#utility.yul\":2914:2923   */\n      dup4\n        /* \"#utility.yul\":2910:2927   */\n      add\n        /* \"#utility.yul\":2903:2950   */\n      mstore\n        /* \"#utility.yul\":2967:3098   */\n      tag_104\n        /* \"#utility.yul\":3093:3097   */\n      dup2\n        /* \"#utility.yul\":2967:3098   */\n      tag_63\n      jump\t// in\n    tag_104:\n        /* \"#utility.yul\":2959:3098   */\n      swap1\n      pop\n        /* \"#utility.yul\":2686:3105   */\n      swap2\n      swap1\n      pop\n      jump\t// out\n        /* \"#utility.yul\":3111:3216   */\n    tag_64:\n        /* \"#utility.yul\":3147:3154   */\n      0x00\n        /* \"#utility.yul\":3187:3209   */\n      0xffffffffffffffffffff\n        /* \"#utility.yul\":3180:3185   */\n      dup3\n        /* \"#utility.yul\":3176:3210   */\n      and\n        /* \"#utility.yul\":3165:3210   */\n      swap1\n      pop\n        /* \"#utility.yul\":3111:3216   */\n      swap2\n      swap1\n      pop\n      jump\t// out\n        /* \"#utility.yul\":3222:3342   */\n    tag_65:\n        /* \"#utility.yul\":3294:3317   */\n      tag_107\n        /* \"#utility.yul\":3311:3316   */\n      dup2\n        /* \"#utility.yul\":3294:3317   */\n      tag_64\n      jump\t// in\n    tag_107:\n        /* \"#utility.yul\":3287:3292   */\n      dup2\n        /* \"#utility.yul\":3284:3318   */\n      eq\n        /* \"#utility.yul\":3274:3336   */\n      tag_108\n      jumpi\n        /* \"#utility.yul\":3332:3333   */\n      0x00\n        /* \"#utility.yul\":3329:3330   */\n      dup1\n        /* \"#utility.yul\":3322:3334   */\n      revert\n        /* \"#utility.yul\":3274:3336   */\n    tag_108:\n        /* \"#utility.yul\":3222:3342   */\n      pop\n      jump\t// out\n        /* \"#utility.yul\":3348:3489   */\n    tag_66:\n        /* \"#utility.yul\":3404:3409   */\n      0x00\n        /* \"#utility.yul\":3435:3441   */\n      dup2\n        /* \"#utility.yul\":3429:3442   */\n      mload\n        /* \"#utility.yul\":3420:3442   */\n      swap1\n      pop\n        /* \"#utility.yul\":3451:3483   */\n      tag_110\n        /* \"#utility.yul\":3477:3482   */\n      dup2\n        /* \"#utility.yul\":3451:3483   */\n      tag_65\n      jump\t// in\n    tag_110:\n        /* \"#utility.yul\":3348:3489   */\n      swap3\n      swap2\n      pop\n      pop\n      jump\t// out\n        /* \"#utility.yul\":3495:3571   */\n    tag_67:\n        /* \"#utility.yul\":3531:3538   */\n      0x00\n        /* \"#utility.yul\":3560:3565   */\n      dup2\n        /* \"#utility.yul\":3549:3565   */\n      swap1\n      pop\n        /* \"#utility.yul\":3495:3571   */\n      swap2\n      swap1\n      pop\n      jump\t// out\n        /* \"#utility.yul\":3577:3697   */\n    tag_68:\n        /* \"#utility.yul\":3649:3672   */\n      tag_113\n        /* \"#utility.yul\":3666:3671   */\n      dup2\n        /* \"#utility.yul\":3649:3672   */\n      tag_67\n      jump\t// in\n    tag_113:\n        /* \"#utility.yul\":3642:3647   */\n      dup2\n        /* \"#utility.yul\":3639:3673   */\n      eq\n        /* \"#utility.yul\":3629:3691   */\n      tag_114\n      jumpi\n        /* \"#utility.yul\":3687:3688   */\n      0x00\n        /* \"#utility.yul\":3684:3685   */\n      dup1\n        /* \"#utility.yul\":3677:3689   */\n      revert\n        /* \"#utility.yul\":3629:3691   */\n    tag_114:\n        /* \"#utility.yul\":3577:3697   */\n      pop\n      jump\t// out\n        /* \"#utility.yul\":3703:3844   */\n    tag_69:\n        /* \"#utility.yul\":3759:3764   */\n      0x00\n        /* \"#utility.yul\":3790:3796   */\n      dup2\n        /* \"#utility.yul\":3784:3797   */\n      mload\n        /* \"#utility.yul\":3775:3797   */\n      swap1\n      pop\n        /* \"#utility.yul\":3806:3838   */\n      tag_116\n        /* \"#utility.yul\":3832:3837   */\n      dup2\n        /* \"#utility.yul\":3806:3838   */\n      tag_68\n      jump\t// in\n    tag_116:\n        /* \"#utility.yul\":3703:3844   */\n      swap3\n      swap2\n      pop\n      pop\n      jump\t// out\n        /* \"#utility.yul\":3850:3993   */\n    tag_70:\n        /* \"#utility.yul\":3907:3912   */\n      0x00\n        /* \"#utility.yul\":3938:3944   */\n      dup2\n        /* \"#utility.yul\":3932:3945   */\n      mload\n        /* \"#utility.yul\":3923:3945   */\n      swap1\n      pop\n        /* \"#utility.yul\":3954:3987   */\n      tag_118\n        /* \"#utility.yul\":3981:3986   */\n      dup2\n        /* \"#utility.yul\":3954:3987   */\n      tag_55\n      jump\t// in\n    tag_118:\n        /* \"#utility.yul\":3850:3993   */\n      swap3\n      swap2\n      pop\n      pop\n      jump\t// out\n        /* \"#utility.yul\":3999:4970   */\n    tag_42:\n        /* \"#utility.yul\":4102:4108   */\n      0x00\n        /* \"#utility.yul\":4110:4116   */\n      dup1\n        /* \"#utility.yul\":4118:4124   */\n      0x00\n        /* \"#utility.yul\":4126:4132   */\n      dup1\n        /* \"#utility.yul\":4134:4140   */\n      0x00\n        /* \"#utility.yul\":4183:4186   */\n      0xa0\n        /* \"#utility.yul\":4171:4180   */\n      dup7\n        /* \"#utility.yul\":4162:4169   */\n      dup9\n        /* \"#utility.yul\":4158:4181   */\n      sub\n        /* \"#utility.yul\":4154:4187   */\n      slt\n        /* \"#utility.yul\":4151:4271   */\n      iszero\n      tag_120\n      jumpi\n        /* \"#utility.yul\":4190:4269   */\n      tag_121\n      tag_52\n      jump\t// in\n    tag_121:\n        /* \"#utility.yul\":4151:4271   */\n    tag_120:\n        /* \"#utility.yul\":4310:4311   */\n      0x00\n        /* \"#utility.yul\":4335:4398   */\n      tag_122\n        /* \"#utility.yul\":4390:4397   */\n      dup9\n        /* \"#utility.yul\":4381:4387   */\n      dup3\n        /* \"#utility.yul\":4370:4379   */\n      dup10\n        /* \"#utility.yul\":4366:4388   */\n      add\n        /* \"#utility.yul\":4335:4398   */\n      tag_66\n      jump\t// in\n    tag_122:\n        /* \"#utility.yul\":4325:4398   */\n      swap6\n      pop\n        /* \"#utility.yul\":4281:4408   */\n      pop\n        /* \"#utility.yul\":4447:4449   */\n      0x20\n        /* \"#utility.yul\":4473:4536   */\n      tag_123\n        /* \"#utility.yul\":4528:4535   */\n      dup9\n        /* \"#utility.yul\":4519:4525   */\n      dup3\n        /* \"#utility.yul\":4508:4517   */\n      dup10\n        /* \"#utility.yul\":4504:4526   */\n      add\n        /* \"#utility.yul\":4473:4536   */\n      tag_69\n      jump\t// in\n    tag_123:\n        /* \"#utility.yul\":4463:4536   */\n      swap5\n      pop\n        /* \"#utility.yul\":4418:4546   */\n      pop\n        /* \"#utility.yul\":4585:4587   */\n      0x40\n        /* \"#utility.yul\":4611:4675   */\n      tag_124\n        /* \"#utility.yul\":4667:4674   */\n      dup9\n        /* \"#utility.yul\":4658:4664   */\n      dup3\n        /* \"#utility.yul\":4647:4656   */\n      dup10\n        /* \"#utility.yul\":4643:4665   */\n      add\n        /* \"#utility.yul\":4611:4675   */\n      tag_70\n      jump\t// in\n    tag_124:\n        /* \"#utility.yul\":4601:4675   */\n      swap4\n      pop\n        /* \"#utility.yul\":4556:4685   */\n      pop\n        /* \"#utility.yul\":4724:4726   */\n      0x60\n        /* \"#utility.yul\":4750:4814   */\n      tag_125\n        /* \"#utility.yul\":4806:4813   */\n      dup9\n        /* \"#utility.yul\":4797:4803   */\n      dup3\n        /* \"#utility.yul\":4786:4795   */\n      dup10\n        /* \"#utility.yul\":4782:4804   */\n      add\n        /* \"#utility.yul\":4750:4814   */\n      tag_70\n      jump\t// in\n    tag_125:\n        /* \"#utility.yul\":4740:4814   */\n      swap3\n      pop\n        /* \"#utility.yul\":4695:4824   */\n      pop\n        /* \"#utility.yul\":4863:4866   */\n      0x80\n        /* \"#utility.yul\":4890:4953   */\n      tag_126\n        /* \"#utility.yul\":4945:4952   */\n      dup9\n        /* \"#utility.yul\":4936:4942   */\n      dup3\n        /* \"#utility.yul\":4925:4934   */\n      dup10\n        /* \"#utility.yul\":4921:4943   */\n      add\n        /* \"#utility.yul\":4890:4953   */\n      tag_66\n      jump\t// in\n    tag_126:\n        /* \"#utility.yul\":4880:4953   */\n      swap2\n      pop\n        /* \"#utility.yul\":4834:4963   */\n      pop\n        /* \"#utility.yul\":3999:4970   */\n      swap3\n      swap6\n      pop\n      swap3\n      swap6\n      swap1\n      swap4\n      pop\n      jump\t// out\n        /* \"#utility.yul\":4976:5156   */\n    tag_71:\n        /* \"#utility.yul\":5024:5101   */\n      0x4e487b7100000000000000000000000000000000000000000000000000000000\n        /* \"#utility.yul\":5021:5022   */\n      0x00\n        /* \"#utility.yul\":5014:5102   */\n      mstore\n        /* \"#utility.yul\":5121:5125   */\n      0x11\n        /* \"#utility.yul\":5118:5119   */\n      0x04\n        /* \"#utility.yul\":5111:5126   */\n      mstore\n        /* \"#utility.yul\":5145:5149   */\n      0x24\n        /* \"#utility.yul\":5142:5143   */\n      0x00\n        /* \"#utility.yul\":5135:5150   */\n      revert\n        /* \"#utility.yul\":5162:5718   */\n    tag_44:\n        /* \"#utility.yul\":5201:5208   */\n      0x00\n        /* \"#utility.yul\":5224:5243   */\n      tag_129\n        /* \"#utility.yul\":5241:5242   */\n      dup3\n        /* \"#utility.yul\":5224:5243   */\n      tag_67\n      jump\t// in\n    tag_129:\n        /* \"#utility.yul\":5219:5243   */\n      swap2\n      pop\n        /* \"#utility.yul\":5257:5276   */\n      tag_130\n        /* \"#utility.yul\":5274:5275   */\n      dup4\n        /* \"#utility.yul\":5257:5276   */\n      tag_67\n      jump\t// in\n    tag_130:\n        /* \"#utility.yul\":5252:5276   */\n      swap3\n      pop\n        /* \"#utility.yul\":5311:5312   */\n      dup3\n        /* \"#utility.yul\":5308:5309   */\n      dup3\n        /* \"#utility.yul\":5304:5313   */\n      mul\n        /* \"#utility.yul\":5333:5362   */\n      tag_131\n        /* \"#utility.yul\":5350:5361   */\n      dup2\n        /* \"#utility.yul\":5333:5362   */\n      tag_67\n      jump\t// in\n    tag_131:\n        /* \"#utility.yul\":5322:5362   */\n      swap2\n      pop\n        /* \"#utility.yul\":5420:5486   */\n      0x8000000000000000000000000000000000000000000000000000000000000000\n        /* \"#utility.yul\":5417:5418   */\n      dup5\n        /* \"#utility.yul\":5414:5487   */\n      eq\n        /* \"#utility.yul\":5410:5411   */\n      0x00\n        /* \"#utility.yul\":5407:5408   */\n      dup5\n        /* \"#utility.yul\":5403:5412   */\n      slt\n        /* \"#utility.yul\":5399:5488   */\n      and\n        /* \"#utility.yul\":5396:5511   */\n      iszero\n      tag_132\n      jumpi\n        /* \"#utility.yul\":5491:5509   */\n      tag_133\n      tag_71\n      jump\t// in\n    tag_133:\n        /* \"#utility.yul\":5396:5511   */\n    tag_132:\n        /* \"#utility.yul\":5661:5662   */\n      dup3\n        /* \"#utility.yul\":5652:5659   */\n      dup3\n        /* \"#utility.yul\":5647:5663   */\n      sdiv\n        /* \"#utility.yul\":5644:5645   */\n      dup5\n        /* \"#utility.yul\":5641:5664   */\n      eq\n        /* \"#utility.yul\":5621:5622   */\n      dup4\n        /* \"#utility.yul\":5614:5623   */\n      iszero\n        /* \"#utility.yul\":5594:5678   */\n      or\n        /* \"#utility.yul\":5571:5711   */\n      tag_134\n      jumpi\n        /* \"#utility.yul\":5691:5709   */\n      tag_135\n      tag_71\n      jump\t// in\n    tag_135:\n        /* \"#utility.yul\":5571:5711   */\n    tag_134:\n        /* \"#utility.yul\":5209:5718   */\n      pop\n        /* \"#utility.yul\":5162:5718   */\n      swap3\n      swap2\n      pop\n      pop\n      jump\t// out\n        /* \"#utility.yul\":5724:6134   */\n    tag_48:\n        /* \"#utility.yul\":5764:5771   */\n      0x00\n        /* \"#utility.yul\":5787:5807   */\n      tag_137\n        /* \"#utility.yul\":5805:5806   */\n      dup3\n        /* \"#utility.yul\":5787:5807   */\n      tag_54\n      jump\t// in\n    tag_137:\n        /* \"#utility.yul\":5782:5807   */\n      swap2\n      pop\n        /* \"#utility.yul\":5821:5841   */\n      tag_138\n        /* \"#utility.yul\":5839:5840   */\n      dup4\n        /* \"#utility.yul\":5821:5841   */\n      tag_54\n      jump\t// in\n    tag_138:\n        /* \"#utility.yul\":5816:5841   */\n      swap3\n      pop\n        /* \"#utility.yul\":5876:5877   */\n      dup3\n        /* \"#utility.yul\":5873:5874   */\n      dup3\n        /* \"#utility.yul\":5869:5878   */\n      mul\n        /* \"#utility.yul\":5898:5928   */\n      tag_139\n        /* \"#utility.yul\":5916:5927   */\n      dup2\n        /* \"#utility.yul\":5898:5928   */\n      tag_54\n      jump\t// in\n    tag_139:\n        /* \"#utility.yul\":5887:5928   */\n      swap2\n      pop\n        /* \"#utility.yul\":6077:6078   */\n      dup3\n        /* \"#utility.yul\":6068:6075   */\n      dup3\n        /* \"#utility.yul\":6064:6079   */\n      div\n        /* \"#utility.yul\":6061:6062   */\n      dup5\n        /* \"#utility.yul\":6058:6080   */\n      eq\n        /* \"#utility.yul\":6038:6039   */\n      dup4\n        /* \"#utility.yul\":6031:6040   */\n      iszero\n        /* \"#utility.yul\":6011:6094   */\n      or\n        /* \"#utility.yul\":5988:6127   */\n      tag_140\n      jumpi\n        /* \"#utility.yul\":6107:6125   */\n      tag_141\n      tag_71\n      jump\t// in\n    tag_141:\n        /* \"#utility.yul\":5988:6127   */\n    tag_140:\n        /* \"#utility.yul\":5772:6134   */\n      pop\n        /* \"#utility.yul\":5724:6134   */\n      swap3\n      swap2\n      pop\n      pop\n      jump\t// out\n        /* \"#utility.yul\":6140:6320   */\n    tag_72:\n        /* \"#utility.yul\":6188:6265   */\n      0x4e487b7100000000000000000000000000000000000000000000000000000000\n        /* \"#utility.yul\":6185:6186   */\n      0x00\n        /* \"#utility.yul\":6178:6266   */\n      mstore\n        /* \"#utility.yul\":6285:6289   */\n      0x12\n        /* \"#utility.yul\":6282:6283   */\n      0x04\n        /* \"#utility.yul\":6275:6290   */\n      mstore\n        /* \"#utility.yul\":6309:6313   */\n      0x24\n        /* \"#utility.yul\":6306:6307   */\n      0x00\n        /* \"#utility.yul\":6299:6314   */\n      revert\n        /* \"#utility.yul\":6326:6511   */\n    tag_50:\n        /* \"#utility.yul\":6366:6367   */\n      0x00\n        /* \"#utility.yul\":6383:6403   */\n      tag_144\n        /* \"#utility.yul\":6401:6402   */\n      dup3\n        /* \"#utility.yul\":6383:6403   */\n      tag_54\n      jump\t// in\n    tag_144:\n        /* \"#utility.yul\":6378:6403   */\n      swap2\n      pop\n        /* \"#utility.yul\":6417:6437   */\n      tag_145\n        /* \"#utility.yul\":6435:6436   */\n      dup4\n        /* \"#utility.yul\":6417:6437   */\n      tag_54\n      jump\t// in\n    tag_145:\n        /* \"#utility.yul\":6412:6437   */\n      swap3\n      pop\n        /* \"#utility.yul\":6456:6457   */\n      dup3\n        /* \"#utility.yul\":6446:6481   */\n      tag_146\n      jumpi\n        /* \"#utility.yul\":6461:6479   */\n      tag_147\n      tag_72\n      jump\t// in\n    tag_147:\n        /* \"#utility.yul\":6446:6481   */\n    tag_146:\n        /* \"#utility.yul\":6503:6504   */\n      dup3\n        /* \"#utility.yul\":6500:6501   */\n      dup3\n        /* \"#utility.yul\":6496:6505   */\n      div\n        /* \"#utility.yul\":6491:6505   */\n      swap1\n      pop\n        /* \"#utility.yul\":6326:6511   */\n      swap3\n      swap2\n      pop\n      pop\n      jump\t// out\n\n    auxdata: 0xa2646970667358221220a0d90a3d554d7f3809327772ec6b5e8c6e3edb18b0cec68513b7a05156a861b364736f6c63430008160033\n}\n",
				"bytecode": {
					"linkReferences": {},
					"object": "60806040526802b5e3af16b18800005f5534801561001b575f80fd5b506106fe806100295f395ff3fe608060405260043610610049575f3560e01c80631b9265b81461004d5780632fa665fa146100575780633430a88c1461009357806398d5fdca146100bd5780639a491768146100e7575b5f80fd5b610055610123565b005b348015610062575f80fd5b5061007d60048036038101906100789190610367565b610213565b60405161008a91906103d1565b60405180910390f35b34801561009e575f80fd5b506100a761024e565b6040516100b491906103f9565b60405180910390f35b3480156100c8575f80fd5b506100d1610253565b6040516100de91906103f9565b60405180910390f35b3480156100f2575f80fd5b5061010d60048036038101906101089190610367565b6102f8565b60405161011a91906103f9565b60405180910390f35b5f5461012e346102f8565b101561016f576040517f08c379a00000000000000000000000000000000000000000000000000000000081526004016101669061046c565b60405180910390fd5b600133908060018154018082558091505060019003905f5260205f20015f9091909190916101000a81548173ffffffffffffffffffffffffffffffffffffffff021916908373ffffffffffffffffffffffffffffffffffffffff1602179055503460025f3373ffffffffffffffffffffffffffffffffffffffff1673ffffffffffffffffffffffffffffffffffffffff1681526020019081526020015f2081905550565b60018181548110610222575f80fd5b905f5260205f20015f915054906101000a900473ffffffffffffffffffffffffffffffffffffffff1681565b5f5481565b5f8073694aa1769357215de4fac081bf1f309adc32530690505f8173ffffffffffffffffffffffffffffffffffffffff1663feaf968c6040518163ffffffff1660e01b815260040160a060405180830381865afa1580156102b6573d5f803e3d5ffd5b505050506040513d601f19601f820116820180604052508101906102da9190610510565b5050509150506402540be400816102f191906105b4565b9250505090565b5f80610302610253565b90505f670de0b6b3a7640000848361031a919061062a565b6103249190610698565b90508092505050919050565b5f80fd5b5f819050919050565b61034681610334565b8114610350575f80fd5b50565b5f813590506103618161033d565b92915050565b5f6020828403121561037c5761037b610330565b5b5f61038984828501610353565b91505092915050565b5f73ffffffffffffffffffffffffffffffffffffffff82169050919050565b5f6103bb82610392565b9050919050565b6103cb816103b1565b82525050565b5f6020820190506103e45f8301846103c2565b92915050565b6103f381610334565b82525050565b5f60208201905061040c5f8301846103ea565b92915050565b5f82825260208201905092915050565b7f4469646e27742073656e6420656e6f75676821210000000000000000000000005f82015250565b5f610456601483610412565b915061046182610422565b602082019050919050565b5f6020820190508181035f8301526104838161044a565b9050919050565b5f69ffffffffffffffffffff82169050919050565b6104a88161048a565b81146104b2575f80fd5b50565b5f815190506104c38161049f565b92915050565b5f819050919050565b6104db816104c9565b81146104e5575f80fd5b50565b5f815190506104f6816104d2565b92915050565b5f8151905061050a8161033d565b92915050565b5f805f805f60a0868803121561052957610528610330565b5b5f610536888289016104b5565b9550506020610547888289016104e8565b9450506040610558888289016104fc565b9350506060610569888289016104fc565b925050608061057a888289016104b5565b9150509295509295909350565b7f4e487b71000000000000000000000000000000000000000000000000000000005f52601160045260245ffd5b5f6105be826104c9565b91506105c9836104c9565b92508282026105d7816104c9565b91507f800000000000000000000000000000000000000000000000000000000000000084145f8412161561060e5761060d610587565b5b828205841483151761062357610622610587565b5b5092915050565b5f61063482610334565b915061063f83610334565b925082820261064d81610334565b9150828204841483151761066457610663610587565b5b5092915050565b7f4e487b71000000000000000000000000000000000000000000000000000000005f52601260045260245ffd5b5f6106a282610334565b91506106ad83610334565b9250826106bd576106bc61066b565b5b82820490509291505056fea2646970667358221220a0d90a3d554d7f3809327772ec6b5e8c6e3edb18b0cec68513b7a05156a861b364736f6c63430008160033",
					"opcodes": "PUSH1 0x80 PUSH1 0x40 MSTORE PUSH9 0x2B5E3AF16B1880000 PUSH0 SSTORE CALLVALUE DUP1 ISZERO PUSH2 0x1B JUMPI PUSH0 DUP1 REVERT JUMPDEST POP PUSH2 0x6FE DUP1 PUSH2 0x29 PUSH0 CODECOPY PUSH0 RETURN INVALID PUSH1 0x80 PUSH1 0x40 MSTORE PUSH1 0x4 CALLDATASIZE LT PUSH2 0x49 JUMPI PUSH0 CALLDATALOAD PUSH1 0xE0 SHR DUP1 PUSH4 0x1B9265B8 EQ PUSH2 0x4D JUMPI DUP1 PUSH4 0x2FA665FA EQ PUSH2 0x57 JUMPI DUP1 PUSH4 0x3430A88C EQ PUSH2 0x93 JUMPI DUP1 PUSH4 0x98D5FDCA EQ PUSH2 0xBD JUMPI DUP1 PUSH4 0x9A491768 EQ PUSH2 0xE7 JUMPI JUMPDEST PUSH0 DUP1 REVERT JUMPDEST PUSH2 0x55 PUSH2 0x123 JUMP JUMPDEST STOP JUMPDEST CALLVALUE DUP1 ISZERO PUSH2 0x62 JUMPI PUSH0 DUP1 REVERT JUMPDEST POP PUSH2 0x7D PUSH1 0x4 DUP1 CALLDATASIZE SUB DUP2 ADD SWAP1 PUSH2 0x78 SWAP2 SWAP1 PUSH2 0x367 JUMP JUMPDEST PUSH2 0x213 JUMP JUMPDEST PUSH1 0x40 MLOAD PUSH2 0x8A SWAP2 SWAP1 PUSH2 0x3D1 JUMP JUMPDEST PUSH1 0x40 MLOAD DUP1 SWAP2 SUB SWAP1 RETURN JUMPDEST CALLVALUE DUP1 ISZERO PUSH2 0x9E JUMPI PUSH0 DUP1 REVERT JUMPDEST POP PUSH2 0xA7 PUSH2 0x24E JUMP JUMPDEST PUSH1 0x40 MLOAD PUSH2 0xB4 SWAP2 SWAP1 PUSH2 0x3F9 JUMP JUMPDEST PUSH1 0x40 MLOAD DUP1 SWAP2 SUB SWAP1 RETURN JUMPDEST CALLVALUE DUP1 ISZERO PUSH2 0xC8 JUMPI PUSH0 DUP1 REVERT JUMPDEST POP PUSH2 0xD1 PUSH2 0x253 JUMP JUMPDEST PUSH1 0x40 MLOAD PUSH2 0xDE SWAP2 SWAP1 PUSH2 0x3F9 JUMP JUMPDEST PUSH1 0x40 MLOAD DUP1 SWAP2 SUB SWAP1 RETURN JUMPDEST CALLVALUE DUP1 ISZERO PUSH2 0xF2 JUMPI PUSH0 DUP1 REVERT JUMPDEST POP PUSH2 0x10D PUSH1 0x4 DUP1 CALLDATASIZE SUB DUP2 ADD SWAP1 PUSH2 0x108 SWAP2 SWAP1 PUSH2 0x367 JUMP JUMPDEST PUSH2 0x2F8 JUMP JUMPDEST PUSH1 0x40 MLOAD PUSH2 0x11A SWAP2 SWAP1 PUSH2 0x3F9 JUMP JUMPDEST PUSH1 0x40 MLOAD DUP1 SWAP2 SUB SWAP1 RETURN JUMPDEST PUSH0 SLOAD PUSH2 0x12E CALLVALUE PUSH2 0x2F8 JUMP JUMPDEST LT ISZERO PUSH2 0x16F JUMPI PUSH1 0x40 MLOAD PUSH32 0x8C379A000000000000000000000000000000000000000000000000000000000 DUP2 MSTORE PUSH1 0x4 ADD PUSH2 0x166 SWAP1 PUSH2 0x46C JUMP JUMPDEST PUSH1 0x40 MLOAD DUP1 SWAP2 SUB SWAP1 REVERT JUMPDEST PUSH1 0x1 CALLER SWAP1 DUP1 PUSH1 0x1 DUP2 SLOAD ADD DUP1 DUP3 SSTORE DUP1 SWAP2 POP POP PUSH1 0x1 SWAP1 SUB SWAP1 PUSH0 MSTORE PUSH1 0x20 PUSH0 KECCAK256 ADD PUSH0 SWAP1 SWAP2 SWAP1 SWAP2 SWAP1 SWAP2 PUSH2 0x100 EXP DUP2 SLOAD DUP2 PUSH20 0xFFFFFFFFFFFFFFFFFFFFFFFFFFFFFFFFFFFFFFFF MUL NOT AND SWAP1 DUP4 PUSH20 0xFFFFFFFFFFFFFFFFFFFFFFFFFFFFFFFFFFFFFFFF AND MUL OR SWAP1 SSTORE POP CALLVALUE PUSH1 0x2 PUSH0 CALLER PUSH20 0xFFFFFFFFFFFFFFFFFFFFFFFFFFFFFFFFFFFFFFFF AND PUSH20 0xFFFFFFFFFFFFFFFFFFFFFFFFFFFFFFFFFFFFFFFF AND DUP2 MSTORE PUSH1 0x20 ADD SWAP1 DUP2 MSTORE PUSH1 0x20 ADD PUSH0 KECCAK256 DUP2 SWAP1 SSTORE POP JUMP JUMPDEST PUSH1 0x1 DUP2 DUP2 SLOAD DUP2 LT PUSH2 0x222 JUMPI PUSH0 DUP1 REVERT JUMPDEST SWAP1 PUSH0 MSTORE PUSH1 0x20 PUSH0 KECCAK256 ADD PUSH0 SWAP2 POP SLOAD SWAP1 PUSH2 0x100 EXP SWAP1 DIV PUSH20 0xFFFFFFFFFFFFFFFFFFFFFFFFFFFFFFFFFFFFFFFF AND DUP2 JUMP JUMPDEST PUSH0 SLOAD DUP2 JUMP JUMPDEST PUSH0 DUP1 PUSH20 0x694AA1769357215DE4FAC081BF1F309ADC325306 SWAP1 POP PUSH0 DUP2 PUSH20 0xFFFFFFFFFFFFFFFFFFFFFFFFFFFFFFFFFFFFFFFF AND PUSH4 0xFEAF968C PUSH1 0x40 MLOAD DUP2 PUSH4 0xFFFFFFFF AND PUSH1 0xE0 SHL DUP2 MSTORE PUSH1 0x4 ADD PUSH1 0xA0 PUSH1 0x40 MLOAD DUP1 DUP4 SUB DUP2 DUP7 GAS STATICCALL ISZERO DUP1 ISZERO PUSH2 0x2B6 JUMPI RETURNDATASIZE PUSH0 DUP1 RETURNDATACOPY RETURNDATASIZE PUSH0 REVERT JUMPDEST POP POP POP POP PUSH1 0x40 MLOAD RETURNDATASIZE PUSH1 0x1F NOT PUSH1 0x1F DUP3 ADD AND DUP3 ADD DUP1 PUSH1 0x40 MSTORE POP DUP2 ADD SWAP1 PUSH2 0x2DA SWAP2 SWAP1 PUSH2 0x510 JUMP JUMPDEST POP POP POP SWAP2 POP POP PUSH5 0x2540BE400 DUP2 PUSH2 0x2F1 SWAP2 SWAP1 PUSH2 0x5B4 JUMP JUMPDEST SWAP3 POP POP POP SWAP1 JUMP JUMPDEST PUSH0 DUP1 PUSH2 0x302 PUSH2 0x253 JUMP JUMPDEST SWAP1 POP PUSH0 PUSH8 0xDE0B6B3A7640000 DUP5 DUP4 PUSH2 0x31A SWAP2 SWAP1 PUSH2 0x62A JUMP JUMPDEST PUSH2 0x324 SWAP2 SWAP1 PUSH2 0x698 JUMP JUMPDEST SWAP1 POP DUP1 SWAP3 POP POP POP SWAP2 SWAP1 POP JUMP JUMPDEST PUSH0 DUP1 REVERT JUMPDEST PUSH0 DUP2 SWAP1 POP SWAP2 SWAP1 POP JUMP JUMPDEST PUSH2 0x346 DUP2 PUSH2 0x334 JUMP JUMPDEST DUP2 EQ PUSH2 0x350 JUMPI PUSH0 DUP1 REVERT JUMPDEST POP JUMP JUMPDEST PUSH0 DUP2 CALLDATALOAD SWAP1 POP PUSH2 0x361 DUP2 PUSH2 0x33D JUMP JUMPDEST SWAP3 SWAP2 POP POP JUMP JUMPDEST PUSH0 PUSH1 0x20 DUP3 DUP5 SUB SLT ISZERO PUSH2 0x37C JUMPI PUSH2 0x37B PUSH2 0x330 JUMP JUMPDEST JUMPDEST PUSH0 PUSH2 0x389 DUP5 DUP3 DUP6 ADD PUSH2 0x353 JUMP JUMPDEST SWAP2 POP POP SWAP3 SWAP2 POP POP JUMP JUMPDEST PUSH0 PUSH20 0xFFFFFFFFFFFFFFFFFFFFFFFFFFFFFFFFFFFFFFFF DUP3 AND SWAP1 POP SWAP2 SWAP1 POP JUMP JUMPDEST PUSH0 PUSH2 0x3BB DUP3 PUSH2 0x392 JUMP JUMPDEST SWAP1 POP SWAP2 SWAP1 POP JUMP JUMPDEST PUSH2 0x3CB DUP2 PUSH2 0x3B1 JUMP JUMPDEST DUP3 MSTORE POP POP JUMP JUMPDEST PUSH0 PUSH1 0x20 DUP3 ADD SWAP1 POP PUSH2 0x3E4 PUSH0 DUP4 ADD DUP5 PUSH2 0x3C2 JUMP JUMPDEST SWAP3 SWAP2 POP POP JUMP JUMPDEST PUSH2 0x3F3 DUP2 PUSH2 0x334 JUMP JUMPDEST DUP3 MSTORE POP POP JUMP JUMPDEST PUSH0 PUSH1 0x20 DUP3 ADD SWAP1 POP PUSH2 0x40C PUSH0 DUP4 ADD DUP5 PUSH2 0x3EA JUMP JUMPDEST SWAP3 SWAP2 POP POP JUMP JUMPDEST PUSH0 DUP3 DUP3 MSTORE PUSH1 0x20 DUP3 ADD SWAP1 POP SWAP3 SWAP2 POP POP JUMP JUMPDEST PUSH32 0x4469646E27742073656E6420656E6F7567682121000000000000000000000000 PUSH0 DUP3 ADD MSTORE POP JUMP JUMPDEST PUSH0 PUSH2 0x456 PUSH1 0x14 DUP4 PUSH2 0x412 JUMP JUMPDEST SWAP2 POP PUSH2 0x461 DUP3 PUSH2 0x422 JUMP JUMPDEST PUSH1 0x20 DUP3 ADD SWAP1 POP SWAP2 SWAP1 POP JUMP JUMPDEST PUSH0 PUSH1 0x20 DUP3 ADD SWAP1 POP DUP2 DUP2 SUB PUSH0 DUP4 ADD MSTORE PUSH2 0x483 DUP2 PUSH2 0x44A JUMP JUMPDEST SWAP1 POP SWAP2 SWAP1 POP JUMP JUMPDEST PUSH0 PUSH10 0xFFFFFFFFFFFFFFFFFFFF DUP3 AND SWAP1 POP SWAP2 SWAP1 POP JUMP JUMPDEST PUSH2 0x4A8 DUP2 PUSH2 0x48A JUMP JUMPDEST DUP2 EQ PUSH2 0x4B2 JUMPI PUSH0 DUP1 REVERT JUMPDEST POP JUMP JUMPDEST PUSH0 DUP2 MLOAD SWAP1 POP PUSH2 0x4C3 DUP2 PUSH2 0x49F JUMP JUMPDEST SWAP3 SWAP2 POP POP JUMP JUMPDEST PUSH0 DUP2 SWAP1 POP SWAP2 SWAP1 POP JUMP JUMPDEST PUSH2 0x4DB DUP2 PUSH2 0x4C9 JUMP JUMPDEST DUP2 EQ PUSH2 0x4E5 JUMPI PUSH0 DUP1 REVERT JUMPDEST POP JUMP JUMPDEST PUSH0 DUP2 MLOAD SWAP1 POP PUSH2 0x4F6 DUP2 PUSH2 0x4D2 JUMP JUMPDEST SWAP3 SWAP2 POP POP JUMP JUMPDEST PUSH0 DUP2 MLOAD SWAP1 POP PUSH2 0x50A DUP2 PUSH2 0x33D JUMP JUMPDEST SWAP3 SWAP2 POP POP JUMP JUMPDEST PUSH0 DUP1 PUSH0 DUP1 PUSH0 PUSH1 0xA0 DUP7 DUP9 SUB SLT ISZERO PUSH2 0x529 JUMPI PUSH2 0x528 PUSH2 0x330 JUMP JUMPDEST JUMPDEST PUSH0 PUSH2 0x536 DUP9 DUP3 DUP10 ADD PUSH2 0x4B5 JUMP JUMPDEST SWAP6 POP POP PUSH1 0x20 PUSH2 0x547 DUP9 DUP3 DUP10 ADD PUSH2 0x4E8 JUMP JUMPDEST SWAP5 POP POP PUSH1 0x40 PUSH2 0x558 DUP9 DUP3 DUP10 ADD PUSH2 0x4FC JUMP JUMPDEST SWAP4 POP POP PUSH1 0x60 PUSH2 0x569 DUP9 DUP3 DUP10 ADD PUSH2 0x4FC JUMP JUMPDEST SWAP3 POP POP PUSH1 0x80 PUSH2 0x57A DUP9 DUP3 DUP10 ADD PUSH2 0x4B5 JUMP JUMPDEST SWAP2 POP POP SWAP3 SWAP6 POP SWAP3 SWAP6 SWAP1 SWAP4 POP JUMP JUMPDEST PUSH32 0x4E487B7100000000000000000000000000000000000000000000000000000000 PUSH0 MSTORE PUSH1 0x11 PUSH1 0x4 MSTORE PUSH1 0x24 PUSH0 REVERT JUMPDEST PUSH0 PUSH2 0x5BE DUP3 PUSH2 0x4C9 JUMP JUMPDEST SWAP2 POP PUSH2 0x5C9 DUP4 PUSH2 0x4C9 JUMP JUMPDEST SWAP3 POP DUP3 DUP3 MUL PUSH2 0x5D7 DUP2 PUSH2 0x4C9 JUMP JUMPDEST SWAP2 POP PUSH32 0x8000000000000000000000000000000000000000000000000000000000000000 DUP5 EQ PUSH0 DUP5 SLT AND ISZERO PUSH2 0x60E JUMPI PUSH2 0x60D PUSH2 0x587 JUMP JUMPDEST JUMPDEST DUP3 DUP3 SDIV DUP5 EQ DUP4 ISZERO OR PUSH2 0x623 JUMPI PUSH2 0x622 PUSH2 0x587 JUMP JUMPDEST JUMPDEST POP SWAP3 SWAP2 POP POP JUMP JUMPDEST PUSH0 PUSH2 0x634 DUP3 PUSH2 0x334 JUMP JUMPDEST SWAP2 POP PUSH2 0x63F DUP4 PUSH2 0x334 JUMP JUMPDEST SWAP3 POP DUP3 DUP3 MUL PUSH2 0x64D DUP2 PUSH2 0x334 JUMP JUMPDEST SWAP2 POP DUP3 DUP3 DIV DUP5 EQ DUP4 ISZERO OR PUSH2 0x664 JUMPI PUSH2 0x663 PUSH2 0x587 JUMP JUMPDEST JUMPDEST POP SWAP3 SWAP2 POP POP JUMP JUMPDEST PUSH32 0x4E487B7100000000000000000000000000000000000000000000000000000000 PUSH0 MSTORE PUSH1 0x12 PUSH1 0x4 MSTORE PUSH1 0x24 PUSH0 REVERT JUMPDEST PUSH0 PUSH2 0x6A2 DUP3 PUSH2 0x334 JUMP JUMPDEST SWAP2 POP PUSH2 0x6AD DUP4 PUSH2 0x334 JUMP JUMPDEST SWAP3 POP DUP3 PUSH2 0x6BD JUMPI PUSH2 0x6BC PUSH2 0x66B JUMP JUMPDEST JUMPDEST DUP3 DUP3 DIV SWAP1 POP SWAP3 SWAP2 POP POP JUMP INVALID LOG2 PUSH5 0x6970667358 0x22 SLT KECCAK256 LOG0 0xD9 EXP RETURNDATASIZE SSTORE 0x4D PUSH32 0x3809327772EC6B5E8C6E3EDB18B0CEC68513B7A05156A861B364736F6C634300 ADDMOD AND STOP CALLER "
				},
				"gasEstimates": {
					"creation": {
						"codeDepositCost": "358000",
						"executionCost": "22496",
						"totalCost": "380496"
					},
					"external": {
						"ConvertUsdToEth(uint256)": "infinite",
						"Senders(uint256)": "4944",
						"getPrice()": "infinite",
						"minimumUSD()": "2446",
						"pay()": "infinite"
					}
				},
				"methodIdentifiers": {
					"ConvertUsdToEth(uint256)": "9a491768",
					"Senders(uint256)": "2fa665fa",
					"getPrice()": "98d5fdca",
					"minimumUSD()": "3430a88c",
					"pay()": "1b9265b8"
				}
			},
			"storageLayout": {
				"storage": [
					{
						"astId": 54,
						"contract": "contracts/PracticeTillSeven.sol:FundAbleContract",
						"label": "minimumUSD",
						"offset": 0,
						"slot": "0",
						"type": "t_uint256"
					},
					{
						"astId": 57,
						"contract": "contracts/PracticeTillSeven.sol:FundAbleContract",
						"label": "Senders",
						"offset": 0,
						"slot": "1",
						"type": "t_array(t_address)dyn_storage"
					},
					{
						"astId": 61,
						"contract": "contracts/PracticeTillSeven.sol:FundAbleContract",
						"label": "mappedWithPeople",
						"offset": 0,
						"slot": "2",
						"type": "t_mapping(t_address,t_uint256)"
					}
				],
				"types": {
					"t_address": {
						"encoding": "inplace",
						"label": "address",
						"numberOfBytes": "20"
					},
					"t_array(t_address)dyn_storage": {
						"base": "t_address",
						"encoding": "dynamic_array",
						"label": "address[]",
						"numberOfBytes": "32"
					},
					"t_mapping(t_address,t_uint256)": {
						"encoding": "mapping",
						"key": "t_address",
						"label": "mapping(address => uint256)",
						"numberOfBytes": "32",
						"value": "t_uint256"
					},
					"t_uint256": {
						"encoding": "inplace",
						"label": "uint256",
						"numberOfBytes": "32"
					}
				}
			},
			"userdoc": {
				"kind": "user",
				"methods": {},
				"version": 1
			}
		}
	}
}