{
	"contracts/PracticeTillFour.sol": {
		"PracticeSession": {
			"abi": [
				{
					"inputs": [
						{
							"internalType": "uint256",
							"name": "_favNum",
							"type": "uint256"
						},
						{
							"internalType": "bool",
							"name": "_favChoice",
							"type": "bool"
						},
						{
							"internalType": "string",
							"name": "_favWord",
							"type": "string"
						}
					],
					"name": "changeFavs",
					"outputs": [],
					"stateMutability": "nonpayable",
					"type": "function"
				},
				{
					"inputs": [],
					"name": "favChoice",
					"outputs": [
						{
							"internalType": "bool",
							"name": "",
							"type": "bool"
						}
					],
					"stateMutability": "view",
					"type": "function"
				},
				{
					"inputs": [],
					"name": "favNum",
					"outputs": [
						{
							"internalType": "uint256",
							"name": "",
							"type": "uint256"
						}
					],
					"stateMutability": "view",
					"type": "function"
				},
				{
					"inputs": [],
					"name": "favWord",
					"outputs": [
						{
							"internalType": "string",
							"name": "",
							"type": "string"
						}
					],
					"stateMutability": "view",
					"type": "function"
				},
				{
					"inputs": [],
					"name": "retrieve",
					"outputs": [
						{
							"internalType": "uint256",
							"name": "",
							"type": "uint256"
						},
						{
							"internalType": "bool",
							"name": "",
							"type": "bool"
						},
						{
							"internalType": "string",
							"name": "",
							"type": "string"
						}
					],
					"stateMutability": "view",
					"type": "function"
				}
			],
			"devdoc": {
				"kind": "dev",
				"methods": {},
				"version": 1
			},
			"evm": {
				"assembly": "    /* \"contracts/PracticeTillFour.sol\":60:502  contract PracticeSession {... */\n  mstore(0x40, 0x80)\n  callvalue\n  dup1\n  iszero\n  tag_1\n  jumpi\n  0x00\n  dup1\n  revert\ntag_1:\n  pop\n  dataSize(sub_0)\n  dup1\n  dataOffset(sub_0)\n  0x00\n  codecopy\n  0x00\n  return\nstop\n\nsub_0: assembly {\n        /* \"contracts/PracticeTillFour.sol\":60:502  contract PracticeSession {... */\n      mstore(0x40, 0x80)\n      callvalue\n      dup1\n      iszero\n      tag_1\n      jumpi\n      0x00\n      dup1\n      revert\n    tag_1:\n      pop\n      jumpi(tag_2, lt(calldatasize, 0x04))\n      shr(0xe0, calldataload(0x00))\n      dup1\n      0x06fcb528\n      eq\n      tag_3\n      jumpi\n      dup1\n      0x2e64cec1\n      eq\n      tag_4\n      jumpi\n      dup1\n      0x3c8df652\n      eq\n      tag_5\n      jumpi\n      dup1\n      0x71357deb\n      eq\n      tag_6\n      jumpi\n      dup1\n      0xab9f40f9\n      eq\n      tag_7\n      jumpi\n    tag_2:\n      0x00\n      dup1\n      revert\n        /* \"contracts/PracticeTillFour.sol\":148:169  string public favWord */\n    tag_3:\n      tag_8\n      tag_9\n      jump\t// in\n    tag_8:\n      mload(0x40)\n      tag_10\n      swap2\n      swap1\n      tag_11\n      jump\t// in\n    tag_10:\n      mload(0x40)\n      dup1\n      swap2\n      sub\n      swap1\n      return\n        /* \"contracts/PracticeTillFour.sol\":377:499  function retrieve() public view returns(uint256,bool,string memory) {... */\n    tag_4:\n      tag_12\n      tag_13\n      jump\t// in\n    tag_12:\n      mload(0x40)\n      tag_14\n      swap4\n      swap3\n      swap2\n      swap1\n      tag_15\n      jump\t// in\n    tag_14:\n      mload(0x40)\n      dup1\n      swap2\n      sub\n      swap1\n      return\n        /* \"contracts/PracticeTillFour.sol\":92:113  uint256 public favNum */\n    tag_5:\n      tag_16\n      tag_17\n      jump\t// in\n    tag_16:\n      mload(0x40)\n      tag_18\n      swap2\n      swap1\n      tag_19\n      jump\t// in\n    tag_18:\n      mload(0x40)\n      dup1\n      swap2\n      sub\n      swap1\n      return\n        /* \"contracts/PracticeTillFour.sol\":120:141  bool public favChoice */\n    tag_6:\n      tag_20\n      tag_21\n      jump\t// in\n    tag_20:\n      mload(0x40)\n      tag_22\n      swap2\n      swap1\n      tag_23\n      jump\t// in\n    tag_22:\n      mload(0x40)\n      dup1\n      swap2\n      sub\n      swap1\n      return\n        /* \"contracts/PracticeTillFour.sol\":180:364  function changeFavs(uint256 _favNum, bool _favChoice, string calldata _favWord) public {... */\n    tag_7:\n      tag_24\n      0x04\n      dup1\n      calldatasize\n      sub\n      dup2\n      add\n      swap1\n      tag_25\n      swap2\n      swap1\n      tag_26\n      jump\t// in\n    tag_25:\n      tag_27\n      jump\t// in\n    tag_24:\n      stop\n        /* \"contracts/PracticeTillFour.sol\":148:169  string public favWord */\n    tag_9:\n      0x02\n      dup1\n      sload\n      tag_28\n      swap1\n      tag_29\n      jump\t// in\n    tag_28:\n      dup1\n      0x1f\n      add\n      0x20\n      dup1\n      swap2\n      div\n      mul\n      0x20\n      add\n      mload(0x40)\n      swap1\n      dup2\n      add\n      0x40\n      mstore\n      dup1\n      swap3\n      swap2\n      swap1\n      dup2\n      dup2\n      mstore\n      0x20\n      add\n      dup3\n      dup1\n      sload\n      tag_30\n      swap1\n      tag_29\n      jump\t// in\n    tag_30:\n      dup1\n      iszero\n      tag_31\n      jumpi\n      dup1\n      0x1f\n      lt\n      tag_32\n      jumpi\n      0x0100\n      dup1\n      dup4\n      sload\n      div\n      mul\n      dup4\n      mstore\n      swap2\n      0x20\n      add\n      swap2\n      jump(tag_31)\n    tag_32:\n      dup3\n      add\n      swap2\n      swap1\n      0x00\n      mstore\n      keccak256(0x00, 0x20)\n      swap1\n    tag_33:\n      dup2\n      sload\n      dup2\n      mstore\n      swap1\n      0x01\n      add\n      swap1\n      0x20\n      add\n      dup1\n      dup4\n      gt\n      tag_33\n      jumpi\n      dup3\n      swap1\n      sub\n      0x1f\n      and\n      dup3\n      add\n      swap2\n    tag_31:\n      pop\n      pop\n      pop\n      pop\n      pop\n      dup2\n      jump\t// out\n        /* \"contracts/PracticeTillFour.sol\":377:499  function retrieve() public view returns(uint256,bool,string memory) {... */\n    tag_13:\n        /* \"contracts/PracticeTillFour.sol\":417:424  uint256 */\n      0x00\n        /* \"contracts/PracticeTillFour.sol\":425:429  bool */\n      dup1\n        /* \"contracts/PracticeTillFour.sol\":430:443  string memory */\n      0x60\n        /* \"contracts/PracticeTillFour.sol\":464:470  favNum */\n      sload(0x00)\n        /* \"contracts/PracticeTillFour.sol\":472:481  favChoice */\n      0x01\n      0x00\n      swap1\n      sload\n      swap1\n      0x0100\n      exp\n      swap1\n      div\n      0xff\n      and\n        /* \"contracts/PracticeTillFour.sol\":483:490  favWord */\n      0x02\n        /* \"contracts/PracticeTillFour.sol\":456:491  return (favNum, favChoice, favWord) */\n      dup1\n      dup1\n      sload\n      tag_35\n      swap1\n      tag_29\n      jump\t// in\n    tag_35:\n      dup1\n      0x1f\n      add\n      0x20\n      dup1\n      swap2\n      div\n      mul\n      0x20\n      add\n      mload(0x40)\n      swap1\n      dup2\n      add\n      0x40\n      mstore\n      dup1\n      swap3\n      swap2\n      swap1\n      dup2\n      dup2\n      mstore\n      0x20\n      add\n      dup3\n      dup1\n      sload\n      tag_36\n      swap1\n      tag_29\n      jump\t// in\n    tag_36:\n      dup1\n      iszero\n      tag_37\n      jumpi\n      dup1\n      0x1f\n      lt\n      tag_38\n      jumpi\n      0x0100\n      dup1\n      dup4\n      sload\n      div\n      mul\n      dup4\n      mstore\n      swap2\n      0x20\n      add\n      swap2\n      jump(tag_37)\n    tag_38:\n      dup3\n      add\n      swap2\n      swap1\n      0x00\n      mstore\n      keccak256(0x00, 0x20)\n      swap1\n    tag_39:\n      dup2\n      sload\n      dup2\n      mstore\n      swap1\n      0x01\n      add\n      swap1\n      0x20\n      add\n      dup1\n      dup4\n      gt\n      tag_39\n      jumpi\n      dup3\n      swap1\n      sub\n      0x1f\n      and\n      dup3\n      add\n      swap2\n    tag_37:\n      pop\n      pop\n      pop\n      pop\n      pop\n      swap1\n      pop\n      swap3\n      pop\n      swap3\n      pop\n      swap3\n      pop\n        /* \"contracts/PracticeTillFour.sol\":377:499  function retrieve() public view returns(uint256,bool,string memory) {... */\n      swap1\n      swap2\n      swap3\n      jump\t// out\n        /* \"contracts/PracticeTillFour.sol\":92:113  uint256 public favNum */\n    tag_17:\n      sload(0x00)\n      dup2\n      jump\t// out\n        /* \"contracts/PracticeTillFour.sol\":120:141  bool public favChoice */\n    tag_21:\n      0x01\n      0x00\n      swap1\n      sload\n      swap1\n      0x0100\n      exp\n      swap1\n      div\n      0xff\n      and\n      dup2\n      jump\t// out\n        /* \"contracts/PracticeTillFour.sol\":180:364  function changeFavs(uint256 _favNum, bool _favChoice, string calldata _favWord) public {... */\n    tag_27:\n        /* \"contracts/PracticeTillFour.sol\":287:294  _favNum */\n      dup4\n        /* \"contracts/PracticeTillFour.sol\":278:284  favNum */\n      0x00\n        /* \"contracts/PracticeTillFour.sol\":278:294  favNum = _favNum */\n      dup2\n      swap1\n      sstore\n      pop\n        /* \"contracts/PracticeTillFour.sol\":317:327  _favChoice */\n      dup3\n        /* \"contracts/PracticeTillFour.sol\":305:314  favChoice */\n      0x01\n      0x00\n        /* \"contracts/PracticeTillFour.sol\":305:327  favChoice = _favChoice */\n      0x0100\n      exp\n      dup2\n      sload\n      dup2\n      0xff\n      mul\n      not\n      and\n      swap1\n      dup4\n      iszero\n      iszero\n      mul\n      or\n      swap1\n      sstore\n      pop\n        /* \"contracts/PracticeTillFour.sol\":348:356  _favWord */\n      dup2\n      dup2\n        /* \"contracts/PracticeTillFour.sol\":338:345  favWord */\n      0x02\n        /* \"contracts/PracticeTillFour.sol\":338:356  favWord = _favWord */\n      swap2\n      dup3\n      tag_41\n      swap3\n      swap2\n      swap1\n      tag_42\n      jump\t// in\n    tag_41:\n      pop\n        /* \"contracts/PracticeTillFour.sol\":180:364  function changeFavs(uint256 _favNum, bool _favChoice, string calldata _favWord) public {... */\n      pop\n      pop\n      pop\n      pop\n      jump\t// out\n        /* \"#utility.yul\":7:106   */\n    tag_43:\n        /* \"#utility.yul\":59:65   */\n      0x00\n        /* \"#utility.yul\":93:98   */\n      dup2\n        /* \"#utility.yul\":87:99   */\n      mload\n        /* \"#utility.yul\":77:99   */\n      swap1\n      pop\n        /* \"#utility.yul\":7:106   */\n      swap2\n      swap1\n      pop\n      jump\t// out\n        /* \"#utility.yul\":112:281   */\n    tag_44:\n        /* \"#utility.yul\":196:207   */\n      0x00\n        /* \"#utility.yul\":230:236   */\n      dup3\n        /* \"#utility.yul\":225:228   */\n      dup3\n        /* \"#utility.yul\":218:237   */\n      mstore\n        /* \"#utility.yul\":270:274   */\n      0x20\n        /* \"#utility.yul\":265:268   */\n      dup3\n        /* \"#utility.yul\":261:275   */\n      add\n        /* \"#utility.yul\":246:275   */\n      swap1\n      pop\n        /* \"#utility.yul\":112:281   */\n      swap3\n      swap2\n      pop\n      pop\n      jump\t// out\n        /* \"#utility.yul\":287:533   */\n    tag_45:\n        /* \"#utility.yul\":368:369   */\n      0x00\n        /* \"#utility.yul\":378:491   */\n    tag_85:\n        /* \"#utility.yul\":392:398   */\n      dup4\n        /* \"#utility.yul\":389:390   */\n      dup2\n        /* \"#utility.yul\":386:399   */\n      lt\n        /* \"#utility.yul\":378:491   */\n      iszero\n      tag_87\n      jumpi\n        /* \"#utility.yul\":477:478   */\n      dup1\n        /* \"#utility.yul\":472:475   */\n      dup3\n        /* \"#utility.yul\":468:479   */\n      add\n        /* \"#utility.yul\":462:480   */\n      mload\n        /* \"#utility.yul\":458:459   */\n      dup2\n        /* \"#utility.yul\":453:456   */\n      dup5\n        /* \"#utility.yul\":449:460   */\n      add\n        /* \"#utility.yul\":442:481   */\n      mstore\n        /* \"#utility.yul\":414:416   */\n      0x20\n        /* \"#utility.yul\":411:412   */\n      dup2\n        /* \"#utility.yul\":407:417   */\n      add\n        /* \"#utility.yul\":402:417   */\n      swap1\n      pop\n        /* \"#utility.yul\":378:491   */\n      jump(tag_85)\n    tag_87:\n        /* \"#utility.yul\":525:526   */\n      0x00\n        /* \"#utility.yul\":516:522   */\n      dup5\n        /* \"#utility.yul\":511:514   */\n      dup5\n        /* \"#utility.yul\":507:523   */\n      add\n        /* \"#utility.yul\":500:527   */\n      mstore\n        /* \"#utility.yul\":349:533   */\n      pop\n        /* \"#utility.yul\":287:533   */\n      pop\n      pop\n      pop\n      jump\t// out\n        /* \"#utility.yul\":539:641   */\n    tag_46:\n        /* \"#utility.yul\":580:586   */\n      0x00\n        /* \"#utility.yul\":631:633   */\n      0x1f\n        /* \"#utility.yul\":627:634   */\n      not\n        /* \"#utility.yul\":622:624   */\n      0x1f\n        /* \"#utility.yul\":615:620   */\n      dup4\n        /* \"#utility.yul\":611:625   */\n      add\n        /* \"#utility.yul\":607:635   */\n      and\n        /* \"#utility.yul\":597:635   */\n      swap1\n      pop\n        /* \"#utility.yul\":539:641   */\n      swap2\n      swap1\n      pop\n      jump\t// out\n        /* \"#utility.yul\":647:1024   */\n    tag_47:\n        /* \"#utility.yul\":735:738   */\n      0x00\n        /* \"#utility.yul\":763:802   */\n      tag_90\n        /* \"#utility.yul\":796:801   */\n      dup3\n        /* \"#utility.yul\":763:802   */\n      tag_43\n      jump\t// in\n    tag_90:\n        /* \"#utility.yul\":818:889   */\n      tag_91\n        /* \"#utility.yul\":882:888   */\n      dup2\n        /* \"#utility.yul\":877:880   */\n      dup6\n        /* \"#utility.yul\":818:889   */\n      tag_44\n      jump\t// in\n    tag_91:\n        /* \"#utility.yul\":811:889   */\n      swap4\n      pop\n        /* \"#utility.yul\":898:963   */\n      tag_92\n        /* \"#utility.yul\":956:962   */\n      dup2\n        /* \"#utility.yul\":951:954   */\n      dup6\n        /* \"#utility.yul\":944:948   */\n      0x20\n        /* \"#utility.yul\":937:942   */\n      dup7\n        /* \"#utility.yul\":933:949   */\n      add\n        /* \"#utility.yul\":898:963   */\n      tag_45\n      jump\t// in\n    tag_92:\n        /* \"#utility.yul\":988:1017   */\n      tag_93\n        /* \"#utility.yul\":1010:1016   */\n      dup2\n        /* \"#utility.yul\":988:1017   */\n      tag_46\n      jump\t// in\n    tag_93:\n        /* \"#utility.yul\":983:986   */\n      dup5\n        /* \"#utility.yul\":979:1018   */\n      add\n        /* \"#utility.yul\":972:1018   */\n      swap2\n      pop\n        /* \"#utility.yul\":739:1024   */\n      pop\n        /* \"#utility.yul\":647:1024   */\n      swap3\n      swap2\n      pop\n      pop\n      jump\t// out\n        /* \"#utility.yul\":1030:1343   */\n    tag_11:\n        /* \"#utility.yul\":1143:1147   */\n      0x00\n        /* \"#utility.yul\":1181:1183   */\n      0x20\n        /* \"#utility.yul\":1170:1179   */\n      dup3\n        /* \"#utility.yul\":1166:1184   */\n      add\n        /* \"#utility.yul\":1158:1184   */\n      swap1\n      pop\n        /* \"#utility.yul\":1230:1239   */\n      dup2\n        /* \"#utility.yul\":1224:1228   */\n      dup2\n        /* \"#utility.yul\":1220:1240   */\n      sub\n        /* \"#utility.yul\":1216:1217   */\n      0x00\n        /* \"#utility.yul\":1205:1214   */\n      dup4\n        /* \"#utility.yul\":1201:1218   */\n      add\n        /* \"#utility.yul\":1194:1241   */\n      mstore\n        /* \"#utility.yul\":1258:1336   */\n      tag_95\n        /* \"#utility.yul\":1331:1335   */\n      dup2\n        /* \"#utility.yul\":1322:1328   */\n      dup5\n        /* \"#utility.yul\":1258:1336   */\n      tag_47\n      jump\t// in\n    tag_95:\n        /* \"#utility.yul\":1250:1336   */\n      swap1\n      pop\n        /* \"#utility.yul\":1030:1343   */\n      swap3\n      swap2\n      pop\n      pop\n      jump\t// out\n        /* \"#utility.yul\":1349:1426   */\n    tag_48:\n        /* \"#utility.yul\":1386:1393   */\n      0x00\n        /* \"#utility.yul\":1415:1420   */\n      dup2\n        /* \"#utility.yul\":1404:1420   */\n      swap1\n      pop\n        /* \"#utility.yul\":1349:1426   */\n      swap2\n      swap1\n      pop\n      jump\t// out\n        /* \"#utility.yul\":1432:1550   */\n    tag_49:\n        /* \"#utility.yul\":1519:1543   */\n      tag_98\n        /* \"#utility.yul\":1537:1542   */\n      dup2\n        /* \"#utility.yul\":1519:1543   */\n      tag_48\n      jump\t// in\n    tag_98:\n        /* \"#utility.yul\":1514:1517   */\n      dup3\n        /* \"#utility.yul\":1507:1544   */\n      mstore\n        /* \"#utility.yul\":1432:1550   */\n      pop\n      pop\n      jump\t// out\n        /* \"#utility.yul\":1556:1646   */\n    tag_50:\n        /* \"#utility.yul\":1590:1597   */\n      0x00\n        /* \"#utility.yul\":1633:1638   */\n      dup2\n        /* \"#utility.yul\":1626:1639   */\n      iszero\n        /* \"#utility.yul\":1619:1640   */\n      iszero\n        /* \"#utility.yul\":1608:1640   */\n      swap1\n      pop\n        /* \"#utility.yul\":1556:1646   */\n      swap2\n      swap1\n      pop\n      jump\t// out\n        /* \"#utility.yul\":1652:1761   */\n    tag_51:\n        /* \"#utility.yul\":1733:1754   */\n      tag_101\n        /* \"#utility.yul\":1748:1753   */\n      dup2\n        /* \"#utility.yul\":1733:1754   */\n      tag_50\n      jump\t// in\n    tag_101:\n        /* \"#utility.yul\":1728:1731   */\n      dup3\n        /* \"#utility.yul\":1721:1755   */\n      mstore\n        /* \"#utility.yul\":1652:1761   */\n      pop\n      pop\n      jump\t// out\n        /* \"#utility.yul\":1767:2288   */\n    tag_15:\n        /* \"#utility.yul\":1930:1934   */\n      0x00\n        /* \"#utility.yul\":1968:1970   */\n      0x60\n        /* \"#utility.yul\":1957:1966   */\n      dup3\n        /* \"#utility.yul\":1953:1971   */\n      add\n        /* \"#utility.yul\":1945:1971   */\n      swap1\n      pop\n        /* \"#utility.yul\":1981:2052   */\n      tag_103\n        /* \"#utility.yul\":2049:2050   */\n      0x00\n        /* \"#utility.yul\":2038:2047   */\n      dup4\n        /* \"#utility.yul\":2034:2051   */\n      add\n        /* \"#utility.yul\":2025:2031   */\n      dup7\n        /* \"#utility.yul\":1981:2052   */\n      tag_49\n      jump\t// in\n    tag_103:\n        /* \"#utility.yul\":2062:2128   */\n      tag_104\n        /* \"#utility.yul\":2124:2126   */\n      0x20\n        /* \"#utility.yul\":2113:2122   */\n      dup4\n        /* \"#utility.yul\":2109:2127   */\n      add\n        /* \"#utility.yul\":2100:2106   */\n      dup6\n        /* \"#utility.yul\":2062:2128   */\n      tag_51\n      jump\t// in\n    tag_104:\n        /* \"#utility.yul\":2175:2184   */\n      dup2\n        /* \"#utility.yul\":2169:2173   */\n      dup2\n        /* \"#utility.yul\":2165:2185   */\n      sub\n        /* \"#utility.yul\":2160:2162   */\n      0x40\n        /* \"#utility.yul\":2149:2158   */\n      dup4\n        /* \"#utility.yul\":2145:2163   */\n      add\n        /* \"#utility.yul\":2138:2186   */\n      mstore\n        /* \"#utility.yul\":2203:2281   */\n      tag_105\n        /* \"#utility.yul\":2276:2280   */\n      dup2\n        /* \"#utility.yul\":2267:2273   */\n      dup5\n        /* \"#utility.yul\":2203:2281   */\n      tag_47\n      jump\t// in\n    tag_105:\n        /* \"#utility.yul\":2195:2281   */\n      swap1\n      pop\n        /* \"#utility.yul\":1767:2288   */\n      swap5\n      swap4\n      pop\n      pop\n      pop\n      pop\n      jump\t// out\n        /* \"#utility.yul\":2294:2516   */\n    tag_19:\n        /* \"#utility.yul\":2387:2391   */\n      0x00\n        /* \"#utility.yul\":2425:2427   */\n      0x20\n        /* \"#utility.yul\":2414:2423   */\n      dup3\n        /* \"#utility.yul\":2410:2428   */\n      add\n        /* \"#utility.yul\":2402:2428   */\n      swap1\n      pop\n        /* \"#utility.yul\":2438:2509   */\n      tag_107\n        /* \"#utility.yul\":2506:2507   */\n      0x00\n        /* \"#utility.yul\":2495:2504   */\n      dup4\n        /* \"#utility.yul\":2491:2508   */\n      add\n        /* \"#utility.yul\":2482:2488   */\n      dup5\n        /* \"#utility.yul\":2438:2509   */\n      tag_49\n      jump\t// in\n    tag_107:\n        /* \"#utility.yul\":2294:2516   */\n      swap3\n      swap2\n      pop\n      pop\n      jump\t// out\n        /* \"#utility.yul\":2522:2732   */\n    tag_23:\n        /* \"#utility.yul\":2609:2613   */\n      0x00\n        /* \"#utility.yul\":2647:2649   */\n      0x20\n        /* \"#utility.yul\":2636:2645   */\n      dup3\n        /* \"#utility.yul\":2632:2650   */\n      add\n        /* \"#utility.yul\":2624:2650   */\n      swap1\n      pop\n        /* \"#utility.yul\":2660:2725   */\n      tag_109\n        /* \"#utility.yul\":2722:2723   */\n      0x00\n        /* \"#utility.yul\":2711:2720   */\n      dup4\n        /* \"#utility.yul\":2707:2724   */\n      add\n        /* \"#utility.yul\":2698:2704   */\n      dup5\n        /* \"#utility.yul\":2660:2725   */\n      tag_51\n      jump\t// in\n    tag_109:\n        /* \"#utility.yul\":2522:2732   */\n      swap3\n      swap2\n      pop\n      pop\n      jump\t// out\n        /* \"#utility.yul\":2819:2936   */\n    tag_53:\n        /* \"#utility.yul\":2928:2929   */\n      0x00\n        /* \"#utility.yul\":2925:2926   */\n      dup1\n        /* \"#utility.yul\":2918:2930   */\n      revert\n        /* \"#utility.yul\":2942:3059   */\n    tag_54:\n        /* \"#utility.yul\":3051:3052   */\n      0x00\n        /* \"#utility.yul\":3048:3049   */\n      dup1\n        /* \"#utility.yul\":3041:3053   */\n      revert\n        /* \"#utility.yul\":3065:3187   */\n    tag_55:\n        /* \"#utility.yul\":3138:3162   */\n      tag_114\n        /* \"#utility.yul\":3156:3161   */\n      dup2\n        /* \"#utility.yul\":3138:3162   */\n      tag_48\n      jump\t// in\n    tag_114:\n        /* \"#utility.yul\":3131:3136   */\n      dup2\n        /* \"#utility.yul\":3128:3163   */\n      eq\n        /* \"#utility.yul\":3118:3181   */\n      tag_115\n      jumpi\n        /* \"#utility.yul\":3177:3178   */\n      0x00\n        /* \"#utility.yul\":3174:3175   */\n      dup1\n        /* \"#utility.yul\":3167:3179   */\n      revert\n        /* \"#utility.yul\":3118:3181   */\n    tag_115:\n        /* \"#utility.yul\":3065:3187   */\n      pop\n      jump\t// out\n        /* \"#utility.yul\":3193:3332   */\n    tag_56:\n        /* \"#utility.yul\":3239:3244   */\n      0x00\n        /* \"#utility.yul\":3277:3283   */\n      dup2\n        /* \"#utility.yul\":3264:3284   */\n      calldataload\n        /* \"#utility.yul\":3255:3284   */\n      swap1\n      pop\n        /* \"#utility.yul\":3293:3326   */\n      tag_117\n        /* \"#utility.yul\":3320:3325   */\n      dup2\n        /* \"#utility.yul\":3293:3326   */\n      tag_55\n      jump\t// in\n    tag_117:\n        /* \"#utility.yul\":3193:3332   */\n      swap3\n      swap2\n      pop\n      pop\n      jump\t// out\n        /* \"#utility.yul\":3338:3454   */\n    tag_57:\n        /* \"#utility.yul\":3408:3429   */\n      tag_119\n        /* \"#utility.yul\":3423:3428   */\n      dup2\n        /* \"#utility.yul\":3408:3429   */\n      tag_50\n      jump\t// in\n    tag_119:\n        /* \"#utility.yul\":3401:3406   */\n      dup2\n        /* \"#utility.yul\":3398:3430   */\n      eq\n        /* \"#utility.yul\":3388:3448   */\n      tag_120\n      jumpi\n        /* \"#utility.yul\":3444:3445   */\n      0x00\n        /* \"#utility.yul\":3441:3442   */\n      dup1\n        /* \"#utility.yul\":3434:3446   */\n      revert\n        /* \"#utility.yul\":3388:3448   */\n    tag_120:\n        /* \"#utility.yul\":3338:3454   */\n      pop\n      jump\t// out\n        /* \"#utility.yul\":3460:3593   */\n    tag_58:\n        /* \"#utility.yul\":3503:3508   */\n      0x00\n        /* \"#utility.yul\":3541:3547   */\n      dup2\n        /* \"#utility.yul\":3528:3548   */\n      calldataload\n        /* \"#utility.yul\":3519:3548   */\n      swap1\n      pop\n        /* \"#utility.yul\":3557:3587   */\n      tag_122\n        /* \"#utility.yul\":3581:3586   */\n      dup2\n        /* \"#utility.yul\":3557:3587   */\n      tag_57\n      jump\t// in\n    tag_122:\n        /* \"#utility.yul\":3460:3593   */\n      swap3\n      swap2\n      pop\n      pop\n      jump\t// out\n        /* \"#utility.yul\":3599:3716   */\n    tag_59:\n        /* \"#utility.yul\":3708:3709   */\n      0x00\n        /* \"#utility.yul\":3705:3706   */\n      dup1\n        /* \"#utility.yul\":3698:3710   */\n      revert\n        /* \"#utility.yul\":3722:3839   */\n    tag_60:\n        /* \"#utility.yul\":3831:3832   */\n      0x00\n        /* \"#utility.yul\":3828:3829   */\n      dup1\n        /* \"#utility.yul\":3821:3833   */\n      revert\n        /* \"#utility.yul\":3845:3962   */\n    tag_61:\n        /* \"#utility.yul\":3954:3955   */\n      0x00\n        /* \"#utility.yul\":3951:3952   */\n      dup1\n        /* \"#utility.yul\":3944:3956   */\n      revert\n        /* \"#utility.yul\":3982:4535   */\n    tag_62:\n        /* \"#utility.yul\":4040:4048   */\n      0x00\n        /* \"#utility.yul\":4050:4056   */\n      dup1\n        /* \"#utility.yul\":4100:4103   */\n      dup4\n        /* \"#utility.yul\":4093:4097   */\n      0x1f\n        /* \"#utility.yul\":4085:4091   */\n      dup5\n        /* \"#utility.yul\":4081:4098   */\n      add\n        /* \"#utility.yul\":4077:4104   */\n      slt\n        /* \"#utility.yul\":4067:4189   */\n      tag_127\n      jumpi\n        /* \"#utility.yul\":4108:4187   */\n      tag_128\n      tag_59\n      jump\t// in\n    tag_128:\n        /* \"#utility.yul\":4067:4189   */\n    tag_127:\n        /* \"#utility.yul\":4221:4227   */\n      dup3\n        /* \"#utility.yul\":4208:4228   */\n      calldataload\n        /* \"#utility.yul\":4198:4228   */\n      swap1\n      pop\n        /* \"#utility.yul\":4251:4269   */\n      0xffffffffffffffff\n        /* \"#utility.yul\":4243:4249   */\n      dup2\n        /* \"#utility.yul\":4240:4270   */\n      gt\n        /* \"#utility.yul\":4237:4354   */\n      iszero\n      tag_129\n      jumpi\n        /* \"#utility.yul\":4273:4352   */\n      tag_130\n      tag_60\n      jump\t// in\n    tag_130:\n        /* \"#utility.yul\":4237:4354   */\n    tag_129:\n        /* \"#utility.yul\":4387:4391   */\n      0x20\n        /* \"#utility.yul\":4379:4385   */\n      dup4\n        /* \"#utility.yul\":4375:4392   */\n      add\n        /* \"#utility.yul\":4363:4392   */\n      swap2\n      pop\n        /* \"#utility.yul\":4441:4444   */\n      dup4\n        /* \"#utility.yul\":4433:4437   */\n      0x01\n        /* \"#utility.yul\":4425:4431   */\n      dup3\n        /* \"#utility.yul\":4421:4438   */\n      mul\n        /* \"#utility.yul\":4411:4419   */\n      dup4\n        /* \"#utility.yul\":4407:4439   */\n      add\n        /* \"#utility.yul\":4404:4445   */\n      gt\n        /* \"#utility.yul\":4401:4529   */\n      iszero\n      tag_131\n      jumpi\n        /* \"#utility.yul\":4448:4527   */\n      tag_132\n      tag_61\n      jump\t// in\n    tag_132:\n        /* \"#utility.yul\":4401:4529   */\n    tag_131:\n        /* \"#utility.yul\":3982:4535   */\n      swap3\n      pop\n      swap3\n      swap1\n      pop\n      jump\t// out\n        /* \"#utility.yul\":4541:5354   */\n    tag_26:\n        /* \"#utility.yul\":4627:4633   */\n      0x00\n        /* \"#utility.yul\":4635:4641   */\n      dup1\n        /* \"#utility.yul\":4643:4649   */\n      0x00\n        /* \"#utility.yul\":4651:4657   */\n      dup1\n        /* \"#utility.yul\":4700:4702   */\n      0x60\n        /* \"#utility.yul\":4688:4697   */\n      dup6\n        /* \"#utility.yul\":4679:4686   */\n      dup8\n        /* \"#utility.yul\":4675:4698   */\n      sub\n        /* \"#utility.yul\":4671:4703   */\n      slt\n        /* \"#utility.yul\":4668:4787   */\n      iszero\n      tag_134\n      jumpi\n        /* \"#utility.yul\":4706:4785   */\n      tag_135\n      tag_53\n      jump\t// in\n    tag_135:\n        /* \"#utility.yul\":4668:4787   */\n    tag_134:\n        /* \"#utility.yul\":4826:4827   */\n      0x00\n        /* \"#utility.yul\":4851:4904   */\n      tag_136\n        /* \"#utility.yul\":4896:4903   */\n      dup8\n        /* \"#utility.yul\":4887:4893   */\n      dup3\n        /* \"#utility.yul\":4876:4885   */\n      dup9\n        /* \"#utility.yul\":4872:4894   */\n      add\n        /* \"#utility.yul\":4851:4904   */\n      tag_56\n      jump\t// in\n    tag_136:\n        /* \"#utility.yul\":4841:4904   */\n      swap5\n      pop\n        /* \"#utility.yul\":4797:4914   */\n      pop\n        /* \"#utility.yul\":4953:4955   */\n      0x20\n        /* \"#utility.yul\":4979:5029   */\n      tag_137\n        /* \"#utility.yul\":5021:5028   */\n      dup8\n        /* \"#utility.yul\":5012:5018   */\n      dup3\n        /* \"#utility.yul\":5001:5010   */\n      dup9\n        /* \"#utility.yul\":4997:5019   */\n      add\n        /* \"#utility.yul\":4979:5029   */\n      tag_58\n      jump\t// in\n    tag_137:\n        /* \"#utility.yul\":4969:5029   */\n      swap4\n      pop\n        /* \"#utility.yul\":4924:5039   */\n      pop\n        /* \"#utility.yul\":5106:5108   */\n      0x40\n        /* \"#utility.yul\":5095:5104   */\n      dup6\n        /* \"#utility.yul\":5091:5109   */\n      add\n        /* \"#utility.yul\":5078:5110   */\n      calldataload\n        /* \"#utility.yul\":5137:5155   */\n      0xffffffffffffffff\n        /* \"#utility.yul\":5129:5135   */\n      dup2\n        /* \"#utility.yul\":5126:5156   */\n      gt\n        /* \"#utility.yul\":5123:5240   */\n      iszero\n      tag_138\n      jumpi\n        /* \"#utility.yul\":5159:5238   */\n      tag_139\n      tag_54\n      jump\t// in\n    tag_139:\n        /* \"#utility.yul\":5123:5240   */\n    tag_138:\n        /* \"#utility.yul\":5272:5337   */\n      tag_140\n        /* \"#utility.yul\":5329:5336   */\n      dup8\n        /* \"#utility.yul\":5320:5326   */\n      dup3\n        /* \"#utility.yul\":5309:5318   */\n      dup9\n        /* \"#utility.yul\":5305:5327   */\n      add\n        /* \"#utility.yul\":5272:5337   */\n      tag_62\n      jump\t// in\n    tag_140:\n        /* \"#utility.yul\":5254:5337   */\n      swap3\n      pop\n      swap3\n      pop\n        /* \"#utility.yul\":5049:5347   */\n      pop\n        /* \"#utility.yul\":4541:5354   */\n      swap3\n      swap6\n      swap2\n      swap5\n      pop\n      swap3\n      pop\n      jump\t// out\n        /* \"#utility.yul\":5360:5540   */\n    tag_63:\n        /* \"#utility.yul\":5408:5485   */\n      0x4e487b7100000000000000000000000000000000000000000000000000000000\n        /* \"#utility.yul\":5405:5406   */\n      0x00\n        /* \"#utility.yul\":5398:5486   */\n      mstore\n        /* \"#utility.yul\":5505:5509   */\n      0x22\n        /* \"#utility.yul\":5502:5503   */\n      0x04\n        /* \"#utility.yul\":5495:5510   */\n      mstore\n        /* \"#utility.yul\":5529:5533   */\n      0x24\n        /* \"#utility.yul\":5526:5527   */\n      0x00\n        /* \"#utility.yul\":5519:5534   */\n      revert\n        /* \"#utility.yul\":5546:5866   */\n    tag_29:\n        /* \"#utility.yul\":5590:5596   */\n      0x00\n        /* \"#utility.yul\":5627:5628   */\n      0x02\n        /* \"#utility.yul\":5621:5625   */\n      dup3\n        /* \"#utility.yul\":5617:5629   */\n      div\n        /* \"#utility.yul\":5607:5629   */\n      swap1\n      pop\n        /* \"#utility.yul\":5674:5675   */\n      0x01\n        /* \"#utility.yul\":5668:5672   */\n      dup3\n        /* \"#utility.yul\":5664:5676   */\n      and\n        /* \"#utility.yul\":5695:5713   */\n      dup1\n        /* \"#utility.yul\":5685:5766   */\n      tag_143\n      jumpi\n        /* \"#utility.yul\":5751:5755   */\n      0x7f\n        /* \"#utility.yul\":5743:5749   */\n      dup3\n        /* \"#utility.yul\":5739:5756   */\n      and\n        /* \"#utility.yul\":5729:5756   */\n      swap2\n      pop\n        /* \"#utility.yul\":5685:5766   */\n    tag_143:\n        /* \"#utility.yul\":5813:5815   */\n      0x20\n        /* \"#utility.yul\":5805:5811   */\n      dup3\n        /* \"#utility.yul\":5802:5816   */\n      lt\n        /* \"#utility.yul\":5782:5800   */\n      dup2\n        /* \"#utility.yul\":5779:5817   */\n      sub\n        /* \"#utility.yul\":5776:5860   */\n      tag_144\n      jumpi\n        /* \"#utility.yul\":5832:5850   */\n      tag_145\n      tag_63\n      jump\t// in\n    tag_145:\n        /* \"#utility.yul\":5776:5860   */\n    tag_144:\n        /* \"#utility.yul\":5597:5866   */\n      pop\n        /* \"#utility.yul\":5546:5866   */\n      swap2\n      swap1\n      pop\n      jump\t// out\n        /* \"#utility.yul\":5872:5969   */\n    tag_64:\n        /* \"#utility.yul\":5931:5937   */\n      0x00\n        /* \"#utility.yul\":5959:5962   */\n      dup3\n        /* \"#utility.yul\":5949:5962   */\n      swap1\n      pop\n        /* \"#utility.yul\":5872:5969   */\n      swap3\n      swap2\n      pop\n      pop\n      jump\t// out\n        /* \"#utility.yul\":5975:6155   */\n    tag_65:\n        /* \"#utility.yul\":6023:6100   */\n      0x4e487b7100000000000000000000000000000000000000000000000000000000\n        /* \"#utility.yul\":6020:6021   */\n      0x00\n        /* \"#utility.yul\":6013:6101   */\n      mstore\n        /* \"#utility.yul\":6120:6124   */\n      0x41\n        /* \"#utility.yul\":6117:6118   */\n      0x04\n        /* \"#utility.yul\":6110:6125   */\n      mstore\n        /* \"#utility.yul\":6144:6148   */\n      0x24\n        /* \"#utility.yul\":6141:6142   */\n      0x00\n        /* \"#utility.yul\":6134:6149   */\n      revert\n        /* \"#utility.yul\":6161:6302   */\n    tag_66:\n        /* \"#utility.yul\":6210:6214   */\n      0x00\n        /* \"#utility.yul\":6233:6236   */\n      dup2\n        /* \"#utility.yul\":6225:6236   */\n      swap1\n      pop\n        /* \"#utility.yul\":6256:6259   */\n      dup2\n        /* \"#utility.yul\":6253:6254   */\n      0x00\n        /* \"#utility.yul\":6246:6260   */\n      mstore\n        /* \"#utility.yul\":6290:6294   */\n      0x20\n        /* \"#utility.yul\":6287:6288   */\n      0x00\n        /* \"#utility.yul\":6277:6295   */\n      keccak256\n        /* \"#utility.yul\":6269:6295   */\n      swap1\n      pop\n        /* \"#utility.yul\":6161:6302   */\n      swap2\n      swap1\n      pop\n      jump\t// out\n        /* \"#utility.yul\":6308:6401   */\n    tag_67:\n        /* \"#utility.yul\":6345:6351   */\n      0x00\n        /* \"#utility.yul\":6392:6394   */\n      0x20\n        /* \"#utility.yul\":6387:6389   */\n      0x1f\n        /* \"#utility.yul\":6380:6385   */\n      dup4\n        /* \"#utility.yul\":6376:6390   */\n      add\n        /* \"#utility.yul\":6372:6395   */\n      div\n        /* \"#utility.yul\":6362:6395   */\n      swap1\n      pop\n        /* \"#utility.yul\":6308:6401   */\n      swap2\n      swap1\n      pop\n      jump\t// out\n        /* \"#utility.yul\":6407:6514   */\n    tag_68:\n        /* \"#utility.yul\":6451:6459   */\n      0x00\n        /* \"#utility.yul\":6501:6506   */\n      dup3\n        /* \"#utility.yul\":6495:6499   */\n      dup3\n        /* \"#utility.yul\":6491:6507   */\n      shl\n        /* \"#utility.yul\":6470:6507   */\n      swap1\n      pop\n        /* \"#utility.yul\":6407:6514   */\n      swap3\n      swap2\n      pop\n      pop\n      jump\t// out\n        /* \"#utility.yul\":6520:6913   */\n    tag_69:\n        /* \"#utility.yul\":6589:6595   */\n      0x00\n        /* \"#utility.yul\":6639:6640   */\n      0x08\n        /* \"#utility.yul\":6627:6637   */\n      dup4\n        /* \"#utility.yul\":6623:6641   */\n      mul\n        /* \"#utility.yul\":6662:6759   */\n      tag_152\n        /* \"#utility.yul\":6692:6758   */\n      0xffffffffffffffffffffffffffffffffffffffffffffffffffffffffffffffff\n        /* \"#utility.yul\":6681:6690   */\n      dup3\n        /* \"#utility.yul\":6662:6759   */\n      tag_68\n      jump\t// in\n    tag_152:\n        /* \"#utility.yul\":6780:6819   */\n      tag_153\n        /* \"#utility.yul\":6810:6818   */\n      dup7\n        /* \"#utility.yul\":6799:6808   */\n      dup4\n        /* \"#utility.yul\":6780:6819   */\n      tag_68\n      jump\t// in\n    tag_153:\n        /* \"#utility.yul\":6768:6819   */\n      swap6\n      pop\n        /* \"#utility.yul\":6852:6856   */\n      dup1\n        /* \"#utility.yul\":6848:6857   */\n      not\n        /* \"#utility.yul\":6841:6846   */\n      dup5\n        /* \"#utility.yul\":6837:6858   */\n      and\n        /* \"#utility.yul\":6828:6858   */\n      swap4\n      pop\n        /* \"#utility.yul\":6901:6905   */\n      dup1\n        /* \"#utility.yul\":6891:6899   */\n      dup7\n        /* \"#utility.yul\":6887:6906   */\n      and\n        /* \"#utility.yul\":6880:6885   */\n      dup5\n        /* \"#utility.yul\":6877:6907   */\n      or\n        /* \"#utility.yul\":6867:6907   */\n      swap3\n      pop\n        /* \"#utility.yul\":6596:6913   */\n      pop\n      pop\n        /* \"#utility.yul\":6520:6913   */\n      swap4\n      swap3\n      pop\n      pop\n      pop\n      jump\t// out\n        /* \"#utility.yul\":6919:6979   */\n    tag_70:\n        /* \"#utility.yul\":6947:6950   */\n      0x00\n        /* \"#utility.yul\":6968:6973   */\n      dup2\n        /* \"#utility.yul\":6961:6973   */\n      swap1\n      pop\n        /* \"#utility.yul\":6919:6979   */\n      swap2\n      swap1\n      pop\n      jump\t// out\n        /* \"#utility.yul\":6985:7127   */\n    tag_71:\n        /* \"#utility.yul\":7035:7044   */\n      0x00\n        /* \"#utility.yul\":7068:7121   */\n      tag_156\n        /* \"#utility.yul\":7086:7120   */\n      tag_157\n        /* \"#utility.yul\":7095:7119   */\n      tag_158\n        /* \"#utility.yul\":7113:7118   */\n      dup5\n        /* \"#utility.yul\":7095:7119   */\n      tag_48\n      jump\t// in\n    tag_158:\n        /* \"#utility.yul\":7086:7120   */\n      tag_70\n      jump\t// in\n    tag_157:\n        /* \"#utility.yul\":7068:7121   */\n      tag_48\n      jump\t// in\n    tag_156:\n        /* \"#utility.yul\":7055:7121   */\n      swap1\n      pop\n        /* \"#utility.yul\":6985:7127   */\n      swap2\n      swap1\n      pop\n      jump\t// out\n        /* \"#utility.yul\":7133:7208   */\n    tag_72:\n        /* \"#utility.yul\":7176:7179   */\n      0x00\n        /* \"#utility.yul\":7197:7202   */\n      dup2\n        /* \"#utility.yul\":7190:7202   */\n      swap1\n      pop\n        /* \"#utility.yul\":7133:7208   */\n      swap2\n      swap1\n      pop\n      jump\t// out\n        /* \"#utility.yul\":7214:7483   */\n    tag_73:\n        /* \"#utility.yul\":7324:7363   */\n      tag_161\n        /* \"#utility.yul\":7355:7362   */\n      dup4\n        /* \"#utility.yul\":7324:7363   */\n      tag_71\n      jump\t// in\n    tag_161:\n        /* \"#utility.yul\":7385:7476   */\n      tag_162\n        /* \"#utility.yul\":7434:7475   */\n      tag_163\n        /* \"#utility.yul\":7458:7474   */\n      dup3\n        /* \"#utility.yul\":7434:7475   */\n      tag_72\n      jump\t// in\n    tag_163:\n        /* \"#utility.yul\":7426:7432   */\n      dup5\n        /* \"#utility.yul\":7419:7423   */\n      dup5\n        /* \"#utility.yul\":7413:7424   */\n      sload\n        /* \"#utility.yul\":7385:7476   */\n      tag_69\n      jump\t// in\n    tag_162:\n        /* \"#utility.yul\":7379:7383   */\n      dup3\n        /* \"#utility.yul\":7372:7477   */\n      sstore\n        /* \"#utility.yul\":7290:7483   */\n      pop\n        /* \"#utility.yul\":7214:7483   */\n      pop\n      pop\n      pop\n      jump\t// out\n        /* \"#utility.yul\":7489:7562   */\n    tag_74:\n        /* \"#utility.yul\":7534:7537   */\n      0x00\n        /* \"#utility.yul\":7489:7562   */\n      swap1\n      jump\t// out\n        /* \"#utility.yul\":7568:7757   */\n    tag_75:\n        /* \"#utility.yul\":7645:7677   */\n      tag_166\n      tag_74\n      jump\t// in\n    tag_166:\n        /* \"#utility.yul\":7686:7751   */\n      tag_167\n        /* \"#utility.yul\":7744:7750   */\n      dup2\n        /* \"#utility.yul\":7736:7742   */\n      dup5\n        /* \"#utility.yul\":7730:7734   */\n      dup5\n        /* \"#utility.yul\":7686:7751   */\n      tag_73\n      jump\t// in\n    tag_167:\n        /* \"#utility.yul\":7621:7757   */\n      pop\n        /* \"#utility.yul\":7568:7757   */\n      pop\n      pop\n      jump\t// out\n        /* \"#utility.yul\":7763:7949   */\n    tag_76:\n        /* \"#utility.yul\":7823:7943   */\n    tag_169:\n        /* \"#utility.yul\":7840:7843   */\n      dup2\n        /* \"#utility.yul\":7833:7838   */\n      dup2\n        /* \"#utility.yul\":7830:7844   */\n      lt\n        /* \"#utility.yul\":7823:7943   */\n      iszero\n      tag_171\n      jumpi\n        /* \"#utility.yul\":7894:7933   */\n      tag_172\n        /* \"#utility.yul\":7931:7932   */\n      0x00\n        /* \"#utility.yul\":7924:7929   */\n      dup3\n        /* \"#utility.yul\":7894:7933   */\n      tag_75\n      jump\t// in\n    tag_172:\n        /* \"#utility.yul\":7867:7868   */\n      0x01\n        /* \"#utility.yul\":7860:7865   */\n      dup2\n        /* \"#utility.yul\":7856:7869   */\n      add\n        /* \"#utility.yul\":7847:7869   */\n      swap1\n      pop\n        /* \"#utility.yul\":7823:7943   */\n      jump(tag_169)\n    tag_171:\n        /* \"#utility.yul\":7763:7949   */\n      pop\n      pop\n      jump\t// out\n        /* \"#utility.yul\":7955:8498   */\n    tag_77:\n        /* \"#utility.yul\":8056:8058   */\n      0x1f\n        /* \"#utility.yul\":8051:8054   */\n      dup3\n        /* \"#utility.yul\":8048:8059   */\n      gt\n        /* \"#utility.yul\":8045:8491   */\n      iszero\n      tag_174\n      jumpi\n        /* \"#utility.yul\":8090:8128   */\n      tag_175\n        /* \"#utility.yul\":8122:8127   */\n      dup2\n        /* \"#utility.yul\":8090:8128   */\n      tag_66\n      jump\t// in\n    tag_175:\n        /* \"#utility.yul\":8174:8203   */\n      tag_176\n        /* \"#utility.yul\":8192:8202   */\n      dup5\n        /* \"#utility.yul\":8174:8203   */\n      tag_67\n      jump\t// in\n    tag_176:\n        /* \"#utility.yul\":8164:8172   */\n      dup2\n        /* \"#utility.yul\":8160:8204   */\n      add\n        /* \"#utility.yul\":8357:8359   */\n      0x20\n        /* \"#utility.yul\":8345:8355   */\n      dup6\n        /* \"#utility.yul\":8342:8360   */\n      lt\n        /* \"#utility.yul\":8339:8388   */\n      iszero\n      tag_177\n      jumpi\n        /* \"#utility.yul\":8378:8386   */\n      dup2\n        /* \"#utility.yul\":8363:8386   */\n      swap1\n      pop\n        /* \"#utility.yul\":8339:8388   */\n    tag_177:\n        /* \"#utility.yul\":8401:8481   */\n      tag_178\n        /* \"#utility.yul\":8457:8479   */\n      tag_179\n        /* \"#utility.yul\":8475:8478   */\n      dup6\n        /* \"#utility.yul\":8457:8479   */\n      tag_67\n      jump\t// in\n    tag_179:\n        /* \"#utility.yul\":8447:8455   */\n      dup4\n        /* \"#utility.yul\":8443:8480   */\n      add\n        /* \"#utility.yul\":8430:8441   */\n      dup3\n        /* \"#utility.yul\":8401:8481   */\n      tag_76\n      jump\t// in\n    tag_178:\n        /* \"#utility.yul\":8060:8491   */\n      pop\n      pop\n        /* \"#utility.yul\":8045:8491   */\n    tag_174:\n        /* \"#utility.yul\":7955:8498   */\n      pop\n      pop\n      pop\n      jump\t// out\n        /* \"#utility.yul\":8504:8621   */\n    tag_78:\n        /* \"#utility.yul\":8558:8566   */\n      0x00\n        /* \"#utility.yul\":8608:8613   */\n      dup3\n        /* \"#utility.yul\":8602:8606   */\n      dup3\n        /* \"#utility.yul\":8598:8614   */\n      shr\n        /* \"#utility.yul\":8577:8614   */\n      swap1\n      pop\n        /* \"#utility.yul\":8504:8621   */\n      swap3\n      swap2\n      pop\n      pop\n      jump\t// out\n        /* \"#utility.yul\":8627:8796   */\n    tag_79:\n        /* \"#utility.yul\":8671:8677   */\n      0x00\n        /* \"#utility.yul\":8704:8755   */\n      tag_182\n        /* \"#utility.yul\":8752:8753   */\n      0x00\n        /* \"#utility.yul\":8748:8754   */\n      not\n        /* \"#utility.yul\":8740:8745   */\n      dup5\n        /* \"#utility.yul\":8737:8738   */\n      0x08\n        /* \"#utility.yul\":8733:8746   */\n      mul\n        /* \"#utility.yul\":8704:8755   */\n      tag_78\n      jump\t// in\n    tag_182:\n        /* \"#utility.yul\":8700:8756   */\n      not\n        /* \"#utility.yul\":8785:8789   */\n      dup1\n        /* \"#utility.yul\":8779:8783   */\n      dup4\n        /* \"#utility.yul\":8775:8790   */\n      and\n        /* \"#utility.yul\":8765:8790   */\n      swap2\n      pop\n        /* \"#utility.yul\":8678:8796   */\n      pop\n        /* \"#utility.yul\":8627:8796   */\n      swap3\n      swap2\n      pop\n      pop\n      jump\t// out\n        /* \"#utility.yul\":8801:9096   */\n    tag_80:\n        /* \"#utility.yul\":8877:8881   */\n      0x00\n        /* \"#utility.yul\":9023:9052   */\n      tag_184\n        /* \"#utility.yul\":9048:9051   */\n      dup4\n        /* \"#utility.yul\":9042:9046   */\n      dup4\n        /* \"#utility.yul\":9023:9052   */\n      tag_79\n      jump\t// in\n    tag_184:\n        /* \"#utility.yul\":9015:9052   */\n      swap2\n      pop\n        /* \"#utility.yul\":9085:9088   */\n      dup3\n        /* \"#utility.yul\":9082:9083   */\n      0x02\n        /* \"#utility.yul\":9078:9089   */\n      mul\n        /* \"#utility.yul\":9072:9076   */\n      dup3\n        /* \"#utility.yul\":9069:9090   */\n      or\n        /* \"#utility.yul\":9061:9090   */\n      swap1\n      pop\n        /* \"#utility.yul\":8801:9096   */\n      swap3\n      swap2\n      pop\n      pop\n      jump\t// out\n        /* \"#utility.yul\":9101:10504   */\n    tag_42:\n        /* \"#utility.yul\":9225:9269   */\n      tag_186\n        /* \"#utility.yul\":9265:9268   */\n      dup4\n        /* \"#utility.yul\":9260:9263   */\n      dup4\n        /* \"#utility.yul\":9225:9269   */\n      tag_64\n      jump\t// in\n    tag_186:\n        /* \"#utility.yul\":9334:9352   */\n      0xffffffffffffffff\n        /* \"#utility.yul\":9326:9332   */\n      dup2\n        /* \"#utility.yul\":9323:9353   */\n      gt\n        /* \"#utility.yul\":9320:9376   */\n      iszero\n      tag_187\n      jumpi\n        /* \"#utility.yul\":9356:9374   */\n      tag_188\n      tag_65\n      jump\t// in\n    tag_188:\n        /* \"#utility.yul\":9320:9376   */\n    tag_187:\n        /* \"#utility.yul\":9400:9438   */\n      tag_189\n        /* \"#utility.yul\":9432:9436   */\n      dup3\n        /* \"#utility.yul\":9426:9437   */\n      sload\n        /* \"#utility.yul\":9400:9438   */\n      tag_29\n      jump\t// in\n    tag_189:\n        /* \"#utility.yul\":9485:9552   */\n      tag_190\n        /* \"#utility.yul\":9545:9551   */\n      dup3\n        /* \"#utility.yul\":9537:9543   */\n      dup3\n        /* \"#utility.yul\":9531:9535   */\n      dup6\n        /* \"#utility.yul\":9485:9552   */\n      tag_77\n      jump\t// in\n    tag_190:\n        /* \"#utility.yul\":9579:9580   */\n      0x00\n        /* \"#utility.yul\":9608:9610   */\n      0x1f\n        /* \"#utility.yul\":9600:9606   */\n      dup4\n        /* \"#utility.yul\":9597:9611   */\n      gt\n        /* \"#utility.yul\":9625:9626   */\n      0x01\n        /* \"#utility.yul\":9620:10252   */\n      dup2\n      eq\n      tag_192\n      jumpi\n        /* \"#utility.yul\":10296:10297   */\n      0x00\n        /* \"#utility.yul\":10313:10319   */\n      dup5\n        /* \"#utility.yul\":10310:10394   */\n      iszero\n      tag_193\n      jumpi\n        /* \"#utility.yul\":10369:10378   */\n      dup3\n        /* \"#utility.yul\":10364:10367   */\n      dup8\n        /* \"#utility.yul\":10360:10379   */\n      add\n        /* \"#utility.yul\":10347:10380   */\n      calldataload\n        /* \"#utility.yul\":10338:10380   */\n      swap1\n      pop\n        /* \"#utility.yul\":10310:10394   */\n    tag_193:\n        /* \"#utility.yul\":10420:10487   */\n      tag_194\n        /* \"#utility.yul\":10480:10486   */\n      dup6\n        /* \"#utility.yul\":10473:10478   */\n      dup3\n        /* \"#utility.yul\":10420:10487   */\n      tag_80\n      jump\t// in\n    tag_194:\n        /* \"#utility.yul\":10414:10418   */\n      dup7\n        /* \"#utility.yul\":10407:10488   */\n      sstore\n        /* \"#utility.yul\":10269:10498   */\n      pop\n        /* \"#utility.yul\":9590:10498   */\n      jump(tag_191)\n        /* \"#utility.yul\":9620:10252   */\n    tag_192:\n        /* \"#utility.yul\":9672:9676   */\n      0x1f\n        /* \"#utility.yul\":9668:9677   */\n      not\n        /* \"#utility.yul\":9660:9666   */\n      dup5\n        /* \"#utility.yul\":9656:9678   */\n      and\n        /* \"#utility.yul\":9706:9743   */\n      tag_195\n        /* \"#utility.yul\":9738:9742   */\n      dup7\n        /* \"#utility.yul\":9706:9743   */\n      tag_66\n      jump\t// in\n    tag_195:\n        /* \"#utility.yul\":9765:9766   */\n      0x00\n        /* \"#utility.yul\":9779:9994   */\n    tag_196:\n        /* \"#utility.yul\":9793:9800   */\n      dup3\n        /* \"#utility.yul\":9790:9791   */\n      dup2\n        /* \"#utility.yul\":9787:9801   */\n      lt\n        /* \"#utility.yul\":9779:9994   */\n      iszero\n      tag_198\n      jumpi\n        /* \"#utility.yul\":9879:9888   */\n      dup5\n        /* \"#utility.yul\":9874:9877   */\n      dup10\n        /* \"#utility.yul\":9870:9889   */\n      add\n        /* \"#utility.yul\":9857:9890   */\n      calldataload\n        /* \"#utility.yul\":9849:9855   */\n      dup3\n        /* \"#utility.yul\":9842:9891   */\n      sstore\n        /* \"#utility.yul\":9930:9931   */\n      0x01\n        /* \"#utility.yul\":9922:9928   */\n      dup3\n        /* \"#utility.yul\":9918:9932   */\n      add\n        /* \"#utility.yul\":9908:9932   */\n      swap2\n      pop\n        /* \"#utility.yul\":9977:9979   */\n      0x20\n        /* \"#utility.yul\":9966:9975   */\n      dup6\n        /* \"#utility.yul\":9962:9980   */\n      add\n        /* \"#utility.yul\":9949:9980   */\n      swap5\n      pop\n        /* \"#utility.yul\":9816:9820   */\n      0x20\n        /* \"#utility.yul\":9813:9814   */\n      dup2\n        /* \"#utility.yul\":9809:9821   */\n      add\n        /* \"#utility.yul\":9804:9821   */\n      swap1\n      pop\n        /* \"#utility.yul\":9779:9994   */\n      jump(tag_196)\n    tag_198:\n        /* \"#utility.yul\":10022:10028   */\n      dup7\n        /* \"#utility.yul\":10013:10020   */\n      dup4\n        /* \"#utility.yul\":10010:10029   */\n      lt\n        /* \"#utility.yul\":10007:10193   */\n      iszero\n      tag_199\n      jumpi\n        /* \"#utility.yul\":10087:10096   */\n      dup5\n        /* \"#utility.yul\":10082:10085   */\n      dup10\n        /* \"#utility.yul\":10078:10097   */\n      add\n        /* \"#utility.yul\":10065:10098   */\n      calldataload\n        /* \"#utility.yul\":10130:10178   */\n      tag_200\n        /* \"#utility.yul\":10172:10176   */\n      0x1f\n        /* \"#utility.yul\":10164:10170   */\n      dup10\n        /* \"#utility.yul\":10160:10177   */\n      and\n        /* \"#utility.yul\":10149:10158   */\n      dup3\n        /* \"#utility.yul\":10130:10178   */\n      tag_79\n      jump\t// in\n    tag_200:\n        /* \"#utility.yul\":10122:10128   */\n      dup4\n        /* \"#utility.yul\":10115:10179   */\n      sstore\n        /* \"#utility.yul\":10030:10193   */\n      pop\n        /* \"#utility.yul\":10007:10193   */\n    tag_199:\n        /* \"#utility.yul\":10239:10240   */\n      0x01\n        /* \"#utility.yul\":10235:10236   */\n      0x02\n        /* \"#utility.yul\":10227:10233   */\n      dup9\n        /* \"#utility.yul\":10223:10237   */\n      mul\n        /* \"#utility.yul\":10219:10241   */\n      add\n        /* \"#utility.yul\":10213:10217   */\n      dup9\n        /* \"#utility.yul\":10206:10242   */\n      sstore\n        /* \"#utility.yul\":9627:10252   */\n      pop\n      pop\n      pop\n        /* \"#utility.yul\":9590:10498   */\n    tag_191:\n      pop\n        /* \"#utility.yul\":9200:10504   */\n      pop\n      pop\n      pop\n        /* \"#utility.yul\":9101:10504   */\n      pop\n      pop\n      pop\n      jump\t// out\n\n    auxdata: 0xa264697066735822122087fa234d24def057ae065bea14ce99b64ec2153eb8827bcfe1f26383fcbf761764736f6c63430008160033\n}\n",
				"bytecode": {
					"linkReferences": {},
					"object": "608060405234801561000f575f80fd5b506108218061001d5f395ff3fe608060405234801561000f575f80fd5b5060043610610055575f3560e01c806306fcb528146100595780632e64cec1146100775780633c8df6521461009757806371357deb146100b5578063ab9f40f9146100d3575b5f80fd5b6100616100ef565b60405161006e91906102ff565b60405180910390f35b61007f61017b565b60405161008e93929190610351565b60405180910390f35b61009f610227565b6040516100ac919061038d565b60405180910390f35b6100bd61022c565b6040516100ca91906103a6565b60405180910390f35b6100ed60048036038101906100e8919061047c565b61023e565b005b600280546100fc9061051a565b80601f01602080910402602001604051908101604052809291908181526020018280546101289061051a565b80156101735780601f1061014a57610100808354040283529160200191610173565b820191905f5260205f20905b81548152906001019060200180831161015657829003601f168201915b505050505081565b5f8060605f5460015f9054906101000a900460ff16600280805461019e9061051a565b80601f01602080910402602001604051908101604052809291908181526020018280546101ca9061051a565b80156102155780601f106101ec57610100808354040283529160200191610215565b820191905f5260205f20905b8154815290600101906020018083116101f857829003601f168201915b50505050509050925092509250909192565b5f5481565b60015f9054906101000a900460ff1681565b835f819055508260015f6101000a81548160ff02191690831515021790555081816002918261026e92919061071e565b5050505050565b5f81519050919050565b5f82825260208201905092915050565b5f5b838110156102ac578082015181840152602081019050610291565b5f8484015250505050565b5f601f19601f8301169050919050565b5f6102d182610275565b6102db818561027f565b93506102eb81856020860161028f565b6102f4816102b7565b840191505092915050565b5f6020820190508181035f83015261031781846102c7565b905092915050565b5f819050919050565b6103318161031f565b82525050565b5f8115159050919050565b61034b81610337565b82525050565b5f6060820190506103645f830186610328565b6103716020830185610342565b818103604083015261038381846102c7565b9050949350505050565b5f6020820190506103a05f830184610328565b92915050565b5f6020820190506103b95f830184610342565b92915050565b5f80fd5b5f80fd5b6103d08161031f565b81146103da575f80fd5b50565b5f813590506103eb816103c7565b92915050565b6103fa81610337565b8114610404575f80fd5b50565b5f81359050610415816103f1565b92915050565b5f80fd5b5f80fd5b5f80fd5b5f8083601f84011261043c5761043b61041b565b5b8235905067ffffffffffffffff8111156104595761045861041f565b5b60208301915083600182028301111561047557610474610423565b5b9250929050565b5f805f8060608587031215610494576104936103bf565b5b5f6104a1878288016103dd565b94505060206104b287828801610407565b935050604085013567ffffffffffffffff8111156104d3576104d26103c3565b5b6104df87828801610427565b925092505092959194509250565b7f4e487b71000000000000000000000000000000000000000000000000000000005f52602260045260245ffd5b5f600282049050600182168061053157607f821691505b602082108103610544576105436104ed565b5b50919050565b5f82905092915050565b7f4e487b71000000000000000000000000000000000000000000000000000000005f52604160045260245ffd5b5f819050815f5260205f209050919050565b5f6020601f8301049050919050565b5f82821b905092915050565b5f600883026105dd7fffffffffffffffffffffffffffffffffffffffffffffffffffffffffffffffff826105a2565b6105e786836105a2565b95508019841693508086168417925050509392505050565b5f819050919050565b5f61062261061d6106188461031f565b6105ff565b61031f565b9050919050565b5f819050919050565b61063b83610608565b61064f61064782610629565b8484546105ae565b825550505050565b5f90565b610663610657565b61066e818484610632565b505050565b5b81811015610691576106865f8261065b565b600181019050610674565b5050565b601f8211156106d6576106a781610581565b6106b084610593565b810160208510156106bf578190505b6106d36106cb85610593565b830182610673565b50505b505050565b5f82821c905092915050565b5f6106f65f19846008026106db565b1980831691505092915050565b5f61070e83836106e7565b9150826002028217905092915050565b610728838361054a565b67ffffffffffffffff81111561074157610740610554565b5b61074b825461051a565b610756828285610695565b5f601f831160018114610783575f8415610771578287013590505b61077b8582610703565b8655506107e2565b601f19841661079186610581565b5f5b828110156107b857848901358255600182019150602085019450602081019050610793565b868310156107d557848901356107d1601f8916826106e7565b8355505b6001600288020188555050505b5050505050505056fea264697066735822122087fa234d24def057ae065bea14ce99b64ec2153eb8827bcfe1f26383fcbf761764736f6c63430008160033",
					"opcodes": "PUSH1 0x80 PUSH1 0x40 MSTORE CALLVALUE DUP1 ISZERO PUSH2 0xF JUMPI PUSH0 DUP1 REVERT JUMPDEST POP PUSH2 0x821 DUP1 PUSH2 0x1D PUSH0 CODECOPY PUSH0 RETURN INVALID PUSH1 0x80 PUSH1 0x40 MSTORE CALLVALUE DUP1 ISZERO PUSH2 0xF JUMPI PUSH0 DUP1 REVERT JUMPDEST POP PUSH1 0x4 CALLDATASIZE LT PUSH2 0x55 JUMPI PUSH0 CALLDATALOAD PUSH1 0xE0 SHR DUP1 PUSH4 0x6FCB528 EQ PUSH2 0x59 JUMPI DUP1 PUSH4 0x2E64CEC1 EQ PUSH2 0x77 JUMPI DUP1 PUSH4 0x3C8DF652 EQ PUSH2 0x97 JUMPI DUP1 PUSH4 0x71357DEB EQ PUSH2 0xB5 JUMPI DUP1 PUSH4 0xAB9F40F9 EQ PUSH2 0xD3 JUMPI JUMPDEST PUSH0 DUP1 REVERT JUMPDEST PUSH2 0x61 PUSH2 0xEF JUMP JUMPDEST PUSH1 0x40 MLOAD PUSH2 0x6E SWAP2 SWAP1 PUSH2 0x2FF JUMP JUMPDEST PUSH1 0x40 MLOAD DUP1 SWAP2 SUB SWAP1 RETURN JUMPDEST PUSH2 0x7F PUSH2 0x17B JUMP JUMPDEST PUSH1 0x40 MLOAD PUSH2 0x8E SWAP4 SWAP3 SWAP2 SWAP1 PUSH2 0x351 JUMP JUMPDEST PUSH1 0x40 MLOAD DUP1 SWAP2 SUB SWAP1 RETURN JUMPDEST PUSH2 0x9F PUSH2 0x227 JUMP JUMPDEST PUSH1 0x40 MLOAD PUSH2 0xAC SWAP2 SWAP1 PUSH2 0x38D JUMP JUMPDEST PUSH1 0x40 MLOAD DUP1 SWAP2 SUB SWAP1 RETURN JUMPDEST PUSH2 0xBD PUSH2 0x22C JUMP JUMPDEST PUSH1 0x40 MLOAD PUSH2 0xCA SWAP2 SWAP1 PUSH2 0x3A6 JUMP JUMPDEST PUSH1 0x40 MLOAD DUP1 SWAP2 SUB SWAP1 RETURN JUMPDEST PUSH2 0xED PUSH1 0x4 DUP1 CALLDATASIZE SUB DUP2 ADD SWAP1 PUSH2 0xE8 SWAP2 SWAP1 PUSH2 0x47C JUMP JUMPDEST PUSH2 0x23E JUMP JUMPDEST STOP JUMPDEST PUSH1 0x2 DUP1 SLOAD PUSH2 0xFC SWAP1 PUSH2 0x51A JUMP JUMPDEST DUP1 PUSH1 0x1F ADD PUSH1 0x20 DUP1 SWAP2 DIV MUL PUSH1 0x20 ADD PUSH1 0x40 MLOAD SWAP1 DUP2 ADD PUSH1 0x40 MSTORE DUP1 SWAP3 SWAP2 SWAP1 DUP2 DUP2 MSTORE PUSH1 0x20 ADD DUP3 DUP1 SLOAD PUSH2 0x128 SWAP1 PUSH2 0x51A JUMP JUMPDEST DUP1 ISZERO PUSH2 0x173 JUMPI DUP1 PUSH1 0x1F LT PUSH2 0x14A JUMPI PUSH2 0x100 DUP1 DUP4 SLOAD DIV MUL DUP4 MSTORE SWAP2 PUSH1 0x20 ADD SWAP2 PUSH2 0x173 JUMP JUMPDEST DUP3 ADD SWAP2 SWAP1 PUSH0 MSTORE PUSH1 0x20 PUSH0 KECCAK256 SWAP1 JUMPDEST DUP2 SLOAD DUP2 MSTORE SWAP1 PUSH1 0x1 ADD SWAP1 PUSH1 0x20 ADD DUP1 DUP4 GT PUSH2 0x156 JUMPI DUP3 SWAP1 SUB PUSH1 0x1F AND DUP3 ADD SWAP2 JUMPDEST POP POP POP POP POP DUP2 JUMP JUMPDEST PUSH0 DUP1 PUSH1 0x60 PUSH0 SLOAD PUSH1 0x1 PUSH0 SWAP1 SLOAD SWAP1 PUSH2 0x100 EXP SWAP1 DIV PUSH1 0xFF AND PUSH1 0x2 DUP1 DUP1 SLOAD PUSH2 0x19E SWAP1 PUSH2 0x51A JUMP JUMPDEST DUP1 PUSH1 0x1F ADD PUSH1 0x20 DUP1 SWAP2 DIV MUL PUSH1 0x20 ADD PUSH1 0x40 MLOAD SWAP1 DUP2 ADD PUSH1 0x40 MSTORE DUP1 SWAP3 SWAP2 SWAP1 DUP2 DUP2 MSTORE PUSH1 0x20 ADD DUP3 DUP1 SLOAD PUSH2 0x1CA SWAP1 PUSH2 0x51A JUMP JUMPDEST DUP1 ISZERO PUSH2 0x215 JUMPI DUP1 PUSH1 0x1F LT PUSH2 0x1EC JUMPI PUSH2 0x100 DUP1 DUP4 SLOAD DIV MUL DUP4 MSTORE SWAP2 PUSH1 0x20 ADD SWAP2 PUSH2 0x215 JUMP JUMPDEST DUP3 ADD SWAP2 SWAP1 PUSH0 MSTORE PUSH1 0x20 PUSH0 KECCAK256 SWAP1 JUMPDEST DUP2 SLOAD DUP2 MSTORE SWAP1 PUSH1 0x1 ADD SWAP1 PUSH1 0x20 ADD DUP1 DUP4 GT PUSH2 0x1F8 JUMPI DUP3 SWAP1 SUB PUSH1 0x1F AND DUP3 ADD SWAP2 JUMPDEST POP POP POP POP POP SWAP1 POP SWAP3 POP SWAP3 POP SWAP3 POP SWAP1 SWAP2 SWAP3 JUMP JUMPDEST PUSH0 SLOAD DUP2 JUMP JUMPDEST PUSH1 0x1 PUSH0 SWAP1 SLOAD SWAP1 PUSH2 0x100 EXP SWAP1 DIV PUSH1 0xFF AND DUP2 JUMP JUMPDEST DUP4 PUSH0 DUP2 SWAP1 SSTORE POP DUP3 PUSH1 0x1 PUSH0 PUSH2 0x100 EXP DUP2 SLOAD DUP2 PUSH1 0xFF MUL NOT AND SWAP1 DUP4 ISZERO ISZERO MUL OR SWAP1 SSTORE POP DUP2 DUP2 PUSH1 0x2 SWAP2 DUP3 PUSH2 0x26E SWAP3 SWAP2 SWAP1 PUSH2 0x71E JUMP JUMPDEST POP POP POP POP POP JUMP JUMPDEST PUSH0 DUP2 MLOAD SWAP1 POP SWAP2 SWAP1 POP JUMP JUMPDEST PUSH0 DUP3 DUP3 MSTORE PUSH1 0x20 DUP3 ADD SWAP1 POP SWAP3 SWAP2 POP POP JUMP JUMPDEST PUSH0 JUMPDEST DUP4 DUP2 LT ISZERO PUSH2 0x2AC JUMPI DUP1 DUP3 ADD MLOAD DUP2 DUP5 ADD MSTORE PUSH1 0x20 DUP2 ADD SWAP1 POP PUSH2 0x291 JUMP JUMPDEST PUSH0 DUP5 DUP5 ADD MSTORE POP POP POP POP JUMP JUMPDEST PUSH0 PUSH1 0x1F NOT PUSH1 0x1F DUP4 ADD AND SWAP1 POP SWAP2 SWAP1 POP JUMP JUMPDEST PUSH0 PUSH2 0x2D1 DUP3 PUSH2 0x275 JUMP JUMPDEST PUSH2 0x2DB DUP2 DUP6 PUSH2 0x27F JUMP JUMPDEST SWAP4 POP PUSH2 0x2EB DUP2 DUP6 PUSH1 0x20 DUP7 ADD PUSH2 0x28F JUMP JUMPDEST PUSH2 0x2F4 DUP2 PUSH2 0x2B7 JUMP JUMPDEST DUP5 ADD SWAP2 POP POP SWAP3 SWAP2 POP POP JUMP JUMPDEST PUSH0 PUSH1 0x20 DUP3 ADD SWAP1 POP DUP2 DUP2 SUB PUSH0 DUP4 ADD MSTORE PUSH2 0x317 DUP2 DUP5 PUSH2 0x2C7 JUMP JUMPDEST SWAP1 POP SWAP3 SWAP2 POP POP JUMP JUMPDEST PUSH0 DUP2 SWAP1 POP SWAP2 SWAP1 POP JUMP JUMPDEST PUSH2 0x331 DUP2 PUSH2 0x31F JUMP JUMPDEST DUP3 MSTORE POP POP JUMP JUMPDEST PUSH0 DUP2 ISZERO ISZERO SWAP1 POP SWAP2 SWAP1 POP JUMP JUMPDEST PUSH2 0x34B DUP2 PUSH2 0x337 JUMP JUMPDEST DUP3 MSTORE POP POP JUMP JUMPDEST PUSH0 PUSH1 0x60 DUP3 ADD SWAP1 POP PUSH2 0x364 PUSH0 DUP4 ADD DUP7 PUSH2 0x328 JUMP JUMPDEST PUSH2 0x371 PUSH1 0x20 DUP4 ADD DUP6 PUSH2 0x342 JUMP JUMPDEST DUP2 DUP2 SUB PUSH1 0x40 DUP4 ADD MSTORE PUSH2 0x383 DUP2 DUP5 PUSH2 0x2C7 JUMP JUMPDEST SWAP1 POP SWAP5 SWAP4 POP POP POP POP JUMP JUMPDEST PUSH0 PUSH1 0x20 DUP3 ADD SWAP1 POP PUSH2 0x3A0 PUSH0 DUP4 ADD DUP5 PUSH2 0x328 JUMP JUMPDEST SWAP3 SWAP2 POP POP JUMP JUMPDEST PUSH0 PUSH1 0x20 DUP3 ADD SWAP1 POP PUSH2 0x3B9 PUSH0 DUP4 ADD DUP5 PUSH2 0x342 JUMP JUMPDEST SWAP3 SWAP2 POP POP JUMP JUMPDEST PUSH0 DUP1 REVERT JUMPDEST PUSH0 DUP1 REVERT JUMPDEST PUSH2 0x3D0 DUP2 PUSH2 0x31F JUMP JUMPDEST DUP2 EQ PUSH2 0x3DA JUMPI PUSH0 DUP1 REVERT JUMPDEST POP JUMP JUMPDEST PUSH0 DUP2 CALLDATALOAD SWAP1 POP PUSH2 0x3EB DUP2 PUSH2 0x3C7 JUMP JUMPDEST SWAP3 SWAP2 POP POP JUMP JUMPDEST PUSH2 0x3FA DUP2 PUSH2 0x337 JUMP JUMPDEST DUP2 EQ PUSH2 0x404 JUMPI PUSH0 DUP1 REVERT JUMPDEST POP JUMP JUMPDEST PUSH0 DUP2 CALLDATALOAD SWAP1 POP PUSH2 0x415 DUP2 PUSH2 0x3F1 JUMP JUMPDEST SWAP3 SWAP2 POP POP JUMP JUMPDEST PUSH0 DUP1 REVERT JUMPDEST PUSH0 DUP1 REVERT JUMPDEST PUSH0 DUP1 REVERT JUMPDEST PUSH0 DUP1 DUP4 PUSH1 0x1F DUP5 ADD SLT PUSH2 0x43C JUMPI PUSH2 0x43B PUSH2 0x41B JUMP JUMPDEST JUMPDEST DUP3 CALLDATALOAD SWAP1 POP PUSH8 0xFFFFFFFFFFFFFFFF DUP2 GT ISZERO PUSH2 0x459 JUMPI PUSH2 0x458 PUSH2 0x41F JUMP JUMPDEST JUMPDEST PUSH1 0x20 DUP4 ADD SWAP2 POP DUP4 PUSH1 0x1 DUP3 MUL DUP4 ADD GT ISZERO PUSH2 0x475 JUMPI PUSH2 0x474 PUSH2 0x423 JUMP JUMPDEST JUMPDEST SWAP3 POP SWAP3 SWAP1 POP JUMP JUMPDEST PUSH0 DUP1 PUSH0 DUP1 PUSH1 0x60 DUP6 DUP8 SUB SLT ISZERO PUSH2 0x494 JUMPI PUSH2 0x493 PUSH2 0x3BF JUMP JUMPDEST JUMPDEST PUSH0 PUSH2 0x4A1 DUP8 DUP3 DUP9 ADD PUSH2 0x3DD JUMP JUMPDEST SWAP5 POP POP PUSH1 0x20 PUSH2 0x4B2 DUP8 DUP3 DUP9 ADD PUSH2 0x407 JUMP JUMPDEST SWAP4 POP POP PUSH1 0x40 DUP6 ADD CALLDATALOAD PUSH8 0xFFFFFFFFFFFFFFFF DUP2 GT ISZERO PUSH2 0x4D3 JUMPI PUSH2 0x4D2 PUSH2 0x3C3 JUMP JUMPDEST JUMPDEST PUSH2 0x4DF DUP8 DUP3 DUP9 ADD PUSH2 0x427 JUMP JUMPDEST SWAP3 POP SWAP3 POP POP SWAP3 SWAP6 SWAP2 SWAP5 POP SWAP3 POP JUMP JUMPDEST PUSH32 0x4E487B7100000000000000000000000000000000000000000000000000000000 PUSH0 MSTORE PUSH1 0x22 PUSH1 0x4 MSTORE PUSH1 0x24 PUSH0 REVERT JUMPDEST PUSH0 PUSH1 0x2 DUP3 DIV SWAP1 POP PUSH1 0x1 DUP3 AND DUP1 PUSH2 0x531 JUMPI PUSH1 0x7F DUP3 AND SWAP2 POP JUMPDEST PUSH1 0x20 DUP3 LT DUP2 SUB PUSH2 0x544 JUMPI PUSH2 0x543 PUSH2 0x4ED JUMP JUMPDEST JUMPDEST POP SWAP2 SWAP1 POP JUMP JUMPDEST PUSH0 DUP3 SWAP1 POP SWAP3 SWAP2 POP POP JUMP JUMPDEST PUSH32 0x4E487B7100000000000000000000000000000000000000000000000000000000 PUSH0 MSTORE PUSH1 0x41 PUSH1 0x4 MSTORE PUSH1 0x24 PUSH0 REVERT JUMPDEST PUSH0 DUP2 SWAP1 POP DUP2 PUSH0 MSTORE PUSH1 0x20 PUSH0 KECCAK256 SWAP1 POP SWAP2 SWAP1 POP JUMP JUMPDEST PUSH0 PUSH1 0x20 PUSH1 0x1F DUP4 ADD DIV SWAP1 POP SWAP2 SWAP1 POP JUMP JUMPDEST PUSH0 DUP3 DUP3 SHL SWAP1 POP SWAP3 SWAP2 POP POP JUMP JUMPDEST PUSH0 PUSH1 0x8 DUP4 MUL PUSH2 0x5DD PUSH32 0xFFFFFFFFFFFFFFFFFFFFFFFFFFFFFFFFFFFFFFFFFFFFFFFFFFFFFFFFFFFFFFFF DUP3 PUSH2 0x5A2 JUMP JUMPDEST PUSH2 0x5E7 DUP7 DUP4 PUSH2 0x5A2 JUMP JUMPDEST SWAP6 POP DUP1 NOT DUP5 AND SWAP4 POP DUP1 DUP7 AND DUP5 OR SWAP3 POP POP POP SWAP4 SWAP3 POP POP POP JUMP JUMPDEST PUSH0 DUP2 SWAP1 POP SWAP2 SWAP1 POP JUMP JUMPDEST PUSH0 PUSH2 0x622 PUSH2 0x61D PUSH2 0x618 DUP5 PUSH2 0x31F JUMP JUMPDEST PUSH2 0x5FF JUMP JUMPDEST PUSH2 0x31F JUMP JUMPDEST SWAP1 POP SWAP2 SWAP1 POP JUMP JUMPDEST PUSH0 DUP2 SWAP1 POP SWAP2 SWAP1 POP JUMP JUMPDEST PUSH2 0x63B DUP4 PUSH2 0x608 JUMP JUMPDEST PUSH2 0x64F PUSH2 0x647 DUP3 PUSH2 0x629 JUMP JUMPDEST DUP5 DUP5 SLOAD PUSH2 0x5AE JUMP JUMPDEST DUP3 SSTORE POP POP POP POP JUMP JUMPDEST PUSH0 SWAP1 JUMP JUMPDEST PUSH2 0x663 PUSH2 0x657 JUMP JUMPDEST PUSH2 0x66E DUP2 DUP5 DUP5 PUSH2 0x632 JUMP JUMPDEST POP POP POP JUMP JUMPDEST JUMPDEST DUP2 DUP2 LT ISZERO PUSH2 0x691 JUMPI PUSH2 0x686 PUSH0 DUP3 PUSH2 0x65B JUMP JUMPDEST PUSH1 0x1 DUP2 ADD SWAP1 POP PUSH2 0x674 JUMP JUMPDEST POP POP JUMP JUMPDEST PUSH1 0x1F DUP3 GT ISZERO PUSH2 0x6D6 JUMPI PUSH2 0x6A7 DUP2 PUSH2 0x581 JUMP JUMPDEST PUSH2 0x6B0 DUP5 PUSH2 0x593 JUMP JUMPDEST DUP2 ADD PUSH1 0x20 DUP6 LT ISZERO PUSH2 0x6BF JUMPI DUP2 SWAP1 POP JUMPDEST PUSH2 0x6D3 PUSH2 0x6CB DUP6 PUSH2 0x593 JUMP JUMPDEST DUP4 ADD DUP3 PUSH2 0x673 JUMP JUMPDEST POP POP JUMPDEST POP POP POP JUMP JUMPDEST PUSH0 DUP3 DUP3 SHR SWAP1 POP SWAP3 SWAP2 POP POP JUMP JUMPDEST PUSH0 PUSH2 0x6F6 PUSH0 NOT DUP5 PUSH1 0x8 MUL PUSH2 0x6DB JUMP JUMPDEST NOT DUP1 DUP4 AND SWAP2 POP POP SWAP3 SWAP2 POP POP JUMP JUMPDEST PUSH0 PUSH2 0x70E DUP4 DUP4 PUSH2 0x6E7 JUMP JUMPDEST SWAP2 POP DUP3 PUSH1 0x2 MUL DUP3 OR SWAP1 POP SWAP3 SWAP2 POP POP JUMP JUMPDEST PUSH2 0x728 DUP4 DUP4 PUSH2 0x54A JUMP JUMPDEST PUSH8 0xFFFFFFFFFFFFFFFF DUP2 GT ISZERO PUSH2 0x741 JUMPI PUSH2 0x740 PUSH2 0x554 JUMP JUMPDEST JUMPDEST PUSH2 0x74B DUP3 SLOAD PUSH2 0x51A JUMP JUMPDEST PUSH2 0x756 DUP3 DUP3 DUP6 PUSH2 0x695 JUMP JUMPDEST PUSH0 PUSH1 0x1F DUP4 GT PUSH1 0x1 DUP2 EQ PUSH2 0x783 JUMPI PUSH0 DUP5 ISZERO PUSH2 0x771 JUMPI DUP3 DUP8 ADD CALLDATALOAD SWAP1 POP JUMPDEST PUSH2 0x77B DUP6 DUP3 PUSH2 0x703 JUMP JUMPDEST DUP7 SSTORE POP PUSH2 0x7E2 JUMP JUMPDEST PUSH1 0x1F NOT DUP5 AND PUSH2 0x791 DUP7 PUSH2 0x581 JUMP JUMPDEST PUSH0 JUMPDEST DUP3 DUP2 LT ISZERO PUSH2 0x7B8 JUMPI DUP5 DUP10 ADD CALLDATALOAD DUP3 SSTORE PUSH1 0x1 DUP3 ADD SWAP2 POP PUSH1 0x20 DUP6 ADD SWAP5 POP PUSH1 0x20 DUP2 ADD SWAP1 POP PUSH2 0x793 JUMP JUMPDEST DUP7 DUP4 LT ISZERO PUSH2 0x7D5 JUMPI DUP5 DUP10 ADD CALLDATALOAD PUSH2 0x7D1 PUSH1 0x1F DUP10 AND DUP3 PUSH2 0x6E7 JUMP JUMPDEST DUP4 SSTORE POP JUMPDEST PUSH1 0x1 PUSH1 0x2 DUP9 MUL ADD DUP9 SSTORE POP POP POP JUMPDEST POP POP POP POP POP POP POP JUMP INVALID LOG2 PUSH5 0x6970667358 0x22 SLT KECCAK256 DUP8 STATICCALL 0x23 0x4D 0x24 0xDE CREATE JUMPI 0xAE MOD JUMPDEST 0xEA EQ 0xCE SWAP10 0xB6 0x4E 0xC2 ISZERO RETURNDATACOPY 0xB8 DUP3 PUSH28 0xCFE1F26383FCBF761764736F6C634300081600330000000000000000 "
				},
				"gasEstimates": {
					"creation": {
						"codeDepositCost": "416200",
						"executionCost": "453",
						"totalCost": "416653"
					},
					"external": {
						"changeFavs(uint256,bool,string)": "infinite",
						"favChoice()": "2510",
						"favNum()": "2446",
						"favWord()": "infinite",
						"retrieve()": "infinite"
					}
				},
				"methodIdentifiers": {
					"changeFavs(uint256,bool,string)": "ab9f40f9",
					"favChoice()": "71357deb",
					"favNum()": "3c8df652",
					"favWord()": "06fcb528",
					"retrieve()": "2e64cec1"
				}
			},
			"storageLayout": {
				"storage": [
					{
						"astId": 3,
						"contract": "contracts/PracticeTillFour.sol:PracticeSession",
						"label": "favNum",
						"offset": 0,
						"slot": "0",
						"type": "t_uint256"
					},
					{
						"astId": 5,
						"contract": "contracts/PracticeTillFour.sol:PracticeSession",
						"label": "favChoice",
						"offset": 0,
						"slot": "1",
						"type": "t_bool"
					},
					{
						"astId": 7,
						"contract": "contracts/PracticeTillFour.sol:PracticeSession",
						"label": "favWord",
						"offset": 0,
						"slot": "2",
						"type": "t_string_storage"
					}
				],
				"types": {
					"t_bool": {
						"encoding": "inplace",
						"label": "bool",
						"numberOfBytes": "1"
					},
					"t_string_storage": {
						"encoding": "bytes",
						"label": "string",
						"numberOfBytes": "32"
					},
					"t_uint256": {
						"encoding": "inplace",
						"label": "uint256",
						"numberOfBytes": "32"
					}
				}
			},
			"userdoc": {
				"kind": "user",
				"methods": {},
				"version": 1
			}
		}
	}
}