{
	"contracts/07_FundMe.sol": {
		"FundMe": {
			"abi": [
				{
					"inputs": [],
					"stateMutability": "nonpayable",
					"type": "constructor"
				},
				{
					"stateMutability": "payable",
					"type": "fallback"
				},
				{
					"inputs": [],
					"name": "MINIMUM_USD",
					"outputs": [
						{
							"internalType": "uint256",
							"name": "",
							"type": "uint256"
						}
					],
					"stateMutability": "view",
					"type": "function"
				},
				{
					"inputs": [
						{
							"internalType": "address",
							"name": "",
							"type": "address"
						}
					],
					"name": "addressToAmountFunded",
					"outputs": [
						{
							"internalType": "uint256",
							"name": "",
							"type": "uint256"
						}
					],
					"stateMutability": "view",
					"type": "function"
				},
				{
					"inputs": [],
					"name": "fund",
					"outputs": [],
					"stateMutability": "payable",
					"type": "function"
				},
				{
					"inputs": [
						{
							"internalType": "uint256",
							"name": "",
							"type": "uint256"
						}
					],
					"name": "funders",
					"outputs": [
						{
							"internalType": "address",
							"name": "",
							"type": "address"
						}
					],
					"stateMutability": "view",
					"type": "function"
				},
				{
					"inputs": [
						{
							"internalType": "uint256",
							"name": "ethAmount",
							"type": "uint256"
						}
					],
					"name": "getConversionRate",
					"outputs": [
						{
							"internalType": "uint256",
							"name": "",
							"type": "uint256"
						}
					],
					"stateMutability": "view",
					"type": "function"
				},
				{
					"inputs": [],
					"name": "getPrice",
					"outputs": [
						{
							"internalType": "uint256",
							"name": "",
							"type": "uint256"
						}
					],
					"stateMutability": "view",
					"type": "function"
				},
				{
					"inputs": [],
					"name": "getVersion",
					"outputs": [
						{
							"internalType": "uint256",
							"name": "",
							"type": "uint256"
						}
					],
					"stateMutability": "view",
					"type": "function"
				},
				{
					"inputs": [],
					"name": "owner",
					"outputs": [
						{
							"internalType": "address",
							"name": "",
							"type": "address"
						}
					],
					"stateMutability": "view",
					"type": "function"
				},
				{
					"inputs": [],
					"name": "withdraw",
					"outputs": [],
					"stateMutability": "nonpayable",
					"type": "function"
				},
				{
					"stateMutability": "payable",
					"type": "receive"
				}
			],
			"devdoc": {
				"kind": "dev",
				"methods": {},
				"version": 1
			},
			"evm": {
				"assembly": "    /* \"contracts/07_FundMe.sol\":1464:5597  contract FundMe {... */\n  mstore(0x40, 0xa0)\n    /* \"contracts/07_FundMe.sol\":1781:1832  constructor() {... */\n  callvalue\n  dup1\n  iszero\n  tag_1\n  jumpi\n  0x00\n  dup1\n  revert\ntag_1:\n  pop\n    /* \"contracts/07_FundMe.sol\":1814:1824  msg.sender */\n  caller\n    /* \"contracts/07_FundMe.sol\":1806:1824  owner = msg.sender */\n  0xffffffffffffffffffffffffffffffffffffffff\n  and\n  0x80\n  dup2\n  0xffffffffffffffffffffffffffffffffffffffff\n  and\n  dup2\n  mstore\n  pop\n  pop\n    /* \"contracts/07_FundMe.sol\":1464:5597  contract FundMe {... */\n  mload(0x80)\n  codecopy(0x00, dataOffset(sub_0), dataSize(sub_0))\n  0x00\n  assignImmutable(\"0x646d998f946f968f0675fd4e3cb527e1222094ea0d9cc1fd615146a8fe29802e\")\n  return(0x00, dataSize(sub_0))\nstop\n\nsub_0: assembly {\n        /* \"contracts/07_FundMe.sol\":1464:5597  contract FundMe {... */\n      mstore(0x40, 0x80)\n      jumpi(tag_1, lt(calldatasize, 0x04))\n      shr(0xe0, calldataload(0x00))\n      dup1\n      0x6e5b6b28\n      gt\n      tag_12\n      jumpi\n      dup1\n      0x6e5b6b28\n      eq\n      tag_7\n      jumpi\n      dup1\n      0x8da5cb5b\n      eq\n      tag_8\n      jumpi\n      dup1\n      0x98d5fdca\n      eq\n      tag_9\n      jumpi\n      dup1\n      0xb60d4288\n      eq\n      tag_10\n      jumpi\n      dup1\n      0xdc0d3dff\n      eq\n      tag_11\n      jumpi\n      jump(tag_2)\n    tag_12:\n      dup1\n      0x0d8e6e2c\n      eq\n      tag_3\n      jumpi\n      dup1\n      0x3ccfd60b\n      eq\n      tag_4\n      jumpi\n      dup1\n      0x3e47d6f3\n      eq\n      tag_5\n      jumpi\n      dup1\n      0x6b69a592\n      eq\n      tag_6\n      jumpi\n      jump(tag_2)\n    tag_1:\n      jumpi(tag_2, calldatasize)\n        /* \"contracts/07_FundMe.sol\":5521:5527  fund() */\n      tag_15\n        /* \"contracts/07_FundMe.sol\":5521:5525  fund */\n      tag_16\n        /* \"contracts/07_FundMe.sol\":5521:5527  fund() */\n      jump\t// in\n    tag_15:\n        /* \"contracts/07_FundMe.sol\":1464:5597  contract FundMe {... */\n      stop\n    tag_2:\n        /* \"contracts/07_FundMe.sol\":5580:5586  fund() */\n      tag_19\n        /* \"contracts/07_FundMe.sol\":5580:5584  fund */\n      tag_16\n        /* \"contracts/07_FundMe.sol\":5580:5586  fund() */\n      jump\t// in\n    tag_19:\n        /* \"contracts/07_FundMe.sol\":1464:5597  contract FundMe {... */\n      stop\n        /* \"contracts/07_FundMe.sol\":3437:3741  function getVersion() public view returns (uint256) {... */\n    tag_3:\n      callvalue\n      dup1\n      iszero\n      tag_20\n      jumpi\n      0x00\n      dup1\n      revert\n    tag_20:\n      pop\n      tag_21\n      tag_22\n      jump\t// in\n    tag_21:\n      mload(0x40)\n      tag_23\n      swap2\n      swap1\n      tag_24\n      jump\t// in\n    tag_23:\n      mload(0x40)\n      dup1\n      swap2\n      sub\n      swap1\n      return\n        /* \"contracts/07_FundMe.sol\":3984:5166  function withdraw() public onlyOwner {... */\n    tag_4:\n      callvalue\n      dup1\n      iszero\n      tag_25\n      jumpi\n      0x00\n      dup1\n      revert\n    tag_25:\n      pop\n      tag_26\n      tag_27\n      jump\t// in\n    tag_26:\n      stop\n        /* \"contracts/07_FundMe.sol\":1653:1707  mapping(address=>uint256) public addressToAmountFunded */\n    tag_5:\n      callvalue\n      dup1\n      iszero\n      tag_28\n      jumpi\n      0x00\n      dup1\n      revert\n    tag_28:\n      pop\n      tag_29\n      0x04\n      dup1\n      calldatasize\n      sub\n      dup2\n      add\n      swap1\n      tag_30\n      swap2\n      swap1\n      tag_31\n      jump\t// in\n    tag_30:\n      tag_32\n      jump\t// in\n    tag_29:\n      mload(0x40)\n      tag_33\n      swap2\n      swap1\n      tag_24\n      jump\t// in\n    tag_33:\n      mload(0x40)\n      dup1\n      swap2\n      sub\n      swap1\n      return\n        /* \"contracts/07_FundMe.sol\":1551:1598  uint256 public constant MINIMUM_USD = 50 * 1e18 */\n    tag_6:\n      callvalue\n      dup1\n      iszero\n      tag_34\n      jumpi\n      0x00\n      dup1\n      revert\n    tag_34:\n      pop\n      tag_35\n      tag_36\n      jump\t// in\n    tag_35:\n      mload(0x40)\n      tag_37\n      swap2\n      swap1\n      tag_24\n      jump\t// in\n    tag_37:\n      mload(0x40)\n      dup1\n      swap2\n      sub\n      swap1\n      return\n        /* \"contracts/07_FundMe.sol\":3749:3976  function getConversionRate(uint256 ethAmount) public view returns (uint256) {... */\n    tag_7:\n      callvalue\n      dup1\n      iszero\n      tag_38\n      jumpi\n      0x00\n      dup1\n      revert\n    tag_38:\n      pop\n      tag_39\n      0x04\n      dup1\n      calldatasize\n      sub\n      dup2\n      add\n      swap1\n      tag_40\n      swap2\n      swap1\n      tag_41\n      jump\t// in\n    tag_40:\n      tag_42\n      jump\t// in\n    tag_39:\n      mload(0x40)\n      tag_43\n      swap2\n      swap1\n      tag_24\n      jump\t// in\n    tag_43:\n      mload(0x40)\n      dup1\n      swap2\n      sub\n      swap1\n      return\n        /* \"contracts/07_FundMe.sol\":1744:1774  address public immutable owner */\n    tag_8:\n      callvalue\n      dup1\n      iszero\n      tag_44\n      jumpi\n      0x00\n      dup1\n      revert\n    tag_44:\n      pop\n      tag_45\n      tag_46\n      jump\t// in\n    tag_45:\n      mload(0x40)\n      tag_47\n      swap2\n      swap1\n      tag_48\n      jump\t// in\n    tag_47:\n      mload(0x40)\n      dup1\n      swap2\n      sub\n      swap1\n      return\n        /* \"contracts/07_FundMe.sol\":2605:3429  function getPrice() public view returns (uint256){... */\n    tag_9:\n      callvalue\n      dup1\n      iszero\n      tag_49\n      jumpi\n      0x00\n      dup1\n      revert\n    tag_49:\n      pop\n      tag_50\n      tag_51\n      jump\t// in\n    tag_50:\n      mload(0x40)\n      tag_52\n      swap2\n      swap1\n      tag_24\n      jump\t// in\n    tag_52:\n      mload(0x40)\n      dup1\n      swap2\n      sub\n      swap1\n      return\n        /* \"contracts/07_FundMe.sol\":1840:2593  function fund() public payable {... */\n    tag_10:\n      tag_53\n      tag_16\n      jump\t// in\n    tag_53:\n      stop\n        /* \"contracts/07_FundMe.sol\":1622:1646  address[] public funders */\n    tag_11:\n      callvalue\n      dup1\n      iszero\n      tag_54\n      jumpi\n      0x00\n      dup1\n      revert\n    tag_54:\n      pop\n      tag_55\n      0x04\n      dup1\n      calldatasize\n      sub\n      dup2\n      add\n      swap1\n      tag_56\n      swap2\n      swap1\n      tag_41\n      jump\t// in\n    tag_56:\n      tag_57\n      jump\t// in\n    tag_55:\n      mload(0x40)\n      tag_58\n      swap2\n      swap1\n      tag_48\n      jump\t// in\n    tag_58:\n      mload(0x40)\n      dup1\n      swap2\n      sub\n      swap1\n      return\n        /* \"contracts/07_FundMe.sol\":1840:2593  function fund() public payable {... */\n    tag_16:\n        /* \"contracts/07_FundMe.sol\":1589:1598  50 * 1e18 */\n      0x02b5e3af16b1880000\n        /* \"contracts/07_FundMe.sol\":2247:2275  getConversionRate(msg.value) */\n      tag_60\n        /* \"contracts/07_FundMe.sol\":2265:2274  msg.value */\n      callvalue\n        /* \"contracts/07_FundMe.sol\":2247:2264  getConversionRate */\n      tag_42\n        /* \"contracts/07_FundMe.sol\":2247:2275  getConversionRate(msg.value) */\n      jump\t// in\n    tag_60:\n        /* \"contracts/07_FundMe.sol\":2247:2290  getConversionRate(msg.value) >= MINIMUM_USD */\n      lt\n      iszero\n        /* \"contracts/07_FundMe.sol\":2239:2314  require(getConversionRate(msg.value) >= MINIMUM_USD,\"Didn't send enough!!\") */\n      tag_61\n      jumpi\n      mload(0x40)\n      0x08c379a000000000000000000000000000000000000000000000000000000000\n      dup2\n      mstore\n      0x04\n      add\n      tag_62\n      swap1\n      tag_63\n      jump\t// in\n    tag_62:\n      mload(0x40)\n      dup1\n      swap2\n      sub\n      swap1\n      revert\n    tag_61:\n        /* \"contracts/07_FundMe.sol\":2325:2332  funders */\n      0x00\n        /* \"contracts/07_FundMe.sol\":2338:2348  msg.sender */\n      caller\n        /* \"contracts/07_FundMe.sol\":2325:2349  funders.push(msg.sender) */\n      swap1\n      dup1\n      0x01\n      dup2\n      sload\n      add\n      dup1\n      dup3\n      sstore\n      dup1\n      swap2\n      pop\n      pop\n      0x01\n      swap1\n      sub\n      swap1\n      0x00\n      mstore\n      keccak256(0x00, 0x20)\n      add\n      0x00\n      swap1\n      swap2\n      swap1\n      swap2\n      swap1\n      swap2\n      0x0100\n      exp\n      dup2\n      sload\n      dup2\n      0xffffffffffffffffffffffffffffffffffffffff\n      mul\n      not\n      and\n      swap1\n      dup4\n      0xffffffffffffffffffffffffffffffffffffffff\n      and\n      mul\n      or\n      swap1\n      sstore\n      pop\n        /* \"contracts/07_FundMe.sol\":2396:2405  msg.value */\n      callvalue\n        /* \"contracts/07_FundMe.sol\":2360:2381  addressToAmountFunded */\n      0x01\n        /* \"contracts/07_FundMe.sol\":2360:2393  addressToAmountFunded[msg.sender] */\n      0x00\n        /* \"contracts/07_FundMe.sol\":2382:2392  msg.sender */\n      caller\n        /* \"contracts/07_FundMe.sol\":2360:2393  addressToAmountFunded[msg.sender] */\n      0xffffffffffffffffffffffffffffffffffffffff\n      and\n      0xffffffffffffffffffffffffffffffffffffffff\n      and\n      dup2\n      mstore\n      0x20\n      add\n      swap1\n      dup2\n      mstore\n      0x20\n      add\n      0x00\n      keccak256\n        /* \"contracts/07_FundMe.sol\":2360:2405  addressToAmountFunded[msg.sender] = msg.value */\n      dup2\n      swap1\n      sstore\n      pop\n        /* \"contracts/07_FundMe.sol\":1840:2593  function fund() public payable {... */\n      jump\t// out\n        /* \"contracts/07_FundMe.sol\":3437:3741  function getVersion() public view returns (uint256) {... */\n    tag_22:\n        /* \"contracts/07_FundMe.sol\":3480:3487  uint256 */\n      0x00\n        /* \"contracts/07_FundMe.sol\":3680:3722  0x694AA1769357215DE4FAC081bf1f309aDC325306 */\n      0x694aa1769357215de4fac081bf1f309adc325306\n        /* \"contracts/07_FundMe.sol\":3658:3731  AggregatorV3Interface(0x694AA1769357215DE4FAC081bf1f309aDC325306).version */\n      0xffffffffffffffffffffffffffffffffffffffff\n      and\n      0x54fd4d50\n        /* \"contracts/07_FundMe.sol\":3658:3733  AggregatorV3Interface(0x694AA1769357215DE4FAC081bf1f309aDC325306).version() */\n      mload(0x40)\n      dup2\n      0xffffffff\n      and\n      0xe0\n      shl\n      dup2\n      mstore\n      0x04\n      add\n      0x20\n      mload(0x40)\n      dup1\n      dup4\n      sub\n      dup2\n      dup7\n      gas\n      staticcall\n      iszero\n      dup1\n      iszero\n      tag_67\n      jumpi\n      returndatasize\n      0x00\n      dup1\n      returndatacopy\n      revert(0x00, returndatasize)\n    tag_67:\n      pop\n      pop\n      pop\n      pop\n      mload(0x40)\n      returndatasize\n      not(0x1f)\n      0x1f\n      dup3\n      add\n      and\n      dup3\n      add\n      dup1\n      0x40\n      mstore\n      pop\n      dup2\n      add\n      swap1\n      tag_68\n      swap2\n      swap1\n      tag_69\n      jump\t// in\n    tag_68:\n        /* \"contracts/07_FundMe.sol\":3651:3733  return AggregatorV3Interface(0x694AA1769357215DE4FAC081bf1f309aDC325306).version() */\n      swap1\n      pop\n        /* \"contracts/07_FundMe.sol\":3437:3741  function getVersion() public view returns (uint256) {... */\n      swap1\n      jump\t// out\n        /* \"contracts/07_FundMe.sol\":3984:5166  function withdraw() public onlyOwner {... */\n    tag_27:\n        /* \"contracts/07_FundMe.sol\":5226:5231  owner */\n      immutable(\"0x646d998f946f968f0675fd4e3cb527e1222094ea0d9cc1fd615146a8fe29802e\")\n        /* \"contracts/07_FundMe.sol\":5212:5231  msg.sender == owner */\n      0xffffffffffffffffffffffffffffffffffffffff\n      and\n        /* \"contracts/07_FundMe.sol\":5212:5222  msg.sender */\n      caller\n        /* \"contracts/07_FundMe.sol\":5212:5231  msg.sender == owner */\n      0xffffffffffffffffffffffffffffffffffffffff\n      and\n      eq\n        /* \"contracts/07_FundMe.sol\":5204:5259  require(msg.sender == owner, \"Sender is Not the Owner\") */\n      tag_71\n      jumpi\n      mload(0x40)\n      0x08c379a000000000000000000000000000000000000000000000000000000000\n      dup2\n      mstore\n      0x04\n      add\n      tag_72\n      swap1\n      tag_73\n      jump\t// in\n    tag_72:\n      mload(0x40)\n      dup1\n      swap2\n      sub\n      swap1\n      revert\n    tag_71:\n        /* \"contracts/07_FundMe.sol\":4250:4269  uint256 funderIndex */\n      0x00\n        /* \"contracts/07_FundMe.sol\":4245:4428  for (uint256 funderIndex = 0; funderIndex<funders.length;funderIndex++){... */\n    tag_75:\n        /* \"contracts/07_FundMe.sol\":4287:4294  funders */\n      0x00\n        /* \"contracts/07_FundMe.sol\":4287:4301  funders.length */\n      dup1\n      sload\n      swap1\n      pop\n        /* \"contracts/07_FundMe.sol\":4275:4286  funderIndex */\n      dup2\n        /* \"contracts/07_FundMe.sol\":4275:4301  funderIndex<funders.length */\n      lt\n        /* \"contracts/07_FundMe.sol\":4245:4428  for (uint256 funderIndex = 0; funderIndex<funders.length;funderIndex++){... */\n      iszero\n      tag_76\n      jumpi\n        /* \"contracts/07_FundMe.sol\":4331:4345  address funder */\n      0x00\n        /* \"contracts/07_FundMe.sol\":4348:4355  funders */\n      dup1\n        /* \"contracts/07_FundMe.sol\":4356:4367  funderIndex */\n      dup3\n        /* \"contracts/07_FundMe.sol\":4348:4368  funders[funderIndex] */\n      dup2\n      sload\n      dup2\n      lt\n      tag_78\n      jumpi\n      tag_79\n      tag_80\n      jump\t// in\n    tag_79:\n    tag_78:\n      swap1\n      0x00\n      mstore\n      keccak256(0x00, 0x20)\n      add\n      0x00\n      swap1\n      sload\n      swap1\n      0x0100\n      exp\n      swap1\n      div\n      0xffffffffffffffffffffffffffffffffffffffff\n      and\n        /* \"contracts/07_FundMe.sol\":4331:4368  address funder = funders[funderIndex] */\n      swap1\n      pop\n        /* \"contracts/07_FundMe.sol\":4415:4416  0 */\n      0x00\n        /* \"contracts/07_FundMe.sol\":4383:4404  addressToAmountFunded */\n      0x01\n        /* \"contracts/07_FundMe.sol\":4383:4412  addressToAmountFunded[funder] */\n      0x00\n        /* \"contracts/07_FundMe.sol\":4405:4411  funder */\n      dup4\n        /* \"contracts/07_FundMe.sol\":4383:4412  addressToAmountFunded[funder] */\n      0xffffffffffffffffffffffffffffffffffffffff\n      and\n      0xffffffffffffffffffffffffffffffffffffffff\n      and\n      dup2\n      mstore\n      0x20\n      add\n      swap1\n      dup2\n      mstore\n      0x20\n      add\n      0x00\n      keccak256\n        /* \"contracts/07_FundMe.sol\":4383:4416  addressToAmountFunded[funder] = 0 */\n      dup2\n      swap1\n      sstore\n      pop\n        /* \"contracts/07_FundMe.sol\":4316:4428  {... */\n      pop\n        /* \"contracts/07_FundMe.sol\":4302:4315  funderIndex++ */\n      dup1\n      dup1\n      0x01\n      add\n      swap2\n      pop\n      pop\n        /* \"contracts/07_FundMe.sol\":4245:4428  for (uint256 funderIndex = 0; funderIndex<funders.length;funderIndex++){... */\n      jump(tag_75)\n    tag_76:\n      pop\n        /* \"contracts/07_FundMe.sol\":4463:4464  0 */\n      0x00\n        /* \"contracts/07_FundMe.sol\":4448:4465  new  address[](0) */\n      0xffffffffffffffff\n      dup2\n      gt\n      iszero\n      tag_82\n      jumpi\n      tag_83\n      tag_84\n      jump\t// in\n    tag_83:\n    tag_82:\n      mload(0x40)\n      swap1\n      dup1\n      dup3\n      mstore\n      dup1\n      0x20\n      mul\n      0x20\n      add\n      dup3\n      add\n      0x40\n      mstore\n      dup1\n      iszero\n      tag_85\n      jumpi\n      dup2\n      0x20\n      add\n      0x20\n      dup3\n      mul\n      dup1\n      calldatasize\n      dup4\n      calldatacopy\n      dup1\n      dup3\n      add\n      swap2\n      pop\n      pop\n      swap1\n      pop\n    tag_85:\n      pop\n        /* \"contracts/07_FundMe.sol\":4438:4445  funders */\n      0x00\n        /* \"contracts/07_FundMe.sol\":4438:4465  funders = new  address[](0) */\n      swap1\n      dup1\n      mload\n      swap1\n      0x20\n      add\n      swap1\n      tag_86\n      swap3\n      swap2\n      swap1\n      tag_87\n      jump\t// in\n    tag_86:\n      pop\n        /* \"contracts/07_FundMe.sol\":4829:4839  msg.sender */\n      caller\n        /* \"contracts/07_FundMe.sol\":4821:4849  payable(msg.sender).transfer */\n      0xffffffffffffffffffffffffffffffffffffffff\n      and\n        /* \"contracts/07_FundMe.sol\":4821:4872  payable(msg.sender).transfer(address(this).balance) */\n      0x08fc\n        /* \"contracts/07_FundMe.sol\":4850:4871  address(this).balance */\n      selfbalance\n        /* \"contracts/07_FundMe.sol\":4821:4872  payable(msg.sender).transfer(address(this).balance) */\n      swap1\n      dup2\n      iszero\n      mul\n      swap1\n      mload(0x40)\n      0x00\n      mload(0x40)\n      dup1\n      dup4\n      sub\n      dup2\n      dup6\n      dup9\n      dup9\n      call\n      swap4\n      pop\n      pop\n      pop\n      pop\n      iszero\n      dup1\n      iszero\n      tag_89\n      jumpi\n      returndatasize\n      0x00\n      dup1\n      returndatacopy\n      revert(0x00, returndatasize)\n    tag_89:\n      pop\n        /* \"contracts/07_FundMe.sol\":4883:4899  bool sendSuccess */\n      0x00\n        /* \"contracts/07_FundMe.sol\":4910:4920  msg.sender */\n      caller\n        /* \"contracts/07_FundMe.sol\":4902:4926  payable(msg.sender).send */\n      0xffffffffffffffffffffffffffffffffffffffff\n      and\n        /* \"contracts/07_FundMe.sol\":4902:4949  payable(msg.sender).send(address(this).balance) */\n      0x08fc\n        /* \"contracts/07_FundMe.sol\":4927:4948  address(this).balance */\n      selfbalance\n        /* \"contracts/07_FundMe.sol\":4902:4949  payable(msg.sender).send(address(this).balance) */\n      swap1\n      dup2\n      iszero\n      mul\n      swap1\n      mload(0x40)\n      0x00\n      mload(0x40)\n      dup1\n      dup4\n      sub\n      dup2\n      dup6\n      dup9\n      dup9\n      call\n      swap4\n      pop\n      pop\n      pop\n      pop\n        /* \"contracts/07_FundMe.sol\":4883:4949  bool sendSuccess = payable(msg.sender).send(address(this).balance) */\n      swap1\n      pop\n        /* \"contracts/07_FundMe.sol\":4968:4979  sendSuccess */\n      dup1\n        /* \"contracts/07_FundMe.sol\":4960:4997  require(sendSuccess, \"Send failed !\") */\n      tag_91\n      jumpi\n      mload(0x40)\n      0x08c379a000000000000000000000000000000000000000000000000000000000\n      dup2\n      mstore\n      0x04\n      add\n      tag_92\n      swap1\n      tag_93\n      jump\t// in\n    tag_92:\n      mload(0x40)\n      dup1\n      swap2\n      sub\n      swap1\n      revert\n    tag_91:\n        /* \"contracts/07_FundMe.sol\":5011:5027  bool callSuccess */\n      0x00\n        /* \"contracts/07_FundMe.sol\":5041:5051  msg.sender */\n      caller\n        /* \"contracts/07_FundMe.sol\":5033:5057  payable(msg.sender).call */\n      0xffffffffffffffffffffffffffffffffffffffff\n      and\n        /* \"contracts/07_FundMe.sol\":5064:5085  address(this).balance */\n      selfbalance\n        /* \"contracts/07_FundMe.sol\":5033:5090  payable(msg.sender).call{value:address(this).balance}(\"\") */\n      mload(0x40)\n      tag_94\n      swap1\n      tag_95\n      jump\t// in\n    tag_94:\n      0x00\n      mload(0x40)\n      dup1\n      dup4\n      sub\n      dup2\n      dup6\n      dup8\n      gas\n      call\n      swap3\n      pop\n      pop\n      pop\n      returndatasize\n      dup1\n      0x00\n      dup2\n      eq\n      tag_98\n      jumpi\n      mload(0x40)\n      swap2\n      pop\n      and(add(returndatasize, 0x3f), not(0x1f))\n      dup3\n      add\n      0x40\n      mstore\n      returndatasize\n      dup3\n      mstore\n      returndatasize\n      0x00\n      0x20\n      dup5\n      add\n      returndatacopy\n      jump(tag_97)\n    tag_98:\n      0x60\n      swap2\n      pop\n    tag_97:\n      pop\n        /* \"contracts/07_FundMe.sol\":5010:5090  (bool callSuccess, ) = payable(msg.sender).call{value:address(this).balance}(\"\") */\n      pop\n      swap1\n      pop\n        /* \"contracts/07_FundMe.sol\":5109:5120  callSuccess */\n      dup1\n        /* \"contracts/07_FundMe.sol\":5101:5136  require(callSuccess, \"Call failed\") */\n      tag_99\n      jumpi\n      mload(0x40)\n      0x08c379a000000000000000000000000000000000000000000000000000000000\n      dup2\n      mstore\n      0x04\n      add\n      tag_100\n      swap1\n      tag_101\n      jump\t// in\n    tag_100:\n      mload(0x40)\n      dup1\n      swap2\n      sub\n      swap1\n      revert\n    tag_99:\n        /* \"contracts/07_FundMe.sol\":4021:5166  {... */\n      pop\n      pop\n        /* \"contracts/07_FundMe.sol\":3984:5166  function withdraw() public onlyOwner {... */\n      jump\t// out\n        /* \"contracts/07_FundMe.sol\":1653:1707  mapping(address=>uint256) public addressToAmountFunded */\n    tag_32:\n      mstore(0x20, 0x01)\n      dup1\n      0x00\n      mstore\n      keccak256(0x00, 0x40)\n      0x00\n      swap2\n      pop\n      swap1\n      pop\n      sload\n      dup2\n      jump\t// out\n        /* \"contracts/07_FundMe.sol\":1551:1598  uint256 public constant MINIMUM_USD = 50 * 1e18 */\n    tag_36:\n        /* \"contracts/07_FundMe.sol\":1589:1598  50 * 1e18 */\n      0x02b5e3af16b1880000\n        /* \"contracts/07_FundMe.sol\":1551:1598  uint256 public constant MINIMUM_USD = 50 * 1e18 */\n      dup2\n      jump\t// out\n        /* \"contracts/07_FundMe.sol\":3749:3976  function getConversionRate(uint256 ethAmount) public view returns (uint256) {... */\n    tag_42:\n        /* \"contracts/07_FundMe.sol\":3816:3823  uint256 */\n      0x00\n        /* \"contracts/07_FundMe.sol\":3836:3855  uint256 oneEthPrice */\n      dup1\n        /* \"contracts/07_FundMe.sol\":3858:3868  getPrice() */\n      tag_103\n        /* \"contracts/07_FundMe.sol\":3858:3866  getPrice */\n      tag_51\n        /* \"contracts/07_FundMe.sol\":3858:3868  getPrice() */\n      jump\t// in\n    tag_103:\n        /* \"contracts/07_FundMe.sol\":3836:3868  uint256 oneEthPrice = getPrice() */\n      swap1\n      pop\n        /* \"contracts/07_FundMe.sol\":3879:3901  uint256 ethAmountInUsd */\n      0x00\n        /* \"contracts/07_FundMe.sol\":3932:3936  1e18 */\n      0x0de0b6b3a7640000\n        /* \"contracts/07_FundMe.sol\":3919:3928  ethAmount */\n      dup5\n        /* \"contracts/07_FundMe.sol\":3905:3916  oneEthPrice */\n      dup4\n        /* \"contracts/07_FundMe.sol\":3905:3928  oneEthPrice * ethAmount */\n      tag_104\n      swap2\n      swap1\n      tag_105\n      jump\t// in\n    tag_104:\n        /* \"contracts/07_FundMe.sol\":3904:3936  (oneEthPrice * ethAmount) / 1e18 */\n      tag_106\n      swap2\n      swap1\n      tag_107\n      jump\t// in\n    tag_106:\n        /* \"contracts/07_FundMe.sol\":3879:3936  uint256 ethAmountInUsd = (oneEthPrice * ethAmount) / 1e18 */\n      swap1\n      pop\n        /* \"contracts/07_FundMe.sol\":3954:3968  ethAmountInUsd */\n      dup1\n        /* \"contracts/07_FundMe.sol\":3947:3968  return ethAmountInUsd */\n      swap3\n      pop\n      pop\n      pop\n        /* \"contracts/07_FundMe.sol\":3749:3976  function getConversionRate(uint256 ethAmount) public view returns (uint256) {... */\n      swap2\n      swap1\n      pop\n      jump\t// out\n        /* \"contracts/07_FundMe.sol\":1744:1774  address public immutable owner */\n    tag_46:\n      immutable(\"0x646d998f946f968f0675fd4e3cb527e1222094ea0d9cc1fd615146a8fe29802e\")\n      dup2\n      jump\t// out\n        /* \"contracts/07_FundMe.sol\":2605:3429  function getPrice() public view returns (uint256){... */\n    tag_51:\n        /* \"contracts/07_FundMe.sol\":2646:2653  uint256 */\n      0x00\n        /* \"contracts/07_FundMe.sol\":3087:3118  AggregatorV3Interface priceFeed */\n      dup1\n        /* \"contracts/07_FundMe.sol\":3144:3186  0x694AA1769357215DE4FAC081bf1f309aDC325306 */\n      0x694aa1769357215de4fac081bf1f309adc325306\n        /* \"contracts/07_FundMe.sol\":3087:3187  AggregatorV3Interface priceFeed =  AggregatorV3Interface(0x694AA1769357215DE4FAC081bf1f309aDC325306) */\n      swap1\n      pop\n        /* \"contracts/07_FundMe.sol\":3303:3315  int256 price */\n      0x00\n        /* \"contracts/07_FundMe.sol\":3322:3331  priceFeed */\n      dup2\n        /* \"contracts/07_FundMe.sol\":3322:3347  priceFeed.latestRoundData */\n      0xffffffffffffffffffffffffffffffffffffffff\n      and\n      0xfeaf968c\n        /* \"contracts/07_FundMe.sol\":3322:3349  priceFeed.latestRoundData() */\n      mload(0x40)\n      dup2\n      0xffffffff\n      and\n      0xe0\n      shl\n      dup2\n      mstore\n      0x04\n      add\n      0xa0\n      mload(0x40)\n      dup1\n      dup4\n      sub\n      dup2\n      dup7\n      gas\n      staticcall\n      iszero\n      dup1\n      iszero\n      tag_110\n      jumpi\n      returndatasize\n      0x00\n      dup1\n      returndatacopy\n      revert(0x00, returndatasize)\n    tag_110:\n      pop\n      pop\n      pop\n      pop\n      mload(0x40)\n      returndatasize\n      not(0x1f)\n      0x1f\n      dup3\n      add\n      and\n      dup3\n      add\n      dup1\n      0x40\n      mstore\n      pop\n      dup2\n      add\n      swap1\n      tag_111\n      swap2\n      swap1\n      tag_112\n      jump\t// in\n    tag_111:\n        /* \"contracts/07_FundMe.sol\":3301:3349  (,int256 price,,,) = priceFeed.latestRoundData() */\n      pop\n      pop\n      pop\n      swap2\n      pop\n      pop\n        /* \"contracts/07_FundMe.sol\":3416:3420  1e10 */\n      0x02540be400\n        /* \"contracts/07_FundMe.sol\":3408:3413  price */\n      dup2\n        /* \"contracts/07_FundMe.sol\":3408:3420  price * 1e10 */\n      tag_113\n      swap2\n      swap1\n      tag_114\n      jump\t// in\n    tag_113:\n        /* \"contracts/07_FundMe.sol\":3393:3421  return uint256(price * 1e10) */\n      swap3\n      pop\n      pop\n      pop\n        /* \"contracts/07_FundMe.sol\":2605:3429  function getPrice() public view returns (uint256){... */\n      swap1\n      jump\t// out\n        /* \"contracts/07_FundMe.sol\":1622:1646  address[] public funders */\n    tag_57:\n      0x00\n      dup2\n      dup2\n      sload\n      dup2\n      lt\n      tag_115\n      jumpi\n      0x00\n      dup1\n      revert\n    tag_115:\n      swap1\n      0x00\n      mstore\n      keccak256(0x00, 0x20)\n      add\n      0x00\n      swap2\n      pop\n      sload\n      swap1\n      0x0100\n      exp\n      swap1\n      div\n      0xffffffffffffffffffffffffffffffffffffffff\n      and\n      dup2\n      jump\t// out\n    tag_87:\n      dup3\n      dup1\n      sload\n      dup3\n      dup3\n      sstore\n      swap1\n      0x00\n      mstore\n      keccak256(0x00, 0x20)\n      swap1\n      dup2\n      add\n      swap3\n      dup3\n      iszero\n      tag_117\n      jumpi\n      swap2\n      0x20\n      mul\n      dup3\n      add\n    tag_118:\n      dup3\n      dup2\n      gt\n      iszero\n      tag_119\n      jumpi\n      dup3\n      mload\n      dup3\n      exp(0x0100, 0x00)\n      dup2\n      sload\n      dup2\n      0xffffffffffffffffffffffffffffffffffffffff\n      mul\n      not\n      and\n      swap1\n      dup4\n      0xffffffffffffffffffffffffffffffffffffffff\n      and\n      mul\n      or\n      swap1\n      sstore\n      pop\n      swap2\n      0x20\n      add\n      swap2\n      swap1\n      0x01\n      add\n      swap1\n      jump(tag_118)\n    tag_119:\n    tag_117:\n      pop\n      swap1\n      pop\n      tag_120\n      swap2\n      swap1\n      tag_121\n      jump\t// in\n    tag_120:\n      pop\n      swap1\n      jump\t// out\n    tag_121:\n    tag_122:\n      dup1\n      dup3\n      gt\n      iszero\n      tag_123\n      jumpi\n      0x00\n      dup2\n      0x00\n      swap1\n      sstore\n      pop\n      0x01\n      add\n      jump(tag_122)\n    tag_123:\n      pop\n      swap1\n      jump\t// out\n        /* \"#utility.yul\":7:84   */\n    tag_124:\n        /* \"#utility.yul\":44:51   */\n      0x00\n        /* \"#utility.yul\":73:78   */\n      dup2\n        /* \"#utility.yul\":62:78   */\n      swap1\n      pop\n        /* \"#utility.yul\":7:84   */\n      swap2\n      swap1\n      pop\n      jump\t// out\n        /* \"#utility.yul\":90:208   */\n    tag_125:\n        /* \"#utility.yul\":177:201   */\n      tag_160\n        /* \"#utility.yul\":195:200   */\n      dup2\n        /* \"#utility.yul\":177:201   */\n      tag_124\n      jump\t// in\n    tag_160:\n        /* \"#utility.yul\":172:175   */\n      dup3\n        /* \"#utility.yul\":165:202   */\n      mstore\n        /* \"#utility.yul\":90:208   */\n      pop\n      pop\n      jump\t// out\n        /* \"#utility.yul\":214:436   */\n    tag_24:\n        /* \"#utility.yul\":307:311   */\n      0x00\n        /* \"#utility.yul\":345:347   */\n      0x20\n        /* \"#utility.yul\":334:343   */\n      dup3\n        /* \"#utility.yul\":330:348   */\n      add\n        /* \"#utility.yul\":322:348   */\n      swap1\n      pop\n        /* \"#utility.yul\":358:429   */\n      tag_162\n        /* \"#utility.yul\":426:427   */\n      0x00\n        /* \"#utility.yul\":415:424   */\n      dup4\n        /* \"#utility.yul\":411:428   */\n      add\n        /* \"#utility.yul\":402:408   */\n      dup5\n        /* \"#utility.yul\":358:429   */\n      tag_125\n      jump\t// in\n    tag_162:\n        /* \"#utility.yul\":214:436   */\n      swap3\n      swap2\n      pop\n      pop\n      jump\t// out\n        /* \"#utility.yul\":523:640   */\n    tag_127:\n        /* \"#utility.yul\":632:633   */\n      0x00\n        /* \"#utility.yul\":629:630   */\n      dup1\n        /* \"#utility.yul\":622:634   */\n      revert\n        /* \"#utility.yul\":769:895   */\n    tag_129:\n        /* \"#utility.yul\":806:813   */\n      0x00\n        /* \"#utility.yul\":846:888   */\n      0xffffffffffffffffffffffffffffffffffffffff\n        /* \"#utility.yul\":839:844   */\n      dup3\n        /* \"#utility.yul\":835:889   */\n      and\n        /* \"#utility.yul\":824:889   */\n      swap1\n      pop\n        /* \"#utility.yul\":769:895   */\n      swap2\n      swap1\n      pop\n      jump\t// out\n        /* \"#utility.yul\":901:997   */\n    tag_130:\n        /* \"#utility.yul\":938:945   */\n      0x00\n        /* \"#utility.yul\":967:991   */\n      tag_168\n        /* \"#utility.yul\":985:990   */\n      dup3\n        /* \"#utility.yul\":967:991   */\n      tag_129\n      jump\t// in\n    tag_168:\n        /* \"#utility.yul\":956:991   */\n      swap1\n      pop\n        /* \"#utility.yul\":901:997   */\n      swap2\n      swap1\n      pop\n      jump\t// out\n        /* \"#utility.yul\":1003:1125   */\n    tag_131:\n        /* \"#utility.yul\":1076:1100   */\n      tag_170\n        /* \"#utility.yul\":1094:1099   */\n      dup2\n        /* \"#utility.yul\":1076:1100   */\n      tag_130\n      jump\t// in\n    tag_170:\n        /* \"#utility.yul\":1069:1074   */\n      dup2\n        /* \"#utility.yul\":1066:1101   */\n      eq\n        /* \"#utility.yul\":1056:1119   */\n      tag_171\n      jumpi\n        /* \"#utility.yul\":1115:1116   */\n      0x00\n        /* \"#utility.yul\":1112:1113   */\n      dup1\n        /* \"#utility.yul\":1105:1117   */\n      revert\n        /* \"#utility.yul\":1056:1119   */\n    tag_171:\n        /* \"#utility.yul\":1003:1125   */\n      pop\n      jump\t// out\n        /* \"#utility.yul\":1131:1270   */\n    tag_132:\n        /* \"#utility.yul\":1177:1182   */\n      0x00\n        /* \"#utility.yul\":1215:1221   */\n      dup2\n        /* \"#utility.yul\":1202:1222   */\n      calldataload\n        /* \"#utility.yul\":1193:1222   */\n      swap1\n      pop\n        /* \"#utility.yul\":1231:1264   */\n      tag_173\n        /* \"#utility.yul\":1258:1263   */\n      dup2\n        /* \"#utility.yul\":1231:1264   */\n      tag_131\n      jump\t// in\n    tag_173:\n        /* \"#utility.yul\":1131:1270   */\n      swap3\n      swap2\n      pop\n      pop\n      jump\t// out\n        /* \"#utility.yul\":1276:1605   */\n    tag_31:\n        /* \"#utility.yul\":1335:1341   */\n      0x00\n        /* \"#utility.yul\":1384:1386   */\n      0x20\n        /* \"#utility.yul\":1372:1381   */\n      dup3\n        /* \"#utility.yul\":1363:1370   */\n      dup5\n        /* \"#utility.yul\":1359:1382   */\n      sub\n        /* \"#utility.yul\":1355:1387   */\n      slt\n        /* \"#utility.yul\":1352:1471   */\n      iszero\n      tag_175\n      jumpi\n        /* \"#utility.yul\":1390:1469   */\n      tag_176\n      tag_127\n      jump\t// in\n    tag_176:\n        /* \"#utility.yul\":1352:1471   */\n    tag_175:\n        /* \"#utility.yul\":1510:1511   */\n      0x00\n        /* \"#utility.yul\":1535:1588   */\n      tag_177\n        /* \"#utility.yul\":1580:1587   */\n      dup5\n        /* \"#utility.yul\":1571:1577   */\n      dup3\n        /* \"#utility.yul\":1560:1569   */\n      dup6\n        /* \"#utility.yul\":1556:1578   */\n      add\n        /* \"#utility.yul\":1535:1588   */\n      tag_132\n      jump\t// in\n    tag_177:\n        /* \"#utility.yul\":1525:1588   */\n      swap2\n      pop\n        /* \"#utility.yul\":1481:1598   */\n      pop\n        /* \"#utility.yul\":1276:1605   */\n      swap3\n      swap2\n      pop\n      pop\n      jump\t// out\n        /* \"#utility.yul\":1611:1733   */\n    tag_133:\n        /* \"#utility.yul\":1684:1708   */\n      tag_179\n        /* \"#utility.yul\":1702:1707   */\n      dup2\n        /* \"#utility.yul\":1684:1708   */\n      tag_124\n      jump\t// in\n    tag_179:\n        /* \"#utility.yul\":1677:1682   */\n      dup2\n        /* \"#utility.yul\":1674:1709   */\n      eq\n        /* \"#utility.yul\":1664:1727   */\n      tag_180\n      jumpi\n        /* \"#utility.yul\":1723:1724   */\n      0x00\n        /* \"#utility.yul\":1720:1721   */\n      dup1\n        /* \"#utility.yul\":1713:1725   */\n      revert\n        /* \"#utility.yul\":1664:1727   */\n    tag_180:\n        /* \"#utility.yul\":1611:1733   */\n      pop\n      jump\t// out\n        /* \"#utility.yul\":1739:1878   */\n    tag_134:\n        /* \"#utility.yul\":1785:1790   */\n      0x00\n        /* \"#utility.yul\":1823:1829   */\n      dup2\n        /* \"#utility.yul\":1810:1830   */\n      calldataload\n        /* \"#utility.yul\":1801:1830   */\n      swap1\n      pop\n        /* \"#utility.yul\":1839:1872   */\n      tag_182\n        /* \"#utility.yul\":1866:1871   */\n      dup2\n        /* \"#utility.yul\":1839:1872   */\n      tag_133\n      jump\t// in\n    tag_182:\n        /* \"#utility.yul\":1739:1878   */\n      swap3\n      swap2\n      pop\n      pop\n      jump\t// out\n        /* \"#utility.yul\":1884:2213   */\n    tag_41:\n        /* \"#utility.yul\":1943:1949   */\n      0x00\n        /* \"#utility.yul\":1992:1994   */\n      0x20\n        /* \"#utility.yul\":1980:1989   */\n      dup3\n        /* \"#utility.yul\":1971:1978   */\n      dup5\n        /* \"#utility.yul\":1967:1990   */\n      sub\n        /* \"#utility.yul\":1963:1995   */\n      slt\n        /* \"#utility.yul\":1960:2079   */\n      iszero\n      tag_184\n      jumpi\n        /* \"#utility.yul\":1998:2077   */\n      tag_185\n      tag_127\n      jump\t// in\n    tag_185:\n        /* \"#utility.yul\":1960:2079   */\n    tag_184:\n        /* \"#utility.yul\":2118:2119   */\n      0x00\n        /* \"#utility.yul\":2143:2196   */\n      tag_186\n        /* \"#utility.yul\":2188:2195   */\n      dup5\n        /* \"#utility.yul\":2179:2185   */\n      dup3\n        /* \"#utility.yul\":2168:2177   */\n      dup6\n        /* \"#utility.yul\":2164:2186   */\n      add\n        /* \"#utility.yul\":2143:2196   */\n      tag_134\n      jump\t// in\n    tag_186:\n        /* \"#utility.yul\":2133:2196   */\n      swap2\n      pop\n        /* \"#utility.yul\":2089:2206   */\n      pop\n        /* \"#utility.yul\":1884:2213   */\n      swap3\n      swap2\n      pop\n      pop\n      jump\t// out\n        /* \"#utility.yul\":2219:2337   */\n    tag_135:\n        /* \"#utility.yul\":2306:2330   */\n      tag_188\n        /* \"#utility.yul\":2324:2329   */\n      dup2\n        /* \"#utility.yul\":2306:2330   */\n      tag_130\n      jump\t// in\n    tag_188:\n        /* \"#utility.yul\":2301:2304   */\n      dup3\n        /* \"#utility.yul\":2294:2331   */\n      mstore\n        /* \"#utility.yul\":2219:2337   */\n      pop\n      pop\n      jump\t// out\n        /* \"#utility.yul\":2343:2565   */\n    tag_48:\n        /* \"#utility.yul\":2436:2440   */\n      0x00\n        /* \"#utility.yul\":2474:2476   */\n      0x20\n        /* \"#utility.yul\":2463:2472   */\n      dup3\n        /* \"#utility.yul\":2459:2477   */\n      add\n        /* \"#utility.yul\":2451:2477   */\n      swap1\n      pop\n        /* \"#utility.yul\":2487:2558   */\n      tag_190\n        /* \"#utility.yul\":2555:2556   */\n      0x00\n        /* \"#utility.yul\":2544:2553   */\n      dup4\n        /* \"#utility.yul\":2540:2557   */\n      add\n        /* \"#utility.yul\":2531:2537   */\n      dup5\n        /* \"#utility.yul\":2487:2558   */\n      tag_135\n      jump\t// in\n    tag_190:\n        /* \"#utility.yul\":2343:2565   */\n      swap3\n      swap2\n      pop\n      pop\n      jump\t// out\n        /* \"#utility.yul\":2571:2740   */\n    tag_136:\n        /* \"#utility.yul\":2655:2666   */\n      0x00\n        /* \"#utility.yul\":2689:2695   */\n      dup3\n        /* \"#utility.yul\":2684:2687   */\n      dup3\n        /* \"#utility.yul\":2677:2696   */\n      mstore\n        /* \"#utility.yul\":2729:2733   */\n      0x20\n        /* \"#utility.yul\":2724:2727   */\n      dup3\n        /* \"#utility.yul\":2720:2734   */\n      add\n        /* \"#utility.yul\":2705:2734   */\n      swap1\n      pop\n        /* \"#utility.yul\":2571:2740   */\n      swap3\n      swap2\n      pop\n      pop\n      jump\t// out\n        /* \"#utility.yul\":2746:2916   */\n    tag_137:\n        /* \"#utility.yul\":2886:2908   */\n      0x4469646e27742073656e6420656e6f7567682121000000000000000000000000\n        /* \"#utility.yul\":2882:2883   */\n      0x00\n        /* \"#utility.yul\":2874:2880   */\n      dup3\n        /* \"#utility.yul\":2870:2884   */\n      add\n        /* \"#utility.yul\":2863:2909   */\n      mstore\n        /* \"#utility.yul\":2746:2916   */\n      pop\n      jump\t// out\n        /* \"#utility.yul\":2922:3288   */\n    tag_138:\n        /* \"#utility.yul\":3064:3067   */\n      0x00\n        /* \"#utility.yul\":3085:3152   */\n      tag_194\n        /* \"#utility.yul\":3149:3151   */\n      0x14\n        /* \"#utility.yul\":3144:3147   */\n      dup4\n        /* \"#utility.yul\":3085:3152   */\n      tag_136\n      jump\t// in\n    tag_194:\n        /* \"#utility.yul\":3078:3152   */\n      swap2\n      pop\n        /* \"#utility.yul\":3161:3254   */\n      tag_195\n        /* \"#utility.yul\":3250:3253   */\n      dup3\n        /* \"#utility.yul\":3161:3254   */\n      tag_137\n      jump\t// in\n    tag_195:\n        /* \"#utility.yul\":3279:3281   */\n      0x20\n        /* \"#utility.yul\":3274:3277   */\n      dup3\n        /* \"#utility.yul\":3270:3282   */\n      add\n        /* \"#utility.yul\":3263:3282   */\n      swap1\n      pop\n        /* \"#utility.yul\":2922:3288   */\n      swap2\n      swap1\n      pop\n      jump\t// out\n        /* \"#utility.yul\":3294:3713   */\n    tag_63:\n        /* \"#utility.yul\":3460:3464   */\n      0x00\n        /* \"#utility.yul\":3498:3500   */\n      0x20\n        /* \"#utility.yul\":3487:3496   */\n      dup3\n        /* \"#utility.yul\":3483:3501   */\n      add\n        /* \"#utility.yul\":3475:3501   */\n      swap1\n      pop\n        /* \"#utility.yul\":3547:3556   */\n      dup2\n        /* \"#utility.yul\":3541:3545   */\n      dup2\n        /* \"#utility.yul\":3537:3557   */\n      sub\n        /* \"#utility.yul\":3533:3534   */\n      0x00\n        /* \"#utility.yul\":3522:3531   */\n      dup4\n        /* \"#utility.yul\":3518:3535   */\n      add\n        /* \"#utility.yul\":3511:3558   */\n      mstore\n        /* \"#utility.yul\":3575:3706   */\n      tag_197\n        /* \"#utility.yul\":3701:3705   */\n      dup2\n        /* \"#utility.yul\":3575:3706   */\n      tag_138\n      jump\t// in\n    tag_197:\n        /* \"#utility.yul\":3567:3706   */\n      swap1\n      pop\n        /* \"#utility.yul\":3294:3713   */\n      swap2\n      swap1\n      pop\n      jump\t// out\n        /* \"#utility.yul\":3719:3862   */\n    tag_139:\n        /* \"#utility.yul\":3776:3781   */\n      0x00\n        /* \"#utility.yul\":3807:3813   */\n      dup2\n        /* \"#utility.yul\":3801:3814   */\n      mload\n        /* \"#utility.yul\":3792:3814   */\n      swap1\n      pop\n        /* \"#utility.yul\":3823:3856   */\n      tag_199\n        /* \"#utility.yul\":3850:3855   */\n      dup2\n        /* \"#utility.yul\":3823:3856   */\n      tag_133\n      jump\t// in\n    tag_199:\n        /* \"#utility.yul\":3719:3862   */\n      swap3\n      swap2\n      pop\n      pop\n      jump\t// out\n        /* \"#utility.yul\":3868:4219   */\n    tag_69:\n        /* \"#utility.yul\":3938:3944   */\n      0x00\n        /* \"#utility.yul\":3987:3989   */\n      0x20\n        /* \"#utility.yul\":3975:3984   */\n      dup3\n        /* \"#utility.yul\":3966:3973   */\n      dup5\n        /* \"#utility.yul\":3962:3985   */\n      sub\n        /* \"#utility.yul\":3958:3990   */\n      slt\n        /* \"#utility.yul\":3955:4074   */\n      iszero\n      tag_201\n      jumpi\n        /* \"#utility.yul\":3993:4072   */\n      tag_202\n      tag_127\n      jump\t// in\n    tag_202:\n        /* \"#utility.yul\":3955:4074   */\n    tag_201:\n        /* \"#utility.yul\":4113:4114   */\n      0x00\n        /* \"#utility.yul\":4138:4202   */\n      tag_203\n        /* \"#utility.yul\":4194:4201   */\n      dup5\n        /* \"#utility.yul\":4185:4191   */\n      dup3\n        /* \"#utility.yul\":4174:4183   */\n      dup6\n        /* \"#utility.yul\":4170:4192   */\n      add\n        /* \"#utility.yul\":4138:4202   */\n      tag_139\n      jump\t// in\n    tag_203:\n        /* \"#utility.yul\":4128:4202   */\n      swap2\n      pop\n        /* \"#utility.yul\":4084:4212   */\n      pop\n        /* \"#utility.yul\":3868:4219   */\n      swap3\n      swap2\n      pop\n      pop\n      jump\t// out\n        /* \"#utility.yul\":4225:4398   */\n    tag_140:\n        /* \"#utility.yul\":4365:4390   */\n      0x53656e646572206973204e6f7420746865204f776e6572000000000000000000\n        /* \"#utility.yul\":4361:4362   */\n      0x00\n        /* \"#utility.yul\":4353:4359   */\n      dup3\n        /* \"#utility.yul\":4349:4363   */\n      add\n        /* \"#utility.yul\":4342:4391   */\n      mstore\n        /* \"#utility.yul\":4225:4398   */\n      pop\n      jump\t// out\n        /* \"#utility.yul\":4404:4770   */\n    tag_141:\n        /* \"#utility.yul\":4546:4549   */\n      0x00\n        /* \"#utility.yul\":4567:4634   */\n      tag_206\n        /* \"#utility.yul\":4631:4633   */\n      0x17\n        /* \"#utility.yul\":4626:4629   */\n      dup4\n        /* \"#utility.yul\":4567:4634   */\n      tag_136\n      jump\t// in\n    tag_206:\n        /* \"#utility.yul\":4560:4634   */\n      swap2\n      pop\n        /* \"#utility.yul\":4643:4736   */\n      tag_207\n        /* \"#utility.yul\":4732:4735   */\n      dup3\n        /* \"#utility.yul\":4643:4736   */\n      tag_140\n      jump\t// in\n    tag_207:\n        /* \"#utility.yul\":4761:4763   */\n      0x20\n        /* \"#utility.yul\":4756:4759   */\n      dup3\n        /* \"#utility.yul\":4752:4764   */\n      add\n        /* \"#utility.yul\":4745:4764   */\n      swap1\n      pop\n        /* \"#utility.yul\":4404:4770   */\n      swap2\n      swap1\n      pop\n      jump\t// out\n        /* \"#utility.yul\":4776:5195   */\n    tag_73:\n        /* \"#utility.yul\":4942:4946   */\n      0x00\n        /* \"#utility.yul\":4980:4982   */\n      0x20\n        /* \"#utility.yul\":4969:4978   */\n      dup3\n        /* \"#utility.yul\":4965:4983   */\n      add\n        /* \"#utility.yul\":4957:4983   */\n      swap1\n      pop\n        /* \"#utility.yul\":5029:5038   */\n      dup2\n        /* \"#utility.yul\":5023:5027   */\n      dup2\n        /* \"#utility.yul\":5019:5039   */\n      sub\n        /* \"#utility.yul\":5015:5016   */\n      0x00\n        /* \"#utility.yul\":5004:5013   */\n      dup4\n        /* \"#utility.yul\":5000:5017   */\n      add\n        /* \"#utility.yul\":4993:5040   */\n      mstore\n        /* \"#utility.yul\":5057:5188   */\n      tag_209\n        /* \"#utility.yul\":5183:5187   */\n      dup2\n        /* \"#utility.yul\":5057:5188   */\n      tag_141\n      jump\t// in\n    tag_209:\n        /* \"#utility.yul\":5049:5188   */\n      swap1\n      pop\n        /* \"#utility.yul\":4776:5195   */\n      swap2\n      swap1\n      pop\n      jump\t// out\n        /* \"#utility.yul\":5201:5381   */\n    tag_80:\n        /* \"#utility.yul\":5249:5326   */\n      0x4e487b7100000000000000000000000000000000000000000000000000000000\n        /* \"#utility.yul\":5246:5247   */\n      0x00\n        /* \"#utility.yul\":5239:5327   */\n      mstore\n        /* \"#utility.yul\":5346:5350   */\n      0x32\n        /* \"#utility.yul\":5343:5344   */\n      0x04\n        /* \"#utility.yul\":5336:5351   */\n      mstore\n        /* \"#utility.yul\":5370:5374   */\n      0x24\n        /* \"#utility.yul\":5367:5368   */\n      0x00\n        /* \"#utility.yul\":5360:5375   */\n      revert\n        /* \"#utility.yul\":5387:5567   */\n    tag_84:\n        /* \"#utility.yul\":5435:5512   */\n      0x4e487b7100000000000000000000000000000000000000000000000000000000\n        /* \"#utility.yul\":5432:5433   */\n      0x00\n        /* \"#utility.yul\":5425:5513   */\n      mstore\n        /* \"#utility.yul\":5532:5536   */\n      0x41\n        /* \"#utility.yul\":5529:5530   */\n      0x04\n        /* \"#utility.yul\":5522:5537   */\n      mstore\n        /* \"#utility.yul\":5556:5560   */\n      0x24\n        /* \"#utility.yul\":5553:5554   */\n      0x00\n        /* \"#utility.yul\":5546:5561   */\n      revert\n        /* \"#utility.yul\":5573:5736   */\n    tag_142:\n        /* \"#utility.yul\":5713:5728   */\n      0x53656e64206661696c6564202100000000000000000000000000000000000000\n        /* \"#utility.yul\":5709:5710   */\n      0x00\n        /* \"#utility.yul\":5701:5707   */\n      dup3\n        /* \"#utility.yul\":5697:5711   */\n      add\n        /* \"#utility.yul\":5690:5729   */\n      mstore\n        /* \"#utility.yul\":5573:5736   */\n      pop\n      jump\t// out\n        /* \"#utility.yul\":5742:6108   */\n    tag_143:\n        /* \"#utility.yul\":5884:5887   */\n      0x00\n        /* \"#utility.yul\":5905:5972   */\n      tag_214\n        /* \"#utility.yul\":5969:5971   */\n      0x0d\n        /* \"#utility.yul\":5964:5967   */\n      dup4\n        /* \"#utility.yul\":5905:5972   */\n      tag_136\n      jump\t// in\n    tag_214:\n        /* \"#utility.yul\":5898:5972   */\n      swap2\n      pop\n        /* \"#utility.yul\":5981:6074   */\n      tag_215\n        /* \"#utility.yul\":6070:6073   */\n      dup3\n        /* \"#utility.yul\":5981:6074   */\n      tag_142\n      jump\t// in\n    tag_215:\n        /* \"#utility.yul\":6099:6101   */\n      0x20\n        /* \"#utility.yul\":6094:6097   */\n      dup3\n        /* \"#utility.yul\":6090:6102   */\n      add\n        /* \"#utility.yul\":6083:6102   */\n      swap1\n      pop\n        /* \"#utility.yul\":5742:6108   */\n      swap2\n      swap1\n      pop\n      jump\t// out\n        /* \"#utility.yul\":6114:6533   */\n    tag_93:\n        /* \"#utility.yul\":6280:6284   */\n      0x00\n        /* \"#utility.yul\":6318:6320   */\n      0x20\n        /* \"#utility.yul\":6307:6316   */\n      dup3\n        /* \"#utility.yul\":6303:6321   */\n      add\n        /* \"#utility.yul\":6295:6321   */\n      swap1\n      pop\n        /* \"#utility.yul\":6367:6376   */\n      dup2\n        /* \"#utility.yul\":6361:6365   */\n      dup2\n        /* \"#utility.yul\":6357:6377   */\n      sub\n        /* \"#utility.yul\":6353:6354   */\n      0x00\n        /* \"#utility.yul\":6342:6351   */\n      dup4\n        /* \"#utility.yul\":6338:6355   */\n      add\n        /* \"#utility.yul\":6331:6378   */\n      mstore\n        /* \"#utility.yul\":6395:6526   */\n      tag_217\n        /* \"#utility.yul\":6521:6525   */\n      dup2\n        /* \"#utility.yul\":6395:6526   */\n      tag_143\n      jump\t// in\n    tag_217:\n        /* \"#utility.yul\":6387:6526   */\n      swap1\n      pop\n        /* \"#utility.yul\":6114:6533   */\n      swap2\n      swap1\n      pop\n      jump\t// out\n        /* \"#utility.yul\":6539:6686   */\n    tag_144:\n        /* \"#utility.yul\":6640:6651   */\n      0x00\n        /* \"#utility.yul\":6677:6680   */\n      dup2\n        /* \"#utility.yul\":6662:6680   */\n      swap1\n      pop\n        /* \"#utility.yul\":6539:6686   */\n      swap3\n      swap2\n      pop\n      pop\n      jump\t// out\n        /* \"#utility.yul\":6692:6806   */\n    tag_145:\n      pop\n      jump\t// out\n        /* \"#utility.yul\":6812:7210   */\n    tag_146:\n        /* \"#utility.yul\":6971:6974   */\n      0x00\n        /* \"#utility.yul\":6992:7075   */\n      tag_221\n        /* \"#utility.yul\":7073:7074   */\n      0x00\n        /* \"#utility.yul\":7068:7071   */\n      dup4\n        /* \"#utility.yul\":6992:7075   */\n      tag_144\n      jump\t// in\n    tag_221:\n        /* \"#utility.yul\":6985:7075   */\n      swap2\n      pop\n        /* \"#utility.yul\":7084:7177   */\n      tag_222\n        /* \"#utility.yul\":7173:7176   */\n      dup3\n        /* \"#utility.yul\":7084:7177   */\n      tag_145\n      jump\t// in\n    tag_222:\n        /* \"#utility.yul\":7202:7203   */\n      0x00\n        /* \"#utility.yul\":7197:7200   */\n      dup3\n        /* \"#utility.yul\":7193:7204   */\n      add\n        /* \"#utility.yul\":7186:7204   */\n      swap1\n      pop\n        /* \"#utility.yul\":6812:7210   */\n      swap2\n      swap1\n      pop\n      jump\t// out\n        /* \"#utility.yul\":7216:7595   */\n    tag_95:\n        /* \"#utility.yul\":7400:7403   */\n      0x00\n        /* \"#utility.yul\":7422:7569   */\n      tag_224\n        /* \"#utility.yul\":7565:7568   */\n      dup3\n        /* \"#utility.yul\":7422:7569   */\n      tag_146\n      jump\t// in\n    tag_224:\n        /* \"#utility.yul\":7415:7569   */\n      swap2\n      pop\n        /* \"#utility.yul\":7586:7589   */\n      dup2\n        /* \"#utility.yul\":7579:7589   */\n      swap1\n      pop\n        /* \"#utility.yul\":7216:7595   */\n      swap2\n      swap1\n      pop\n      jump\t// out\n        /* \"#utility.yul\":7601:7762   */\n    tag_147:\n        /* \"#utility.yul\":7741:7754   */\n      0x43616c6c206661696c6564000000000000000000000000000000000000000000\n        /* \"#utility.yul\":7737:7738   */\n      0x00\n        /* \"#utility.yul\":7729:7735   */\n      dup3\n        /* \"#utility.yul\":7725:7739   */\n      add\n        /* \"#utility.yul\":7718:7755   */\n      mstore\n        /* \"#utility.yul\":7601:7762   */\n      pop\n      jump\t// out\n        /* \"#utility.yul\":7768:8134   */\n    tag_148:\n        /* \"#utility.yul\":7910:7913   */\n      0x00\n        /* \"#utility.yul\":7931:7998   */\n      tag_227\n        /* \"#utility.yul\":7995:7997   */\n      0x0b\n        /* \"#utility.yul\":7990:7993   */\n      dup4\n        /* \"#utility.yul\":7931:7998   */\n      tag_136\n      jump\t// in\n    tag_227:\n        /* \"#utility.yul\":7924:7998   */\n      swap2\n      pop\n        /* \"#utility.yul\":8007:8100   */\n      tag_228\n        /* \"#utility.yul\":8096:8099   */\n      dup3\n        /* \"#utility.yul\":8007:8100   */\n      tag_147\n      jump\t// in\n    tag_228:\n        /* \"#utility.yul\":8125:8127   */\n      0x20\n        /* \"#utility.yul\":8120:8123   */\n      dup3\n        /* \"#utility.yul\":8116:8128   */\n      add\n        /* \"#utility.yul\":8109:8128   */\n      swap1\n      pop\n        /* \"#utility.yul\":7768:8134   */\n      swap2\n      swap1\n      pop\n      jump\t// out\n        /* \"#utility.yul\":8140:8559   */\n    tag_101:\n        /* \"#utility.yul\":8306:8310   */\n      0x00\n        /* \"#utility.yul\":8344:8346   */\n      0x20\n        /* \"#utility.yul\":8333:8342   */\n      dup3\n        /* \"#utility.yul\":8329:8347   */\n      add\n        /* \"#utility.yul\":8321:8347   */\n      swap1\n      pop\n        /* \"#utility.yul\":8393:8402   */\n      dup2\n        /* \"#utility.yul\":8387:8391   */\n      dup2\n        /* \"#utility.yul\":8383:8403   */\n      sub\n        /* \"#utility.yul\":8379:8380   */\n      0x00\n        /* \"#utility.yul\":8368:8377   */\n      dup4\n        /* \"#utility.yul\":8364:8381   */\n      add\n        /* \"#utility.yul\":8357:8404   */\n      mstore\n        /* \"#utility.yul\":8421:8552   */\n      tag_230\n        /* \"#utility.yul\":8547:8551   */\n      dup2\n        /* \"#utility.yul\":8421:8552   */\n      tag_148\n      jump\t// in\n    tag_230:\n        /* \"#utility.yul\":8413:8552   */\n      swap1\n      pop\n        /* \"#utility.yul\":8140:8559   */\n      swap2\n      swap1\n      pop\n      jump\t// out\n        /* \"#utility.yul\":8565:8745   */\n    tag_149:\n        /* \"#utility.yul\":8613:8690   */\n      0x4e487b7100000000000000000000000000000000000000000000000000000000\n        /* \"#utility.yul\":8610:8611   */\n      0x00\n        /* \"#utility.yul\":8603:8691   */\n      mstore\n        /* \"#utility.yul\":8710:8714   */\n      0x11\n        /* \"#utility.yul\":8707:8708   */\n      0x04\n        /* \"#utility.yul\":8700:8715   */\n      mstore\n        /* \"#utility.yul\":8734:8738   */\n      0x24\n        /* \"#utility.yul\":8731:8732   */\n      0x00\n        /* \"#utility.yul\":8724:8739   */\n      revert\n        /* \"#utility.yul\":8751:9161   */\n    tag_105:\n        /* \"#utility.yul\":8791:8798   */\n      0x00\n        /* \"#utility.yul\":8814:8834   */\n      tag_233\n        /* \"#utility.yul\":8832:8833   */\n      dup3\n        /* \"#utility.yul\":8814:8834   */\n      tag_124\n      jump\t// in\n    tag_233:\n        /* \"#utility.yul\":8809:8834   */\n      swap2\n      pop\n        /* \"#utility.yul\":8848:8868   */\n      tag_234\n        /* \"#utility.yul\":8866:8867   */\n      dup4\n        /* \"#utility.yul\":8848:8868   */\n      tag_124\n      jump\t// in\n    tag_234:\n        /* \"#utility.yul\":8843:8868   */\n      swap3\n      pop\n        /* \"#utility.yul\":8903:8904   */\n      dup3\n        /* \"#utility.yul\":8900:8901   */\n      dup3\n        /* \"#utility.yul\":8896:8905   */\n      mul\n        /* \"#utility.yul\":8925:8955   */\n      tag_235\n        /* \"#utility.yul\":8943:8954   */\n      dup2\n        /* \"#utility.yul\":8925:8955   */\n      tag_124\n      jump\t// in\n    tag_235:\n        /* \"#utility.yul\":8914:8955   */\n      swap2\n      pop\n        /* \"#utility.yul\":9104:9105   */\n      dup3\n        /* \"#utility.yul\":9095:9102   */\n      dup3\n        /* \"#utility.yul\":9091:9106   */\n      div\n        /* \"#utility.yul\":9088:9089   */\n      dup5\n        /* \"#utility.yul\":9085:9107   */\n      eq\n        /* \"#utility.yul\":9065:9066   */\n      dup4\n        /* \"#utility.yul\":9058:9067   */\n      iszero\n        /* \"#utility.yul\":9038:9121   */\n      or\n        /* \"#utility.yul\":9015:9154   */\n      tag_236\n      jumpi\n        /* \"#utility.yul\":9134:9152   */\n      tag_237\n      tag_149\n      jump\t// in\n    tag_237:\n        /* \"#utility.yul\":9015:9154   */\n    tag_236:\n        /* \"#utility.yul\":8799:9161   */\n      pop\n        /* \"#utility.yul\":8751:9161   */\n      swap3\n      swap2\n      pop\n      pop\n      jump\t// out\n        /* \"#utility.yul\":9167:9347   */\n    tag_150:\n        /* \"#utility.yul\":9215:9292   */\n      0x4e487b7100000000000000000000000000000000000000000000000000000000\n        /* \"#utility.yul\":9212:9213   */\n      0x00\n        /* \"#utility.yul\":9205:9293   */\n      mstore\n        /* \"#utility.yul\":9312:9316   */\n      0x12\n        /* \"#utility.yul\":9309:9310   */\n      0x04\n        /* \"#utility.yul\":9302:9317   */\n      mstore\n        /* \"#utility.yul\":9336:9340   */\n      0x24\n        /* \"#utility.yul\":9333:9334   */\n      0x00\n        /* \"#utility.yul\":9326:9341   */\n      revert\n        /* \"#utility.yul\":9353:9538   */\n    tag_107:\n        /* \"#utility.yul\":9393:9394   */\n      0x00\n        /* \"#utility.yul\":9410:9430   */\n      tag_240\n        /* \"#utility.yul\":9428:9429   */\n      dup3\n        /* \"#utility.yul\":9410:9430   */\n      tag_124\n      jump\t// in\n    tag_240:\n        /* \"#utility.yul\":9405:9430   */\n      swap2\n      pop\n        /* \"#utility.yul\":9444:9464   */\n      tag_241\n        /* \"#utility.yul\":9462:9463   */\n      dup4\n        /* \"#utility.yul\":9444:9464   */\n      tag_124\n      jump\t// in\n    tag_241:\n        /* \"#utility.yul\":9439:9464   */\n      swap3\n      pop\n        /* \"#utility.yul\":9483:9484   */\n      dup3\n        /* \"#utility.yul\":9473:9508   */\n      tag_242\n      jumpi\n        /* \"#utility.yul\":9488:9506   */\n      tag_243\n      tag_150\n      jump\t// in\n    tag_243:\n        /* \"#utility.yul\":9473:9508   */\n    tag_242:\n        /* \"#utility.yul\":9530:9531   */\n      dup3\n        /* \"#utility.yul\":9527:9528   */\n      dup3\n        /* \"#utility.yul\":9523:9532   */\n      div\n        /* \"#utility.yul\":9518:9532   */\n      swap1\n      pop\n        /* \"#utility.yul\":9353:9538   */\n      swap3\n      swap2\n      pop\n      pop\n      jump\t// out\n        /* \"#utility.yul\":9544:9649   */\n    tag_151:\n        /* \"#utility.yul\":9580:9587   */\n      0x00\n        /* \"#utility.yul\":9620:9642   */\n      0xffffffffffffffffffff\n        /* \"#utility.yul\":9613:9618   */\n      dup3\n        /* \"#utility.yul\":9609:9643   */\n      and\n        /* \"#utility.yul\":9598:9643   */\n      swap1\n      pop\n        /* \"#utility.yul\":9544:9649   */\n      swap2\n      swap1\n      pop\n      jump\t// out\n        /* \"#utility.yul\":9655:9775   */\n    tag_152:\n        /* \"#utility.yul\":9727:9750   */\n      tag_246\n        /* \"#utility.yul\":9744:9749   */\n      dup2\n        /* \"#utility.yul\":9727:9750   */\n      tag_151\n      jump\t// in\n    tag_246:\n        /* \"#utility.yul\":9720:9725   */\n      dup2\n        /* \"#utility.yul\":9717:9751   */\n      eq\n        /* \"#utility.yul\":9707:9769   */\n      tag_247\n      jumpi\n        /* \"#utility.yul\":9765:9766   */\n      0x00\n        /* \"#utility.yul\":9762:9763   */\n      dup1\n        /* \"#utility.yul\":9755:9767   */\n      revert\n        /* \"#utility.yul\":9707:9769   */\n    tag_247:\n        /* \"#utility.yul\":9655:9775   */\n      pop\n      jump\t// out\n        /* \"#utility.yul\":9781:9922   */\n    tag_153:\n        /* \"#utility.yul\":9837:9842   */\n      0x00\n        /* \"#utility.yul\":9868:9874   */\n      dup2\n        /* \"#utility.yul\":9862:9875   */\n      mload\n        /* \"#utility.yul\":9853:9875   */\n      swap1\n      pop\n        /* \"#utility.yul\":9884:9916   */\n      tag_249\n        /* \"#utility.yul\":9910:9915   */\n      dup2\n        /* \"#utility.yul\":9884:9916   */\n      tag_152\n      jump\t// in\n    tag_249:\n        /* \"#utility.yul\":9781:9922   */\n      swap3\n      swap2\n      pop\n      pop\n      jump\t// out\n        /* \"#utility.yul\":9928:10004   */\n    tag_154:\n        /* \"#utility.yul\":9964:9971   */\n      0x00\n        /* \"#utility.yul\":9993:9998   */\n      dup2\n        /* \"#utility.yul\":9982:9998   */\n      swap1\n      pop\n        /* \"#utility.yul\":9928:10004   */\n      swap2\n      swap1\n      pop\n      jump\t// out\n        /* \"#utility.yul\":10010:10130   */\n    tag_155:\n        /* \"#utility.yul\":10082:10105   */\n      tag_252\n        /* \"#utility.yul\":10099:10104   */\n      dup2\n        /* \"#utility.yul\":10082:10105   */\n      tag_154\n      jump\t// in\n    tag_252:\n        /* \"#utility.yul\":10075:10080   */\n      dup2\n        /* \"#utility.yul\":10072:10106   */\n      eq\n        /* \"#utility.yul\":10062:10124   */\n      tag_253\n      jumpi\n        /* \"#utility.yul\":10120:10121   */\n      0x00\n        /* \"#utility.yul\":10117:10118   */\n      dup1\n        /* \"#utility.yul\":10110:10122   */\n      revert\n        /* \"#utility.yul\":10062:10124   */\n    tag_253:\n        /* \"#utility.yul\":10010:10130   */\n      pop\n      jump\t// out\n        /* \"#utility.yul\":10136:10277   */\n    tag_156:\n        /* \"#utility.yul\":10192:10197   */\n      0x00\n        /* \"#utility.yul\":10223:10229   */\n      dup2\n        /* \"#utility.yul\":10217:10230   */\n      mload\n        /* \"#utility.yul\":10208:10230   */\n      swap1\n      pop\n        /* \"#utility.yul\":10239:10271   */\n      tag_255\n        /* \"#utility.yul\":10265:10270   */\n      dup2\n        /* \"#utility.yul\":10239:10271   */\n      tag_155\n      jump\t// in\n    tag_255:\n        /* \"#utility.yul\":10136:10277   */\n      swap3\n      swap2\n      pop\n      pop\n      jump\t// out\n        /* \"#utility.yul\":10283:11254   */\n    tag_112:\n        /* \"#utility.yul\":10386:10392   */\n      0x00\n        /* \"#utility.yul\":10394:10400   */\n      dup1\n        /* \"#utility.yul\":10402:10408   */\n      0x00\n        /* \"#utility.yul\":10410:10416   */\n      dup1\n        /* \"#utility.yul\":10418:10424   */\n      0x00\n        /* \"#utility.yul\":10467:10470   */\n      0xa0\n        /* \"#utility.yul\":10455:10464   */\n      dup7\n        /* \"#utility.yul\":10446:10453   */\n      dup9\n        /* \"#utility.yul\":10442:10465   */\n      sub\n        /* \"#utility.yul\":10438:10471   */\n      slt\n        /* \"#utility.yul\":10435:10555   */\n      iszero\n      tag_257\n      jumpi\n        /* \"#utility.yul\":10474:10553   */\n      tag_258\n      tag_127\n      jump\t// in\n    tag_258:\n        /* \"#utility.yul\":10435:10555   */\n    tag_257:\n        /* \"#utility.yul\":10594:10595   */\n      0x00\n        /* \"#utility.yul\":10619:10682   */\n      tag_259\n        /* \"#utility.yul\":10674:10681   */\n      dup9\n        /* \"#utility.yul\":10665:10671   */\n      dup3\n        /* \"#utility.yul\":10654:10663   */\n      dup10\n        /* \"#utility.yul\":10650:10672   */\n      add\n        /* \"#utility.yul\":10619:10682   */\n      tag_153\n      jump\t// in\n    tag_259:\n        /* \"#utility.yul\":10609:10682   */\n      swap6\n      pop\n        /* \"#utility.yul\":10565:10692   */\n      pop\n        /* \"#utility.yul\":10731:10733   */\n      0x20\n        /* \"#utility.yul\":10757:10820   */\n      tag_260\n        /* \"#utility.yul\":10812:10819   */\n      dup9\n        /* \"#utility.yul\":10803:10809   */\n      dup3\n        /* \"#utility.yul\":10792:10801   */\n      dup10\n        /* \"#utility.yul\":10788:10810   */\n      add\n        /* \"#utility.yul\":10757:10820   */\n      tag_156\n      jump\t// in\n    tag_260:\n        /* \"#utility.yul\":10747:10820   */\n      swap5\n      pop\n        /* \"#utility.yul\":10702:10830   */\n      pop\n        /* \"#utility.yul\":10869:10871   */\n      0x40\n        /* \"#utility.yul\":10895:10959   */\n      tag_261\n        /* \"#utility.yul\":10951:10958   */\n      dup9\n        /* \"#utility.yul\":10942:10948   */\n      dup3\n        /* \"#utility.yul\":10931:10940   */\n      dup10\n        /* \"#utility.yul\":10927:10949   */\n      add\n        /* \"#utility.yul\":10895:10959   */\n      tag_139\n      jump\t// in\n    tag_261:\n        /* \"#utility.yul\":10885:10959   */\n      swap4\n      pop\n        /* \"#utility.yul\":10840:10969   */\n      pop\n        /* \"#utility.yul\":11008:11010   */\n      0x60\n        /* \"#utility.yul\":11034:11098   */\n      tag_262\n        /* \"#utility.yul\":11090:11097   */\n      dup9\n        /* \"#utility.yul\":11081:11087   */\n      dup3\n        /* \"#utility.yul\":11070:11079   */\n      dup10\n        /* \"#utility.yul\":11066:11088   */\n      add\n        /* \"#utility.yul\":11034:11098   */\n      tag_139\n      jump\t// in\n    tag_262:\n        /* \"#utility.yul\":11024:11098   */\n      swap3\n      pop\n        /* \"#utility.yul\":10979:11108   */\n      pop\n        /* \"#utility.yul\":11147:11150   */\n      0x80\n        /* \"#utility.yul\":11174:11237   */\n      tag_263\n        /* \"#utility.yul\":11229:11236   */\n      dup9\n        /* \"#utility.yul\":11220:11226   */\n      dup3\n        /* \"#utility.yul\":11209:11218   */\n      dup10\n        /* \"#utility.yul\":11205:11227   */\n      add\n        /* \"#utility.yul\":11174:11237   */\n      tag_153\n      jump\t// in\n    tag_263:\n        /* \"#utility.yul\":11164:11237   */\n      swap2\n      pop\n        /* \"#utility.yul\":11118:11247   */\n      pop\n        /* \"#utility.yul\":10283:11254   */\n      swap3\n      swap6\n      pop\n      swap3\n      swap6\n      swap1\n      swap4\n      pop\n      jump\t// out\n        /* \"#utility.yul\":11260:11816   */\n    tag_114:\n        /* \"#utility.yul\":11299:11306   */\n      0x00\n        /* \"#utility.yul\":11322:11341   */\n      tag_265\n        /* \"#utility.yul\":11339:11340   */\n      dup3\n        /* \"#utility.yul\":11322:11341   */\n      tag_154\n      jump\t// in\n    tag_265:\n        /* \"#utility.yul\":11317:11341   */\n      swap2\n      pop\n        /* \"#utility.yul\":11355:11374   */\n      tag_266\n        /* \"#utility.yul\":11372:11373   */\n      dup4\n        /* \"#utility.yul\":11355:11374   */\n      tag_154\n      jump\t// in\n    tag_266:\n        /* \"#utility.yul\":11350:11374   */\n      swap3\n      pop\n        /* \"#utility.yul\":11409:11410   */\n      dup3\n        /* \"#utility.yul\":11406:11407   */\n      dup3\n        /* \"#utility.yul\":11402:11411   */\n      mul\n        /* \"#utility.yul\":11431:11460   */\n      tag_267\n        /* \"#utility.yul\":11448:11459   */\n      dup2\n        /* \"#utility.yul\":11431:11460   */\n      tag_154\n      jump\t// in\n    tag_267:\n        /* \"#utility.yul\":11420:11460   */\n      swap2\n      pop\n        /* \"#utility.yul\":11518:11584   */\n      0x8000000000000000000000000000000000000000000000000000000000000000\n        /* \"#utility.yul\":11515:11516   */\n      dup5\n        /* \"#utility.yul\":11512:11585   */\n      eq\n        /* \"#utility.yul\":11508:11509   */\n      0x00\n        /* \"#utility.yul\":11505:11506   */\n      dup5\n        /* \"#utility.yul\":11501:11510   */\n      slt\n        /* \"#utility.yul\":11497:11586   */\n      and\n        /* \"#utility.yul\":11494:11609   */\n      iszero\n      tag_268\n      jumpi\n        /* \"#utility.yul\":11589:11607   */\n      tag_269\n      tag_149\n      jump\t// in\n    tag_269:\n        /* \"#utility.yul\":11494:11609   */\n    tag_268:\n        /* \"#utility.yul\":11759:11760   */\n      dup3\n        /* \"#utility.yul\":11750:11757   */\n      dup3\n        /* \"#utility.yul\":11745:11761   */\n      sdiv\n        /* \"#utility.yul\":11742:11743   */\n      dup5\n        /* \"#utility.yul\":11739:11762   */\n      eq\n        /* \"#utility.yul\":11719:11720   */\n      dup4\n        /* \"#utility.yul\":11712:11721   */\n      iszero\n        /* \"#utility.yul\":11692:11776   */\n      or\n        /* \"#utility.yul\":11669:11809   */\n      tag_270\n      jumpi\n        /* \"#utility.yul\":11789:11807   */\n      tag_271\n      tag_149\n      jump\t// in\n    tag_271:\n        /* \"#utility.yul\":11669:11809   */\n    tag_270:\n        /* \"#utility.yul\":11307:11816   */\n      pop\n        /* \"#utility.yul\":11260:11816   */\n      swap3\n      swap2\n      pop\n      pop\n      jump\t// out\n\n    auxdata: 0xa2646970667358221220e81b04b9796dda11b574bf673866102f4f8b2f44e7466a23a8adf714797adb7a64736f6c63430008160033\n}\n",
				"bytecode": {
					"linkReferences": {},
					"object": "60a060405234801561000f575f80fd5b503373ffffffffffffffffffffffffffffffffffffffff1660808173ffffffffffffffffffffffffffffffffffffffff1681525050608051610eac6100635f395f818161039e01526106e80152610eac5ff3fe608060405260043610610089575f3560e01c80636e5b6b28116100585780636e5b6b28146101485780638da5cb5b1461018457806398d5fdca146101ae578063b60d4288146101d8578063dc0d3dff146101e257610098565b80630d8e6e2c146100a25780633ccfd60b146100cc5780633e47d6f3146100e25780636b69a5921461011e57610098565b366100985761009661021e565b005b6100a061021e565b005b3480156100ad575f80fd5b506100b6610315565b6040516100c391906108a3565b60405180910390f35b3480156100d7575f80fd5b506100e061039c565b005b3480156100ed575f80fd5b506101086004803603810190610103919061091a565b61068c565b60405161011591906108a3565b60405180910390f35b348015610129575f80fd5b506101326106a1565b60405161013f91906108a3565b60405180910390f35b348015610153575f80fd5b5061016e6004803603810190610169919061096f565b6106ae565b60405161017b91906108a3565b60405180910390f35b34801561018f575f80fd5b506101986106e6565b6040516101a591906109a9565b60405180910390f35b3480156101b9575f80fd5b506101c261070a565b6040516101cf91906108a3565b60405180910390f35b6101e061021e565b005b3480156101ed575f80fd5b506102086004803603810190610203919061096f565b6107af565b60405161021591906109a9565b60405180910390f35b6802b5e3af16b1880000610231346106ae565b1015610272576040517f08c379a000000000000000000000000000000000000000000000000000000000815260040161026990610a1c565b60405180910390fd5b5f33908060018154018082558091505060019003905f5260205f20015f9091909190916101000a81548173ffffffffffffffffffffffffffffffffffffffff021916908373ffffffffffffffffffffffffffffffffffffffff1602179055503460015f3373ffffffffffffffffffffffffffffffffffffffff1673ffffffffffffffffffffffffffffffffffffffff1681526020019081526020015f2081905550565b5f73694aa1769357215de4fac081bf1f309adc32530673ffffffffffffffffffffffffffffffffffffffff166354fd4d506040518163ffffffff1660e01b8152600401602060405180830381865afa158015610373573d5f803e3d5ffd5b505050506040513d601f19601f820116820180604052508101906103979190610a4e565b905090565b7f000000000000000000000000000000000000000000000000000000000000000073ffffffffffffffffffffffffffffffffffffffff163373ffffffffffffffffffffffffffffffffffffffff161461042a576040517f08c379a000000000000000000000000000000000000000000000000000000000815260040161042190610ac3565b60405180910390fd5b5f5b5f805490508110156104c6575f80828154811061044c5761044b610ae1565b5b905f5260205f20015f9054906101000a900473ffffffffffffffffffffffffffffffffffffffff1690505f60015f8373ffffffffffffffffffffffffffffffffffffffff1673ffffffffffffffffffffffffffffffffffffffff1681526020019081526020015f208190555050808060010191505061042c565b505f67ffffffffffffffff8111156104e1576104e0610b0e565b5b60405190808252806020026020018201604052801561050f5781602001602082028036833780820191505090505b505f90805190602001906105249291906107e9565b503373ffffffffffffffffffffffffffffffffffffffff166108fc4790811502906040515f60405180830381858888f19350505050158015610568573d5f803e3d5ffd5b505f3373ffffffffffffffffffffffffffffffffffffffff166108fc4790811502906040515f60405180830381858888f193505050509050806105e0576040517f08c379a00000000000000000000000000000000000000000000000000000000081526004016105d790610b85565b60405180910390fd5b5f3373ffffffffffffffffffffffffffffffffffffffff164760405161060590610bd0565b5f6040518083038185875af1925050503d805f811461063f576040519150601f19603f3d011682016040523d82523d5f602084013e610644565b606091505b5050905080610688576040517f08c379a000000000000000000000000000000000000000000000000000000000815260040161067f90610c2e565b60405180910390fd5b5050565b6001602052805f5260405f205f915090505481565b6802b5e3af16b188000081565b5f806106b861070a565b90505f670de0b6b3a764000084836106d09190610c79565b6106da9190610ce7565b90508092505050919050565b7f000000000000000000000000000000000000000000000000000000000000000081565b5f8073694aa1769357215de4fac081bf1f309adc32530690505f8173ffffffffffffffffffffffffffffffffffffffff1663feaf968c6040518163ffffffff1660e01b815260040160a060405180830381865afa15801561076d573d5f803e3d5ffd5b505050506040513d601f19601f820116820180604052508101906107919190610d89565b5050509150506402540be400816107a89190610e00565b9250505090565b5f81815481106107bd575f80fd5b905f5260205f20015f915054906101000a900473ffffffffffffffffffffffffffffffffffffffff1681565b828054828255905f5260205f2090810192821561085f579160200282015b8281111561085e578251825f6101000a81548173ffffffffffffffffffffffffffffffffffffffff021916908373ffffffffffffffffffffffffffffffffffffffff16021790555091602001919060010190610807565b5b50905061086c9190610870565b5090565b5b80821115610887575f815f905550600101610871565b5090565b5f819050919050565b61089d8161088b565b82525050565b5f6020820190506108b65f830184610894565b92915050565b5f80fd5b5f73ffffffffffffffffffffffffffffffffffffffff82169050919050565b5f6108e9826108c0565b9050919050565b6108f9816108df565b8114610903575f80fd5b50565b5f81359050610914816108f0565b92915050565b5f6020828403121561092f5761092e6108bc565b5b5f61093c84828501610906565b91505092915050565b61094e8161088b565b8114610958575f80fd5b50565b5f8135905061096981610945565b92915050565b5f60208284031215610984576109836108bc565b5b5f6109918482850161095b565b91505092915050565b6109a3816108df565b82525050565b5f6020820190506109bc5f83018461099a565b92915050565b5f82825260208201905092915050565b7f4469646e27742073656e6420656e6f75676821210000000000000000000000005f82015250565b5f610a066014836109c2565b9150610a11826109d2565b602082019050919050565b5f6020820190508181035f830152610a33816109fa565b9050919050565b5f81519050610a4881610945565b92915050565b5f60208284031215610a6357610a626108bc565b5b5f610a7084828501610a3a565b91505092915050565b7f53656e646572206973204e6f7420746865204f776e65720000000000000000005f82015250565b5f610aad6017836109c2565b9150610ab882610a79565b602082019050919050565b5f6020820190508181035f830152610ada81610aa1565b9050919050565b7f4e487b71000000000000000000000000000000000000000000000000000000005f52603260045260245ffd5b7f4e487b71000000000000000000000000000000000000000000000000000000005f52604160045260245ffd5b7f53656e64206661696c65642021000000000000000000000000000000000000005f82015250565b5f610b6f600d836109c2565b9150610b7a82610b3b565b602082019050919050565b5f6020820190508181035f830152610b9c81610b63565b9050919050565b5f81905092915050565b50565b5f610bbb5f83610ba3565b9150610bc682610bad565b5f82019050919050565b5f610bda82610bb0565b9150819050919050565b7f43616c6c206661696c65640000000000000000000000000000000000000000005f82015250565b5f610c18600b836109c2565b9150610c2382610be4565b602082019050919050565b5f6020820190508181035f830152610c4581610c0c565b9050919050565b7f4e487b71000000000000000000000000000000000000000000000000000000005f52601160045260245ffd5b5f610c838261088b565b9150610c8e8361088b565b9250828202610c9c8161088b565b91508282048414831517610cb357610cb2610c4c565b5b5092915050565b7f4e487b71000000000000000000000000000000000000000000000000000000005f52601260045260245ffd5b5f610cf18261088b565b9150610cfc8361088b565b925082610d0c57610d0b610cba565b5b828204905092915050565b5f69ffffffffffffffffffff82169050919050565b610d3581610d17565b8114610d3f575f80fd5b50565b5f81519050610d5081610d2c565b92915050565b5f819050919050565b610d6881610d56565b8114610d72575f80fd5b50565b5f81519050610d8381610d5f565b92915050565b5f805f805f60a08688031215610da257610da16108bc565b5b5f610daf88828901610d42565b9550506020610dc088828901610d75565b9450506040610dd188828901610a3a565b9350506060610de288828901610a3a565b9250506080610df388828901610d42565b9150509295509295909350565b5f610e0a82610d56565b9150610e1583610d56565b9250828202610e2381610d56565b91507f800000000000000000000000000000000000000000000000000000000000000084145f84121615610e5a57610e59610c4c565b5b8282058414831517610e6f57610e6e610c4c565b5b509291505056fea2646970667358221220e81b04b9796dda11b574bf673866102f4f8b2f44e7466a23a8adf714797adb7a64736f6c63430008160033",
					"opcodes": "PUSH1 0xA0 PUSH1 0x40 MSTORE CALLVALUE DUP1 ISZERO PUSH2 0xF JUMPI PUSH0 DUP1 REVERT JUMPDEST POP CALLER PUSH20 0xFFFFFFFFFFFFFFFFFFFFFFFFFFFFFFFFFFFFFFFF AND PUSH1 0x80 DUP2 PUSH20 0xFFFFFFFFFFFFFFFFFFFFFFFFFFFFFFFFFFFFFFFF AND DUP2 MSTORE POP POP PUSH1 0x80 MLOAD PUSH2 0xEAC PUSH2 0x63 PUSH0 CODECOPY PUSH0 DUP2 DUP2 PUSH2 0x39E ADD MSTORE PUSH2 0x6E8 ADD MSTORE PUSH2 0xEAC PUSH0 RETURN INVALID PUSH1 0x80 PUSH1 0x40 MSTORE PUSH1 0x4 CALLDATASIZE LT PUSH2 0x89 JUMPI PUSH0 CALLDATALOAD PUSH1 0xE0 SHR DUP1 PUSH4 0x6E5B6B28 GT PUSH2 0x58 JUMPI DUP1 PUSH4 0x6E5B6B28 EQ PUSH2 0x148 JUMPI DUP1 PUSH4 0x8DA5CB5B EQ PUSH2 0x184 JUMPI DUP1 PUSH4 0x98D5FDCA EQ PUSH2 0x1AE JUMPI DUP1 PUSH4 0xB60D4288 EQ PUSH2 0x1D8 JUMPI DUP1 PUSH4 0xDC0D3DFF EQ PUSH2 0x1E2 JUMPI PUSH2 0x98 JUMP JUMPDEST DUP1 PUSH4 0xD8E6E2C EQ PUSH2 0xA2 JUMPI DUP1 PUSH4 0x3CCFD60B EQ PUSH2 0xCC JUMPI DUP1 PUSH4 0x3E47D6F3 EQ PUSH2 0xE2 JUMPI DUP1 PUSH4 0x6B69A592 EQ PUSH2 0x11E JUMPI PUSH2 0x98 JUMP JUMPDEST CALLDATASIZE PUSH2 0x98 JUMPI PUSH2 0x96 PUSH2 0x21E JUMP JUMPDEST STOP JUMPDEST PUSH2 0xA0 PUSH2 0x21E JUMP JUMPDEST STOP JUMPDEST CALLVALUE DUP1 ISZERO PUSH2 0xAD JUMPI PUSH0 DUP1 REVERT JUMPDEST POP PUSH2 0xB6 PUSH2 0x315 JUMP JUMPDEST PUSH1 0x40 MLOAD PUSH2 0xC3 SWAP2 SWAP1 PUSH2 0x8A3 JUMP JUMPDEST PUSH1 0x40 MLOAD DUP1 SWAP2 SUB SWAP1 RETURN JUMPDEST CALLVALUE DUP1 ISZERO PUSH2 0xD7 JUMPI PUSH0 DUP1 REVERT JUMPDEST POP PUSH2 0xE0 PUSH2 0x39C JUMP JUMPDEST STOP JUMPDEST CALLVALUE DUP1 ISZERO PUSH2 0xED JUMPI PUSH0 DUP1 REVERT JUMPDEST POP PUSH2 0x108 PUSH1 0x4 DUP1 CALLDATASIZE SUB DUP2 ADD SWAP1 PUSH2 0x103 SWAP2 SWAP1 PUSH2 0x91A JUMP JUMPDEST PUSH2 0x68C JUMP JUMPDEST PUSH1 0x40 MLOAD PUSH2 0x115 SWAP2 SWAP1 PUSH2 0x8A3 JUMP JUMPDEST PUSH1 0x40 MLOAD DUP1 SWAP2 SUB SWAP1 RETURN JUMPDEST CALLVALUE DUP1 ISZERO PUSH2 0x129 JUMPI PUSH0 DUP1 REVERT JUMPDEST POP PUSH2 0x132 PUSH2 0x6A1 JUMP JUMPDEST PUSH1 0x40 MLOAD PUSH2 0x13F SWAP2 SWAP1 PUSH2 0x8A3 JUMP JUMPDEST PUSH1 0x40 MLOAD DUP1 SWAP2 SUB SWAP1 RETURN JUMPDEST CALLVALUE DUP1 ISZERO PUSH2 0x153 JUMPI PUSH0 DUP1 REVERT JUMPDEST POP PUSH2 0x16E PUSH1 0x4 DUP1 CALLDATASIZE SUB DUP2 ADD SWAP1 PUSH2 0x169 SWAP2 SWAP1 PUSH2 0x96F JUMP JUMPDEST PUSH2 0x6AE JUMP JUMPDEST PUSH1 0x40 MLOAD PUSH2 0x17B SWAP2 SWAP1 PUSH2 0x8A3 JUMP JUMPDEST PUSH1 0x40 MLOAD DUP1 SWAP2 SUB SWAP1 RETURN JUMPDEST CALLVALUE DUP1 ISZERO PUSH2 0x18F JUMPI PUSH0 DUP1 REVERT JUMPDEST POP PUSH2 0x198 PUSH2 0x6E6 JUMP JUMPDEST PUSH1 0x40 MLOAD PUSH2 0x1A5 SWAP2 SWAP1 PUSH2 0x9A9 JUMP JUMPDEST PUSH1 0x40 MLOAD DUP1 SWAP2 SUB SWAP1 RETURN JUMPDEST CALLVALUE DUP1 ISZERO PUSH2 0x1B9 JUMPI PUSH0 DUP1 REVERT JUMPDEST POP PUSH2 0x1C2 PUSH2 0x70A JUMP JUMPDEST PUSH1 0x40 MLOAD PUSH2 0x1CF SWAP2 SWAP1 PUSH2 0x8A3 JUMP JUMPDEST PUSH1 0x40 MLOAD DUP1 SWAP2 SUB SWAP1 RETURN JUMPDEST PUSH2 0x1E0 PUSH2 0x21E JUMP JUMPDEST STOP JUMPDEST CALLVALUE DUP1 ISZERO PUSH2 0x1ED JUMPI PUSH0 DUP1 REVERT JUMPDEST POP PUSH2 0x208 PUSH1 0x4 DUP1 CALLDATASIZE SUB DUP2 ADD SWAP1 PUSH2 0x203 SWAP2 SWAP1 PUSH2 0x96F JUMP JUMPDEST PUSH2 0x7AF JUMP JUMPDEST PUSH1 0x40 MLOAD PUSH2 0x215 SWAP2 SWAP1 PUSH2 0x9A9 JUMP JUMPDEST PUSH1 0x40 MLOAD DUP1 SWAP2 SUB SWAP1 RETURN JUMPDEST PUSH9 0x2B5E3AF16B1880000 PUSH2 0x231 CALLVALUE PUSH2 0x6AE JUMP JUMPDEST LT ISZERO PUSH2 0x272 JUMPI PUSH1 0x40 MLOAD PUSH32 0x8C379A000000000000000000000000000000000000000000000000000000000 DUP2 MSTORE PUSH1 0x4 ADD PUSH2 0x269 SWAP1 PUSH2 0xA1C JUMP JUMPDEST PUSH1 0x40 MLOAD DUP1 SWAP2 SUB SWAP1 REVERT JUMPDEST PUSH0 CALLER SWAP1 DUP1 PUSH1 0x1 DUP2 SLOAD ADD DUP1 DUP3 SSTORE DUP1 SWAP2 POP POP PUSH1 0x1 SWAP1 SUB SWAP1 PUSH0 MSTORE PUSH1 0x20 PUSH0 KECCAK256 ADD PUSH0 SWAP1 SWAP2 SWAP1 SWAP2 SWAP1 SWAP2 PUSH2 0x100 EXP DUP2 SLOAD DUP2 PUSH20 0xFFFFFFFFFFFFFFFFFFFFFFFFFFFFFFFFFFFFFFFF MUL NOT AND SWAP1 DUP4 PUSH20 0xFFFFFFFFFFFFFFFFFFFFFFFFFFFFFFFFFFFFFFFF AND MUL OR SWAP1 SSTORE POP CALLVALUE PUSH1 0x1 PUSH0 CALLER PUSH20 0xFFFFFFFFFFFFFFFFFFFFFFFFFFFFFFFFFFFFFFFF AND PUSH20 0xFFFFFFFFFFFFFFFFFFFFFFFFFFFFFFFFFFFFFFFF AND DUP2 MSTORE PUSH1 0x20 ADD SWAP1 DUP2 MSTORE PUSH1 0x20 ADD PUSH0 KECCAK256 DUP2 SWAP1 SSTORE POP JUMP JUMPDEST PUSH0 PUSH20 0x694AA1769357215DE4FAC081BF1F309ADC325306 PUSH20 0xFFFFFFFFFFFFFFFFFFFFFFFFFFFFFFFFFFFFFFFF AND PUSH4 0x54FD4D50 PUSH1 0x40 MLOAD DUP2 PUSH4 0xFFFFFFFF AND PUSH1 0xE0 SHL DUP2 MSTORE PUSH1 0x4 ADD PUSH1 0x20 PUSH1 0x40 MLOAD DUP1 DUP4 SUB DUP2 DUP7 GAS STATICCALL ISZERO DUP1 ISZERO PUSH2 0x373 JUMPI RETURNDATASIZE PUSH0 DUP1 RETURNDATACOPY RETURNDATASIZE PUSH0 REVERT JUMPDEST POP POP POP POP PUSH1 0x40 MLOAD RETURNDATASIZE PUSH1 0x1F NOT PUSH1 0x1F DUP3 ADD AND DUP3 ADD DUP1 PUSH1 0x40 MSTORE POP DUP2 ADD SWAP1 PUSH2 0x397 SWAP2 SWAP1 PUSH2 0xA4E JUMP JUMPDEST SWAP1 POP SWAP1 JUMP JUMPDEST PUSH32 0x0 PUSH20 0xFFFFFFFFFFFFFFFFFFFFFFFFFFFFFFFFFFFFFFFF AND CALLER PUSH20 0xFFFFFFFFFFFFFFFFFFFFFFFFFFFFFFFFFFFFFFFF AND EQ PUSH2 0x42A JUMPI PUSH1 0x40 MLOAD PUSH32 0x8C379A000000000000000000000000000000000000000000000000000000000 DUP2 MSTORE PUSH1 0x4 ADD PUSH2 0x421 SWAP1 PUSH2 0xAC3 JUMP JUMPDEST PUSH1 0x40 MLOAD DUP1 SWAP2 SUB SWAP1 REVERT JUMPDEST PUSH0 JUMPDEST PUSH0 DUP1 SLOAD SWAP1 POP DUP2 LT ISZERO PUSH2 0x4C6 JUMPI PUSH0 DUP1 DUP3 DUP2 SLOAD DUP2 LT PUSH2 0x44C JUMPI PUSH2 0x44B PUSH2 0xAE1 JUMP JUMPDEST JUMPDEST SWAP1 PUSH0 MSTORE PUSH1 0x20 PUSH0 KECCAK256 ADD PUSH0 SWAP1 SLOAD SWAP1 PUSH2 0x100 EXP SWAP1 DIV PUSH20 0xFFFFFFFFFFFFFFFFFFFFFFFFFFFFFFFFFFFFFFFF AND SWAP1 POP PUSH0 PUSH1 0x1 PUSH0 DUP4 PUSH20 0xFFFFFFFFFFFFFFFFFFFFFFFFFFFFFFFFFFFFFFFF AND PUSH20 0xFFFFFFFFFFFFFFFFFFFFFFFFFFFFFFFFFFFFFFFF AND DUP2 MSTORE PUSH1 0x20 ADD SWAP1 DUP2 MSTORE PUSH1 0x20 ADD PUSH0 KECCAK256 DUP2 SWAP1 SSTORE POP POP DUP1 DUP1 PUSH1 0x1 ADD SWAP2 POP POP PUSH2 0x42C JUMP JUMPDEST POP PUSH0 PUSH8 0xFFFFFFFFFFFFFFFF DUP2 GT ISZERO PUSH2 0x4E1 JUMPI PUSH2 0x4E0 PUSH2 0xB0E JUMP JUMPDEST JUMPDEST PUSH1 0x40 MLOAD SWAP1 DUP1 DUP3 MSTORE DUP1 PUSH1 0x20 MUL PUSH1 0x20 ADD DUP3 ADD PUSH1 0x40 MSTORE DUP1 ISZERO PUSH2 0x50F JUMPI DUP2 PUSH1 0x20 ADD PUSH1 0x20 DUP3 MUL DUP1 CALLDATASIZE DUP4 CALLDATACOPY DUP1 DUP3 ADD SWAP2 POP POP SWAP1 POP JUMPDEST POP PUSH0 SWAP1 DUP1 MLOAD SWAP1 PUSH1 0x20 ADD SWAP1 PUSH2 0x524 SWAP3 SWAP2 SWAP1 PUSH2 0x7E9 JUMP JUMPDEST POP CALLER PUSH20 0xFFFFFFFFFFFFFFFFFFFFFFFFFFFFFFFFFFFFFFFF AND PUSH2 0x8FC SELFBALANCE SWAP1 DUP2 ISZERO MUL SWAP1 PUSH1 0x40 MLOAD PUSH0 PUSH1 0x40 MLOAD DUP1 DUP4 SUB DUP2 DUP6 DUP9 DUP9 CALL SWAP4 POP POP POP POP ISZERO DUP1 ISZERO PUSH2 0x568 JUMPI RETURNDATASIZE PUSH0 DUP1 RETURNDATACOPY RETURNDATASIZE PUSH0 REVERT JUMPDEST POP PUSH0 CALLER PUSH20 0xFFFFFFFFFFFFFFFFFFFFFFFFFFFFFFFFFFFFFFFF AND PUSH2 0x8FC SELFBALANCE SWAP1 DUP2 ISZERO MUL SWAP1 PUSH1 0x40 MLOAD PUSH0 PUSH1 0x40 MLOAD DUP1 DUP4 SUB DUP2 DUP6 DUP9 DUP9 CALL SWAP4 POP POP POP POP SWAP1 POP DUP1 PUSH2 0x5E0 JUMPI PUSH1 0x40 MLOAD PUSH32 0x8C379A000000000000000000000000000000000000000000000000000000000 DUP2 MSTORE PUSH1 0x4 ADD PUSH2 0x5D7 SWAP1 PUSH2 0xB85 JUMP JUMPDEST PUSH1 0x40 MLOAD DUP1 SWAP2 SUB SWAP1 REVERT JUMPDEST PUSH0 CALLER PUSH20 0xFFFFFFFFFFFFFFFFFFFFFFFFFFFFFFFFFFFFFFFF AND SELFBALANCE PUSH1 0x40 MLOAD PUSH2 0x605 SWAP1 PUSH2 0xBD0 JUMP JUMPDEST PUSH0 PUSH1 0x40 MLOAD DUP1 DUP4 SUB DUP2 DUP6 DUP8 GAS CALL SWAP3 POP POP POP RETURNDATASIZE DUP1 PUSH0 DUP2 EQ PUSH2 0x63F JUMPI PUSH1 0x40 MLOAD SWAP2 POP PUSH1 0x1F NOT PUSH1 0x3F RETURNDATASIZE ADD AND DUP3 ADD PUSH1 0x40 MSTORE RETURNDATASIZE DUP3 MSTORE RETURNDATASIZE PUSH0 PUSH1 0x20 DUP5 ADD RETURNDATACOPY PUSH2 0x644 JUMP JUMPDEST PUSH1 0x60 SWAP2 POP JUMPDEST POP POP SWAP1 POP DUP1 PUSH2 0x688 JUMPI PUSH1 0x40 MLOAD PUSH32 0x8C379A000000000000000000000000000000000000000000000000000000000 DUP2 MSTORE PUSH1 0x4 ADD PUSH2 0x67F SWAP1 PUSH2 0xC2E JUMP JUMPDEST PUSH1 0x40 MLOAD DUP1 SWAP2 SUB SWAP1 REVERT JUMPDEST POP POP JUMP JUMPDEST PUSH1 0x1 PUSH1 0x20 MSTORE DUP1 PUSH0 MSTORE PUSH1 0x40 PUSH0 KECCAK256 PUSH0 SWAP2 POP SWAP1 POP SLOAD DUP2 JUMP JUMPDEST PUSH9 0x2B5E3AF16B1880000 DUP2 JUMP JUMPDEST PUSH0 DUP1 PUSH2 0x6B8 PUSH2 0x70A JUMP JUMPDEST SWAP1 POP PUSH0 PUSH8 0xDE0B6B3A7640000 DUP5 DUP4 PUSH2 0x6D0 SWAP2 SWAP1 PUSH2 0xC79 JUMP JUMPDEST PUSH2 0x6DA SWAP2 SWAP1 PUSH2 0xCE7 JUMP JUMPDEST SWAP1 POP DUP1 SWAP3 POP POP POP SWAP2 SWAP1 POP JUMP JUMPDEST PUSH32 0x0 DUP2 JUMP JUMPDEST PUSH0 DUP1 PUSH20 0x694AA1769357215DE4FAC081BF1F309ADC325306 SWAP1 POP PUSH0 DUP2 PUSH20 0xFFFFFFFFFFFFFFFFFFFFFFFFFFFFFFFFFFFFFFFF AND PUSH4 0xFEAF968C PUSH1 0x40 MLOAD DUP2 PUSH4 0xFFFFFFFF AND PUSH1 0xE0 SHL DUP2 MSTORE PUSH1 0x4 ADD PUSH1 0xA0 PUSH1 0x40 MLOAD DUP1 DUP4 SUB DUP2 DUP7 GAS STATICCALL ISZERO DUP1 ISZERO PUSH2 0x76D JUMPI RETURNDATASIZE PUSH0 DUP1 RETURNDATACOPY RETURNDATASIZE PUSH0 REVERT JUMPDEST POP POP POP POP PUSH1 0x40 MLOAD RETURNDATASIZE PUSH1 0x1F NOT PUSH1 0x1F DUP3 ADD AND DUP3 ADD DUP1 PUSH1 0x40 MSTORE POP DUP2 ADD SWAP1 PUSH2 0x791 SWAP2 SWAP1 PUSH2 0xD89 JUMP JUMPDEST POP POP POP SWAP2 POP POP PUSH5 0x2540BE400 DUP2 PUSH2 0x7A8 SWAP2 SWAP1 PUSH2 0xE00 JUMP JUMPDEST SWAP3 POP POP POP SWAP1 JUMP JUMPDEST PUSH0 DUP2 DUP2 SLOAD DUP2 LT PUSH2 0x7BD JUMPI PUSH0 DUP1 REVERT JUMPDEST SWAP1 PUSH0 MSTORE PUSH1 0x20 PUSH0 KECCAK256 ADD PUSH0 SWAP2 POP SLOAD SWAP1 PUSH2 0x100 EXP SWAP1 DIV PUSH20 0xFFFFFFFFFFFFFFFFFFFFFFFFFFFFFFFFFFFFFFFF AND DUP2 JUMP JUMPDEST DUP3 DUP1 SLOAD DUP3 DUP3 SSTORE SWAP1 PUSH0 MSTORE PUSH1 0x20 PUSH0 KECCAK256 SWAP1 DUP2 ADD SWAP3 DUP3 ISZERO PUSH2 0x85F JUMPI SWAP2 PUSH1 0x20 MUL DUP3 ADD JUMPDEST DUP3 DUP2 GT ISZERO PUSH2 0x85E JUMPI DUP3 MLOAD DUP3 PUSH0 PUSH2 0x100 EXP DUP2 SLOAD DUP2 PUSH20 0xFFFFFFFFFFFFFFFFFFFFFFFFFFFFFFFFFFFFFFFF MUL NOT AND SWAP1 DUP4 PUSH20 0xFFFFFFFFFFFFFFFFFFFFFFFFFFFFFFFFFFFFFFFF AND MUL OR SWAP1 SSTORE POP SWAP2 PUSH1 0x20 ADD SWAP2 SWAP1 PUSH1 0x1 ADD SWAP1 PUSH2 0x807 JUMP JUMPDEST JUMPDEST POP SWAP1 POP PUSH2 0x86C SWAP2 SWAP1 PUSH2 0x870 JUMP JUMPDEST POP SWAP1 JUMP JUMPDEST JUMPDEST DUP1 DUP3 GT ISZERO PUSH2 0x887 JUMPI PUSH0 DUP2 PUSH0 SWAP1 SSTORE POP PUSH1 0x1 ADD PUSH2 0x871 JUMP JUMPDEST POP SWAP1 JUMP JUMPDEST PUSH0 DUP2 SWAP1 POP SWAP2 SWAP1 POP JUMP JUMPDEST PUSH2 0x89D DUP2 PUSH2 0x88B JUMP JUMPDEST DUP3 MSTORE POP POP JUMP JUMPDEST PUSH0 PUSH1 0x20 DUP3 ADD SWAP1 POP PUSH2 0x8B6 PUSH0 DUP4 ADD DUP5 PUSH2 0x894 JUMP JUMPDEST SWAP3 SWAP2 POP POP JUMP JUMPDEST PUSH0 DUP1 REVERT JUMPDEST PUSH0 PUSH20 0xFFFFFFFFFFFFFFFFFFFFFFFFFFFFFFFFFFFFFFFF DUP3 AND SWAP1 POP SWAP2 SWAP1 POP JUMP JUMPDEST PUSH0 PUSH2 0x8E9 DUP3 PUSH2 0x8C0 JUMP JUMPDEST SWAP1 POP SWAP2 SWAP1 POP JUMP JUMPDEST PUSH2 0x8F9 DUP2 PUSH2 0x8DF JUMP JUMPDEST DUP2 EQ PUSH2 0x903 JUMPI PUSH0 DUP1 REVERT JUMPDEST POP JUMP JUMPDEST PUSH0 DUP2 CALLDATALOAD SWAP1 POP PUSH2 0x914 DUP2 PUSH2 0x8F0 JUMP JUMPDEST SWAP3 SWAP2 POP POP JUMP JUMPDEST PUSH0 PUSH1 0x20 DUP3 DUP5 SUB SLT ISZERO PUSH2 0x92F JUMPI PUSH2 0x92E PUSH2 0x8BC JUMP JUMPDEST JUMPDEST PUSH0 PUSH2 0x93C DUP5 DUP3 DUP6 ADD PUSH2 0x906 JUMP JUMPDEST SWAP2 POP POP SWAP3 SWAP2 POP POP JUMP JUMPDEST PUSH2 0x94E DUP2 PUSH2 0x88B JUMP JUMPDEST DUP2 EQ PUSH2 0x958 JUMPI PUSH0 DUP1 REVERT JUMPDEST POP JUMP JUMPDEST PUSH0 DUP2 CALLDATALOAD SWAP1 POP PUSH2 0x969 DUP2 PUSH2 0x945 JUMP JUMPDEST SWAP3 SWAP2 POP POP JUMP JUMPDEST PUSH0 PUSH1 0x20 DUP3 DUP5 SUB SLT ISZERO PUSH2 0x984 JUMPI PUSH2 0x983 PUSH2 0x8BC JUMP JUMPDEST JUMPDEST PUSH0 PUSH2 0x991 DUP5 DUP3 DUP6 ADD PUSH2 0x95B JUMP JUMPDEST SWAP2 POP POP SWAP3 SWAP2 POP POP JUMP JUMPDEST PUSH2 0x9A3 DUP2 PUSH2 0x8DF JUMP JUMPDEST DUP3 MSTORE POP POP JUMP JUMPDEST PUSH0 PUSH1 0x20 DUP3 ADD SWAP1 POP PUSH2 0x9BC PUSH0 DUP4 ADD DUP5 PUSH2 0x99A JUMP JUMPDEST SWAP3 SWAP2 POP POP JUMP JUMPDEST PUSH0 DUP3 DUP3 MSTORE PUSH1 0x20 DUP3 ADD SWAP1 POP SWAP3 SWAP2 POP POP JUMP JUMPDEST PUSH32 0x4469646E27742073656E6420656E6F7567682121000000000000000000000000 PUSH0 DUP3 ADD MSTORE POP JUMP JUMPDEST PUSH0 PUSH2 0xA06 PUSH1 0x14 DUP4 PUSH2 0x9C2 JUMP JUMPDEST SWAP2 POP PUSH2 0xA11 DUP3 PUSH2 0x9D2 JUMP JUMPDEST PUSH1 0x20 DUP3 ADD SWAP1 POP SWAP2 SWAP1 POP JUMP JUMPDEST PUSH0 PUSH1 0x20 DUP3 ADD SWAP1 POP DUP2 DUP2 SUB PUSH0 DUP4 ADD MSTORE PUSH2 0xA33 DUP2 PUSH2 0x9FA JUMP JUMPDEST SWAP1 POP SWAP2 SWAP1 POP JUMP JUMPDEST PUSH0 DUP2 MLOAD SWAP1 POP PUSH2 0xA48 DUP2 PUSH2 0x945 JUMP JUMPDEST SWAP3 SWAP2 POP POP JUMP JUMPDEST PUSH0 PUSH1 0x20 DUP3 DUP5 SUB SLT ISZERO PUSH2 0xA63 JUMPI PUSH2 0xA62 PUSH2 0x8BC JUMP JUMPDEST JUMPDEST PUSH0 PUSH2 0xA70 DUP5 DUP3 DUP6 ADD PUSH2 0xA3A JUMP JUMPDEST SWAP2 POP POP SWAP3 SWAP2 POP POP JUMP JUMPDEST PUSH32 0x53656E646572206973204E6F7420746865204F776E6572000000000000000000 PUSH0 DUP3 ADD MSTORE POP JUMP JUMPDEST PUSH0 PUSH2 0xAAD PUSH1 0x17 DUP4 PUSH2 0x9C2 JUMP JUMPDEST SWAP2 POP PUSH2 0xAB8 DUP3 PUSH2 0xA79 JUMP JUMPDEST PUSH1 0x20 DUP3 ADD SWAP1 POP SWAP2 SWAP1 POP JUMP JUMPDEST PUSH0 PUSH1 0x20 DUP3 ADD SWAP1 POP DUP2 DUP2 SUB PUSH0 DUP4 ADD MSTORE PUSH2 0xADA DUP2 PUSH2 0xAA1 JUMP JUMPDEST SWAP1 POP SWAP2 SWAP1 POP JUMP JUMPDEST PUSH32 0x4E487B7100000000000000000000000000000000000000000000000000000000 PUSH0 MSTORE PUSH1 0x32 PUSH1 0x4 MSTORE PUSH1 0x24 PUSH0 REVERT JUMPDEST PUSH32 0x4E487B7100000000000000000000000000000000000000000000000000000000 PUSH0 MSTORE PUSH1 0x41 PUSH1 0x4 MSTORE PUSH1 0x24 PUSH0 REVERT JUMPDEST PUSH32 0x53656E64206661696C6564202100000000000000000000000000000000000000 PUSH0 DUP3 ADD MSTORE POP JUMP JUMPDEST PUSH0 PUSH2 0xB6F PUSH1 0xD DUP4 PUSH2 0x9C2 JUMP JUMPDEST SWAP2 POP PUSH2 0xB7A DUP3 PUSH2 0xB3B JUMP JUMPDEST PUSH1 0x20 DUP3 ADD SWAP1 POP SWAP2 SWAP1 POP JUMP JUMPDEST PUSH0 PUSH1 0x20 DUP3 ADD SWAP1 POP DUP2 DUP2 SUB PUSH0 DUP4 ADD MSTORE PUSH2 0xB9C DUP2 PUSH2 0xB63 JUMP JUMPDEST SWAP1 POP SWAP2 SWAP1 POP JUMP JUMPDEST PUSH0 DUP2 SWAP1 POP SWAP3 SWAP2 POP POP JUMP JUMPDEST POP JUMP JUMPDEST PUSH0 PUSH2 0xBBB PUSH0 DUP4 PUSH2 0xBA3 JUMP JUMPDEST SWAP2 POP PUSH2 0xBC6 DUP3 PUSH2 0xBAD JUMP JUMPDEST PUSH0 DUP3 ADD SWAP1 POP SWAP2 SWAP1 POP JUMP JUMPDEST PUSH0 PUSH2 0xBDA DUP3 PUSH2 0xBB0 JUMP JUMPDEST SWAP2 POP DUP2 SWAP1 POP SWAP2 SWAP1 POP JUMP JUMPDEST PUSH32 0x43616C6C206661696C6564000000000000000000000000000000000000000000 PUSH0 DUP3 ADD MSTORE POP JUMP JUMPDEST PUSH0 PUSH2 0xC18 PUSH1 0xB DUP4 PUSH2 0x9C2 JUMP JUMPDEST SWAP2 POP PUSH2 0xC23 DUP3 PUSH2 0xBE4 JUMP JUMPDEST PUSH1 0x20 DUP3 ADD SWAP1 POP SWAP2 SWAP1 POP JUMP JUMPDEST PUSH0 PUSH1 0x20 DUP3 ADD SWAP1 POP DUP2 DUP2 SUB PUSH0 DUP4 ADD MSTORE PUSH2 0xC45 DUP2 PUSH2 0xC0C JUMP JUMPDEST SWAP1 POP SWAP2 SWAP1 POP JUMP JUMPDEST PUSH32 0x4E487B7100000000000000000000000000000000000000000000000000000000 PUSH0 MSTORE PUSH1 0x11 PUSH1 0x4 MSTORE PUSH1 0x24 PUSH0 REVERT JUMPDEST PUSH0 PUSH2 0xC83 DUP3 PUSH2 0x88B JUMP JUMPDEST SWAP2 POP PUSH2 0xC8E DUP4 PUSH2 0x88B JUMP JUMPDEST SWAP3 POP DUP3 DUP3 MUL PUSH2 0xC9C DUP2 PUSH2 0x88B JUMP JUMPDEST SWAP2 POP DUP3 DUP3 DIV DUP5 EQ DUP4 ISZERO OR PUSH2 0xCB3 JUMPI PUSH2 0xCB2 PUSH2 0xC4C JUMP JUMPDEST JUMPDEST POP SWAP3 SWAP2 POP POP JUMP JUMPDEST PUSH32 0x4E487B7100000000000000000000000000000000000000000000000000000000 PUSH0 MSTORE PUSH1 0x12 PUSH1 0x4 MSTORE PUSH1 0x24 PUSH0 REVERT JUMPDEST PUSH0 PUSH2 0xCF1 DUP3 PUSH2 0x88B JUMP JUMPDEST SWAP2 POP PUSH2 0xCFC DUP4 PUSH2 0x88B JUMP JUMPDEST SWAP3 POP DUP3 PUSH2 0xD0C JUMPI PUSH2 0xD0B PUSH2 0xCBA JUMP JUMPDEST JUMPDEST DUP3 DUP3 DIV SWAP1 POP SWAP3 SWAP2 POP POP JUMP JUMPDEST PUSH0 PUSH10 0xFFFFFFFFFFFFFFFFFFFF DUP3 AND SWAP1 POP SWAP2 SWAP1 POP JUMP JUMPDEST PUSH2 0xD35 DUP2 PUSH2 0xD17 JUMP JUMPDEST DUP2 EQ PUSH2 0xD3F JUMPI PUSH0 DUP1 REVERT JUMPDEST POP JUMP JUMPDEST PUSH0 DUP2 MLOAD SWAP1 POP PUSH2 0xD50 DUP2 PUSH2 0xD2C JUMP JUMPDEST SWAP3 SWAP2 POP POP JUMP JUMPDEST PUSH0 DUP2 SWAP1 POP SWAP2 SWAP1 POP JUMP JUMPDEST PUSH2 0xD68 DUP2 PUSH2 0xD56 JUMP JUMPDEST DUP2 EQ PUSH2 0xD72 JUMPI PUSH0 DUP1 REVERT JUMPDEST POP JUMP JUMPDEST PUSH0 DUP2 MLOAD SWAP1 POP PUSH2 0xD83 DUP2 PUSH2 0xD5F JUMP JUMPDEST SWAP3 SWAP2 POP POP JUMP JUMPDEST PUSH0 DUP1 PUSH0 DUP1 PUSH0 PUSH1 0xA0 DUP7 DUP9 SUB SLT ISZERO PUSH2 0xDA2 JUMPI PUSH2 0xDA1 PUSH2 0x8BC JUMP JUMPDEST JUMPDEST PUSH0 PUSH2 0xDAF DUP9 DUP3 DUP10 ADD PUSH2 0xD42 JUMP JUMPDEST SWAP6 POP POP PUSH1 0x20 PUSH2 0xDC0 DUP9 DUP3 DUP10 ADD PUSH2 0xD75 JUMP JUMPDEST SWAP5 POP POP PUSH1 0x40 PUSH2 0xDD1 DUP9 DUP3 DUP10 ADD PUSH2 0xA3A JUMP JUMPDEST SWAP4 POP POP PUSH1 0x60 PUSH2 0xDE2 DUP9 DUP3 DUP10 ADD PUSH2 0xA3A JUMP JUMPDEST SWAP3 POP POP PUSH1 0x80 PUSH2 0xDF3 DUP9 DUP3 DUP10 ADD PUSH2 0xD42 JUMP JUMPDEST SWAP2 POP POP SWAP3 SWAP6 POP SWAP3 SWAP6 SWAP1 SWAP4 POP JUMP JUMPDEST PUSH0 PUSH2 0xE0A DUP3 PUSH2 0xD56 JUMP JUMPDEST SWAP2 POP PUSH2 0xE15 DUP4 PUSH2 0xD56 JUMP JUMPDEST SWAP3 POP DUP3 DUP3 MUL PUSH2 0xE23 DUP2 PUSH2 0xD56 JUMP JUMPDEST SWAP2 POP PUSH32 0x8000000000000000000000000000000000000000000000000000000000000000 DUP5 EQ PUSH0 DUP5 SLT AND ISZERO PUSH2 0xE5A JUMPI PUSH2 0xE59 PUSH2 0xC4C JUMP JUMPDEST JUMPDEST DUP3 DUP3 SDIV DUP5 EQ DUP4 ISZERO OR PUSH2 0xE6F JUMPI PUSH2 0xE6E PUSH2 0xC4C JUMP JUMPDEST JUMPDEST POP SWAP3 SWAP2 POP POP JUMP INVALID LOG2 PUSH5 0x6970667358 0x22 SLT KECCAK256 0xE8 SHL DIV 0xB9 PUSH26 0x6DDA11B574BF673866102F4F8B2F44E7466A23A8ADF714797ADB PUSH27 0x64736F6C6343000816003300000000000000000000000000000000 "
				},
				"gasEstimates": {
					"creation": {
						"codeDepositCost": "751200",
						"executionCost": "infinite",
						"totalCost": "infinite"
					},
					"external": {
						"": "infinite",
						"MINIMUM_USD()": "392",
						"addressToAmountFunded(address)": "2847",
						"fund()": "infinite",
						"funders(uint256)": "5031",
						"getConversionRate(uint256)": "infinite",
						"getPrice()": "infinite",
						"getVersion()": "infinite",
						"owner()": "infinite",
						"withdraw()": "infinite"
					}
				},
				"methodIdentifiers": {
					"MINIMUM_USD()": "6b69a592",
					"addressToAmountFunded(address)": "3e47d6f3",
					"fund()": "b60d4288",
					"funders(uint256)": "dc0d3dff",
					"getConversionRate(uint256)": "6e5b6b28",
					"getPrice()": "98d5fdca",
					"getVersion()": "0d8e6e2c",
					"owner()": "8da5cb5b",
					"withdraw()": "3ccfd60b"
				}
			},
			"storageLayout": {
				"storage": [
					{
						"astId": 58,
						"contract": "contracts/07_FundMe.sol:FundMe",
						"label": "funders",
						"offset": 0,
						"slot": "0",
						"type": "t_array(t_address)dyn_storage"
					},
					{
						"astId": 62,
						"contract": "contracts/07_FundMe.sol:FundMe",
						"label": "addressToAmountFunded",
						"offset": 0,
						"slot": "1",
						"type": "t_mapping(t_address,t_uint256)"
					}
				],
				"types": {
					"t_address": {
						"encoding": "inplace",
						"label": "address",
						"numberOfBytes": "20"
					},
					"t_array(t_address)dyn_storage": {
						"base": "t_address",
						"encoding": "dynamic_array",
						"label": "address[]",
						"numberOfBytes": "32"
					},
					"t_mapping(t_address,t_uint256)": {
						"encoding": "mapping",
						"key": "t_address",
						"label": "mapping(address => uint256)",
						"numberOfBytes": "32",
						"value": "t_uint256"
					},
					"t_uint256": {
						"encoding": "inplace",
						"label": "uint256",
						"numberOfBytes": "32"
					}
				}
			},
			"userdoc": {
				"kind": "user",
				"methods": {},
				"version": 1
			}
		}
	}
}